{
  "contractName": "DataTest",
  "abi": [
    {
      "inputs": [],
      "payable": false,
      "stateMutability": "nonpayable",
      "type": "constructor"
    },
    {
      "anonymous": false,
      "inputs": [
        {
          "indexed": true,
          "internalType": "uint256",
          "name": "idProduct",
          "type": "uint256"
        }
      ],
      "name": "TriggerAddProduct",
      "type": "event"
    },
    {
      "constant": true,
      "inputs": [
        {
          "internalType": "address",
          "name": "",
          "type": "address"
        }
      ],
      "name": "ownerToUser",
      "outputs": [
        {
          "internalType": "uint256",
          "name": "userId",
          "type": "uint256"
        },
        {
          "internalType": "string",
          "name": "userName",
          "type": "string"
        },
        {
          "internalType": "string",
          "name": "userMail",
          "type": "string"
        },
        {
          "internalType": "enum DataTest.Role",
          "name": "role",
          "type": "uint8"
        },
        {
          "internalType": "bool",
          "name": "isExist",
          "type": "bool"
        }
      ],
      "payable": false,
      "stateMutability": "view",
      "type": "function"
    },
    {
      "constant": true,
      "inputs": [
        {
          "internalType": "uint256",
          "name": "",
          "type": "uint256"
        }
      ],
      "name": "productCodeToNutriments",
      "outputs": [
        {
          "internalType": "string",
          "name": "energy",
          "type": "string"
        },
        {
          "internalType": "string",
          "name": "energy_kcal",
          "type": "string"
        },
        {
          "internalType": "string",
          "name": "proteines",
          "type": "string"
        },
        {
          "internalType": "string",
          "name": "carbohydrates",
          "type": "string"
        },
        {
          "internalType": "string",
          "name": "salt",
          "type": "string"
        },
        {
          "internalType": "string",
          "name": "sugars",
          "type": "string"
        },
        {
          "internalType": "string",
          "name": "fat",
          "type": "string"
        },
        {
          "internalType": "string",
          "name": "saturated_fat",
          "type": "string"
        },
        {
          "internalType": "string",
          "name": "fiber",
          "type": "string"
        },
        {
          "internalType": "string",
          "name": "sodium",
          "type": "string"
        }
      ],
      "payable": false,
      "stateMutability": "view",
      "type": "function"
    },
    {
      "constant": true,
      "inputs": [
        {
          "internalType": "uint256",
          "name": "",
          "type": "uint256"
        }
      ],
      "name": "productCodeToProduct",
      "outputs": [
        {
          "internalType": "string",
          "name": "productName",
          "type": "string"
        },
        {
          "internalType": "address",
          "name": "productProposerAddress",
          "type": "address"
        },
        {
          "internalType": "uint256",
          "name": "nutrimentsId",
          "type": "uint256"
        },
        {
          "internalType": "string",
          "name": "quantity",
          "type": "string"
        },
        {
          "internalType": "string",
          "name": "typeOfProduct",
          "type": "string"
        },
        {
          "internalType": "uint256",
          "name": "totalVotes",
          "type": "uint256"
        },
        {
          "internalType": "uint256",
          "name": "forVotes",
          "type": "uint256"
        },
        {
          "internalType": "uint256",
          "name": "againstVotes",
          "type": "uint256"
        },
        {
          "internalType": "uint256",
          "name": "created_t",
          "type": "uint256"
        },
        {
          "internalType": "bytes32",
          "name": "hash",
          "type": "bytes32"
        },
        {
          "internalType": "bool",
          "name": "isValidated",
          "type": "bool"
        },
        {
          "internalType": "bool",
          "name": "isExist",
          "type": "bool"
        }
      ],
      "payable": false,
      "stateMutability": "view",
      "type": "function"
    },
    {
      "constant": true,
      "inputs": [
        {
          "internalType": "uint256",
          "name": "",
          "type": "uint256"
        }
      ],
      "name": "productCodeToProposalProduct",
      "outputs": [
        {
          "internalType": "string",
          "name": "productName",
          "type": "string"
        },
        {
          "internalType": "address",
          "name": "productProposerAddress",
          "type": "address"
        },
        {
          "internalType": "uint256",
          "name": "nutrimentsId",
          "type": "uint256"
        },
        {
          "internalType": "string",
          "name": "quantity",
          "type": "string"
        },
        {
          "internalType": "string",
          "name": "typeOfProduct",
          "type": "string"
        },
        {
          "internalType": "uint256",
          "name": "totalVotes",
          "type": "uint256"
        },
        {
          "internalType": "uint256",
          "name": "forVotes",
          "type": "uint256"
        },
        {
          "internalType": "uint256",
          "name": "againstVotes",
          "type": "uint256"
        },
        {
          "internalType": "uint256",
          "name": "created_t",
          "type": "uint256"
        },
        {
          "internalType": "bytes32",
          "name": "hash",
          "type": "bytes32"
        },
        {
          "internalType": "bool",
          "name": "isValidated",
          "type": "bool"
        },
        {
          "internalType": "bool",
          "name": "isExist",
          "type": "bool"
        }
      ],
      "payable": false,
      "stateMutability": "view",
      "type": "function"
    },
    {
      "constant": false,
      "inputs": [
        {
          "internalType": "uint256",
          "name": "_productCode",
          "type": "uint256"
        },
        {
          "internalType": "string",
          "name": "_productName",
          "type": "string"
        },
        {
          "internalType": "string[]",
          "name": "_labels",
          "type": "string[]"
        },
        {
          "internalType": "string[]",
          "name": "_ingredients",
          "type": "string[]"
        },
        {
          "internalType": "string",
          "name": "_quantity",
          "type": "string"
        },
        {
          "internalType": "string",
          "name": "_typeOfProduct",
          "type": "string"
        },
        {
          "internalType": "string[]",
          "name": "_packaging",
          "type": "string[]"
        },
        {
          "components": [
            {
              "internalType": "string",
              "name": "energy",
              "type": "string"
            },
            {
              "internalType": "string",
              "name": "energy_kcal",
              "type": "string"
            },
            {
              "internalType": "string",
              "name": "proteines",
              "type": "string"
            },
            {
              "internalType": "string",
              "name": "carbohydrates",
              "type": "string"
            },
            {
              "internalType": "string",
              "name": "salt",
              "type": "string"
            },
            {
              "internalType": "string",
              "name": "sugars",
              "type": "string"
            },
            {
              "internalType": "string",
              "name": "fat",
              "type": "string"
            },
            {
              "internalType": "string",
              "name": "saturated_fat",
              "type": "string"
            },
            {
              "internalType": "string",
              "name": "fiber",
              "type": "string"
            },
            {
              "internalType": "string",
              "name": "sodium",
              "type": "string"
            }
          ],
          "internalType": "struct DataTest.Nutriments",
          "name": "_nutriments",
          "type": "tuple"
        }
      ],
      "name": "addProductToProposal",
      "outputs": [],
      "payable": false,
      "stateMutability": "nonpayable",
      "type": "function"
    },
    {
      "constant": true,
      "inputs": [],
      "name": "getRole",
      "outputs": [
        {
          "internalType": "enum DataTest.Role",
          "name": "",
          "type": "uint8"
        }
      ],
      "payable": false,
      "stateMutability": "view",
      "type": "function"
    },
    {
      "constant": true,
      "inputs": [
        {
          "internalType": "uint256",
          "name": "_productCode",
          "type": "uint256"
        }
      ],
      "name": "checkProductIsNew",
      "outputs": [
        {
          "internalType": "bool",
          "name": "",
          "type": "bool"
        }
      ],
      "payable": false,
      "stateMutability": "view",
      "type": "function"
    }
  ],
  "bytecode": "0x60806040523480156200001157600080fd5b50336000806101000a81548173ffffffffffffffffffffffffffffffffffffffff021916908373ffffffffffffffffffffffffffffffffffffffff1602179055506040518060a0016040528060015481526020016040518060400160405280601181526020017f464142524949494949494949494949434500000000000000000000000000000081525081526020016040518060400160405280600b81526020017f796f697040796f702e66720000000000000000000000000000000000000000008152508152602001600280811115620000e857fe5b815260200160011515815250600260008060009054906101000a900473ffffffffffffffffffffffffffffffffffffffff1673ffffffffffffffffffffffffffffffffffffffff1673ffffffffffffffffffffffffffffffffffffffff1681526020019081526020016000206000820151816000015560208201518160010190805190602001906200017c929190620001ef565b5060408201518160020190805190602001906200019b929190620001ef565b5060608201518160030160006101000a81548160ff02191690836002811115620001c157fe5b021790555060808201518160030160016101000a81548160ff0219169083151502179055509050506200029e565b828054600181600116156101000203166002900490600052602060002090601f016020900481019282601f106200023257805160ff191683800117855562000263565b8280016001018555821562000263579182015b828111156200026257825182559160200191906001019062000245565b5b50905062000272919062000276565b5090565b6200029b91905b80821115620002975760008160009055506001016200027d565b5090565b90565b611fc480620002ae6000396000f3fe608060405234801561001057600080fd5b506004361061007d5760003560e01c8063a62f867c1161005b578063a62f867c1461012a578063d54d6c7014610146578063eafc9df314610181578063fde08174146101b15761007d565b80630574d8081461008257806361ef3c15146100bb57806399fabed6146100f6575b600080fd5b61009c600480360361009791908101906118ab565b6101cf565b6040516100b29a99989796959493929190611c34565b60405180910390f35b6100d560048036036100d091908101906118ab565b610813565b6040516100ed9c9b9a99989796959493929190611b65565b60405180910390f35b610110600480360361010b9190810190611882565b610a75565b604051610121959493929190611d16565b60405180910390f35b610144600480360361013f91908101906118d4565b610bf5565b005b610160600480360361015b91908101906118ab565b611015565b6040516101789c9b9a99989796959493929190611b65565b60405180910390f35b61019b600480360361019691908101906118ab565b611277565b6040516101a89190611b2f565b60405180910390f35b6101b96112f7565b6040516101c69190611b4a565b60405180910390f35b6005602052806000526040600020600091509050806000018054600181600116156101000203166002900480601f01602080910402602001604051908101604052809291908181526020018280546001816001161561010002031660029004801561027b5780601f106102505761010080835404028352916020019161027b565b820191906000526020600020905b81548152906001019060200180831161025e57829003601f168201915b505050505090806001018054600181600116156101000203166002900480601f0160208091040260200160405190810160405280929190818152602001828054600181600116156101000203166002900480156103195780601f106102ee57610100808354040283529160200191610319565b820191906000526020600020905b8154815290600101906020018083116102fc57829003601f168201915b505050505090806002018054600181600116156101000203166002900480601f0160208091040260200160405190810160405280929190818152602001828054600181600116156101000203166002900480156103b75780601f1061038c576101008083540402835291602001916103b7565b820191906000526020600020905b81548152906001019060200180831161039a57829003601f168201915b505050505090806003018054600181600116156101000203166002900480601f0160208091040260200160405190810160405280929190818152602001828054600181600116156101000203166002900480156104555780601f1061042a57610100808354040283529160200191610455565b820191906000526020600020905b81548152906001019060200180831161043857829003601f168201915b505050505090806004018054600181600116156101000203166002900480601f0160208091040260200160405190810160405280929190818152602001828054600181600116156101000203166002900480156104f35780601f106104c8576101008083540402835291602001916104f3565b820191906000526020600020905b8154815290600101906020018083116104d657829003601f168201915b505050505090806005018054600181600116156101000203166002900480601f0160208091040260200160405190810160405280929190818152602001828054600181600116156101000203166002900480156105915780601f1061056657610100808354040283529160200191610591565b820191906000526020600020905b81548152906001019060200180831161057457829003601f168201915b505050505090806006018054600181600116156101000203166002900480601f01602080910402602001604051908101604052809291908181526020018280546001816001161561010002031660029004801561062f5780601f106106045761010080835404028352916020019161062f565b820191906000526020600020905b81548152906001019060200180831161061257829003601f168201915b505050505090806007018054600181600116156101000203166002900480601f0160208091040260200160405190810160405280929190818152602001828054600181600116156101000203166002900480156106cd5780601f106106a2576101008083540402835291602001916106cd565b820191906000526020600020905b8154815290600101906020018083116106b057829003601f168201915b505050505090806008018054600181600116156101000203166002900480601f01602080910402602001604051908101604052809291908181526020018280546001816001161561010002031660029004801561076b5780601f106107405761010080835404028352916020019161076b565b820191906000526020600020905b81548152906001019060200180831161074e57829003601f168201915b505050505090806009018054600181600116156101000203166002900480601f0160208091040260200160405190810160405280929190818152602001828054600181600116156101000203166002900480156108095780601f106107de57610100808354040283529160200191610809565b820191906000526020600020905b8154815290600101906020018083116107ec57829003601f168201915b505050505090508a565b6004602052806000526040600020600091509050806000018054600181600116156101000203166002900480601f0160208091040260200160405190810160405280929190818152602001828054600181600116156101000203166002900480156108bf5780601f10610894576101008083540402835291602001916108bf565b820191906000526020600020905b8154815290600101906020018083116108a257829003601f168201915b5050505050908060010160009054906101000a900473ffffffffffffffffffffffffffffffffffffffff1690806003015490806005018054600181600116156101000203166002900480601f0160208091040260200160405190810160405280929190818152602001828054600181600116156101000203166002900480156109895780601f1061095e57610100808354040283529160200191610989565b820191906000526020600020905b81548152906001019060200180831161096c57829003601f168201915b505050505090806006018054600181600116156101000203166002900480601f016020809104026020016040519081016040528092919081815260200182805460018160011615610100020316600290048015610a275780601f106109fc57610100808354040283529160200191610a27565b820191906000526020600020905b815481529060010190602001808311610a0a57829003601f168201915b50505050509080600801549080600901549080600a01549080600b01549080600c01549080600d0160009054906101000a900460ff169080600d0160019054906101000a900460ff1690508c565b6002602052806000526040600020600091509050806000015490806001018054600181600116156101000203166002900480601f016020809104026020016040519081016040528092919081815260200182805460018160011615610100020316600290048015610b275780601f10610afc57610100808354040283529160200191610b27565b820191906000526020600020905b815481529060010190602001808311610b0a57829003601f168201915b505050505090806002018054600181600116156101000203166002900480601f016020809104026020016040519081016040528092919081815260200182805460018160011615610100020316600290048015610bc55780601f10610b9a57610100808354040283529160200191610bc5565b820191906000526020600020905b815481529060010190602001808311610ba857829003601f168201915b5050505050908060030160009054906101000a900460ff16908060030160019054906101000a900460ff16905085565b60046000898152602001908152602001600020600d0160019054906101000a900460ff1615610c2357600080fd5b610c2b61134e565b87816000018190525033816020019073ffffffffffffffffffffffffffffffffffffffff16908173ffffffffffffffffffffffffffffffffffffffff1681525050868160400181905250858160800181905250848160a00181905250838160c00181905250828160e001819052506000816101a00190151590811515815250506001816101c001901515908115158152505042816101600181815250508881606001818152505081600560008b81526020019081526020016000206000820151816000019080519060200190610d029291906113e1565b506020820151816001019080519060200190610d1f9291906113e1565b506040820151816002019080519060200190610d3c9291906113e1565b506060820151816003019080519060200190610d599291906113e1565b506080820151816004019080519060200190610d769291906113e1565b5060a0820151816005019080519060200190610d939291906113e1565b5060c0820151816006019080519060200190610db09291906113e1565b5060e0820151816007019080519060200190610dcd9291906113e1565b50610100820151816008019080519060200190610deb9291906113e1565b50610120820151816009019080519060200190610e099291906113e1565b5090505080600360008b81526020019081526020016000206000820151816000019080519060200190610e3d9291906113e1565b5060208201518160010160006101000a81548173ffffffffffffffffffffffffffffffffffffffff021916908373ffffffffffffffffffffffffffffffffffffffff1602179055506040820151816002019080519060200190610ea1929190611461565b50606082015181600301556080820151816004019080519060200190610ec8929190611461565b5060a0820151816005019080519060200190610ee59291906113e1565b5060c0820151816006019080519060200190610f029291906113e1565b5060e0820151816007019080519060200190610f1f929190611461565b506101008201518160080155610120820151816009015561014082015181600a015561016082015181600b015561018082015181600c01556101a082015181600d0160006101000a81548160ff0219169083151502179055506101c082015181600d0160016101000a81548160ff021916908315150217905550905050806000015181602001518260a00151604051602001610fbd93929190611afa565b6040516020818303038152906040528051906020012081610180018181525050887f62d016d4371415f3ad23ef71ccf53e281dea50c5b60ac3cce1b1ec9eb45226cc60405160405180910390a2505050505050505050565b6003602052806000526040600020600091509050806000018054600181600116156101000203166002900480601f0160208091040260200160405190810160405280929190818152602001828054600181600116156101000203166002900480156110c15780601f10611096576101008083540402835291602001916110c1565b820191906000526020600020905b8154815290600101906020018083116110a457829003601f168201915b5050505050908060010160009054906101000a900473ffffffffffffffffffffffffffffffffffffffff1690806003015490806005018054600181600116156101000203166002900480601f01602080910402602001604051908101604052809291908181526020018280546001816001161561010002031660029004801561118b5780601f106111605761010080835404028352916020019161118b565b820191906000526020600020905b81548152906001019060200180831161116e57829003601f168201915b505050505090806006018054600181600116156101000203166002900480601f0160208091040260200160405190810160405280929190818152602001828054600181600116156101000203166002900480156112295780601f106111fe57610100808354040283529160200191611229565b820191906000526020600020905b81548152906001019060200180831161120c57829003601f168201915b50505050509080600801549080600901549080600a01549080600b01549080600c01549080600d0160009054906101000a900460ff169080600d0160019054906101000a900460ff1690508c565b600081650102b36211c7811161128c57600080fd5b60036000848152602001908152602001600020600d0160019054906101000a900460ff161580156112de575060046000848152602001908152602001600020600d0160019054906101000a900460ff16155b156112ec57600191506112f1565b600091505b50919050565b6000600260003373ffffffffffffffffffffffffffffffffffffffff1673ffffffffffffffffffffffffffffffffffffffff16815260200190815260200160002060030160009054906101000a900460ff16905090565b604051806101e0016040528060608152602001600073ffffffffffffffffffffffffffffffffffffffff16815260200160608152602001600081526020016060815260200160608152602001606081526020016060815260200160008152602001600081526020016000815260200160008152602001600080191681526020016000151581526020016000151581525090565b828054600181600116156101000203166002900490600052602060002090601f016020900481019282601f1061142257805160ff1916838001178555611450565b82800160010185558215611450579182015b8281111561144f578251825591602001919060010190611434565b5b50905061145d91906114c1565b5090565b8280548282559060005260206000209081019282156114b0579160200282015b828111156114af57825182908051906020019061149f9291906113e1565b5091602001919060010190611481565b5b5090506114bd91906114e6565b5090565b6114e391905b808211156114df5760008160009055506001016114c7565b5090565b90565b61150f91905b8082111561150b57600081816115029190611512565b506001016114ec565b5090565b90565b50805460018160011615610100020316600290046000825580601f106115385750611557565b601f01602090049060005260206000209081019061155691906114c1565b5b50565b60008135905061156981611f53565b92915050565b600082601f83011261158057600080fd5b813561159361158e82611da4565b611d77565b9150818183526020840193506020810190508360005b838110156115d957813586016115bf88826115e3565b8452602084019350602083019250506001810190506115a9565b5050505092915050565b600082601f8301126115f457600080fd5b813561160761160282611dcc565b611d77565b9150808252602083016020830185838301111561162357600080fd5b61162e838284611ec2565b50505092915050565b600082601f83011261164857600080fd5b813561165b61165682611df8565b611d77565b9150808252602083016020830185838301111561167757600080fd5b611682838284611ec2565b50505092915050565b6000610140828403121561169e57600080fd5b6116a9610140611d77565b9050600082013567ffffffffffffffff8111156116c557600080fd5b6116d1848285016115e3565b600083015250602082013567ffffffffffffffff8111156116f157600080fd5b6116fd848285016115e3565b602083015250604082013567ffffffffffffffff81111561171d57600080fd5b611729848285016115e3565b604083015250606082013567ffffffffffffffff81111561174957600080fd5b611755848285016115e3565b606083015250608082013567ffffffffffffffff81111561177557600080fd5b611781848285016115e3565b60808301525060a082013567ffffffffffffffff8111156117a157600080fd5b6117ad848285016115e3565b60a08301525060c082013567ffffffffffffffff8111156117cd57600080fd5b6117d9848285016115e3565b60c08301525060e082013567ffffffffffffffff8111156117f957600080fd5b611805848285016115e3565b60e08301525061010082013567ffffffffffffffff81111561182657600080fd5b611832848285016115e3565b6101008301525061012082013567ffffffffffffffff81111561185457600080fd5b611860848285016115e3565b6101208301525092915050565b60008135905061187c81611f6a565b92915050565b60006020828403121561189457600080fd5b60006118a28482850161155a565b91505092915050565b6000602082840312156118bd57600080fd5b60006118cb8482850161186d565b91505092915050565b600080600080600080600080610100898b0312156118f157600080fd5b60006118ff8b828c0161186d565b985050602089013567ffffffffffffffff81111561191c57600080fd5b6119288b828c01611637565b975050604089013567ffffffffffffffff81111561194557600080fd5b6119518b828c0161156f565b965050606089013567ffffffffffffffff81111561196e57600080fd5b61197a8b828c0161156f565b955050608089013567ffffffffffffffff81111561199757600080fd5b6119a38b828c01611637565b94505060a089013567ffffffffffffffff8111156119c057600080fd5b6119cc8b828c01611637565b93505060c089013567ffffffffffffffff8111156119e957600080fd5b6119f58b828c0161156f565b92505060e089013567ffffffffffffffff811115611a1257600080fd5b611a1e8b828c0161168b565b9150509295985092959890939650565b611a3781611e4b565b82525050565b611a4e611a4982611e4b565b611f04565b82525050565b611a5d81611e5d565b82525050565b611a6c81611e69565b82525050565b611a7b81611eb0565b82525050565b6000611a8c82611e24565b611a968185611e2f565b9350611aa6818560208601611ed1565b611aaf81611f28565b840191505092915050565b6000611ac582611e24565b611acf8185611e40565b9350611adf818560208601611ed1565b80840191505092915050565b611af481611ea6565b82525050565b6000611b068286611aba565b9150611b128285611a3d565b601482019150611b228284611aba565b9150819050949350505050565b6000602082019050611b446000830184611a54565b92915050565b6000602082019050611b5f6000830184611a72565b92915050565b6000610180820190508181036000830152611b80818f611a81565b9050611b8f602083018e611a2e565b611b9c604083018d611aeb565b8181036060830152611bae818c611a81565b90508181036080830152611bc2818b611a81565b9050611bd160a083018a611aeb565b611bde60c0830189611aeb565b611beb60e0830188611aeb565b611bf9610100830187611aeb565b611c07610120830186611a63565b611c15610140830185611a54565b611c23610160830184611a54565b9d9c50505050505050505050505050565b6000610140820190508181036000830152611c4f818d611a81565b90508181036020830152611c63818c611a81565b90508181036040830152611c77818b611a81565b90508181036060830152611c8b818a611a81565b90508181036080830152611c9f8189611a81565b905081810360a0830152611cb38188611a81565b905081810360c0830152611cc78187611a81565b905081810360e0830152611cdb8186611a81565b9050818103610100830152611cf08185611a81565b9050818103610120830152611d058184611a81565b90509b9a5050505050505050505050565b600060a082019050611d2b6000830188611aeb565b8181036020830152611d3d8187611a81565b90508181036040830152611d518186611a81565b9050611d606060830185611a72565b611d6d6080830184611a54565b9695505050505050565b6000604051905081810181811067ffffffffffffffff82111715611d9a57600080fd5b8060405250919050565b600067ffffffffffffffff821115611dbb57600080fd5b602082029050602081019050919050565b600067ffffffffffffffff821115611de357600080fd5b601f19601f8301169050602081019050919050565b600067ffffffffffffffff821115611e0f57600080fd5b601f19601f8301169050602081019050919050565b600081519050919050565b600082825260208201905092915050565b600081905092915050565b6000611e5682611e86565b9050919050565b60008115159050919050565b6000819050919050565b6000819050611e8182611f46565b919050565b600073ffffffffffffffffffffffffffffffffffffffff82169050919050565b6000819050919050565b6000611ebb82611e73565b9050919050565b82818337600083830152505050565b60005b83811015611eef578082015181840152602081019050611ed4565b83811115611efe576000848401525b50505050565b6000611f0f82611f16565b9050919050565b6000611f2182611f39565b9050919050565b6000601f19601f8301169050919050565b60008160601b9050919050565b60038110611f5057fe5b50565b611f5c81611e4b565b8114611f6757600080fd5b50565b611f7381611ea6565b8114611f7e57600080fd5b5056fea365627a7a72315820759e7159e40bb1b313e5240089e92f57917148e85818f75ccc8cb24ba5fa80e36c6578706572696d656e74616cf564736f6c63430005100040",
  "source": "pragma solidity 0.5.16;\r\npragma experimental ABIEncoderV2;\r\n\r\n\r\n\r\n/**\r\n @title DataLabelChain contract\r\n @author Fabrice Tapia\r\n @dev Contract which is a part of the Alyra's Final Project : Eat Healthy LabelChain\r\n */\r\n\r\ncontract DataTest {\r\n\r\n  enum Role {CUSTOMER, SELLER, ADMIN}\r\n  struct User{\r\n    uint userId;\r\n    string userName;\r\n    string userMail;\r\n    Role role;\r\n    bool isExist;\r\n  }\r\n\r\n  struct Product{\r\n    // uint productId;\r\n    // uint productCode;\r\n    string productName;\r\n    address productProposerAddress;\r\n    string[] labels;\r\n    uint nutrimentsId;\r\n    string[] ingredients;\r\n    string quantity;\r\n    string typeOfProduct;\r\n    string[] packaging;\r\n    uint totalVotes;\r\n    uint forVotes;\r\n    uint againstVotes;\r\n    uint created_t;\r\n    bytes32 hash;\r\n    bool isValidated;\r\n    bool isExist;\r\n  }\r\n\r\n  struct Nutriments {\r\n    string energy;\r\n    string energy_kcal;\r\n    string proteines;\r\n    string carbohydrates;\r\n    string salt;\r\n    string sugars;\r\n    string fat;\r\n    string saturated_fat;\r\n    string fiber;\r\n    string sodium;\r\n  }\r\n\r\n  address private _owner;\r\n\r\n  uint uniqueIdUser;\r\n\r\n  mapping(address => User) public ownerToUser;\r\n\r\n  mapping(uint => Product) public productCodeToProposalProduct;\r\n\r\n  mapping(uint => Product) public productCodeToProduct;\r\n\r\n  mapping(uint => Nutriments) public productCodeToNutriments;\r\n\r\n  event TriggerAddProduct(uint indexed idProduct);\r\n\r\n  constructor() public {\r\n    _owner = msg.sender;\r\n    ownerToUser[_owner] = User(uniqueIdUser, \"FABRIIIIIIIIIIICE\", \"yoip@yop.fr\", Role.ADMIN, true);\r\n  }\r\n\r\n//  modifier checkProductIsNew (uint productCode) {\r\n//    require(!productCodeToProduct[productCode].isExist);\r\n//    _;\r\n//  }\r\n//\r\n//\r\n//  modifier checkProductProposalIsNew (uint productCode) {\r\n//    require(!productCodeToProduct[productCode].isExist);\r\n//    _;\r\n//  }\r\n\r\n  modifier checkLengthGS1 (uint productCode){\r\n    require(productCode > 1111111111111);\r\n    _;\r\n  }\r\n/*\r\n  function getProduct(uint productCode) view public returns(Product){\r\n    return productCodeToProduct[productCode];\r\n  }*/\r\n\r\n\r\n  function addProductToProposal(\r\n    uint _productCode,\r\n    string memory _productName,\r\n    string[] memory _labels,\r\n    string[] memory _ingredients,\r\n    string memory _quantity,\r\n    string memory _typeOfProduct,\r\n    string[] memory _packaging,\r\n    Nutriments memory _nutriments\r\n\r\n  ) public {\r\n    require(!productCodeToProduct[_productCode].isExist);\r\n    Product memory _product;\r\n   // _product.productCode = _productCode;\r\n    _product.productName = _productName;\r\n    _product.productProposerAddress = msg.sender;\r\n    _product.labels = _labels;\r\n    _product.ingredients = _ingredients;\r\n    _product.quantity = _quantity;\r\n    _product.typeOfProduct = _typeOfProduct;\r\n    _product.packaging = _packaging;\r\n    _product.isValidated = false;\r\n    _product.isExist = true;\r\n    _product.created_t = now;\r\n    _product.nutrimentsId = _productCode;\r\n    productCodeToNutriments[_productCode] = _nutriments;\r\n    productCodeToProposalProduct[_productCode] = _product;\r\n    _product.hash = keccak256(abi.encodePacked(_product.productName,_product.productProposerAddress, _product.quantity));\r\n    emit TriggerAddProduct(_productCode);\r\n    // keccak256(abi.encodePacked(_productCode,_productName,msg.sender,_labels,_ingredients,_nutriments,_quantity,_typeOfProduct,_packaging))\r\n  }\r\n\r\n  function getRole() public view returns (Role) {\r\n    return ownerToUser[msg.sender].role;\r\n  }\r\n\r\n\r\n  // To add a product in proposal, we need to check if the product doesn't already exist in mappings of products\r\n  function checkProductIsNew (uint _productCode) public view checkLengthGS1(_productCode) returns (bool) {\r\n    if(!productCodeToProposalProduct[_productCode].isExist && !productCodeToProduct[_productCode].isExist){\r\n      return true;\r\n    }else{\r\n      return false;\r\n    }\r\n  }\r\n}\r\n",
  "sourcePath": "C:\\Users\\Fabrice\\Desktop\\Project_EatHealthyLabelChain\\EatHealthyLabelChain\\contracts\\dataTest.sol",
  "compiler": {
    "name": "solc",
    "version": "0.5.16+commit.9c3226ce.Emscripten.clang"
  },
  "schemaVersion": "3.2.0",
  "updatedAt": "2020-07-01T19:29:24.475Z",
  "devdoc": {
    "author": "Fabrice Tapia",
    "details": "Contract which is a part of the Alyra's Final Project : Eat Healthy LabelChain",
    "methods": {},
    "title": "DataLabelChain contract"
  },
  "userdoc": {
    "methods": {}
  }
}