{
  "contractName": "DataTest",
  "abi": [
    {
      "inputs": [],
      "payable": false,
      "stateMutability": "nonpayable",
      "type": "constructor"
    },
    {
      "anonymous": false,
      "inputs": [
        {
          "indexed": true,
          "internalType": "uint256",
          "name": "idProduct",
          "type": "uint256"
        }
      ],
      "name": "TriggerAddProduct",
      "type": "event"
    },
    {
      "constant": true,
      "inputs": [
        {
          "internalType": "address",
          "name": "",
          "type": "address"
        }
      ],
      "name": "ownerToUser",
      "outputs": [
        {
          "internalType": "uint256",
          "name": "userId",
          "type": "uint256"
        },
        {
          "internalType": "string",
          "name": "userName",
          "type": "string"
        },
        {
          "internalType": "string",
          "name": "userMail",
          "type": "string"
        },
        {
          "internalType": "enum DataTest.Role",
          "name": "role",
          "type": "uint8"
        },
        {
          "internalType": "bool",
          "name": "isExist",
          "type": "bool"
        }
      ],
      "payable": false,
      "stateMutability": "view",
      "type": "function"
    },
    {
      "constant": true,
      "inputs": [
        {
          "internalType": "uint256",
          "name": "",
          "type": "uint256"
        }
      ],
      "name": "productCodeToNutriments",
      "outputs": [
        {
          "internalType": "string",
          "name": "energy",
          "type": "string"
        },
        {
          "internalType": "string",
          "name": "energy_kcal",
          "type": "string"
        },
        {
          "internalType": "string",
          "name": "proteines",
          "type": "string"
        },
        {
          "internalType": "string",
          "name": "carbohydrates",
          "type": "string"
        },
        {
          "internalType": "string",
          "name": "salt",
          "type": "string"
        },
        {
          "internalType": "string",
          "name": "sugars",
          "type": "string"
        },
        {
          "internalType": "string",
          "name": "fat",
          "type": "string"
        },
        {
          "internalType": "string",
          "name": "saturated_fat",
          "type": "string"
        },
        {
          "internalType": "string",
          "name": "fiber",
          "type": "string"
        },
        {
          "internalType": "string",
          "name": "sodium",
          "type": "string"
        }
      ],
      "payable": false,
      "stateMutability": "view",
      "type": "function"
    },
    {
      "constant": true,
      "inputs": [
        {
          "internalType": "uint256",
          "name": "",
          "type": "uint256"
        }
      ],
      "name": "productCodeToProduct",
      "outputs": [
        {
          "internalType": "uint256",
          "name": "productCode",
          "type": "uint256"
        },
        {
          "internalType": "string",
          "name": "productName",
          "type": "string"
        },
        {
          "internalType": "address",
          "name": "productProposerAddress",
          "type": "address"
        },
        {
          "internalType": "uint256",
          "name": "nutrimentsId",
          "type": "uint256"
        },
        {
          "internalType": "uint256",
          "name": "quantity",
          "type": "uint256"
        },
        {
          "internalType": "string",
          "name": "typeOfProduct",
          "type": "string"
        },
        {
          "internalType": "uint256",
          "name": "totalVotes",
          "type": "uint256"
        },
        {
          "internalType": "uint256",
          "name": "forVotes",
          "type": "uint256"
        },
        {
          "internalType": "uint256",
          "name": "againstVotes",
          "type": "uint256"
        },
        {
          "internalType": "bool",
          "name": "isValidated",
          "type": "bool"
        },
        {
          "internalType": "bool",
          "name": "isExist",
          "type": "bool"
        }
      ],
      "payable": false,
      "stateMutability": "view",
      "type": "function"
    },
    {
      "constant": true,
      "inputs": [
        {
          "internalType": "uint256",
          "name": "",
          "type": "uint256"
        }
      ],
      "name": "productCodeToProposalProduct",
      "outputs": [
        {
          "internalType": "uint256",
          "name": "productCode",
          "type": "uint256"
        },
        {
          "internalType": "string",
          "name": "productName",
          "type": "string"
        },
        {
          "internalType": "address",
          "name": "productProposerAddress",
          "type": "address"
        },
        {
          "internalType": "uint256",
          "name": "nutrimentsId",
          "type": "uint256"
        },
        {
          "internalType": "uint256",
          "name": "quantity",
          "type": "uint256"
        },
        {
          "internalType": "string",
          "name": "typeOfProduct",
          "type": "string"
        },
        {
          "internalType": "uint256",
          "name": "totalVotes",
          "type": "uint256"
        },
        {
          "internalType": "uint256",
          "name": "forVotes",
          "type": "uint256"
        },
        {
          "internalType": "uint256",
          "name": "againstVotes",
          "type": "uint256"
        },
        {
          "internalType": "bool",
          "name": "isValidated",
          "type": "bool"
        },
        {
          "internalType": "bool",
          "name": "isExist",
          "type": "bool"
        }
      ],
      "payable": false,
      "stateMutability": "view",
      "type": "function"
    },
    {
      "constant": false,
      "inputs": [
        {
          "internalType": "uint256",
          "name": "_productCode",
          "type": "uint256"
        },
        {
          "internalType": "string",
          "name": "_productName",
          "type": "string"
        },
        {
          "internalType": "string[]",
          "name": "_labels",
          "type": "string[]"
        },
        {
          "internalType": "string[]",
          "name": "_ingredients",
          "type": "string[]"
        },
        {
          "internalType": "uint256",
          "name": "_quantity",
          "type": "uint256"
        },
        {
          "internalType": "string",
          "name": "_typeOfProduct",
          "type": "string"
        },
        {
          "internalType": "string[]",
          "name": "_packaging",
          "type": "string[]"
        },
        {
          "components": [
            {
              "internalType": "string",
              "name": "energy",
              "type": "string"
            },
            {
              "internalType": "string",
              "name": "energy_kcal",
              "type": "string"
            },
            {
              "internalType": "string",
              "name": "proteines",
              "type": "string"
            },
            {
              "internalType": "string",
              "name": "carbohydrates",
              "type": "string"
            },
            {
              "internalType": "string",
              "name": "salt",
              "type": "string"
            },
            {
              "internalType": "string",
              "name": "sugars",
              "type": "string"
            },
            {
              "internalType": "string",
              "name": "fat",
              "type": "string"
            },
            {
              "internalType": "string",
              "name": "saturated_fat",
              "type": "string"
            },
            {
              "internalType": "string",
              "name": "fiber",
              "type": "string"
            },
            {
              "internalType": "string",
              "name": "sodium",
              "type": "string"
            }
          ],
          "internalType": "struct DataTest.Nutriments",
          "name": "_nutriments",
          "type": "tuple"
        },
        {
          "internalType": "string[]",
          "name": "_additifs",
          "type": "string[]"
        }
      ],
      "name": "addProductToProposal",
      "outputs": [],
      "payable": false,
      "stateMutability": "nonpayable",
      "type": "function"
    },
    {
      "constant": true,
      "inputs": [],
      "name": "getRole",
      "outputs": [
        {
          "internalType": "enum DataTest.Role",
          "name": "",
          "type": "uint8"
        }
      ],
      "payable": false,
      "stateMutability": "view",
      "type": "function"
    },
    {
      "constant": true,
      "inputs": [
        {
          "internalType": "uint256",
          "name": "_productCode",
          "type": "uint256"
        }
      ],
      "name": "checkProductIsNew",
      "outputs": [
        {
          "internalType": "bool",
          "name": "",
          "type": "bool"
        }
      ],
      "payable": false,
      "stateMutability": "view",
      "type": "function"
    },
    {
      "constant": true,
      "inputs": [],
      "name": "getProductsVoting",
      "outputs": [
        {
          "components": [
            {
              "internalType": "uint256",
              "name": "productCode",
              "type": "uint256"
            },
            {
              "internalType": "string",
              "name": "productName",
              "type": "string"
            },
            {
              "internalType": "address",
              "name": "productProposerAddress",
              "type": "address"
            },
            {
              "internalType": "string[]",
              "name": "labels",
              "type": "string[]"
            },
            {
              "internalType": "uint256",
              "name": "nutrimentsId",
              "type": "uint256"
            },
            {
              "internalType": "string[]",
              "name": "ingredients",
              "type": "string[]"
            },
            {
              "internalType": "string[]",
              "name": "additifs",
              "type": "string[]"
            },
            {
              "internalType": "uint256",
              "name": "quantity",
              "type": "uint256"
            },
            {
              "internalType": "string",
              "name": "typeOfProduct",
              "type": "string"
            },
            {
              "internalType": "string[]",
              "name": "packaging",
              "type": "string[]"
            },
            {
              "internalType": "uint256",
              "name": "totalVotes",
              "type": "uint256"
            },
            {
              "internalType": "uint256",
              "name": "forVotes",
              "type": "uint256"
            },
            {
              "internalType": "uint256",
              "name": "againstVotes",
              "type": "uint256"
            },
            {
              "internalType": "uint256[2]",
              "name": "created_n_last_modif",
              "type": "uint256[2]"
            },
            {
              "internalType": "bool",
              "name": "isValidated",
              "type": "bool"
            },
            {
              "internalType": "bool",
              "name": "isExist",
              "type": "bool"
            }
          ],
          "internalType": "struct DataTest.Product[]",
          "name": "",
          "type": "tuple[]"
        },
        {
          "components": [
            {
              "internalType": "string",
              "name": "energy",
              "type": "string"
            },
            {
              "internalType": "string",
              "name": "energy_kcal",
              "type": "string"
            },
            {
              "internalType": "string",
              "name": "proteines",
              "type": "string"
            },
            {
              "internalType": "string",
              "name": "carbohydrates",
              "type": "string"
            },
            {
              "internalType": "string",
              "name": "salt",
              "type": "string"
            },
            {
              "internalType": "string",
              "name": "sugars",
              "type": "string"
            },
            {
              "internalType": "string",
              "name": "fat",
              "type": "string"
            },
            {
              "internalType": "string",
              "name": "saturated_fat",
              "type": "string"
            },
            {
              "internalType": "string",
              "name": "fiber",
              "type": "string"
            },
            {
              "internalType": "string",
              "name": "sodium",
              "type": "string"
            }
          ],
          "internalType": "struct DataTest.Nutriments[]",
          "name": "",
          "type": "tuple[]"
        }
      ],
      "payable": false,
      "stateMutability": "view",
      "type": "function"
    }
  ],
  "bytecode": "0x60806040523480156200001157600080fd5b50336000806101000a81548173ffffffffffffffffffffffffffffffffffffffff021916908373ffffffffffffffffffffffffffffffffffffffff1602179055506040518060a0016040528060015481526020016040518060400160405280601181526020017f464142524949494949494949494949434500000000000000000000000000000081525081526020016040518060400160405280600b81526020017f796f697040796f702e66720000000000000000000000000000000000000000008152508152602001600280811115620000e857fe5b815260200160011515815250600460008060009054906101000a900473ffffffffffffffffffffffffffffffffffffffff1673ffffffffffffffffffffffffffffffffffffffff1673ffffffffffffffffffffffffffffffffffffffff1681526020019081526020016000206000820151816000015560208201518160010190805190602001906200017c929190620001ef565b5060408201518160020190805190602001906200019b929190620001ef565b5060608201518160030160006101000a81548160ff02191690836002811115620001c157fe5b021790555060808201518160030160016101000a81548160ff0219169083151502179055509050506200029e565b828054600181600116156101000203166002900490600052602060002090601f016020900481019282601f106200023257805160ff191683800117855562000263565b8280016001018555821562000263579182015b828111156200026257825182559160200191906001019062000245565b5b50905062000272919062000276565b5090565b6200029b91905b80821115620002975760008160009055506001016200027d565b5090565b90565b61357280620002ae6000396000f3fe608060405234801561001057600080fd5b50600436106100885760003560e01c806399fabed61161005b57806399fabed61461013b578063d54d6c701461016f578063eafc9df3146101a9578063fde08174146101d957610088565b80630574d8081461008d57806313431cc5146100c657806357dd1992146100e557806361ef3c1514610101575b600080fd5b6100a760048036036100a29190810190612909565b6101f7565b6040516100bd9a99989796959493929190613086565b60405180910390f35b6100ce61083b565b6040516100dc929190613019565b60405180910390f35b6100ff60048036036100fa9190810190612932565b611547565b005b61011b60048036036101169190810190612909565b611d0e565b6040516101329b9a99989796959493929190613168565b60405180910390f35b610155600480360361015091908101906128e0565b611ed2565b604051610166959493929190613221565b60405180910390f35b61018960048036036101849190810190612909565b612052565b6040516101a09b9a99989796959493929190613168565b60405180910390f35b6101c360048036036101be9190810190612909565b612216565b6040516101d09190613050565b60405180910390f35b6101e1612296565b6040516101ee919061306b565b60405180910390f35b6007602052806000526040600020600091509050806000018054600181600116156101000203166002900480601f0160208091040260200160405190810160405280929190818152602001828054600181600116156101000203166002900480156102a35780601f10610278576101008083540402835291602001916102a3565b820191906000526020600020905b81548152906001019060200180831161028657829003601f168201915b505050505090806001018054600181600116156101000203166002900480601f0160208091040260200160405190810160405280929190818152602001828054600181600116156101000203166002900480156103415780601f1061031657610100808354040283529160200191610341565b820191906000526020600020905b81548152906001019060200180831161032457829003601f168201915b505050505090806002018054600181600116156101000203166002900480601f0160208091040260200160405190810160405280929190818152602001828054600181600116156101000203166002900480156103df5780601f106103b4576101008083540402835291602001916103df565b820191906000526020600020905b8154815290600101906020018083116103c257829003601f168201915b505050505090806003018054600181600116156101000203166002900480601f01602080910402602001604051908101604052809291908181526020018280546001816001161561010002031660029004801561047d5780601f106104525761010080835404028352916020019161047d565b820191906000526020600020905b81548152906001019060200180831161046057829003601f168201915b505050505090806004018054600181600116156101000203166002900480601f01602080910402602001604051908101604052809291908181526020018280546001816001161561010002031660029004801561051b5780601f106104f05761010080835404028352916020019161051b565b820191906000526020600020905b8154815290600101906020018083116104fe57829003601f168201915b505050505090806005018054600181600116156101000203166002900480601f0160208091040260200160405190810160405280929190818152602001828054600181600116156101000203166002900480156105b95780601f1061058e576101008083540402835291602001916105b9565b820191906000526020600020905b81548152906001019060200180831161059c57829003601f168201915b505050505090806006018054600181600116156101000203166002900480601f0160208091040260200160405190810160405280929190818152602001828054600181600116156101000203166002900480156106575780601f1061062c57610100808354040283529160200191610657565b820191906000526020600020905b81548152906001019060200180831161063a57829003601f168201915b505050505090806007018054600181600116156101000203166002900480601f0160208091040260200160405190810160405280929190818152602001828054600181600116156101000203166002900480156106f55780601f106106ca576101008083540402835291602001916106f5565b820191906000526020600020905b8154815290600101906020018083116106d857829003601f168201915b505050505090806008018054600181600116156101000203166002900480601f0160208091040260200160405190810160405280929190818152602001828054600181600116156101000203166002900480156107935780601f1061076857610100808354040283529160200191610793565b820191906000526020600020905b81548152906001019060200180831161077657829003601f168201915b505050505090806009018054600181600116156101000203166002900480601f0160208091040260200160405190810160405280929190818152602001828054600181600116156101000203166002900480156108315780601f1061080657610100808354040283529160200191610831565b820191906000526020600020905b81548152906001019060200180831161081457829003601f168201915b505050505090508a565b6060806002600381805480602002602001604051908101604052809291908181526020016000905b82821015610e8b57838290600052602060002090601002016040518061020001604052908160008201548152602001600182018054600181600116156101000203166002900480601f01602080910402602001604051908101604052809291908181526020018280546001816001161561010002031660029004801561092a5780601f106108ff5761010080835404028352916020019161092a565b820191906000526020600020905b81548152906001019060200180831161090d57829003601f168201915b505050505081526020016002820160009054906101000a900473ffffffffffffffffffffffffffffffffffffffff1673ffffffffffffffffffffffffffffffffffffffff1673ffffffffffffffffffffffffffffffffffffffff16815260200160038201805480602002602001604051908101604052809291908181526020016000905b82821015610a6a578382906000526020600020018054600181600116156101000203166002900480601f016020809104026020016040519081016040528092919081815260200182805460018160011615610100020316600290048015610a565780601f10610a2b57610100808354040283529160200191610a56565b820191906000526020600020905b815481529060010190602001808311610a3957829003601f168201915b5050505050815260200190600101906109ae565b5050505081526020016004820154815260200160058201805480602002602001604051908101604052809291908181526020016000905b82821015610b5d578382906000526020600020018054600181600116156101000203166002900480601f016020809104026020016040519081016040528092919081815260200182805460018160011615610100020316600290048015610b495780601f10610b1e57610100808354040283529160200191610b49565b820191906000526020600020905b815481529060010190602001808311610b2c57829003601f168201915b505050505081526020019060010190610aa1565b50505050815260200160068201805480602002602001604051908101604052809291908181526020016000905b82821015610c46578382906000526020600020018054600181600116156101000203166002900480601f016020809104026020016040519081016040528092919081815260200182805460018160011615610100020316600290048015610c325780601f10610c0757610100808354040283529160200191610c32565b820191906000526020600020905b815481529060010190602001808311610c1557829003601f168201915b505050505081526020019060010190610b8a565b50505050815260200160078201548152602001600882018054600181600116156101000203166002900480601f016020809104026020016040519081016040528092919081815260200182805460018160011615610100020316600290048015610cf15780601f10610cc657610100808354040283529160200191610cf1565b820191906000526020600020905b815481529060010190602001808311610cd457829003601f168201915b5050505050815260200160098201805480602002602001604051908101604052809291908181526020016000905b82821015610ddb578382906000526020600020018054600181600116156101000203166002900480601f016020809104026020016040519081016040528092919081815260200182805460018160011615610100020316600290048015610dc75780601f10610d9c57610100808354040283529160200191610dc7565b820191906000526020600020905b815481529060010190602001808311610daa57829003601f168201915b505050505081526020019060010190610d1f565b505050508152602001600a8201548152602001600b8201548152602001600c8201548152602001600d8201600280602002604051908101604052809291908260028015610e3d576020028201915b815481526020019060010190808311610e29575b50505050508152602001600f820160009054906101000a900460ff16151515158152602001600f820160019054906101000a900460ff16151515158152505081526020019060010190610863565b50505050915080805480602002602001604051908101604052809291908181526020016000905b8282101561153957838290600052602060002090600a020160405180610140016040529081600082018054600181600116156101000203166002900480601f016020809104026020016040519081016040528092919081815260200182805460018160011615610100020316600290048015610f6f5780601f10610f4457610100808354040283529160200191610f6f565b820191906000526020600020905b815481529060010190602001808311610f5257829003601f168201915b50505050508152602001600182018054600181600116156101000203166002900480601f0160208091040260200160405190810160405280929190818152602001828054600181600116156101000203166002900480156110115780601f10610fe657610100808354040283529160200191611011565b820191906000526020600020905b815481529060010190602001808311610ff457829003601f168201915b50505050508152602001600282018054600181600116156101000203166002900480601f0160208091040260200160405190810160405280929190818152602001828054600181600116156101000203166002900480156110b35780601f10611088576101008083540402835291602001916110b3565b820191906000526020600020905b81548152906001019060200180831161109657829003601f168201915b50505050508152602001600382018054600181600116156101000203166002900480601f0160208091040260200160405190810160405280929190818152602001828054600181600116156101000203166002900480156111555780601f1061112a57610100808354040283529160200191611155565b820191906000526020600020905b81548152906001019060200180831161113857829003601f168201915b50505050508152602001600482018054600181600116156101000203166002900480601f0160208091040260200160405190810160405280929190818152602001828054600181600116156101000203166002900480156111f75780601f106111cc576101008083540402835291602001916111f7565b820191906000526020600020905b8154815290600101906020018083116111da57829003601f168201915b50505050508152602001600582018054600181600116156101000203166002900480601f0160208091040260200160405190810160405280929190818152602001828054600181600116156101000203166002900480156112995780601f1061126e57610100808354040283529160200191611299565b820191906000526020600020905b81548152906001019060200180831161127c57829003601f168201915b50505050508152602001600682018054600181600116156101000203166002900480601f01602080910402602001604051908101604052809291908181526020018280546001816001161561010002031660029004801561133b5780601f106113105761010080835404028352916020019161133b565b820191906000526020600020905b81548152906001019060200180831161131e57829003601f168201915b50505050508152602001600782018054600181600116156101000203166002900480601f0160208091040260200160405190810160405280929190818152602001828054600181600116156101000203166002900480156113dd5780601f106113b2576101008083540402835291602001916113dd565b820191906000526020600020905b8154815290600101906020018083116113c057829003601f168201915b50505050508152602001600882018054600181600116156101000203166002900480601f01602080910402602001604051908101604052809291908181526020018280546001816001161561010002031660029004801561147f5780601f106114545761010080835404028352916020019161147f565b820191906000526020600020905b81548152906001019060200180831161146257829003601f168201915b50505050508152602001600982018054600181600116156101000203166002900480601f0160208091040260200160405190810160405280929190818152602001828054600181600116156101000203166002900480156115215780601f106114f657610100808354040283529160200191611521565b820191906000526020600020905b81548152906001019060200180831161150457829003601f168201915b50505050508152505081526020019060010190610eb2565b505050509050915091509091565b600660008a8152602001908152602001600020600f0160019054906101000a900460ff161561157557600080fd5b61157d6122ed565b61158561238a565b8a82600001818152505089826020018190525033826040019073ffffffffffffffffffffffffffffffffffffffff16908173ffffffffffffffffffffffffffffffffffffffff1681525050888260600181905250878260a00181905250828260c00181905250868260e001818152505085826101000181905250848261012001819052506000826101c00190151590811515815250506001826101e0019015159081151581525050604051806040016040528042815260200142815250826101a001819052508a82608001818152505081600560008d815260200190815260200160002060008201518160000155602082015181600101908051906020019061168f9291906123dd565b5060408201518160020160006101000a81548173ffffffffffffffffffffffffffffffffffffffff021916908373ffffffffffffffffffffffffffffffffffffffff16021790555060608201518160030190805190602001906116f392919061245d565b506080820151816004015560a082015181600501908051906020019061171a92919061245d565b5060c082015181600601908051906020019061173792919061245d565b5060e0820151816007015561010082015181600801908051906020019061175f9291906123dd565b5061012082015181600901908051906020019061177d92919061245d565b5061014082015181600a015561016082015181600b015561018082015181600c01556101a082015181600d019060026117b79291906124bd565b506101c082015181600f0160006101000a81548160ff0219169083151502179055506101e082015181600f0160016101000a81548160ff021916908315150217905550905050600282908060018154018082558091505090600182039060005260206000209060100201600090919290919091506000820151816000015560208201518160010190805190602001906118519291906123dd565b5060408201518160020160006101000a81548173ffffffffffffffffffffffffffffffffffffffff021916908373ffffffffffffffffffffffffffffffffffffffff16021790555060608201518160030190805190602001906118b592919061245d565b506080820151816004015560a08201518160050190805190602001906118dc92919061245d565b5060c08201518160060190805190602001906118f992919061245d565b5060e082015181600701556101008201518160080190805190602001906119219291906123dd565b5061012082015181600901908051906020019061193f92919061245d565b5061014082015181600a015561016082015181600b015561018082015181600c01556101a082015181600d019060026119799291906124bd565b506101c082015181600f0160006101000a81548160ff0219169083151502179055506101e082015181600f0160016101000a81548160ff02191690831515021790555050505083606001518160600181905250836000015181600001819052508360200151816020018190525083604001518160400181905250836080015181608001819052508360a001518160a001819052508360c001518160c001819052508360e001518160e001819052508360c0015181610100018190525083610120015181610120018190525080600760008d81526020019081526020016000206000820151816000019080519060200190611a749291906123dd565b506020820151816001019080519060200190611a919291906123dd565b506040820151816002019080519060200190611aae9291906123dd565b506060820151816003019080519060200190611acb9291906123dd565b506080820151816004019080519060200190611ae89291906123dd565b5060a0820151816005019080519060200190611b059291906123dd565b5060c0820151816006019080519060200190611b229291906123dd565b5060e0820151816007019080519060200190611b3f9291906123dd565b50610100820151816008019080519060200190611b5d9291906123dd565b50610120820151816009019080519060200190611b7b9291906123dd565b509050506003819080600181540180825580915050906001820390600052602060002090600a0201600090919290919091506000820151816000019080519060200190611bc99291906123dd565b506020820151816001019080519060200190611be69291906123dd565b506040820151816002019080519060200190611c039291906123dd565b506060820151816003019080519060200190611c209291906123dd565b506080820151816004019080519060200190611c3d9291906123dd565b5060a0820151816005019080519060200190611c5a9291906123dd565b5060c0820151816006019080519060200190611c779291906123dd565b5060e0820151816007019080519060200190611c949291906123dd565b50610100820151816008019080519060200190611cb29291906123dd565b50610120820151816009019080519060200190611cd09291906123dd565b505050508a7f62d016d4371415f3ad23ef71ccf53e281dea50c5b60ac3cce1b1ec9eb45226cc60405160405180910390a25050505050505050505050565b6006602052806000526040600020600091509050806000015490806001018054600181600116156101000203166002900480601f016020809104026020016040519081016040528092919081815260200182805460018160011615610100020316600290048015611dc05780601f10611d9557610100808354040283529160200191611dc0565b820191906000526020600020905b815481529060010190602001808311611da357829003601f168201915b5050505050908060020160009054906101000a900473ffffffffffffffffffffffffffffffffffffffff1690806004015490806007015490806008018054600181600116156101000203166002900480601f016020809104026020016040519081016040528092919081815260200182805460018160011615610100020316600290048015611e905780601f10611e6557610100808354040283529160200191611e90565b820191906000526020600020905b815481529060010190602001808311611e7357829003601f168201915b50505050509080600a01549080600b01549080600c01549080600f0160009054906101000a900460ff169080600f0160019054906101000a900460ff1690508b565b6004602052806000526040600020600091509050806000015490806001018054600181600116156101000203166002900480601f016020809104026020016040519081016040528092919081815260200182805460018160011615610100020316600290048015611f845780601f10611f5957610100808354040283529160200191611f84565b820191906000526020600020905b815481529060010190602001808311611f6757829003601f168201915b505050505090806002018054600181600116156101000203166002900480601f0160208091040260200160405190810160405280929190818152602001828054600181600116156101000203166002900480156120225780601f10611ff757610100808354040283529160200191612022565b820191906000526020600020905b81548152906001019060200180831161200557829003601f168201915b5050505050908060030160009054906101000a900460ff16908060030160019054906101000a900460ff16905085565b6005602052806000526040600020600091509050806000015490806001018054600181600116156101000203166002900480601f0160208091040260200160405190810160405280929190818152602001828054600181600116156101000203166002900480156121045780601f106120d957610100808354040283529160200191612104565b820191906000526020600020905b8154815290600101906020018083116120e757829003601f168201915b5050505050908060020160009054906101000a900473ffffffffffffffffffffffffffffffffffffffff1690806004015490806007015490806008018054600181600116156101000203166002900480601f0160208091040260200160405190810160405280929190818152602001828054600181600116156101000203166002900480156121d45780601f106121a9576101008083540402835291602001916121d4565b820191906000526020600020905b8154815290600101906020018083116121b757829003601f168201915b50505050509080600a01549080600b01549080600c01549080600f0160009054906101000a900460ff169080600f0160019054906101000a900460ff1690508b565b600081650102b36211c7811161222b57600080fd5b60056000848152602001908152602001600020600f0160019054906101000a900460ff1615801561227d575060066000848152602001908152602001600020600f0160019054906101000a900460ff16155b1561228b5760019150612290565b600091505b50919050565b6000600460003373ffffffffffffffffffffffffffffffffffffffff1673ffffffffffffffffffffffffffffffffffffffff16815260200190815260200160002060030160009054906101000a900460ff16905090565b6040518061020001604052806000815260200160608152602001600073ffffffffffffffffffffffffffffffffffffffff168152602001606081526020016000815260200160608152602001606081526020016000815260200160608152602001606081526020016000815260200160008152602001600081526020016123726124fd565b81526020016000151581526020016000151581525090565b604051806101400160405280606081526020016060815260200160608152602001606081526020016060815260200160608152602001606081526020016060815260200160608152602001606081525090565b828054600181600116156101000203166002900490600052602060002090601f016020900481019282601f1061241e57805160ff191683800117855561244c565b8280016001018555821561244c579182015b8281111561244b578251825591602001919060010190612430565b5b509050612459919061251f565b5090565b8280548282559060005260206000209081019282156124ac579160200282015b828111156124ab57825182908051906020019061249b9291906123dd565b509160200191906001019061247d565b5b5090506124b99190612544565b5090565b82600281019282156124ec579160200282015b828111156124eb5782518255916020019190600101906124d0565b5b5090506124f9919061251f565b5090565b6040518060400160405280600290602082028038833980820191505090505090565b61254191905b8082111561253d576000816000905550600101612525565b5090565b90565b61256d91905b8082111561256957600081816125609190612570565b5060010161254a565b5090565b90565b50805460018160011615610100020316600290046000825580601f1061259657506125b5565b601f0160209004906000526020600020908101906125b4919061251f565b5b50565b6000813590506125c781613501565b92915050565b600082601f8301126125de57600080fd5b81356125f16125ec826132af565b613282565b9150818183526020840193506020810190508360005b83811015612637578135860161261d8882612641565b845260208401935060208301925050600181019050612607565b5050505092915050565b600082601f83011261265257600080fd5b8135612665612660826132d7565b613282565b9150808252602083016020830185838301111561268157600080fd5b61268c8382846134a1565b50505092915050565b600082601f8301126126a657600080fd5b81356126b96126b482613303565b613282565b915080825260208301602083018583830111156126d557600080fd5b6126e08382846134a1565b50505092915050565b600061014082840312156126fc57600080fd5b612707610140613282565b9050600082013567ffffffffffffffff81111561272357600080fd5b61272f84828501612641565b600083015250602082013567ffffffffffffffff81111561274f57600080fd5b61275b84828501612641565b602083015250604082013567ffffffffffffffff81111561277b57600080fd5b61278784828501612641565b604083015250606082013567ffffffffffffffff8111156127a757600080fd5b6127b384828501612641565b606083015250608082013567ffffffffffffffff8111156127d357600080fd5b6127df84828501612641565b60808301525060a082013567ffffffffffffffff8111156127ff57600080fd5b61280b84828501612641565b60a08301525060c082013567ffffffffffffffff81111561282b57600080fd5b61283784828501612641565b60c08301525060e082013567ffffffffffffffff81111561285757600080fd5b61286384828501612641565b60e08301525061010082013567ffffffffffffffff81111561288457600080fd5b61289084828501612641565b6101008301525061012082013567ffffffffffffffff8111156128b257600080fd5b6128be84828501612641565b6101208301525092915050565b6000813590506128da81613518565b92915050565b6000602082840312156128f257600080fd5b6000612900848285016125b8565b91505092915050565b60006020828403121561291b57600080fd5b6000612929848285016128cb565b91505092915050565b60008060008060008060008060006101208a8c03121561295157600080fd5b600061295f8c828d016128cb565b99505060208a013567ffffffffffffffff81111561297c57600080fd5b6129888c828d01612695565b98505060408a013567ffffffffffffffff8111156129a557600080fd5b6129b18c828d016125cd565b97505060608a013567ffffffffffffffff8111156129ce57600080fd5b6129da8c828d016125cd565b96505060806129eb8c828d016128cb565b95505060a08a013567ffffffffffffffff811115612a0857600080fd5b612a148c828d01612695565b94505060c08a013567ffffffffffffffff811115612a3157600080fd5b612a3d8c828d016125cd565b93505060e08a013567ffffffffffffffff811115612a5a57600080fd5b612a668c828d016126e9565b9250506101008a013567ffffffffffffffff811115612a8457600080fd5b612a908c828d016125cd565b9150509295985092959850929598565b6000612aac8383612cf5565b905092915050565b6000612ac08383612d67565b905092915050565b6000612ad48383612e80565b905092915050565b6000612ae88383612ffb565b60208301905092915050565b612afd81613434565b82525050565b612b0c81613434565b82525050565b6000612b1d82613369565b612b2781856133d4565b935083602082028501612b398561332f565b8060005b85811015612b755784840389528151612b568582612aa0565b9450612b61836133a0565b925060208a01995050600181019050612b3d565b50829750879550505050505092915050565b6000612b9282613374565b612b9c81856133e5565b935083602082028501612bae8561333f565b8060005b85811015612bea5784840389528151612bcb8582612ab4565b9450612bd6836133ad565b925060208a01995050600181019050612bb2565b50829750879550505050505092915050565b6000612c078261337f565b612c1181856133f6565b935083602082028501612c238561334f565b8060005b85811015612c5f5784840389528151612c408582612ac8565b9450612c4b836133ba565b925060208a01995050600181019050612c27565b50829750879550505050505092915050565b612c7a8161338a565b612c848184613407565b9250612c8f8261335f565b8060005b83811015612cc0578151612ca78782612adc565b9650612cb2836133c7565b925050600181019050612c93565b505050505050565b612cd181613446565b82525050565b612ce081613446565b82525050565b612cef8161348f565b82525050565b6000612d0082613395565b612d0a8185613412565b9350612d1a8185602086016134b0565b612d23816134e3565b840191505092915050565b6000612d3982613395565b612d438185613423565b9350612d538185602086016134b0565b612d5c816134e3565b840191505092915050565b6000610140830160008301518482036000860152612d858282612cf5565b91505060208301518482036020860152612d9f8282612cf5565b91505060408301518482036040860152612db98282612cf5565b91505060608301518482036060860152612dd38282612cf5565b91505060808301518482036080860152612ded8282612cf5565b91505060a083015184820360a0860152612e078282612cf5565b91505060c083015184820360c0860152612e218282612cf5565b91505060e083015184820360e0860152612e3b8282612cf5565b915050610100830151848203610100860152612e578282612cf5565b915050610120830151848203610120860152612e738282612cf5565b9150508091505092915050565b600061022083016000830151612e996000860182612ffb565b5060208301518482036020860152612eb18282612cf5565b9150506040830151612ec66040860182612af4565b5060608301518482036060860152612ede8282612b12565b9150506080830151612ef36080860182612ffb565b5060a083015184820360a0860152612f0b8282612b12565b91505060c083015184820360c0860152612f258282612b12565b91505060e0830151612f3a60e0860182612ffb565b50610100830151848203610100860152612f548282612cf5565b915050610120830151848203610120860152612f708282612b12565b915050610140830151612f87610140860182612ffb565b50610160830151612f9c610160860182612ffb565b50610180830151612fb1610180860182612ffb565b506101a0830151612fc66101a0860182612c71565b506101c0830151612fdb6101e0860182612cc8565b506101e0830151612ff0610200860182612cc8565b508091505092915050565b61300481613485565b82525050565b61301381613485565b82525050565b600060408201905081810360008301526130338185612bfc565b905081810360208301526130478184612b87565b90509392505050565b60006020820190506130656000830184612cd7565b92915050565b60006020820190506130806000830184612ce6565b92915050565b60006101408201905081810360008301526130a1818d612d2e565b905081810360208301526130b5818c612d2e565b905081810360408301526130c9818b612d2e565b905081810360608301526130dd818a612d2e565b905081810360808301526130f18189612d2e565b905081810360a08301526131058188612d2e565b905081810360c08301526131198187612d2e565b905081810360e083015261312d8186612d2e565b90508181036101008301526131428185612d2e565b90508181036101208301526131578184612d2e565b90509b9a5050505050505050505050565b60006101608201905061317e600083018e61300a565b8181036020830152613190818d612d2e565b905061319f604083018c612b03565b6131ac606083018b61300a565b6131b9608083018a61300a565b81810360a08301526131cb8189612d2e565b90506131da60c083018861300a565b6131e760e083018761300a565b6131f561010083018661300a565b613203610120830185612cd7565b613211610140830184612cd7565b9c9b505050505050505050505050565b600060a082019050613236600083018861300a565b81810360208301526132488187612d2e565b9050818103604083015261325c8186612d2e565b905061326b6060830185612ce6565b6132786080830184612cd7565b9695505050505050565b6000604051905081810181811067ffffffffffffffff821117156132a557600080fd5b8060405250919050565b600067ffffffffffffffff8211156132c657600080fd5b602082029050602081019050919050565b600067ffffffffffffffff8211156132ee57600080fd5b601f19601f8301169050602081019050919050565b600067ffffffffffffffff82111561331a57600080fd5b601f19601f8301169050602081019050919050565b6000819050602082019050919050565b6000819050602082019050919050565b6000819050602082019050919050565b6000819050919050565b600081519050919050565b600081519050919050565b600081519050919050565b600060029050919050565b600081519050919050565b6000602082019050919050565b6000602082019050919050565b6000602082019050919050565b6000602082019050919050565b600082825260208201905092915050565b600082825260208201905092915050565b600082825260208201905092915050565b600081905092915050565b600082825260208201905092915050565b600082825260208201905092915050565b600061343f82613465565b9050919050565b60008115159050919050565b6000819050613460826134f4565b919050565b600073ffffffffffffffffffffffffffffffffffffffff82169050919050565b6000819050919050565b600061349a82613452565b9050919050565b82818337600083830152505050565b60005b838110156134ce5780820151818401526020810190506134b3565b838111156134dd576000848401525b50505050565b6000601f19601f8301169050919050565b600381106134fe57fe5b50565b61350a81613434565b811461351557600080fd5b50565b61352181613485565b811461352c57600080fd5b5056fea365627a7a72315820c447bfa2df2e7c02ad36e7f5685c651ea8ce2ca8c8339e4e825295d34582753b6c6578706572696d656e74616cf564736f6c63430005100040",
  "source": "pragma solidity 0.5.16;\r\npragma experimental ABIEncoderV2;\r\n\r\n\r\n\r\n/**\r\n @title DataLabelChain contract\r\n @author Fabrice Tapia\r\n @dev Contract which is a part of the Alyra's Final Project : Eat Healthy LabelChain\r\n */\r\n\r\ncontract DataTest {\r\n\r\n  enum Role {CUSTOMER, SELLER, ADMIN}\r\n  struct User{\r\n    uint userId;\r\n    string userName;\r\n    string userMail;\r\n    Role role;\r\n    bool isExist;\r\n  }\r\n\r\n  struct Product{\r\n    // uint productId;\r\n    uint productCode;\r\n    string productName;\r\n    address productProposerAddress;\r\n    string[] labels;\r\n    uint nutrimentsId;\r\n    string[] ingredients;\r\n    string[] additifs;\r\n    uint quantity;\r\n    string typeOfProduct;\r\n    string[] packaging;\r\n    uint totalVotes;\r\n    uint forVotes;\r\n    uint againstVotes;\r\n    uint[2] created_n_last_modif;\r\n    //  bytes32 hash;\r\n    bool isValidated;\r\n    bool isExist;\r\n  }\r\n\r\n  struct Nutriments {\r\n    string energy;\r\n    string energy_kcal;\r\n    string proteines;\r\n    string carbohydrates;\r\n    string salt;\r\n    string sugars;\r\n    string fat;\r\n    string saturated_fat;\r\n    string fiber;\r\n    string sodium;\r\n  }\r\n\r\n  address private _owner;\r\n\r\n  uint uniqueIdUser;\r\n\r\n  Product[] ProposalProducts;\r\n\r\n  Nutriments[] ProposalNutriments;\r\n\r\n  mapping(address => User) public ownerToUser;\r\n\r\n  mapping(uint => Product) public productCodeToProposalProduct;\r\n\r\n  mapping(uint => Product) public productCodeToProduct;\r\n\r\n  mapping(uint => Nutriments) public productCodeToNutriments;\r\n\r\n  event TriggerAddProduct(uint indexed idProduct);\r\n\r\n  constructor() public {\r\n    _owner = msg.sender;\r\n    ownerToUser[_owner] = User(uniqueIdUser, \"FABRIIIIIIIIIIICE\", \"yoip@yop.fr\", Role.ADMIN, true);\r\n  }\r\n\r\n//  modifier checkProductIsNew (uint productCode) {\r\n//    require(!productCodeToProduct[productCode].isExist);\r\n//    _;\r\n//  }\r\n//\r\n//\r\n//  modifier checkProductProposalIsNew (uint productCode) {\r\n//    require(!productCodeToProduct[productCode].isExist);\r\n//    _;\r\n//  }\r\n\r\n  modifier checkLengthGS1 (uint productCode){\r\n    require(productCode > 1111111111111);\r\n    _;\r\n  }\r\n/*\r\n  function getProduct(uint productCode) view public returns(Product){\r\n    return productCodeToProduct[productCode];\r\n  }*/\r\n\r\n\r\n  function addProductToProposal(\r\n    uint _productCode,\r\n    string memory _productName,\r\n    string[] memory _labels,\r\n    string[] memory _ingredients,\r\n    uint _quantity,\r\n    string memory _typeOfProduct,\r\n    string[] memory _packaging,\r\n    Nutriments memory _nutriments,\r\n    string[] memory _additifs\r\n\r\n  ) public {\r\n    require(!productCodeToProduct[_productCode].isExist);\r\n    Product memory _product;\r\n    Nutriments memory _nutrimentsObject;\r\n    _product.productCode = _productCode;\r\n    _product.productName = _productName;\r\n    _product.productProposerAddress = msg.sender;\r\n    _product.labels = _labels;\r\n    _product.ingredients = _ingredients;\r\n    _product.additifs = _additifs;\r\n    _product.quantity = _quantity;\r\n    _product.typeOfProduct = _typeOfProduct;\r\n    _product.packaging = _packaging;\r\n    _product.isValidated = false;\r\n    _product.isExist = true;\r\n    _product.created_n_last_modif = [now, now];\r\n    _product.nutrimentsId = _productCode;\r\n    // productCodeToNutriments[_productCode] = _nutriments;\r\n   // _product.hash = keccak256(abi.encodePacked(_product.productName,_product.productProposerAddress, _product.quantity));\r\n    productCodeToProposalProduct[_productCode] = _product;\r\n    ProposalProducts.push(_product);\r\n\r\n    _nutrimentsObject.carbohydrates = _nutriments.carbohydrates;\r\n    _nutrimentsObject.energy = _nutriments.energy;\r\n    _nutrimentsObject.energy_kcal = _nutriments.energy_kcal;\r\n    _nutrimentsObject.proteines = _nutriments.proteines;\r\n    _nutrimentsObject.salt = _nutriments.salt;\r\n    _nutrimentsObject.sugars = _nutriments.sugars;\r\n    _nutrimentsObject.fat = _nutriments.fat;\r\n    _nutrimentsObject.saturated_fat = _nutriments.saturated_fat;\r\n    _nutrimentsObject.fiber = _nutriments.fat;\r\n    _nutrimentsObject.sodium = _nutriments.sodium;\r\n    productCodeToNutriments[_productCode] = _nutrimentsObject;\r\n    ProposalNutriments.push(_nutrimentsObject);\r\n    emit TriggerAddProduct(_productCode);\r\n    // keccak256(abi.encodePacked(_productCode,_productName,msg.sender,_labels,_ingredients,_nutriments,_quantity,_typeOfProduct,_packaging))\r\n  }\r\n\r\n  function getRole() public view returns (Role) {\r\n    return ownerToUser[msg.sender].role;\r\n  }\r\n\r\n\r\n  // To add a product in proposal, we need to check if the product doesn't already exist in mappings of products\r\n  function checkProductIsNew (uint _productCode) public view checkLengthGS1(_productCode) returns (bool) {\r\n    if(!productCodeToProposalProduct[_productCode].isExist && !productCodeToProduct[_productCode].isExist){\r\n      return true;\r\n    }else{\r\n      return false;\r\n    }\r\n  }\r\n\r\n  function getProductsVoting() public view returns( Product[] memory, Nutriments[] memory){\r\n    return (ProposalProducts, ProposalNutriments);\r\n  }\r\n}\r\n",
  "sourcePath": "C:\\Users\\Fabrice\\Desktop\\Project_EatHealthyLabelChain\\EatHealthyLabelChain\\contracts\\dataTest.sol",
  "compiler": {
    "name": "solc",
    "version": "0.5.16+commit.9c3226ce.Emscripten.clang"
  },
  "schemaVersion": "3.2.0",
  "updatedAt": "2020-07-02T13:37:23.395Z",
  "networkType": "ethereum",
  "devdoc": {
    "author": "Fabrice Tapia",
    "details": "Contract which is a part of the Alyra's Final Project : Eat Healthy LabelChain",
    "methods": {},
    "title": "DataLabelChain contract"
  },
  "userdoc": {
    "methods": {}
  }
}