{
  "contractName": "DataTest",
  "abi": [
    {
      "inputs": [],
      "payable": false,
      "stateMutability": "nonpayable",
      "type": "constructor"
    },
    {
      "anonymous": false,
      "inputs": [
        {
          "indexed": true,
          "internalType": "uint256",
          "name": "idProduct",
          "type": "uint256"
        }
      ],
      "name": "TriggerAddProduct",
      "type": "event"
    },
    {
      "constant": true,
      "inputs": [
        {
          "internalType": "address",
          "name": "",
          "type": "address"
        }
      ],
      "name": "addressToUser",
      "outputs": [
        {
          "internalType": "uint32",
          "name": "userId",
          "type": "uint32"
        },
        {
          "internalType": "uint256",
          "name": "lastTimeTokenGiven",
          "type": "uint256"
        },
        {
          "internalType": "int16",
          "name": "tokenNumber",
          "type": "int16"
        },
        {
          "internalType": "int16",
          "name": "reputation",
          "type": "int16"
        },
        {
          "internalType": "bool",
          "name": "isExist",
          "type": "bool"
        }
      ],
      "payable": false,
      "stateMutability": "view",
      "type": "function"
    },
    {
      "constant": true,
      "inputs": [
        {
          "internalType": "uint256",
          "name": "",
          "type": "uint256"
        },
        {
          "internalType": "address",
          "name": "",
          "type": "address"
        },
        {
          "internalType": "uint256",
          "name": "",
          "type": "uint256"
        }
      ],
      "name": "alreadyVoted",
      "outputs": [
        {
          "internalType": "bool",
          "name": "",
          "type": "bool"
        }
      ],
      "payable": false,
      "stateMutability": "view",
      "type": "function"
    },
    {
      "constant": true,
      "inputs": [
        {
          "internalType": "uint256",
          "name": "_productCode",
          "type": "uint256"
        }
      ],
      "name": "getProduct",
      "outputs": [
        {
          "components": [
            {
              "internalType": "address",
              "name": "productProposerAddress",
              "type": "address"
            },
            {
              "internalType": "uint16",
              "name": "quantity",
              "type": "uint16"
            },
            {
              "internalType": "uint16",
              "name": "forVotes",
              "type": "uint16"
            },
            {
              "internalType": "uint16",
              "name": "againstVotes",
              "type": "uint16"
            },
            {
              "internalType": "uint64",
              "name": "productCode",
              "type": "uint64"
            },
            {
              "internalType": "uint64",
              "name": "created_t",
              "type": "uint64"
            },
            {
              "internalType": "uint64",
              "name": "endDate",
              "type": "uint64"
            },
            {
              "internalType": "uint32",
              "name": "productId",
              "type": "uint32"
            },
            {
              "internalType": "string",
              "name": "productName",
              "type": "string"
            },
            {
              "internalType": "string[]",
              "name": "labels",
              "type": "string[]"
            },
            {
              "internalType": "string[]",
              "name": "ingredients",
              "type": "string[]"
            },
            {
              "internalType": "string[]",
              "name": "additifs",
              "type": "string[]"
            },
            {
              "internalType": "string",
              "name": "typeOfProduct",
              "type": "string"
            },
            {
              "internalType": "string[]",
              "name": "packaging",
              "type": "string[]"
            },
            {
              "internalType": "bool",
              "name": "isExist",
              "type": "bool"
            },
            {
              "internalType": "enum LabelChainHelper.ProductStatus",
              "name": "status",
              "type": "uint8"
            }
          ],
          "internalType": "struct LabelChainHelper.Product",
          "name": "",
          "type": "tuple"
        },
        {
          "components": [
            {
              "internalType": "bytes32",
              "name": "energy",
              "type": "bytes32"
            },
            {
              "internalType": "bytes32",
              "name": "energy_kcal",
              "type": "bytes32"
            },
            {
              "internalType": "bytes32",
              "name": "proteines",
              "type": "bytes32"
            },
            {
              "internalType": "bytes32",
              "name": "carbohydrates",
              "type": "bytes32"
            },
            {
              "internalType": "bytes32",
              "name": "salt",
              "type": "bytes32"
            },
            {
              "internalType": "bytes32",
              "name": "sugars",
              "type": "bytes32"
            },
            {
              "internalType": "bytes32",
              "name": "fat",
              "type": "bytes32"
            },
            {
              "internalType": "bytes32",
              "name": "saturated_fat",
              "type": "bytes32"
            },
            {
              "internalType": "bytes32",
              "name": "fiber",
              "type": "bytes32"
            },
            {
              "internalType": "bytes32",
              "name": "sodium",
              "type": "bytes32"
            }
          ],
          "internalType": "struct LabelChainHelper.Nutriment",
          "name": "",
          "type": "tuple"
        }
      ],
      "payable": false,
      "stateMutability": "view",
      "type": "function"
    },
    {
      "constant": true,
      "inputs": [],
      "name": "getProductsAccepted",
      "outputs": [
        {
          "components": [
            {
              "internalType": "address",
              "name": "productProposerAddress",
              "type": "address"
            },
            {
              "internalType": "uint16",
              "name": "quantity",
              "type": "uint16"
            },
            {
              "internalType": "uint16",
              "name": "forVotes",
              "type": "uint16"
            },
            {
              "internalType": "uint16",
              "name": "againstVotes",
              "type": "uint16"
            },
            {
              "internalType": "uint64",
              "name": "productCode",
              "type": "uint64"
            },
            {
              "internalType": "uint64",
              "name": "created_t",
              "type": "uint64"
            },
            {
              "internalType": "uint64",
              "name": "endDate",
              "type": "uint64"
            },
            {
              "internalType": "uint32",
              "name": "productId",
              "type": "uint32"
            },
            {
              "internalType": "string",
              "name": "productName",
              "type": "string"
            },
            {
              "internalType": "string[]",
              "name": "labels",
              "type": "string[]"
            },
            {
              "internalType": "string[]",
              "name": "ingredients",
              "type": "string[]"
            },
            {
              "internalType": "string[]",
              "name": "additifs",
              "type": "string[]"
            },
            {
              "internalType": "string",
              "name": "typeOfProduct",
              "type": "string"
            },
            {
              "internalType": "string[]",
              "name": "packaging",
              "type": "string[]"
            },
            {
              "internalType": "bool",
              "name": "isExist",
              "type": "bool"
            },
            {
              "internalType": "enum LabelChainHelper.ProductStatus",
              "name": "status",
              "type": "uint8"
            }
          ],
          "internalType": "struct LabelChainHelper.Product[]",
          "name": "",
          "type": "tuple[]"
        },
        {
          "components": [
            {
              "internalType": "bytes32",
              "name": "energy",
              "type": "bytes32"
            },
            {
              "internalType": "bytes32",
              "name": "energy_kcal",
              "type": "bytes32"
            },
            {
              "internalType": "bytes32",
              "name": "proteines",
              "type": "bytes32"
            },
            {
              "internalType": "bytes32",
              "name": "carbohydrates",
              "type": "bytes32"
            },
            {
              "internalType": "bytes32",
              "name": "salt",
              "type": "bytes32"
            },
            {
              "internalType": "bytes32",
              "name": "sugars",
              "type": "bytes32"
            },
            {
              "internalType": "bytes32",
              "name": "fat",
              "type": "bytes32"
            },
            {
              "internalType": "bytes32",
              "name": "saturated_fat",
              "type": "bytes32"
            },
            {
              "internalType": "bytes32",
              "name": "fiber",
              "type": "bytes32"
            },
            {
              "internalType": "bytes32",
              "name": "sodium",
              "type": "bytes32"
            }
          ],
          "internalType": "struct LabelChainHelper.Nutriment[]",
          "name": "",
          "type": "tuple[]"
        }
      ],
      "payable": false,
      "stateMutability": "view",
      "type": "function"
    },
    {
      "constant": true,
      "inputs": [],
      "name": "getProductsVoting",
      "outputs": [
        {
          "components": [
            {
              "internalType": "address",
              "name": "productProposerAddress",
              "type": "address"
            },
            {
              "internalType": "uint16",
              "name": "quantity",
              "type": "uint16"
            },
            {
              "internalType": "uint16",
              "name": "forVotes",
              "type": "uint16"
            },
            {
              "internalType": "uint16",
              "name": "againstVotes",
              "type": "uint16"
            },
            {
              "internalType": "uint64",
              "name": "productCode",
              "type": "uint64"
            },
            {
              "internalType": "uint64",
              "name": "created_t",
              "type": "uint64"
            },
            {
              "internalType": "uint64",
              "name": "endDate",
              "type": "uint64"
            },
            {
              "internalType": "uint32",
              "name": "productId",
              "type": "uint32"
            },
            {
              "internalType": "string",
              "name": "productName",
              "type": "string"
            },
            {
              "internalType": "string[]",
              "name": "labels",
              "type": "string[]"
            },
            {
              "internalType": "string[]",
              "name": "ingredients",
              "type": "string[]"
            },
            {
              "internalType": "string[]",
              "name": "additifs",
              "type": "string[]"
            },
            {
              "internalType": "string",
              "name": "typeOfProduct",
              "type": "string"
            },
            {
              "internalType": "string[]",
              "name": "packaging",
              "type": "string[]"
            },
            {
              "internalType": "bool",
              "name": "isExist",
              "type": "bool"
            },
            {
              "internalType": "enum LabelChainHelper.ProductStatus",
              "name": "status",
              "type": "uint8"
            }
          ],
          "internalType": "struct LabelChainHelper.Product[]",
          "name": "",
          "type": "tuple[]"
        },
        {
          "components": [
            {
              "internalType": "bytes32",
              "name": "energy",
              "type": "bytes32"
            },
            {
              "internalType": "bytes32",
              "name": "energy_kcal",
              "type": "bytes32"
            },
            {
              "internalType": "bytes32",
              "name": "proteines",
              "type": "bytes32"
            },
            {
              "internalType": "bytes32",
              "name": "carbohydrates",
              "type": "bytes32"
            },
            {
              "internalType": "bytes32",
              "name": "salt",
              "type": "bytes32"
            },
            {
              "internalType": "bytes32",
              "name": "sugars",
              "type": "bytes32"
            },
            {
              "internalType": "bytes32",
              "name": "fat",
              "type": "bytes32"
            },
            {
              "internalType": "bytes32",
              "name": "saturated_fat",
              "type": "bytes32"
            },
            {
              "internalType": "bytes32",
              "name": "fiber",
              "type": "bytes32"
            },
            {
              "internalType": "bytes32",
              "name": "sodium",
              "type": "bytes32"
            }
          ],
          "internalType": "struct LabelChainHelper.Nutriment[]",
          "name": "",
          "type": "tuple[]"
        }
      ],
      "payable": false,
      "stateMutability": "view",
      "type": "function"
    },
    {
      "constant": true,
      "inputs": [
        {
          "internalType": "uint256",
          "name": "_productCode",
          "type": "uint256"
        }
      ],
      "name": "getProposedProduct",
      "outputs": [
        {
          "components": [
            {
              "internalType": "address",
              "name": "productProposerAddress",
              "type": "address"
            },
            {
              "internalType": "uint16",
              "name": "quantity",
              "type": "uint16"
            },
            {
              "internalType": "uint16",
              "name": "forVotes",
              "type": "uint16"
            },
            {
              "internalType": "uint16",
              "name": "againstVotes",
              "type": "uint16"
            },
            {
              "internalType": "uint64",
              "name": "productCode",
              "type": "uint64"
            },
            {
              "internalType": "uint64",
              "name": "created_t",
              "type": "uint64"
            },
            {
              "internalType": "uint64",
              "name": "endDate",
              "type": "uint64"
            },
            {
              "internalType": "uint32",
              "name": "productId",
              "type": "uint32"
            },
            {
              "internalType": "string",
              "name": "productName",
              "type": "string"
            },
            {
              "internalType": "string[]",
              "name": "labels",
              "type": "string[]"
            },
            {
              "internalType": "string[]",
              "name": "ingredients",
              "type": "string[]"
            },
            {
              "internalType": "string[]",
              "name": "additifs",
              "type": "string[]"
            },
            {
              "internalType": "string",
              "name": "typeOfProduct",
              "type": "string"
            },
            {
              "internalType": "string[]",
              "name": "packaging",
              "type": "string[]"
            },
            {
              "internalType": "bool",
              "name": "isExist",
              "type": "bool"
            },
            {
              "internalType": "enum LabelChainHelper.ProductStatus",
              "name": "status",
              "type": "uint8"
            }
          ],
          "internalType": "struct LabelChainHelper.Product",
          "name": "",
          "type": "tuple"
        },
        {
          "components": [
            {
              "internalType": "bytes32",
              "name": "energy",
              "type": "bytes32"
            },
            {
              "internalType": "bytes32",
              "name": "energy_kcal",
              "type": "bytes32"
            },
            {
              "internalType": "bytes32",
              "name": "proteines",
              "type": "bytes32"
            },
            {
              "internalType": "bytes32",
              "name": "carbohydrates",
              "type": "bytes32"
            },
            {
              "internalType": "bytes32",
              "name": "salt",
              "type": "bytes32"
            },
            {
              "internalType": "bytes32",
              "name": "sugars",
              "type": "bytes32"
            },
            {
              "internalType": "bytes32",
              "name": "fat",
              "type": "bytes32"
            },
            {
              "internalType": "bytes32",
              "name": "saturated_fat",
              "type": "bytes32"
            },
            {
              "internalType": "bytes32",
              "name": "fiber",
              "type": "bytes32"
            },
            {
              "internalType": "bytes32",
              "name": "sodium",
              "type": "bytes32"
            }
          ],
          "internalType": "struct LabelChainHelper.Nutriment",
          "name": "",
          "type": "tuple"
        }
      ],
      "payable": false,
      "stateMutability": "view",
      "type": "function"
    },
    {
      "constant": true,
      "inputs": [
        {
          "internalType": "uint256",
          "name": "_productCode",
          "type": "uint256"
        }
      ],
      "name": "isAlreadyVotedByCurrentUser",
      "outputs": [
        {
          "internalType": "bool",
          "name": "",
          "type": "bool"
        }
      ],
      "payable": false,
      "stateMutability": "view",
      "type": "function"
    },
    {
      "constant": true,
      "inputs": [
        {
          "internalType": "uint256",
          "name": "_productCode",
          "type": "uint256"
        }
      ],
      "name": "isDateOK",
      "outputs": [
        {
          "internalType": "bool",
          "name": "",
          "type": "bool"
        }
      ],
      "payable": false,
      "stateMutability": "view",
      "type": "function"
    },
    {
      "constant": true,
      "inputs": [
        {
          "internalType": "uint256",
          "name": "_productCode",
          "type": "uint256"
        }
      ],
      "name": "isProposer",
      "outputs": [
        {
          "internalType": "bool",
          "name": "",
          "type": "bool"
        }
      ],
      "payable": false,
      "stateMutability": "view",
      "type": "function"
    },
    {
      "constant": true,
      "inputs": [
        {
          "internalType": "uint256",
          "name": "",
          "type": "uint256"
        }
      ],
      "name": "productCodeToNutriments",
      "outputs": [
        {
          "internalType": "bytes32",
          "name": "energy",
          "type": "bytes32"
        },
        {
          "internalType": "bytes32",
          "name": "energy_kcal",
          "type": "bytes32"
        },
        {
          "internalType": "bytes32",
          "name": "proteines",
          "type": "bytes32"
        },
        {
          "internalType": "bytes32",
          "name": "carbohydrates",
          "type": "bytes32"
        },
        {
          "internalType": "bytes32",
          "name": "salt",
          "type": "bytes32"
        },
        {
          "internalType": "bytes32",
          "name": "sugars",
          "type": "bytes32"
        },
        {
          "internalType": "bytes32",
          "name": "fat",
          "type": "bytes32"
        },
        {
          "internalType": "bytes32",
          "name": "saturated_fat",
          "type": "bytes32"
        },
        {
          "internalType": "bytes32",
          "name": "fiber",
          "type": "bytes32"
        },
        {
          "internalType": "bytes32",
          "name": "sodium",
          "type": "bytes32"
        }
      ],
      "payable": false,
      "stateMutability": "view",
      "type": "function"
    },
    {
      "constant": true,
      "inputs": [
        {
          "internalType": "uint256",
          "name": "",
          "type": "uint256"
        }
      ],
      "name": "productCodeToProduct",
      "outputs": [
        {
          "internalType": "address",
          "name": "productProposerAddress",
          "type": "address"
        },
        {
          "internalType": "uint16",
          "name": "quantity",
          "type": "uint16"
        },
        {
          "internalType": "uint16",
          "name": "forVotes",
          "type": "uint16"
        },
        {
          "internalType": "uint16",
          "name": "againstVotes",
          "type": "uint16"
        },
        {
          "internalType": "uint64",
          "name": "productCode",
          "type": "uint64"
        },
        {
          "internalType": "uint64",
          "name": "created_t",
          "type": "uint64"
        },
        {
          "internalType": "uint64",
          "name": "endDate",
          "type": "uint64"
        },
        {
          "internalType": "uint32",
          "name": "productId",
          "type": "uint32"
        },
        {
          "internalType": "string",
          "name": "productName",
          "type": "string"
        },
        {
          "internalType": "string",
          "name": "typeOfProduct",
          "type": "string"
        },
        {
          "internalType": "bool",
          "name": "isExist",
          "type": "bool"
        },
        {
          "internalType": "enum LabelChainHelper.ProductStatus",
          "name": "status",
          "type": "uint8"
        }
      ],
      "payable": false,
      "stateMutability": "view",
      "type": "function"
    },
    {
      "constant": true,
      "inputs": [
        {
          "internalType": "uint256",
          "name": "",
          "type": "uint256"
        }
      ],
      "name": "productCodeToProposalNutriments",
      "outputs": [
        {
          "internalType": "bytes32",
          "name": "energy",
          "type": "bytes32"
        },
        {
          "internalType": "bytes32",
          "name": "energy_kcal",
          "type": "bytes32"
        },
        {
          "internalType": "bytes32",
          "name": "proteines",
          "type": "bytes32"
        },
        {
          "internalType": "bytes32",
          "name": "carbohydrates",
          "type": "bytes32"
        },
        {
          "internalType": "bytes32",
          "name": "salt",
          "type": "bytes32"
        },
        {
          "internalType": "bytes32",
          "name": "sugars",
          "type": "bytes32"
        },
        {
          "internalType": "bytes32",
          "name": "fat",
          "type": "bytes32"
        },
        {
          "internalType": "bytes32",
          "name": "saturated_fat",
          "type": "bytes32"
        },
        {
          "internalType": "bytes32",
          "name": "fiber",
          "type": "bytes32"
        },
        {
          "internalType": "bytes32",
          "name": "sodium",
          "type": "bytes32"
        }
      ],
      "payable": false,
      "stateMutability": "view",
      "type": "function"
    },
    {
      "constant": true,
      "inputs": [
        {
          "internalType": "uint256",
          "name": "",
          "type": "uint256"
        }
      ],
      "name": "productCodeToProposalProduct",
      "outputs": [
        {
          "internalType": "address",
          "name": "productProposerAddress",
          "type": "address"
        },
        {
          "internalType": "uint16",
          "name": "quantity",
          "type": "uint16"
        },
        {
          "internalType": "uint16",
          "name": "forVotes",
          "type": "uint16"
        },
        {
          "internalType": "uint16",
          "name": "againstVotes",
          "type": "uint16"
        },
        {
          "internalType": "uint64",
          "name": "productCode",
          "type": "uint64"
        },
        {
          "internalType": "uint64",
          "name": "created_t",
          "type": "uint64"
        },
        {
          "internalType": "uint64",
          "name": "endDate",
          "type": "uint64"
        },
        {
          "internalType": "uint32",
          "name": "productId",
          "type": "uint32"
        },
        {
          "internalType": "string",
          "name": "productName",
          "type": "string"
        },
        {
          "internalType": "string",
          "name": "typeOfProduct",
          "type": "string"
        },
        {
          "internalType": "bool",
          "name": "isExist",
          "type": "bool"
        },
        {
          "internalType": "enum LabelChainHelper.ProductStatus",
          "name": "status",
          "type": "uint8"
        }
      ],
      "payable": false,
      "stateMutability": "view",
      "type": "function"
    },
    {
      "constant": false,
      "inputs": [
        {
          "internalType": "uint64",
          "name": "_productCode",
          "type": "uint64"
        },
        {
          "internalType": "string",
          "name": "_productName",
          "type": "string"
        },
        {
          "internalType": "string[]",
          "name": "_labels",
          "type": "string[]"
        },
        {
          "internalType": "string[]",
          "name": "_ingredients",
          "type": "string[]"
        },
        {
          "internalType": "uint16",
          "name": "_quantity",
          "type": "uint16"
        },
        {
          "internalType": "string",
          "name": "_typeOfProduct",
          "type": "string"
        },
        {
          "internalType": "string[]",
          "name": "_packaging",
          "type": "string[]"
        },
        {
          "components": [
            {
              "internalType": "bytes32",
              "name": "energy",
              "type": "bytes32"
            },
            {
              "internalType": "bytes32",
              "name": "energy_kcal",
              "type": "bytes32"
            },
            {
              "internalType": "bytes32",
              "name": "proteines",
              "type": "bytes32"
            },
            {
              "internalType": "bytes32",
              "name": "carbohydrates",
              "type": "bytes32"
            },
            {
              "internalType": "bytes32",
              "name": "salt",
              "type": "bytes32"
            },
            {
              "internalType": "bytes32",
              "name": "sugars",
              "type": "bytes32"
            },
            {
              "internalType": "bytes32",
              "name": "fat",
              "type": "bytes32"
            },
            {
              "internalType": "bytes32",
              "name": "saturated_fat",
              "type": "bytes32"
            },
            {
              "internalType": "bytes32",
              "name": "fiber",
              "type": "bytes32"
            },
            {
              "internalType": "bytes32",
              "name": "sodium",
              "type": "bytes32"
            }
          ],
          "internalType": "struct LabelChainHelper.Nutriment",
          "name": "_nutriments",
          "type": "tuple"
        },
        {
          "internalType": "string[]",
          "name": "_additifs",
          "type": "string[]"
        },
        {
          "internalType": "enum LabelChainHelper.ProductStatus",
          "name": "_status",
          "type": "uint8"
        }
      ],
      "name": "addProductToProposal",
      "outputs": [],
      "payable": false,
      "stateMutability": "nonpayable",
      "type": "function"
    },
    {
      "constant": true,
      "inputs": [
        {
          "internalType": "uint256",
          "name": "_productCode",
          "type": "uint256"
        }
      ],
      "name": "checkProductIsNew",
      "outputs": [
        {
          "internalType": "bool",
          "name": "",
          "type": "bool"
        }
      ],
      "payable": false,
      "stateMutability": "view",
      "type": "function"
    },
    {
      "constant": false,
      "inputs": [
        {
          "internalType": "bool",
          "name": "_opinion",
          "type": "bool"
        },
        {
          "internalType": "uint256",
          "name": "_productCode",
          "type": "uint256"
        }
      ],
      "name": "vote",
      "outputs": [],
      "payable": false,
      "stateMutability": "nonpayable",
      "type": "function"
    },
    {
      "constant": false,
      "inputs": [
        {
          "internalType": "uint256",
          "name": "_productCode",
          "type": "uint256"
        },
        {
          "internalType": "address",
          "name": "proposerAddress",
          "type": "address"
        }
      ],
      "name": "endVote",
      "outputs": [],
      "payable": false,
      "stateMutability": "nonpayable",
      "type": "function"
    },
    {
      "constant": false,
      "inputs": [],
      "name": "subscribeUser",
      "outputs": [
        {
          "components": [
            {
              "internalType": "uint32",
              "name": "userId",
              "type": "uint32"
            },
            {
              "internalType": "uint256",
              "name": "lastTimeTokenGiven",
              "type": "uint256"
            },
            {
              "internalType": "int16",
              "name": "tokenNumber",
              "type": "int16"
            },
            {
              "internalType": "int16",
              "name": "reputation",
              "type": "int16"
            },
            {
              "internalType": "bool",
              "name": "isExist",
              "type": "bool"
            }
          ],
          "internalType": "struct LabelChainHelper.User",
          "name": "",
          "type": "tuple"
        }
      ],
      "payable": false,
      "stateMutability": "nonpayable",
      "type": "function"
    }
  ],
  "bytecode": "0x608060405234801561001057600080fd5b50600d80546001600160a01b031916331790819055600080547b712eb6c16ab3694b684b6c74b40a676c6d13621a0000000000000000600160401b600160e01b0319909116178082556040805160a08101825263ffffffff9283168152426020808301918252600a838501908152606084018781526001608086018181526001600160a01b039a909a16895260059093529487209351845490871663ffffffff1991821617855592518483015551600290930180549451975115156401000000000260ff60201b1998830b61ffff908116620100000263ffff00001996850b90911661ffff19909716969096179490941694909417969096169190911790915582548083169094019091169216919091179055614a19806101326000396000f3fe608060405234801561001057600080fd5b50600436106101165760003560e01c806393b6e35e116100a2578063cfea702911610071578063cfea70291461026b578063d54d6c7014610273578063d62192fb14610286578063eafc9df314610299578063edf53886146102ac57610116565b806393b6e35e1461021f578063a9bfcb2214610232578063b9db15b414610245578063be301d341461025857610116565b806361ef3c15116100e957806361ef3c1514610198578063639b7f82146101c35780636c0a38b1146101d65780636c9672ff146101e9578063939d525a146101fe57610116565b80630574d8081461011b57806306e65f481461014d57806310e6e06c1461016d57806313431cc514610182575b600080fd5b61012e610129366004613e8e565b6102d0565b6040516101449a99989796959493929190614722565b60405180910390f35b61016061015b366004613e8e565b610324565b6040516101449190614714565b61018061017b366004613e54565b610344565b005b61018a6105be565b6040516101449291906146ef565b6101ab6101a6366004613e8e565b610c20565b6040516101449c9b9a9998979695949392919061462e565b6101606101d1366004613e8e565b610dc5565b6101806101e4366004613f29565b610dec565b6101f16118d6565b6040516101449190614818565b61021161020c366004613e8e565b6119c8565b6040516101449291906147f7565b61016061022d366004613edc565b611fae565b610180610240366004613eac565b611ff1565b610211610253366004613e8e565b612168565b610160610266366004613e8e565b612698565b61018a6126b8565b6101ab610281366004613e8e565b612c4e565b61012e610294366004613e8e565b612d1c565b6101606102a7366004613e8e565b612d70565b6102bf6102ba366004613e2e565b612dd2565b604051610144959493929190614826565b600a602052806000526040600020600091509050806000015490806001015490806002015490806003015490806004015490806005015490806006015490806007015490806008015490806009015490508a565b6000818152600760205260409020546001600160a01b031633145b919050565b33600090815260056020526040812060020154600190810b900b1361036857600080fd5b6000818152600760205260409020600101546001600160401b03600160801b82048116600160401b909204161061039e57600080fd5b600081815260066020908152604080832033845290915290205460ff16156103c557600080fd5b6001600082815260076020526040902060080154610100900460ff1660048111156103ec57fe5b148061041c57506003600082815260096020526040902060080154610100900460ff16600481111561041a57fe5b145b61042557600080fd5b60008181526006602090815260408083203384529091529020805460ff1916600190811790915582151514156104e1576000818152600760205260409020805461ffff60b01b198116600160b01b9182900461ffff9081166001908101909116909202178255908101548154600160c01b90910463ffffffff169081106104a857fe5b600091825260209091206009909102018054600161ffff600160b01b808404821692909201160261ffff60b01b19909116179055610566565b6000818152600760205260409020805461ffff60c01b198116600160c01b9182900461ffff9081166001908101909116830291909117835591820154825491900463ffffffff1690811061053157fe5b600091825260209091206009909102018054600161ffff600160c01b808404821692909201160261ffff60c01b199091161790555b6000908152600660209081526040808320338452825280832080549415156101000261ff00199095169490941790935560059052206002018054600019600182810b91909101900b61ffff1661ffff19909116179055565b6060806001600281805480602002602001604051908101604052809291908181526020016000905b82821015610b5457600084815260209081902060408051610200810182526009860290920180546001600160a01b0381168452600160a01b810461ffff90811685870152600160b01b8204811685850152600160c01b918290041660608501526001808301546001600160401b038082166080880152600160401b8204811660a0880152600160801b82041660c08701529190910463ffffffff1660e08501526002808301805485516101009482161585026000190190911692909204601f8101889004880283018801909552848252949592949186019390928301828280156107115780601f106106e657610100808354040283529160200191610711565b820191906000526020600020905b8154815290600101906020018083116106f457829003601f168201915b5050505050815260200160038201805480602002602001604051908101604052809291908181526020016000905b828210156107ea5760008481526020908190208301805460408051601f60026000196101006001871615020190941693909304928301859004850281018501909152818152928301828280156107d65780601f106107ab576101008083540402835291602001916107d6565b820191906000526020600020905b8154815290600101906020018083116107b957829003601f168201915b50505050508152602001906001019061073f565b50505050815260200160048201805480602002602001604051908101604052809291908181526020016000905b828210156108c25760008481526020908190208301805460408051601f60026000196101006001871615020190941693909304928301859004850281018501909152818152928301828280156108ae5780601f10610883576101008083540402835291602001916108ae565b820191906000526020600020905b81548152906001019060200180831161089157829003601f168201915b505050505081526020019060010190610817565b50505050815260200160058201805480602002602001604051908101604052809291908181526020016000905b8282101561099a5760008481526020908190208301805460408051601f60026000196101006001871615020190941693909304928301859004850281018501909152818152928301828280156109865780601f1061095b57610100808354040283529160200191610986565b820191906000526020600020905b81548152906001019060200180831161096957829003601f168201915b5050505050815260200190600101906108ef565b5050509082525060068201805460408051602060026001851615610100026000190190941693909304601f8101849004840282018401909252818152938201939291830182828015610a2d5780601f10610a0257610100808354040283529160200191610a2d565b820191906000526020600020905b815481529060010190602001808311610a1057829003601f168201915b5050505050815260200160078201805480602002602001604051908101604052809291908181526020016000905b82821015610b065760008481526020908190208301805460408051601f6002600019610100600187161502019094169390930492830185900485028101850190915281815292830182828015610af25780601f10610ac757610100808354040283529160200191610af2565b820191906000526020600020905b815481529060010190602001808311610ad557829003601f168201915b505050505081526020019060010190610a5b565b50505090825250600882015460ff80821615156020840152604090920191610100909104166004811115610b3657fe5b6004811115610b4157fe5b81525050815260200190600101906105e6565b50505050915080805480602002602001604051908101604052809291908181526020016000905b82821015610c1257838290600052602060002090600a02016040518061014001604052908160008201548152602001600182015481526020016002820154815260200160038201548152602001600482015481526020016005820154815260200160068201548152602001600782015481526020016008820154815260200160098201548152505081526020019060010190610b7b565b505050509050915091509091565b60096020908152600091825260409182902080546001808301546002808501805488516101009582161595909502600019011691909104601f81018790048702840187019097528683526001600160a01b03841696600160a01b850461ffff90811697600160b01b8704821697600160c01b97889004909216966001600160401b0380871697600160401b8804821697600160801b8104909216969290910463ffffffff16949092830182828015610d195780601f10610cee57610100808354040283529160200191610d19565b820191906000526020600020905b815481529060010190602001808311610cfc57829003601f168201915b5050505060068301805460408051602060026001851615610100026000190190941693909304601f8101849004840282018401909252818152949594935090830182828015610da95780601f10610d7e57610100808354040283529160200191610da9565b820191906000526020600020905b815481529060010190602001808311610d8c57829003601f168201915b5050506008909301549192505060ff808216916101009004168c565b600090815260076020526040902060010154600160801b90046001600160401b0316421090565b896001600160401b0316650102b36211c78111610e0857600080fd5b33600090815260056020526040902060020154640100000000900460ff161515600114610e3457600080fd5b6001600160401b038b1660009081526007602052604090206008015460ff1615610e5d57600080fd5b610e656138ef565b610e6d613970565b600054640100000000900463ffffffff1660e08301526001600160401b038d8116608084015261010083018d905233835261012083018c905261014083018b9052610160830186905261ffff8a16602084015261018083018990526101a0830188905260016101c08401524280821660a0850152600a011660c08301526101e08201846004811115610efb57fe5b90816004811115610f0857fe5b9052506001600160401b038d811660009081526007602090815260409182902085518154878401519488015160608901516001600160a01b03199092166001600160a01b039093169290921761ffff60a01b1916600160a01b61ffff968716021761ffff60b01b1916600160b01b928616929092029190911761ffff60c01b1916600160c01b949091168402178155608086015160018201805460a089015160c08a015160e08b015167ffffffffffffffff199093169489169490941767ffffffffffffffff60401b1916600160401b918916919091021767ffffffffffffffff60801b1916600160801b93909716929092029590951763ffffffff60c01b191663ffffffff90911690930292909217909255610100840151805185936110369260028501929101906139c4565b506101208201518051611053916003840191602090910190613a42565b506101408201518051611070916004840191602090910190613a42565b50610160820151805161108d916005840191602090910190613a42565b5061018082015180516110aa9160068401916020909101906139c4565b506101a082015180516110c7916007840191602090910190613a42565b506101c082015160088201805460ff1916911515919091178082556101e0840151919061ff0019166101008360048111156110fe57fe5b021790555090505081600b6000336001600160a01b03166001600160a01b0316815260200190815260200160002060008f6001600160401b0316815260200190815260200160002060008201518160000160006101000a8154816001600160a01b0302191690836001600160a01b0316021790555060208201518160000160146101000a81548161ffff021916908361ffff16021790555060408201518160000160166101000a81548161ffff021916908361ffff16021790555060608201518160000160186101000a81548161ffff021916908361ffff16021790555060808201518160010160006101000a8154816001600160401b0302191690836001600160401b0316021790555060a08201518160010160086101000a8154816001600160401b0302191690836001600160401b0316021790555060c08201518160010160106101000a8154816001600160401b0302191690836001600160401b0316021790555060e08201518160010160186101000a81548163ffffffff021916908363ffffffff1602179055506101008201518160020190805190602001906112a79291906139c4565b5061012082015180516112c4916003840191602090910190613a42565b5061014082015180516112e1916004840191602090910190613a42565b5061016082015180516112fe916005840191602090910190613a42565b50610180820151805161131b9160068401916020909101906139c4565b506101a08201518051611338916007840191602090910190613a42565b506101c082015160088201805460ff1916911515919091178082556101e0840151919061ff00191661010083600481111561136f57fe5b02179055505060018054808201808355600092909252845160099091027fb10e2d527612073b26eecdfd717e6a320cf44b4afac2b0732d9fcbe2b7fa0cf68101805460208089015160408a015160608b015161ffff908116600160c01b90810261ffff60c01b19938316600160b01b0261ffff60b01b1993909516600160a01b0261ffff60a01b196001600160a01b03909b166001600160a01b031990981697909717999099169590951716919091171694909417825560808801517fb10e2d527612073b26eecdfd717e6a320cf44b4afac2b0732d9fcbe2b7fa0cf78401805460a08b015160c08c015160e08d015163ffffffff1690950263ffffffff60c01b196001600160401b03968716600160801b0267ffffffffffffffff60801b19938816600160401b0267ffffffffffffffff60401b199890971667ffffffffffffffff19909516949094179690961694909417161792909216179055610100870151805194955087949193611509937fb10e2d527612073b26eecdfd717e6a320cf44b4afac2b0732d9fcbe2b7fa0cf801929101906139c4565b506101208201518051611526916003840191602090910190613a42565b506101408201518051611543916004840191602090910190613a42565b506101608201518051611560916005840191602090910190613a42565b50610180820151805161157d9160068401916020909101906139c4565b506101a0820151805161159a916007840191602090910190613a42565b506101c082015160088201805460ff1916911515919091178082556101e0840151919061ff0019166101008360048111156115d157fe5b0217905550505050856060015181606001818152505085600001518160000181815250508560200151816020018181525050856040015181604001818152505085608001518160800181815250508560a001518160a00181815250508560c001518160c00181815250508560e001518160e00181815250508560c00151816101000181815250508561012001518161012001818152505080600860008f6001600160401b03168152602001908152602001600020600082015181600001556020820151816001015560408201518160020155606082015181600301556080820151816004015560a0820151816005015560c0820151816006015560e08201518160070155610100820151816008015561012082015181600901559050506002819080600181540180825580915050906001820390600052602060002090600a020160009091929091909150600082015181600001556020820151816001015560408201518160020155606082015181600301556080820151816004015560a0820151816005015560c0820151816006015560e08201518160070155610100820151816008015561012082015181600901555050506000600481819054906101000a900463ffffffff168092919060010191906101000a81548163ffffffff021916908363ffffffff1602179055505080600c6000336001600160a01b03166001600160a01b0316815260200190815260200160002060008f6001600160401b03168152602001908152602001600020600082015181600001556020820151816001015560408201518160020155606082015181600301556080820151816004015560a0820151816005015560c0820151816006015560e082015181600701556101008201518160080155610120820151816009015590505060056000336001600160a01b03166001600160a01b03168152602001908152602001600020600201600081819054906101000a900460010b809291906001900391906101000a81548161ffff021916908360010b61ffff1602179055505050505050505050505050505050565b6118de613a9b565b33600090815260056020526040902060020154640100000000900460ff161561190657600080fd5b61190e613a9b565b6000805463ffffffff80821680855242602080870191825260056040808901828152603260608b01908152600160808c01818152978101891663ffffffff199a8b16178b55338b52939094529720885181549616959096169490941785559051848401559351600290930180549451915115156401000000000264ff000000001992840b61ffff908116620100000263ffff0000199690950b1661ffff199096169590951793909316919091171691909117905590505b90565b6119d06138ef565b6119d8613970565b6000838152600760209081526040808320600883529281902081516102008101835284546001600160a01b0381168252600160a01b810461ffff90811683870152600160b01b8204811683860152600160c01b918290041660608301526001808701546001600160401b038082166080860152600160401b8204811660a0860152600160801b82041660c08501529190910463ffffffff1660e08301526002808701805486516101009482161585026000190190911692909204601f810188900488028301880190965285825293959294879492860193919291830182828015611b035780601f10611ad857610100808354040283529160200191611b03565b820191906000526020600020905b815481529060010190602001808311611ae657829003601f168201915b5050505050815260200160038201805480602002602001604051908101604052809291908181526020016000905b82821015611bdc5760008481526020908190208301805460408051601f6002600019610100600187161502019094169390930492830185900485028101850190915281815292830182828015611bc85780601f10611b9d57610100808354040283529160200191611bc8565b820191906000526020600020905b815481529060010190602001808311611bab57829003601f168201915b505050505081526020019060010190611b31565b50505050815260200160048201805480602002602001604051908101604052809291908181526020016000905b82821015611cb45760008481526020908190208301805460408051601f6002600019610100600187161502019094169390930492830185900485028101850190915281815292830182828015611ca05780601f10611c7557610100808354040283529160200191611ca0565b820191906000526020600020905b815481529060010190602001808311611c8357829003601f168201915b505050505081526020019060010190611c09565b50505050815260200160058201805480602002602001604051908101604052809291908181526020016000905b82821015611d8c5760008481526020908190208301805460408051601f6002600019610100600187161502019094169390930492830185900485028101850190915281815292830182828015611d785780601f10611d4d57610100808354040283529160200191611d78565b820191906000526020600020905b815481529060010190602001808311611d5b57829003601f168201915b505050505081526020019060010190611ce1565b5050509082525060068201805460408051602060026001851615610100026000190190941693909304601f8101849004840282018401909252818152938201939291830182828015611e1f5780601f10611df457610100808354040283529160200191611e1f565b820191906000526020600020905b815481529060010190602001808311611e0257829003601f168201915b5050505050815260200160078201805480602002602001604051908101604052809291908181526020016000905b82821015611ef85760008481526020908190208301805460408051601f6002600019610100600187161502019094169390930492830185900485028101850190915281815292830182828015611ee45780601f10611eb957610100808354040283529160200191611ee4565b820191906000526020600020905b815481529060010190602001808311611ec757829003601f168201915b505050505081526020019060010190611e4d565b50505090825250600882015460ff80821615156020840152604090920191610100909104166004811115611f2857fe5b6004811115611f3357fe5b905250604080516101408101825283548152600184015460208201526002840154918101919091526003830154606082015260048301546080820152600583015460a0820152600683015460c0820152600783015460e082015260088301546101008201526009909201546101208301529350915050915091565b60066020528260005260406000206020528160005260406000208160028110611fd357fe5b602081049091015460ff601f9092166101000a900416925083915050565b600054600160401b90046001600160a01b0316331461202b5760405162461bcd60e51b8152600401612022906147d7565b60405180910390fd5b6000828152600760205260409020600101546001600160401b03600160801b82048116600160401b90920416106120745760405162461bcd60e51b8152600401612022906147e7565b6001600083815260076020526040902060080154610100900460ff16600481111561209b57fe5b14806120cb57506003600083815260076020526040902060080154610100900460ff1660048111156120c957fe5b145b6120e75760405162461bcd60e51b8152600401612022906147b7565b60008281526007602052604090206008015460ff166121185760405162461bcd60e51b8152600401612022906147c7565b60008281526007602052604090205461ffff600160c01b82048116600160b01b90920416106121505761214b8282612e13565b61215a565b61215a828261365f565b61216482826136b2565b5050565b6121706138ef565b612178613970565b6000838152600960209081526040808320600a83529281902081516102008101835284546001600160a01b0381168252600160a01b810461ffff90811683870152600160b01b8204811683860152600160c01b918290041660608301526001808701546001600160401b038082166080860152600160401b8204811660a0860152600160801b82041660c08501529190910463ffffffff1660e08301526002808701805486516101009482161585026000190190911692909204601f8101889004880283018801909652858252939592948794928601939192918301828280156122a35780601f10612278576101008083540402835291602001916122a3565b820191906000526020600020905b81548152906001019060200180831161228657829003601f168201915b5050505050815260200160038201805480602002602001604051908101604052809291908181526020016000905b8282101561237c5760008481526020908190208301805460408051601f60026000196101006001871615020190941693909304928301859004850281018501909152818152928301828280156123685780601f1061233d57610100808354040283529160200191612368565b820191906000526020600020905b81548152906001019060200180831161234b57829003601f168201915b5050505050815260200190600101906122d1565b50505050815260200160048201805480602002602001604051908101604052809291908181526020016000905b828210156124545760008481526020908190208301805460408051601f60026000196101006001871615020190941693909304928301859004850281018501909152818152928301828280156124405780601f1061241557610100808354040283529160200191612440565b820191906000526020600020905b81548152906001019060200180831161242357829003601f168201915b5050505050815260200190600101906123a9565b50505050815260200160058201805480602002602001604051908101604052809291908181526020016000905b8282101561252c5760008481526020908190208301805460408051601f60026000196101006001871615020190941693909304928301859004850281018501909152818152928301828280156125185780601f106124ed57610100808354040283529160200191612518565b820191906000526020600020905b8154815290600101906020018083116124fb57829003601f168201915b505050505081526020019060010190612481565b5050509082525060068201805460408051602060026001851615610100026000190190941693909304601f81018490048402820184019092528181529382019392918301828280156125bf5780601f10612594576101008083540402835291602001916125bf565b820191906000526020600020905b8154815290600101906020018083116125a257829003601f168201915b5050505050815260200160078201805480602002602001604051908101604052809291908181526020016000905b82821015611ef85760008481526020908190208301805460408051601f60026000196101006001871615020190941693909304928301859004850281018501909152818152928301828280156126845780601f1061265957610100808354040283529160200191612684565b820191906000526020600020905b81548152906001019060200180831161266757829003601f168201915b5050505050815260200190600101906125ed565b600090815260066020908152604080832033845290915290205460ff1690565b6060806003600481805480602002602001604051908101604052809291908181526020016000905b82821015610b5457600084815260209081902060408051610200810182526009860290920180546001600160a01b0381168452600160a01b810461ffff90811685870152600160b01b8204811685850152600160c01b918290041660608501526001808301546001600160401b038082166080880152600160401b8204811660a0880152600160801b82041660c08701529190910463ffffffff1660e08501526002808301805485516101009482161585026000190190911692909204601f81018890048802830188019095528482529495929491860193909283018282801561280b5780601f106127e05761010080835404028352916020019161280b565b820191906000526020600020905b8154815290600101906020018083116127ee57829003601f168201915b5050505050815260200160038201805480602002602001604051908101604052809291908181526020016000905b828210156128e45760008481526020908190208301805460408051601f60026000196101006001871615020190941693909304928301859004850281018501909152818152928301828280156128d05780601f106128a5576101008083540402835291602001916128d0565b820191906000526020600020905b8154815290600101906020018083116128b357829003601f168201915b505050505081526020019060010190612839565b50505050815260200160048201805480602002602001604051908101604052809291908181526020016000905b828210156129bc5760008481526020908190208301805460408051601f60026000196101006001871615020190941693909304928301859004850281018501909152818152928301828280156129a85780601f1061297d576101008083540402835291602001916129a8565b820191906000526020600020905b81548152906001019060200180831161298b57829003601f168201915b505050505081526020019060010190612911565b50505050815260200160058201805480602002602001604051908101604052809291908181526020016000905b82821015612a945760008481526020908190208301805460408051601f6002600019610100600187161502019094169390930492830185900485028101850190915281815292830182828015612a805780601f10612a5557610100808354040283529160200191612a80565b820191906000526020600020905b815481529060010190602001808311612a6357829003601f168201915b5050505050815260200190600101906129e9565b5050509082525060068201805460408051602060026001851615610100026000190190941693909304601f8101849004840282018401909252818152938201939291830182828015612b275780601f10612afc57610100808354040283529160200191612b27565b820191906000526020600020905b815481529060010190602001808311612b0a57829003601f168201915b5050505050815260200160078201805480602002602001604051908101604052809291908181526020016000905b82821015612c005760008481526020908190208301805460408051601f6002600019610100600187161502019094169390930492830185900485028101850190915281815292830182828015612bec5780601f10612bc157610100808354040283529160200191612bec565b820191906000526020600020905b815481529060010190602001808311612bcf57829003601f168201915b505050505081526020019060010190612b55565b50505090825250600882015460ff80821615156020840152604090920191610100909104166004811115612c3057fe5b6004811115612c3b57fe5b81525050815260200190600101906126e0565b60076020908152600091825260409182902080546001808301546002808501805488516101009582161595909502600019011691909104601f81018790048702840187019097528683526001600160a01b03841696600160a01b850461ffff90811697600160b01b8704821697600160c01b97889004909216966001600160401b0380871697600160401b8804821697600160801b8104909216969290910463ffffffff16949092830182828015610d195780601f10610cee57610100808354040283529160200191610d19565b6008602052806000526040600020600091509050806000015490806001015490806002015490806003015490806004015490806005015490806006015490806007015490806008015490806009015490508a565b600081650102b36211c78111612d8557600080fd5b60008381526007602052604090206008015460ff16158015612db9575060008381526009602052604090206008015460ff16155b15612dc75760019150612dcc565b600091505b50919050565b6005602052600090815260409020805460018083015460029093015463ffffffff909216929180820b91620100008204900b90640100000000900460ff1685565b6003600083815260076020526040902060080154610100900460ff166004811115612e3a57fe5b1415612f7b57600082815260096020526040902060010154600380549091600160c01b900463ffffffff16908110612e6e57fe5b60009182526020822060099091020180546001600160d01b03191681556001810180546001600160e01b031916905590612eab6002830182613ac9565b612eb9600383016000613b10565b612ec7600483016000613b10565b612ed5600583016000613b10565b612ee3600683016000613ac9565b612ef1600783016000613b10565b50600801805461ffff19169055600082815260096020526040902060010154600480549091600160c01b900463ffffffff16908110612f2c57fe5b600091825260208220600a909102018181556001810182905560028101829055600381018290556004810182905560058101829055600681018290556007810182905560088101829055600901555b60008281526007602090815260408083206008808201805461ff00199081166102009081179092556001600160a01b038881168852600b87528588208a895287528588209093018054909116909117905560099093529220825481546001600160a01b031916921691909117808255825461ffff600160a01b91829004811690910261ffff60a01b19909216919091178083558354600160b01b9081900483160261ffff60b01b19909116178083558354600160c01b90819004909216820261ffff60c01b1990911617825560018084018054848301805467ffffffffffffffff19166001600160401b03928316178082558354600160401b9081900484160267ffffffffffffffff60401b19909116178082558354600160801b9081900490931690920267ffffffffffffffff60801b1990921691909117808255915463ffffffff908590041690930263ffffffff60c01b1990911617909155600280840180546130fd938386019361010091831615919091026000190190911604613b2e565b50600382810180546131129284019190613ba3565b50600482810180546131279284019190613ba3565b506005828101805461313c9284019190613ba3565b5060068201816006019080546001816001161561010002031660029004613164929190613b2e565b50600782810180546131799284019190613ba3565b5060088281018054918301805460ff191660ff93841615151780825591546101009081900490931692909161ff001916908360048111156131b657fe5b021790555050506000828152600860208181526040808420600a83528185208154815560018083015481830155600280840154818401556003808501548185015560048086015490850155600580860154908501556006808601549085015560078086015481860155858901549885019890985560099485015493850193909355959094529185208254808501808555939096528054959091027fc2575a0e9e593c00f959f8c92f12db2869c3395a3b0502d05e2516446f71f85b810180546001600160a01b0319166001600160a01b0390971696909617808755825461ffff600160a01b91829004811690910261ffff60a01b19909216919091178088558354600160b01b9081900483160261ffff60b01b19909116178088558354600160c01b90819004909216820261ffff60c01b1990911617875582850180547fc2575a0e9e593c00f959f8c92f12db2869c3395a3b0502d05e2516446f71f85c8401805467ffffffffffffffff19166001600160401b03928316178082558354600160401b9081900484160267ffffffffffffffff60401b19909116178082558354600160801b9081900490931690920267ffffffffffffffff60801b1990921691909117808255915463ffffffff908490041690920263ffffffff60c01b1990911617905581850180549396929592946133e3947fc2575a0e9e593c00f959f8c92f12db2869c3395a3b0502d05e2516446f71f85d9093019391929081161561010002600019011604613b2e565b50600382810180546133f89284019190613ba3565b506004828101805461340d9284019190613ba3565b50600582810180546134229284019190613ba3565b506006820181600601908054600181600116156101000203166002900461344a929190613b2e565b506007828101805461345f9284019190613ba3565b5060088281018054918301805460ff191660ff93841615151780825591546101009081900490931692909161ff0019169083600481111561349c57fe5b0217905550505060009283525050600860208190526040822060048054600180820183559482905282547f8a35acfbc15ff81a39ae7d344fd709f28e8600b4aa8c65c6b64bfe7fe36bd19b600a90920291820155938201547f8a35acfbc15ff81a39ae7d344fd709f28e8600b4aa8c65c6b64bfe7fe36bd19c85015560028201547f8a35acfbc15ff81a39ae7d344fd709f28e8600b4aa8c65c6b64bfe7fe36bd19d85015560038201547f8a35acfbc15ff81a39ae7d344fd709f28e8600b4aa8c65c6b64bfe7fe36bd19e8501558101547f8a35acfbc15ff81a39ae7d344fd709f28e8600b4aa8c65c6b64bfe7fe36bd19f84015560058101547f8a35acfbc15ff81a39ae7d344fd709f28e8600b4aa8c65c6b64bfe7fe36bd1a084015560068101547f8a35acfbc15ff81a39ae7d344fd709f28e8600b4aa8c65c6b64bfe7fe36bd1a184015560078101547f8a35acfbc15ff81a39ae7d344fd709f28e8600b4aa8c65c6b64bfe7fe36bd1a2840155908101547f8a35acfbc15ff81a39ae7d344fd709f28e8600b4aa8c65c6b64bfe7fe36bd1a3830155600901547f8a35acfbc15ff81a39ae7d344fd709f28e8600b4aa8c65c6b64bfe7fe36bd1a490910155565b60008281526007602090815260408083206008908101805461040061ff001991821681179092556001600160a01b03969096168552600b8452828520968552959092529091200180549091169091179055565b600082815260076020526040812080546001600160d01b03191681556001810180546001600160e01b0319169055906136ee6002830182613ac9565b6136fc600383016000613b10565b61370a600483016000613b10565b613718600583016000613b10565b613726600683016000613ac9565b613734600783016000613b10565b506008908101805461ffff1916905560008381526020828152604080832083815560018181018590556002820185905560038201859055600482018590556005820185905560068201859055600782018590559481018490556009018390556001600160a01b0385168352600b825280832086845290915290208101548154600160c01b90910463ffffffff169081106137ca57fe5b60009182526020822060099091020180546001600160d01b03191681556001810180546001600160e01b0319169055906138076002830182613ac9565b613815600383016000613b10565b613823600483016000613b10565b613831600583016000613b10565b61383f600683016000613ac9565b61384d600783016000613b10565b50600801805461ffff191690556001600160a01b0381166000908152600b60209081526040808320858452909152902060010154600280549091600160c01b900463ffffffff1690811061389d57fe5b600091825260208220600a909102018181556001810182905560028101829055600381018290556004810182905560058101829055600681018290556007810182905560088101829055600901555050565b604080516102008101825260008082526020820181905291810182905260608082018390526080820183905260a0820183905260c0820183905260e08201839052610100820181905261012082018190526101408201819052610160820181905261018082018190526101a08201526101c08101829052906101e082015290565b6040805161014081018252600080825260208201819052918101829052606081018290526080810182905260a0810182905260c0810182905260e08101829052610100810182905261012081019190915290565b828054600181600116156101000203166002900490600052602060002090601f016020900481019282601f10613a0557805160ff1916838001178555613a32565b82800160010185558215613a32579182015b82811115613a32578251825591602001919060010190613a17565b50613a3e929150613c01565b5090565b828054828255906000526020600020908101928215613a8f579160200282015b82811115613a8f5782518051613a7f9184916020909101906139c4565b5091602001919060010190613a62565b50613a3e929150613c1b565b6040805160a08101825260008082526020820181905291810182905260608101829052608081019190915290565b50805460018160011615610100020316600290046000825580601f10613aef5750613b0d565b601f016020900490600052602060002090810190613b0d9190613c01565b50565b5080546000825590600052602060002090810190613b0d9190613c1b565b828054600181600116156101000203166002900490600052602060002090601f016020900481019282601f10613b675780548555613a32565b82800160010185558215613a3257600052602060002091601f016020900482015b82811115613a32578254825591600101919060010190613b88565b828054828255906000526020600020908101928215613a8f5760005260206000209182015b82811115613a8f5782829080546001816001161561010002031660029004613bf1929190613b2e565b5091600101919060010190613bc8565b6119c591905b80821115613a3e5760008155600101613c07565b6119c591905b80821115613a3e576000613c358282613ac9565b50600101613c21565b8035613c4981614991565b92915050565b600082601f830112613c6057600080fd5b8135613c73613c6e82614898565b614872565b81815260209384019390925082018360005b83811015613cb15781358601613c9b8882613cdc565b8452506020928301929190910190600101613c85565b5050505092915050565b8035613c49816149a5565b8035613c49816149ae565b8035613c49816149b7565b600082601f830112613ced57600080fd5b8135613cfb613c6e826148b8565b91508082526020830160208301858383011115613d1757600080fd5b613d22838284614945565b50505092915050565b60006101408284031215613d3e57600080fd5b613d49610140614872565b90506000613d578484613cc6565b8252506020613d6884848301613cc6565b6020830152506040613d7c84828501613cc6565b6040830152506060613d9084828501613cc6565b6060830152506080613da484828501613cc6565b60808301525060a0613db884828501613cc6565b60a08301525060c0613dcc84828501613cc6565b60c08301525060e0613de084828501613cc6565b60e083015250610100613df584828501613cc6565b61010083015250610120613e0b84828501613cc6565b6101208301525092915050565b8035613c49816149c4565b8035613c49816149cd565b600060208284031215613e4057600080fd5b6000613e4c8484613c3e565b949350505050565b60008060408385031215613e6757600080fd5b6000613e738585613cbb565b9250506020613e8485828601613cc6565b9150509250929050565b600060208284031215613ea057600080fd5b6000613e4c8484613cc6565b60008060408385031215613ebf57600080fd5b6000613ecb8585613cc6565b9250506020613e8485828601613c3e565b600080600060608486031215613ef157600080fd5b6000613efd8686613cc6565b9350506020613f0e86828701613c3e565b9250506040613f1f86828701613cc6565b9150509250925092565b6000806000806000806000806000806102608b8d031215613f4957600080fd5b6000613f558d8d613e23565b9a505060208b01356001600160401b03811115613f7157600080fd5b613f7d8d828e01613cdc565b99505060408b01356001600160401b03811115613f9957600080fd5b613fa58d828e01613c4f565b98505060608b01356001600160401b03811115613fc157600080fd5b613fcd8d828e01613c4f565b9750506080613fde8d828e01613e18565b96505060a08b01356001600160401b03811115613ffa57600080fd5b6140068d828e01613cdc565b95505060c08b01356001600160401b0381111561402257600080fd5b61402e8d828e01613c4f565b94505060e061403f8d828e01613d2b565b9350506102208b01356001600160401b0381111561405c57600080fd5b6140688d828e01613c4f565b92505061024061407a8d828e01613cd1565b9150509295989b9194979a5092959850565b6000614098838361421b565b9392505050565b60006140ab838361437b565b50506101400190565b60006140988383614442565b6140c9816148f2565b82525050565b60006140da826148e5565b6140e481856148e9565b9350836020820285016140f6856148df565b8060005b858110156141305784840389528151614113858261408c565b945061411e836148df565b60209a909a01999250506001016140fa565b5091979650505050505050565b6000614148826148e5565b61415281856148e9565b935061415d836148df565b8060005b8381101561418b578151614175888261409f565b9750614180836148df565b925050600101614161565b509495945050505050565b60006141a1826148e5565b6141ab81856148e9565b9350836020820285016141bd856148df565b8060005b8581101561413057848403895281516141da85826140b4565b94506141e5836148df565b60209a909a01999250506001016141c1565b6140c9816148fd565b6140c9816119c5565b6140c98161493a565b6140c98161490c565b6000614226826148e5565b61423081856148e9565b9350614240818560208601614951565b6142498161497d565b9093019392505050565b6000614260602f836148e9565b7f43652070726f64756974206e2765737420706173204e4f5556454155206e692081526e32b71026a7a224a324a1a0aa24a7a760891b602082015260400192915050565b60006142b16026836148e9565b7f43652070726f64756974206e276578697374652070617320656e2070726f706f81526539b4ba34b7b760d11b602082015260400192915050565b60006142f96027836148e9565b7f566f7573206e6520706f7576657a20706173206d65747472652066696e20617581526620766f7465202160c81b602082015260400192915050565b60006143426024836148e9565b7f4c612066696e20647520766f7465206e276573742070617320646570617373c3815263a965202160e01b602082015260400192915050565b805161014083019061438d8482614200565b5060208201516143a06020850182614200565b5060408201516143b36040850182614200565b5060608201516143c66060850182614200565b5060808201516143d96080850182614200565b5060a08201516143ec60a0850182614200565b5060c08201516143ff60c0850182614200565b5060e082015161441260e0850182614200565b50610100820151614427610100850182614200565b5061012082015161443c610120850182614200565b50505050565b805160009061020084019061445785826140c0565b50602083015161446a6020860182614613565b50604083015161447d6040860182614613565b5060608301516144906060860182614613565b5060808301516144a36080860182614625565b5060a08301516144b660a0860182614625565b5060c08301516144c960c0860182614625565b5060e08301516144dc60e086018261461c565b506101008301518482036101008601526144f6828261421b565b91505061012083015184820361012086015261451282826140cf565b91505061014083015184820361014086015261452e82826140cf565b91505061016083015184820361016086015261454a82826140cf565b915050610180830151848203610180860152614566828261421b565b9150506101a08301518482036101a086015261458282826140cf565b9150506101c08301516145996101c08601826141f7565b506101e08301516145ae6101e0860182614209565b509392505050565b805160a08301906145c7848261461c565b5060208201516145da6020850182614200565b5060408201516145ed6040850182614212565b5060608201516146006060850182614212565b50608082015161443c60808501826141f7565b6140c981614912565b6140c981614925565b6140c98161492e565b610180810161463d828f6140c0565b61464a602083018e614613565b614657604083018d614613565b614664606083018c614613565b614671608083018b614625565b61467e60a083018a614625565b61468b60c0830189614625565b61469860e083018861461c565b8181036101008301526146ab818761421b565b90508181036101208301526146c0818661421b565b90506146d06101408301856141f7565b6146de610160830184614209565b9d9c50505050505050505050505050565b604080825281016147008185614196565b90508181036020830152613e4c818461413d565b60208101613c4982846141f7565b6101408101614731828d614200565b61473e602083018c614200565b61474b604083018b614200565b614758606083018a614200565b6147656080830189614200565b61477260a0830188614200565b61477f60c0830187614200565b61478c60e0830186614200565b61479a610100830185614200565b6147a8610120830184614200565b9b9a5050505050505050505050565b60208082528101613c4981614253565b60208082528101613c49816142a4565b60208082528101613c49816142ec565b60208082528101613c4981614335565b61016080825281016148098185614442565b9050614098602083018461437b565b60a08101613c4982846145b6565b60a08101614834828861461c565b6148416020830187614200565b61484e6040830186614212565b61485b6060830185614212565b61486860808301846141f7565b9695505050505050565b6040518181016001600160401b038111828210171561489057600080fd5b604052919050565b60006001600160401b038211156148ae57600080fd5b5060209081020190565b60006001600160401b038211156148ce57600080fd5b506020601f91909101601f19160190565b60200190565b5190565b90815260200190565b6000613c4982614919565b151590565b8061033f81614987565b60010b90565b61ffff1690565b6001600160a01b031690565b63ffffffff1690565b6001600160401b031690565b6000613c4982614902565b82818337506000910152565b60005b8381101561496c578181015183820152602001614954565b8381111561443c5750506000910152565b601f01601f191690565b60058110613b0d57fe5b61499a816148f2565b8114613b0d57600080fd5b61499a816148fd565b61499a816119c5565b60058110613b0d57600080fd5b61499a81614912565b61499a8161492e56fea365627a7a7231582052592e9f60babae3bf445870fc2d9cdef487b093601d18444502732b5481e0386c6578706572696d656e74616cf564736f6c63430005100040",
  "source": "pragma solidity 0.5.16;\r\n\r\nimport \"./LabelChainHelper.sol\";\r\n\r\n\r\npragma experimental ABIEncoderV2;\r\n\r\n\r\n/**\r\n @title DataLabelChain contract\r\n @author Fabrice Tapia\r\n @dev Contract which is a part of the Alyra's Final Project : Eat Healthy LabelChain\r\n */\r\n\r\ncontract DataTest is LabelChainHelper {\r\n\r\n\r\n  address private _owner;\r\n\r\n  // Simple event when a product is added to the product proposal phase\r\n // event TriggerAddProduct(uint indexed idProduct);\r\n\r\n  // Setting up the owner as a user (may not be needed)\r\n  constructor() public {\r\n    _owner = msg.sender;\r\n    endVoteResponsible = 0x712EB6c16Ab3694b684B6c74B40A676c6d13621a;\r\n    addressToUser[_owner] = User(uniqueIdUser, now, 10, 0, true /*,  Role.ADMIN*/);\r\n    uniqueIdUser++;\r\n  }\r\n\r\n  //  modifier checkProductProposalIsNew (uint productCode) {\r\n  //    require(!productCodeToProduct[productCode].isExist);\r\n  //    _;\r\n  //  }\r\n\r\n  /*\r\n    function getProduct(uint productCode) view public returns(Product){\r\n      return productCodeToProduct[productCode];\r\n    }*/\r\n\r\n\r\n  /**\r\n  @notice Product is added in proposal phase by the user,\r\n          then visible for all users for votes\r\n  @dev\r\n         Add a new Product and Nutriments object in corresponding proposal mappings\r\n         Also added in corresponding arrays, useful to get them all from front-end\r\n         Finally, emitting an event to warn the user, all is OK\r\n  @param _productCode, _productName, _labels, _ingredients, _quantity,\r\n         _typeOfProduct, _packaging, _nutriments, _addiditfs\r\n         => Elements needed to fill in both Product and Nutriments object\r\n   */\r\n  function addProductToProposal(\r\n    uint64 _productCode,\r\n    string memory _productName,\r\n    string[] memory _labels,\r\n    string[] memory _ingredients,\r\n    uint16 _quantity,\r\n    string memory _typeOfProduct,\r\n    string[] memory _packaging,\r\n    Nutriment memory _nutriments,\r\n    string[] memory _additifs,\r\n    ProductStatus _status\r\n\r\n  ) checkLengthGS1(_productCode) public {\r\n    require(addressToUser[msg.sender].isExist == true);\r\n    require(!productCodeToProposalProduct[_productCode].isExist);\r\n    Product memory _product;\r\n    Nutriment memory _nutrimentsObject;\r\n    _product.productId = uniqueProductId;\r\n    _product.productCode = _productCode;\r\n    _product.productName = _productName;\r\n    _product.productProposerAddress = msg.sender;\r\n    _product.labels = _labels;\r\n    _product.ingredients = _ingredients;\r\n    _product.additifs = _additifs;\r\n    _product.quantity = _quantity;\r\n    _product.typeOfProduct = _typeOfProduct;\r\n    _product.packaging = _packaging;\r\n    _product.isExist = true;\r\n\r\n    _product.created_t = uint64(now);\r\n    _product.endDate = uint64(now + 10 seconds);\r\n    // _product.nutrimentsId = _productCode;\r\n   // _product.forVotes = 0;\r\n   // _product.againstVotes = 0;\r\n    _product.status = _status;\r\n//    _product.totalVotes = 0;\r\n    // productCodeToNutriments[_productCode] = _nutriments;\r\n    // _product.hash = keccak256(abi.encodePacked(_product.productName,_product.productProposerAddress, _product.quantity));\r\n    productCodeToProposalProduct[_productCode] = _product;\r\n    addressToProducts[msg.sender][_productCode] = _product;\r\n    ProposalProducts.push(_product);\r\n\r\n    _nutrimentsObject.carbohydrates = bytes32(_nutriments.carbohydrates);\r\n    _nutrimentsObject.energy = bytes32(_nutriments.energy);\r\n    _nutrimentsObject.energy_kcal =bytes32 (_nutriments.energy_kcal);\r\n    _nutrimentsObject.proteines = bytes32(_nutriments.proteines);\r\n    _nutrimentsObject.salt = bytes32(_nutriments.salt);\r\n    _nutrimentsObject.sugars =bytes32( _nutriments.sugars);\r\n    _nutrimentsObject.fat = bytes32(_nutriments.fat);\r\n    _nutrimentsObject.saturated_fat = bytes32(_nutriments.saturated_fat);\r\n    _nutrimentsObject.fiber = bytes32(_nutriments.fat);\r\n    _nutrimentsObject.sodium = bytes32(_nutriments.sodium);\r\n    productCodeToProposalNutriments[_productCode] = _nutrimentsObject;\r\n    ProposalNutriments.push(_nutrimentsObject);\r\n    uniqueProductId++;\r\n    addressToNutriments[msg.sender][_productCode] = _nutrimentsObject;\r\n    addressToUser[msg.sender].tokenNumber--;\r\n    //    addressToProduct[msg.sender][_productCode] = _product;\r\n    //    addressToNutriments[msg.sender][_product] = _nutrimentsObject;\r\n\r\n  //  emit TriggerAddProduct(_productCode);\r\n    // keccak256(abi.encodePacked(_productCode,_productName,msg.sender,_labels,_ingredients,_nutriments,_quantity,_typeOfProduct,_packaging))\r\n  }\r\n\r\n  // Getting actual user role at the start or when wallet is changed (may not be needed)\r\n//  function getRole() public view returns (Role) {\r\n//    return addressToUser[msg.sender].role;\r\n//  }\r\n\r\n\r\n  // To add a product in proposal, we need to check if the product doesn't already exist in mappings of products\r\n  function checkProductIsNew(uint _productCode) public view checkLengthGS1(_productCode) returns (bool) {\r\n    if (!productCodeToProposalProduct[_productCode].isExist && !productCodeToProduct[_productCode].isExist) {\r\n      return true;\r\n    } else {\r\n      return false;\r\n    }\r\n  }\r\n\r\n\r\n\r\n\r\n  /**\r\n  @notice User is voting for a product in proposal phase (new or update)\r\n  @dev\r\n         User can only vote if he is registered and he has not already voted\r\n         Then adding vote to for and against\r\n  @param _opinion vote value (for or against)\r\n         _productCode product targeted for the vote\r\n */\r\n  function vote(bool _opinion, uint _productCode)    public {\r\n    require(addressToUser[msg.sender].tokenNumber > 0);\r\n    require(productCodeToProposalProduct[_productCode].created_t < productCodeToProposalProduct[_productCode].endDate);\r\n    require(alreadyVoted[_productCode][msg.sender][0] == false);\r\n    require(productCodeToProposalProduct[_productCode].status == ProductStatus.NEW || productCodeToProduct[_productCode].status == ProductStatus.IN_MODIFICATION );\r\n    alreadyVoted[_productCode][msg.sender][0] = true;\r\n    if (_opinion == true) {\r\n      productCodeToProposalProduct[_productCode].forVotes++;\r\n      ProposalProducts[productCodeToProposalProduct[_productCode].productId].forVotes++;\r\n    } else {\r\n      productCodeToProposalProduct[_productCode].againstVotes++;\r\n      ProposalProducts[productCodeToProposalProduct[_productCode].productId].againstVotes++;\r\n    }\r\n    alreadyVoted[_productCode][msg.sender][1] = _opinion;\r\n//    productCodeToProposalProduct[_productCode].totalVotes++;\r\n//    ProposalProducts[productCodeToProposalProduct[_productCode].productId].totalVotes++;\r\n    addressToUser[msg.sender].tokenNumber--;\r\n  }\r\n\r\n  function endVote(uint _productCode, address proposerAddress) public {\r\n    require(msg.sender == endVoteResponsible, 'Vous ne pouvez pas mettre fin au vote !');\r\n    require(productCodeToProposalProduct[_productCode].created_t < productCodeToProposalProduct[_productCode].endDate, \"La fin du vote n'est pas depasse !\");\r\n    require(productCodeToProposalProduct[_productCode].status == ProductStatus.NEW || productCodeToProposalProduct[_productCode].status == ProductStatus.IN_MODIFICATION, \"Ce produit n'est pas NOUVEAU ni en MODIFICATION\" );\r\n    require(productCodeToProposalProduct[_productCode].isExist, \"Ce produit n'existe pas en proposition\");\r\n    if (productCodeToProposalProduct[_productCode].forVotes >= productCodeToProposalProduct[_productCode].againstVotes) {\r\n      acceptedProduct(_productCode, proposerAddress);\r\n    } else {\r\n      refusedProduct(_productCode, proposerAddress);\r\n    }\r\n  deleteProductFromProposal(_productCode, proposerAddress);\r\n  }\r\n\r\n\r\n  /**\r\n@notice Register a user when he does his first proposal or vote\r\n@dev\r\n     Defines a new User object, giving him token and reputation\r\n     Adds it to a mapping with all other subscribed users\r\n*/\r\n\r\n  function subscribeUser() public  returns (User memory) {\r\n    require(addressToUser[msg.sender].isExist == false);\r\n    User memory user;\r\n    user.userId = uniqueIdUser;\r\n    // user.role = Role.CUSTOMER;\r\n    user.lastTimeTokenGiven = now;\r\n    user.tokenNumber = 5;\r\n    user.reputation = 50;\r\n    user.isExist = true;\r\n    uniqueIdUser++;\r\n    addressToUser[msg.sender] = user;\r\n    return user;\r\n  }\r\n\r\n\r\n\r\n\r\n}\r\n",
  "sourcePath": "C:\\Users\\Fabrice\\Desktop\\Project_EatHealthyLabelChain\\EatHealthyLabelChain\\contracts\\dataTest.sol",
  "compiler": {
    "name": "solc",
    "version": "0.5.16+commit.9c3226ce.Emscripten.clang"
  },
  "schemaVersion": "3.2.0",
  "updatedAt": "2020-07-22T18:11:41.486Z",
  "networkType": "ethereum",
  "devdoc": {
    "author": "Fabrice Tapia",
    "details": "Contract which is a part of the Alyra's Final Project : Eat Healthy LabelChain",
    "methods": {
      "addProductToProposal(uint64,string,string[],string[],uint16,string,string[],(bytes32,bytes32,bytes32,bytes32,bytes32,bytes32,bytes32,bytes32,bytes32,bytes32),string[],uint8)": {
        "details": "Add a new Product and Nutriments object in corresponding proposal mappings Also added in corresponding arrays, useful to get them all from front-end Finally, emitting an event to warn the user, all is OK",
        "params": {
          "_productCode": ", _productName, _labels, _ingredients, _quantity, _typeOfProduct, _packaging, _nutriments, _addiditfs => Elements needed to fill in both Product and Nutriments object"
        }
      },
      "subscribeUser()": {
        "details": "Defines a new User object, giving him token and reputation Adds it to a mapping with all other subscribed users"
      },
      "vote(bool,uint256)": {
        "details": "User can only vote if he is registered and he has not already voted Then adding vote to for and against",
        "params": {
          "_opinion": "vote value (for or against) _productCode product targeted for the vote"
        }
      }
    },
    "title": "DataLabelChain contract"
  },
  "userdoc": {
    "methods": {
      "addProductToProposal(uint64,string,string[],string[],uint16,string,string[],(bytes32,bytes32,bytes32,bytes32,bytes32,bytes32,bytes32,bytes32,bytes32,bytes32),string[],uint8)": {
        "notice": "Product is added in proposal phase by the user, then visible for all users for votes"
      },
      "subscribeUser()": {
        "notice": "Register a user when he does his first proposal or vote"
      },
      "vote(bool,uint256)": {
        "notice": "User is voting for a product in proposal phase (new or update)"
      }
    }
  }
}