{
  "contractName": "DataTest",
  "abi": [
    {
      "inputs": [],
      "payable": false,
      "stateMutability": "nonpayable",
      "type": "constructor"
    },
    {
      "anonymous": false,
      "inputs": [
        {
          "indexed": true,
          "internalType": "uint256",
          "name": "idProduct",
          "type": "uint256"
        }
      ],
      "name": "TriggerAddProduct",
      "type": "event"
    },
    {
      "constant": true,
      "inputs": [
        {
          "internalType": "address",
          "name": "",
          "type": "address"
        }
      ],
      "name": "addressToUser",
      "outputs": [
        {
          "internalType": "uint256",
          "name": "userId",
          "type": "uint256"
        },
        {
          "internalType": "enum LabelChainHelper.Role",
          "name": "role",
          "type": "uint8"
        },
        {
          "internalType": "uint256",
          "name": "lastTimeTokenGiven",
          "type": "uint256"
        },
        {
          "internalType": "int256",
          "name": "tokenNumber",
          "type": "int256"
        },
        {
          "internalType": "int256",
          "name": "reputation",
          "type": "int256"
        },
        {
          "internalType": "bool",
          "name": "isExist",
          "type": "bool"
        }
      ],
      "payable": false,
      "stateMutability": "view",
      "type": "function"
    },
    {
      "constant": true,
      "inputs": [
        {
          "internalType": "uint256",
          "name": "",
          "type": "uint256"
        },
        {
          "internalType": "address",
          "name": "",
          "type": "address"
        },
        {
          "internalType": "uint256",
          "name": "",
          "type": "uint256"
        }
      ],
      "name": "alreadyVoted",
      "outputs": [
        {
          "internalType": "bool",
          "name": "",
          "type": "bool"
        }
      ],
      "payable": false,
      "stateMutability": "view",
      "type": "function"
    },
    {
      "constant": true,
      "inputs": [
        {
          "internalType": "uint256",
          "name": "_productCode",
          "type": "uint256"
        }
      ],
      "name": "getParticularProduct",
      "outputs": [
        {
          "components": [
            {
              "internalType": "uint256",
              "name": "productId",
              "type": "uint256"
            },
            {
              "internalType": "uint256",
              "name": "productCode",
              "type": "uint256"
            },
            {
              "internalType": "string",
              "name": "productName",
              "type": "string"
            },
            {
              "internalType": "address",
              "name": "productProposerAddress",
              "type": "address"
            },
            {
              "internalType": "string[]",
              "name": "labels",
              "type": "string[]"
            },
            {
              "internalType": "string[]",
              "name": "ingredients",
              "type": "string[]"
            },
            {
              "internalType": "string[]",
              "name": "additifs",
              "type": "string[]"
            },
            {
              "internalType": "uint256",
              "name": "quantity",
              "type": "uint256"
            },
            {
              "internalType": "string",
              "name": "typeOfProduct",
              "type": "string"
            },
            {
              "internalType": "string[]",
              "name": "packaging",
              "type": "string[]"
            },
            {
              "internalType": "uint256",
              "name": "totalVotes",
              "type": "uint256"
            },
            {
              "internalType": "uint256",
              "name": "forVotes",
              "type": "uint256"
            },
            {
              "internalType": "uint256",
              "name": "againstVotes",
              "type": "uint256"
            },
            {
              "internalType": "uint256[2]",
              "name": "created_n_last_modif",
              "type": "uint256[2]"
            },
            {
              "internalType": "uint256",
              "name": "endDate",
              "type": "uint256"
            },
            {
              "internalType": "bool",
              "name": "isValidated",
              "type": "bool"
            },
            {
              "internalType": "bool",
              "name": "isExist",
              "type": "bool"
            }
          ],
          "internalType": "struct LabelChainHelper.Product",
          "name": "",
          "type": "tuple"
        },
        {
          "components": [
            {
              "internalType": "string",
              "name": "energy",
              "type": "string"
            },
            {
              "internalType": "string",
              "name": "energy_kcal",
              "type": "string"
            },
            {
              "internalType": "string",
              "name": "proteines",
              "type": "string"
            },
            {
              "internalType": "string",
              "name": "carbohydrates",
              "type": "string"
            },
            {
              "internalType": "string",
              "name": "salt",
              "type": "string"
            },
            {
              "internalType": "string",
              "name": "sugars",
              "type": "string"
            },
            {
              "internalType": "string",
              "name": "fat",
              "type": "string"
            },
            {
              "internalType": "string",
              "name": "saturated_fat",
              "type": "string"
            },
            {
              "internalType": "string",
              "name": "fiber",
              "type": "string"
            },
            {
              "internalType": "string",
              "name": "sodium",
              "type": "string"
            }
          ],
          "internalType": "struct LabelChainHelper.Nutriment",
          "name": "",
          "type": "tuple"
        }
      ],
      "payable": false,
      "stateMutability": "view",
      "type": "function"
    },
    {
      "constant": true,
      "inputs": [],
      "name": "getProductsAccepted",
      "outputs": [
        {
          "components": [
            {
              "internalType": "uint256",
              "name": "productId",
              "type": "uint256"
            },
            {
              "internalType": "uint256",
              "name": "productCode",
              "type": "uint256"
            },
            {
              "internalType": "string",
              "name": "productName",
              "type": "string"
            },
            {
              "internalType": "address",
              "name": "productProposerAddress",
              "type": "address"
            },
            {
              "internalType": "string[]",
              "name": "labels",
              "type": "string[]"
            },
            {
              "internalType": "string[]",
              "name": "ingredients",
              "type": "string[]"
            },
            {
              "internalType": "string[]",
              "name": "additifs",
              "type": "string[]"
            },
            {
              "internalType": "uint256",
              "name": "quantity",
              "type": "uint256"
            },
            {
              "internalType": "string",
              "name": "typeOfProduct",
              "type": "string"
            },
            {
              "internalType": "string[]",
              "name": "packaging",
              "type": "string[]"
            },
            {
              "internalType": "uint256",
              "name": "totalVotes",
              "type": "uint256"
            },
            {
              "internalType": "uint256",
              "name": "forVotes",
              "type": "uint256"
            },
            {
              "internalType": "uint256",
              "name": "againstVotes",
              "type": "uint256"
            },
            {
              "internalType": "uint256[2]",
              "name": "created_n_last_modif",
              "type": "uint256[2]"
            },
            {
              "internalType": "uint256",
              "name": "endDate",
              "type": "uint256"
            },
            {
              "internalType": "bool",
              "name": "isValidated",
              "type": "bool"
            },
            {
              "internalType": "bool",
              "name": "isExist",
              "type": "bool"
            }
          ],
          "internalType": "struct LabelChainHelper.Product[]",
          "name": "",
          "type": "tuple[]"
        },
        {
          "components": [
            {
              "internalType": "string",
              "name": "energy",
              "type": "string"
            },
            {
              "internalType": "string",
              "name": "energy_kcal",
              "type": "string"
            },
            {
              "internalType": "string",
              "name": "proteines",
              "type": "string"
            },
            {
              "internalType": "string",
              "name": "carbohydrates",
              "type": "string"
            },
            {
              "internalType": "string",
              "name": "salt",
              "type": "string"
            },
            {
              "internalType": "string",
              "name": "sugars",
              "type": "string"
            },
            {
              "internalType": "string",
              "name": "fat",
              "type": "string"
            },
            {
              "internalType": "string",
              "name": "saturated_fat",
              "type": "string"
            },
            {
              "internalType": "string",
              "name": "fiber",
              "type": "string"
            },
            {
              "internalType": "string",
              "name": "sodium",
              "type": "string"
            }
          ],
          "internalType": "struct LabelChainHelper.Nutriment[]",
          "name": "",
          "type": "tuple[]"
        }
      ],
      "payable": false,
      "stateMutability": "view",
      "type": "function"
    },
    {
      "constant": true,
      "inputs": [],
      "name": "getProductsVoting",
      "outputs": [
        {
          "components": [
            {
              "internalType": "uint256",
              "name": "productId",
              "type": "uint256"
            },
            {
              "internalType": "uint256",
              "name": "productCode",
              "type": "uint256"
            },
            {
              "internalType": "string",
              "name": "productName",
              "type": "string"
            },
            {
              "internalType": "address",
              "name": "productProposerAddress",
              "type": "address"
            },
            {
              "internalType": "string[]",
              "name": "labels",
              "type": "string[]"
            },
            {
              "internalType": "string[]",
              "name": "ingredients",
              "type": "string[]"
            },
            {
              "internalType": "string[]",
              "name": "additifs",
              "type": "string[]"
            },
            {
              "internalType": "uint256",
              "name": "quantity",
              "type": "uint256"
            },
            {
              "internalType": "string",
              "name": "typeOfProduct",
              "type": "string"
            },
            {
              "internalType": "string[]",
              "name": "packaging",
              "type": "string[]"
            },
            {
              "internalType": "uint256",
              "name": "totalVotes",
              "type": "uint256"
            },
            {
              "internalType": "uint256",
              "name": "forVotes",
              "type": "uint256"
            },
            {
              "internalType": "uint256",
              "name": "againstVotes",
              "type": "uint256"
            },
            {
              "internalType": "uint256[2]",
              "name": "created_n_last_modif",
              "type": "uint256[2]"
            },
            {
              "internalType": "uint256",
              "name": "endDate",
              "type": "uint256"
            },
            {
              "internalType": "bool",
              "name": "isValidated",
              "type": "bool"
            },
            {
              "internalType": "bool",
              "name": "isExist",
              "type": "bool"
            }
          ],
          "internalType": "struct LabelChainHelper.Product[]",
          "name": "",
          "type": "tuple[]"
        },
        {
          "components": [
            {
              "internalType": "string",
              "name": "energy",
              "type": "string"
            },
            {
              "internalType": "string",
              "name": "energy_kcal",
              "type": "string"
            },
            {
              "internalType": "string",
              "name": "proteines",
              "type": "string"
            },
            {
              "internalType": "string",
              "name": "carbohydrates",
              "type": "string"
            },
            {
              "internalType": "string",
              "name": "salt",
              "type": "string"
            },
            {
              "internalType": "string",
              "name": "sugars",
              "type": "string"
            },
            {
              "internalType": "string",
              "name": "fat",
              "type": "string"
            },
            {
              "internalType": "string",
              "name": "saturated_fat",
              "type": "string"
            },
            {
              "internalType": "string",
              "name": "fiber",
              "type": "string"
            },
            {
              "internalType": "string",
              "name": "sodium",
              "type": "string"
            }
          ],
          "internalType": "struct LabelChainHelper.Nutriment[]",
          "name": "",
          "type": "tuple[]"
        }
      ],
      "payable": false,
      "stateMutability": "view",
      "type": "function"
    },
    {
      "constant": true,
      "inputs": [
        {
          "internalType": "uint256",
          "name": "_productCode",
          "type": "uint256"
        }
      ],
      "name": "isAlreadyVotedByCurrentUser",
      "outputs": [
        {
          "internalType": "bool",
          "name": "",
          "type": "bool"
        }
      ],
      "payable": false,
      "stateMutability": "view",
      "type": "function"
    },
    {
      "constant": true,
      "inputs": [
        {
          "internalType": "uint256",
          "name": "_productCode",
          "type": "uint256"
        }
      ],
      "name": "isDateOK",
      "outputs": [
        {
          "internalType": "bool",
          "name": "",
          "type": "bool"
        }
      ],
      "payable": false,
      "stateMutability": "view",
      "type": "function"
    },
    {
      "constant": true,
      "inputs": [
        {
          "internalType": "uint256",
          "name": "_productCode",
          "type": "uint256"
        }
      ],
      "name": "isProposer",
      "outputs": [
        {
          "internalType": "bool",
          "name": "",
          "type": "bool"
        }
      ],
      "payable": false,
      "stateMutability": "view",
      "type": "function"
    },
    {
      "constant": true,
      "inputs": [
        {
          "internalType": "uint256",
          "name": "",
          "type": "uint256"
        }
      ],
      "name": "productCodeToNutriments",
      "outputs": [
        {
          "internalType": "string",
          "name": "energy",
          "type": "string"
        },
        {
          "internalType": "string",
          "name": "energy_kcal",
          "type": "string"
        },
        {
          "internalType": "string",
          "name": "proteines",
          "type": "string"
        },
        {
          "internalType": "string",
          "name": "carbohydrates",
          "type": "string"
        },
        {
          "internalType": "string",
          "name": "salt",
          "type": "string"
        },
        {
          "internalType": "string",
          "name": "sugars",
          "type": "string"
        },
        {
          "internalType": "string",
          "name": "fat",
          "type": "string"
        },
        {
          "internalType": "string",
          "name": "saturated_fat",
          "type": "string"
        },
        {
          "internalType": "string",
          "name": "fiber",
          "type": "string"
        },
        {
          "internalType": "string",
          "name": "sodium",
          "type": "string"
        }
      ],
      "payable": false,
      "stateMutability": "view",
      "type": "function"
    },
    {
      "constant": true,
      "inputs": [
        {
          "internalType": "uint256",
          "name": "",
          "type": "uint256"
        }
      ],
      "name": "productCodeToProduct",
      "outputs": [
        {
          "internalType": "uint256",
          "name": "productId",
          "type": "uint256"
        },
        {
          "internalType": "uint256",
          "name": "productCode",
          "type": "uint256"
        },
        {
          "internalType": "string",
          "name": "productName",
          "type": "string"
        },
        {
          "internalType": "address",
          "name": "productProposerAddress",
          "type": "address"
        },
        {
          "internalType": "uint256",
          "name": "quantity",
          "type": "uint256"
        },
        {
          "internalType": "string",
          "name": "typeOfProduct",
          "type": "string"
        },
        {
          "internalType": "uint256",
          "name": "totalVotes",
          "type": "uint256"
        },
        {
          "internalType": "uint256",
          "name": "forVotes",
          "type": "uint256"
        },
        {
          "internalType": "uint256",
          "name": "againstVotes",
          "type": "uint256"
        },
        {
          "internalType": "uint256",
          "name": "endDate",
          "type": "uint256"
        },
        {
          "internalType": "bool",
          "name": "isValidated",
          "type": "bool"
        },
        {
          "internalType": "bool",
          "name": "isExist",
          "type": "bool"
        }
      ],
      "payable": false,
      "stateMutability": "view",
      "type": "function"
    },
    {
      "constant": true,
      "inputs": [
        {
          "internalType": "uint256",
          "name": "",
          "type": "uint256"
        }
      ],
      "name": "productCodeToProposalNutriments",
      "outputs": [
        {
          "internalType": "string",
          "name": "energy",
          "type": "string"
        },
        {
          "internalType": "string",
          "name": "energy_kcal",
          "type": "string"
        },
        {
          "internalType": "string",
          "name": "proteines",
          "type": "string"
        },
        {
          "internalType": "string",
          "name": "carbohydrates",
          "type": "string"
        },
        {
          "internalType": "string",
          "name": "salt",
          "type": "string"
        },
        {
          "internalType": "string",
          "name": "sugars",
          "type": "string"
        },
        {
          "internalType": "string",
          "name": "fat",
          "type": "string"
        },
        {
          "internalType": "string",
          "name": "saturated_fat",
          "type": "string"
        },
        {
          "internalType": "string",
          "name": "fiber",
          "type": "string"
        },
        {
          "internalType": "string",
          "name": "sodium",
          "type": "string"
        }
      ],
      "payable": false,
      "stateMutability": "view",
      "type": "function"
    },
    {
      "constant": true,
      "inputs": [
        {
          "internalType": "uint256",
          "name": "",
          "type": "uint256"
        }
      ],
      "name": "productCodeToProposalProduct",
      "outputs": [
        {
          "internalType": "uint256",
          "name": "productId",
          "type": "uint256"
        },
        {
          "internalType": "uint256",
          "name": "productCode",
          "type": "uint256"
        },
        {
          "internalType": "string",
          "name": "productName",
          "type": "string"
        },
        {
          "internalType": "address",
          "name": "productProposerAddress",
          "type": "address"
        },
        {
          "internalType": "uint256",
          "name": "quantity",
          "type": "uint256"
        },
        {
          "internalType": "string",
          "name": "typeOfProduct",
          "type": "string"
        },
        {
          "internalType": "uint256",
          "name": "totalVotes",
          "type": "uint256"
        },
        {
          "internalType": "uint256",
          "name": "forVotes",
          "type": "uint256"
        },
        {
          "internalType": "uint256",
          "name": "againstVotes",
          "type": "uint256"
        },
        {
          "internalType": "uint256",
          "name": "endDate",
          "type": "uint256"
        },
        {
          "internalType": "bool",
          "name": "isValidated",
          "type": "bool"
        },
        {
          "internalType": "bool",
          "name": "isExist",
          "type": "bool"
        }
      ],
      "payable": false,
      "stateMutability": "view",
      "type": "function"
    },
    {
      "constant": false,
      "inputs": [
        {
          "internalType": "uint256",
          "name": "_productCode",
          "type": "uint256"
        },
        {
          "internalType": "string",
          "name": "_productName",
          "type": "string"
        },
        {
          "internalType": "string[]",
          "name": "_labels",
          "type": "string[]"
        },
        {
          "internalType": "string[]",
          "name": "_ingredients",
          "type": "string[]"
        },
        {
          "internalType": "uint256",
          "name": "_quantity",
          "type": "uint256"
        },
        {
          "internalType": "string",
          "name": "_typeOfProduct",
          "type": "string"
        },
        {
          "internalType": "string[]",
          "name": "_packaging",
          "type": "string[]"
        },
        {
          "components": [
            {
              "internalType": "string",
              "name": "energy",
              "type": "string"
            },
            {
              "internalType": "string",
              "name": "energy_kcal",
              "type": "string"
            },
            {
              "internalType": "string",
              "name": "proteines",
              "type": "string"
            },
            {
              "internalType": "string",
              "name": "carbohydrates",
              "type": "string"
            },
            {
              "internalType": "string",
              "name": "salt",
              "type": "string"
            },
            {
              "internalType": "string",
              "name": "sugars",
              "type": "string"
            },
            {
              "internalType": "string",
              "name": "fat",
              "type": "string"
            },
            {
              "internalType": "string",
              "name": "saturated_fat",
              "type": "string"
            },
            {
              "internalType": "string",
              "name": "fiber",
              "type": "string"
            },
            {
              "internalType": "string",
              "name": "sodium",
              "type": "string"
            }
          ],
          "internalType": "struct LabelChainHelper.Nutriment",
          "name": "_nutriments",
          "type": "tuple"
        },
        {
          "internalType": "string[]",
          "name": "_additifs",
          "type": "string[]"
        }
      ],
      "name": "addProductToProposal",
      "outputs": [],
      "payable": false,
      "stateMutability": "nonpayable",
      "type": "function"
    },
    {
      "constant": true,
      "inputs": [],
      "name": "getRole",
      "outputs": [
        {
          "internalType": "enum LabelChainHelper.Role",
          "name": "",
          "type": "uint8"
        }
      ],
      "payable": false,
      "stateMutability": "view",
      "type": "function"
    },
    {
      "constant": true,
      "inputs": [
        {
          "internalType": "uint256",
          "name": "_productCode",
          "type": "uint256"
        }
      ],
      "name": "checkProductIsNew",
      "outputs": [
        {
          "internalType": "bool",
          "name": "",
          "type": "bool"
        }
      ],
      "payable": false,
      "stateMutability": "view",
      "type": "function"
    },
    {
      "constant": false,
      "inputs": [],
      "name": "subscribeUser",
      "outputs": [
        {
          "components": [
            {
              "internalType": "uint256",
              "name": "userId",
              "type": "uint256"
            },
            {
              "internalType": "enum LabelChainHelper.Role",
              "name": "role",
              "type": "uint8"
            },
            {
              "internalType": "uint256",
              "name": "lastTimeTokenGiven",
              "type": "uint256"
            },
            {
              "internalType": "int256",
              "name": "tokenNumber",
              "type": "int256"
            },
            {
              "internalType": "int256",
              "name": "reputation",
              "type": "int256"
            },
            {
              "internalType": "bool",
              "name": "isExist",
              "type": "bool"
            }
          ],
          "internalType": "struct LabelChainHelper.User",
          "name": "",
          "type": "tuple"
        }
      ],
      "payable": false,
      "stateMutability": "nonpayable",
      "type": "function"
    },
    {
      "constant": false,
      "inputs": [
        {
          "internalType": "bool",
          "name": "_opinion",
          "type": "bool"
        },
        {
          "internalType": "uint256",
          "name": "_productCode",
          "type": "uint256"
        }
      ],
      "name": "vote",
      "outputs": [],
      "payable": false,
      "stateMutability": "nonpayable",
      "type": "function"
    },
    {
      "constant": false,
      "inputs": [
        {
          "internalType": "uint256",
          "name": "_productCode",
          "type": "uint256"
        },
        {
          "internalType": "address",
          "name": "proposerAddress",
          "type": "address"
        }
      ],
      "name": "endVote",
      "outputs": [],
      "payable": false,
      "stateMutability": "nonpayable",
      "type": "function"
    }
  ],
  "bytecode": "0x60806040523480156200001157600080fd5b50601180546001600160a01b0319163317908190556040805160c081018252600180548252600260208084018281524285870152600a6060860181905260006080870181905260a087018690526001600160a01b03909816885290915293909420825181559251838201805493959193909260ff199091169184908111156200009657fe5b021790555060408201516002820155606082015160038201556080820151600482015560a0909101516005909101805460ff19169115159190911790556001805481019055615aa080620000eb6000396000f3fe608060405234801561001057600080fd5b50600436106101165760003560e01c8063a9bfcb22116100a2578063d62192fb11610071578063d62192fb14610252578063eafc9df314610265578063edf5388614610278578063f5eadcc61461029d578063fde08174146102be57610116565b8063a9bfcb2214610211578063be301d3414610224578063cfea702914610237578063d54d6c701461023f57610116565b806357dd1992116100e957806357dd19921461019857806361ef3c15146101ab578063639b7f82146101d65780636c9672ff146101e957806393b6e35e146101fe57610116565b80630574d8081461011b57806306e65f481461014d57806310e6e06c1461016d57806313431cc514610182575b600080fd5b61012e610129366004614f9f565b6102d3565b6040516101449a9998979695949392919061570e565b60405180910390f35b61016061015b366004614f9f565b610894565b60405161014491906156f2565b61018061017b366004614f65565b6108b7565b005b61018a610a32565b6040516101449291906156cd565b6101806101a636600461503a565b611611565b6101be6101b9366004614f9f565b612056565b6040516101449c9b9a99989796959493929190615873565b6101606101e4366004614f9f565b6121d0565b6101f16121e7565b604051610144919061580b565b61016061020c366004614fed565b6122ba565b61018061021f366004614fbd565b6122fd565b610160610232366004614f9f565b612fba565b61018a612fd8565b6101be61024d366004614f9f565b613ba9565b61012e610260366004614f9f565b613c1d565b610160610273366004614f9f565b613c89565b61028b610286366004614f3f565b613cf5565b60405161014496959493929190615819565b6102b06102ab366004614f9f565b613d31565b6040516101449291906157e6565b6102c6614884565b6040516101449190615700565b600e6020908152600091825260409182902080548351601f6002600019610100600186161502019093169290920491820184900484028101840190945280845290929183919083018282801561036a5780601f1061033f5761010080835404028352916020019161036a565b820191906000526020600020905b81548152906001019060200180831161034d57829003601f168201915b505050505090806001018054600181600116156101000203166002900480601f0160208091040260200160405190810160405280929190818152602001828054600181600116156101000203166002900480156104085780601f106103dd57610100808354040283529160200191610408565b820191906000526020600020905b8154815290600101906020018083116103eb57829003601f168201915b50505060028085018054604080516020601f600019610100600187161502019094169590950492830185900485028101850190915281815295969594509092509083018282801561049a5780601f1061046f5761010080835404028352916020019161049a565b820191906000526020600020905b81548152906001019060200180831161047d57829003601f168201915b5050505060038301805460408051602060026001851615610100026000190190941693909304601f810184900484028201840190925281815294959493509083018282801561052a5780601f106104ff5761010080835404028352916020019161052a565b820191906000526020600020905b81548152906001019060200180831161050d57829003601f168201915b5050505060048301805460408051602060026001851615610100026000190190941693909304601f81018490048402820184019092528181529495949350908301828280156105ba5780601f1061058f576101008083540402835291602001916105ba565b820191906000526020600020905b81548152906001019060200180831161059d57829003601f168201915b5050505060058301805460408051602060026001851615610100026000190190941693909304601f810184900484028201840190925281815294959493509083018282801561064a5780601f1061061f5761010080835404028352916020019161064a565b820191906000526020600020905b81548152906001019060200180831161062d57829003601f168201915b5050505060068301805460408051602060026001851615610100026000190190941693909304601f81018490048402820184019092528181529495949350908301828280156106da5780601f106106af576101008083540402835291602001916106da565b820191906000526020600020905b8154815290600101906020018083116106bd57829003601f168201915b5050505060078301805460408051602060026001851615610100026000190190941693909304601f810184900484028201840190925281815294959493509083018282801561076a5780601f1061073f5761010080835404028352916020019161076a565b820191906000526020600020905b81548152906001019060200180831161074d57829003601f168201915b5050505060088301805460408051602060026001851615610100026000190190941693909304601f81018490048402820184019092528181529495949350908301828280156107fa5780601f106107cf576101008083540402835291602001916107fa565b820191906000526020600020905b8154815290600101906020018083116107dd57829003601f168201915b5050505060098301805460408051602060026001851615610100026000190190941693909304601f810184900484028201840190925281815294959493509083018282801561088a5780601f1061085f5761010080835404028352916020019161088a565b820191906000526020600020905b81548152906001019060200180831161086d57829003601f168201915b505050505090508a565b6000818152600b60205260409020600301546001600160a01b031633145b919050565b336000908152600a6020526040812060030154136108d457600080fd5b6000818152600d60205260409020600f810154600e90910154106108f757600080fd5b6000818152602081815260408083203384529091529020805460ff19166001908117909155821515141561096f576000818152600b60208190526040909120908101805460010190555460038054909190811061095057fe5b60009182526020909120600b60119092020101805460010190556109b3565b6000818152600b60205260409020600c8101805460010190555460038054909190811061099857fe5b60009182526020909120600c60119092020101805460010190555b6000818152602081815260408083203384528252808320805461ff00191661010087151502179055838352600b9091529020600a81018054600101905554600380549091908110610a0057fe5b60009182526020808320600a601190930201820180546001019055338352526040902060030180546000190190555050565b6060806003600481805480602002602001604051908101604052809291908181526020016000905b82821015610fd95783829060005260206000209060110201604051806102200160405290816000820154815260200160018201548152602001600282018054600181600116156101000203166002900480601f016020809104026020016040519081016040528092919081815260200182805460018160011615610100020316600290048015610b2b5780601f10610b0057610100808354040283529160200191610b2b565b820191906000526020600020905b815481529060010190602001808311610b0e57829003601f168201915b505050918352505060038201546001600160a01b0316602080830191909152600483018054604080518285028101850182528281529401939260009084015b82821015610c155760008481526020908190208301805460408051601f6002600019610100600187161502019094169390930492830185900485028101850190915281815292830182828015610c015780601f10610bd657610100808354040283529160200191610c01565b820191906000526020600020905b815481529060010190602001808311610be457829003601f168201915b505050505081526020019060010190610b6a565b50505050815260200160058201805480602002602001604051908101604052809291908181526020016000905b82821015610ced5760008481526020908190208301805460408051601f6002600019610100600187161502019094169390930492830185900485028101850190915281815292830182828015610cd95780601f10610cae57610100808354040283529160200191610cd9565b820191906000526020600020905b815481529060010190602001808311610cbc57829003601f168201915b505050505081526020019060010190610c42565b50505050815260200160068201805480602002602001604051908101604052809291908181526020016000905b82821015610dc55760008481526020908190208301805460408051601f6002600019610100600187161502019094169390930492830185900485028101850190915281815292830182828015610db15780601f10610d8657610100808354040283529160200191610db1565b820191906000526020600020905b815481529060010190602001808311610d9457829003601f168201915b505050505081526020019060010190610d1a565b50505090825250600782015460208083019190915260088301805460408051601f60026000196101006001871615020190941693909304928301859004850281018501825282815294019392830182828015610e625780601f10610e3757610100808354040283529160200191610e62565b820191906000526020600020905b815481529060010190602001808311610e4557829003601f168201915b5050505050815260200160098201805480602002602001604051908101604052809291908181526020016000905b82821015610f3b5760008481526020908190208301805460408051601f6002600019610100600187161502019094169390930492830185900485028101850190915281815292830182828015610f275780601f10610efc57610100808354040283529160200191610f27565b820191906000526020600020905b815481529060010190602001808311610f0a57829003601f168201915b505050505081526020019060010190610e90565b50505090825250600a8201546020820152600b820154604080830191909152600c830154606083015280518082019182905260809092019190600d84019060029082845b815481526020019060010190808311610f7f575050509183525050600f82015460208083019190915260109092015460ff808216151560408401526101009091041615156060909101529082526001929092019101610a5a565b50505050915080805480602002602001604051908101604052809291908181526020016000905b8282101561160357600084815260209081902060408051600a8602909201805460026001821615610100026000190190911604601f810185900490940283016101609081019092526101408301848152929390928492909184918401828280156110ab5780601f10611080576101008083540402835291602001916110ab565b820191906000526020600020905b81548152906001019060200180831161108e57829003601f168201915b50505050508152602001600182018054600181600116156101000203166002900480601f01602080910402602001604051908101604052809291908181526020018280546001816001161561010002031660029004801561114d5780601f106111225761010080835404028352916020019161114d565b820191906000526020600020905b81548152906001019060200180831161113057829003601f168201915b5050509183525050600282810180546040805160206001841615610100026000190190931694909404601f810183900483028501830190915280845293810193908301828280156111df5780601f106111b4576101008083540402835291602001916111df565b820191906000526020600020905b8154815290600101906020018083116111c257829003601f168201915b505050918352505060038201805460408051602060026001851615610100026000190190941693909304601f81018490048402820184019092528181529382019392918301828280156112735780601f1061124857610100808354040283529160200191611273565b820191906000526020600020905b81548152906001019060200180831161125657829003601f168201915b505050918352505060048201805460408051602060026001851615610100026000190190941693909304601f81018490048402820184019092528181529382019392918301828280156113075780601f106112dc57610100808354040283529160200191611307565b820191906000526020600020905b8154815290600101906020018083116112ea57829003601f168201915b505050918352505060058201805460408051602060026001851615610100026000190190941693909304601f810184900484028201840190925281815293820193929183018282801561139b5780601f106113705761010080835404028352916020019161139b565b820191906000526020600020905b81548152906001019060200180831161137e57829003601f168201915b505050918352505060068201805460408051602060026001851615610100026000190190941693909304601f810184900484028201840190925281815293820193929183018282801561142f5780601f106114045761010080835404028352916020019161142f565b820191906000526020600020905b81548152906001019060200180831161141257829003601f168201915b505050918352505060078201805460408051602060026001851615610100026000190190941693909304601f81018490048402820184019092528181529382019392918301828280156114c35780601f10611498576101008083540402835291602001916114c3565b820191906000526020600020905b8154815290600101906020018083116114a657829003601f168201915b505050918352505060088201805460408051602060026001851615610100026000190190941693909304601f81018490048402820184019092528181529382019392918301828280156115575780601f1061152c57610100808354040283529160200191611557565b820191906000526020600020905b81548152906001019060200180831161153a57829003601f168201915b505050918352505060098201805460408051602060026001851615610100026000190190941693909304601f81018490048402820184019092528181529382019392918301828280156115eb5780601f106115c0576101008083540402835291602001916115eb565b820191906000526020600020905b8154815290600101906020018083116115ce57829003601f168201915b50505050508152505081526020019060010190611000565b505050509050915091509091565b6000898152600d6020526040902060100154610100900460ff161561163557600080fd5b61163d61489d565b611645614930565b6002548260000181815250508a8260200181815250508982604001819052503382606001906001600160a01b031690816001600160a01b031681525050888260800181905250878260a00181905250828260c00181905250868260e00181815250508582610100018190525084826101200181905250600182610200019015159081151581525050604051806040016040528042815260200142815250826101a001819052504261012c01826101c001818152505060008261016001818152505060008261018001818152505060008261014001818152505081600b60008d815260200190815260200160002060008201518160000155602082015181600101556040820151816002019080519060200190611762929190614983565b5060608201516003820180546001600160a01b0319166001600160a01b03909216919091179055608082015180516117a4916004840191602090910190614a01565b5060a082015180516117c0916005840191602090910190614a01565b5060c082015180516117dc916006840191602090910190614a01565b5060e082015160078201556101008201518051611803916008840191602090910190614983565b506101208201518051611820916009840191602090910190614a01565b50610140820151600a820155610160820151600b820155610180820151600c8201556101a082015161185890600d8301906002614a5a565b506101c0820151600f8201556101e0820151601090910180546102009093015115156101000261ff001992151560ff1990941693909317919091169190911790556003805460018101808355600092909252835160119091027fc2575a0e9e593c00f959f8c92f12db2869c3395a3b0502d05e2516446f71f85b81019182556020808601517fc2575a0e9e593c00f959f8c92f12db2869c3395a3b0502d05e2516446f71f85c8301556040860151805187949361193b937fc2575a0e9e593c00f959f8c92f12db2869c3395a3b0502d05e2516446f71f85d909101920190614983565b5060608201516003820180546001600160a01b0319166001600160a01b039092169190911790556080820151805161197d916004840191602090910190614a01565b5060a08201518051611999916005840191602090910190614a01565b5060c082015180516119b5916006840191602090910190614a01565b5060e0820151600782015561010082015180516119dc916008840191602090910190614983565b5061012082015180516119f9916009840191602090910190614a01565b50610140820151600a820155610160820151600b820155610180820151600c8201556101a0820151611a3190600d8301906002614a5a565b506101c0820151600f8201556101e0820151601090910180546102009093015160ff199093169115159190911761ff0019166101009215158302179055606086810151908401528551835260208087015181850152604080880151818601526080808901519086015260a0808901519086015260c080890180519187019190915260e0808a0151908701525192850192909252610120808801519085015260008e8152600c825291909120835180518594509192611af492849290910190614983565b506020828101518051611b0d9260018501920190614983565b5060408201518051611b29916002840191602090910190614983565b5060608201518051611b45916003840191602090910190614983565b5060808201518051611b61916004840191602090910190614983565b5060a08201518051611b7d916005840191602090910190614983565b5060c08201518051611b99916006840191602090910190614983565b5060e08201518051611bb5916007840191602090910190614983565b506101008201518051611bd2916008840191602090910190614983565b506101208201518051611bef916009840191602090910190614983565b50506004805460018101808355600092909252835180519293508492600a9092027f8a35acfbc15ff81a39ae7d344fd709f28e8600b4aa8c65c6b64bfe7fe36bd19b0191611c4591839160209190910190614983565b506020828101518051611c5e9260018501920190614983565b5060408201518051611c7a916002840191602090910190614983565b5060608201518051611c96916003840191602090910190614983565b5060808201518051611cb2916004840191602090910190614983565b5060a08201518051611cce916005840191602090910190614983565b5060c08201518051611cea916006840191602090910190614983565b5060e08201518051611d06916007840191602090910190614983565b506101008201518051611d23916008840191602090910190614983565b506101208201518051611d40916009840191602090910190614983565b5050505060026000815480929190600101919050555081600f6000336001600160a01b03166001600160a01b0316815260200190815260200160002060008d815260200190815260200160002060008201518160000155602082015181600101556040820151816002019080519060200190611dbd929190614983565b5060608201516003820180546001600160a01b0319166001600160a01b0390921691909117905560808201518051611dff916004840191602090910190614a01565b5060a08201518051611e1b916005840191602090910190614a01565b5060c08201518051611e37916006840191602090910190614a01565b5060e082015160078201556101008201518051611e5e916008840191602090910190614983565b506101208201518051611e7b916009840191602090910190614a01565b50610140820151600a820155610160820151600b820155610180820151600c8201556101a0820151611eb390600d8301906002614a5a565b506101c0820151600f8201556101e0820151601091820180546102009094015115156101000261ff001992151560ff19909516949094179190911692909217909155336000908152602091825260408082208e835283529020825180518493611f20928492910190614983565b506020828101518051611f399260018501920190614983565b5060408201518051611f55916002840191602090910190614983565b5060608201518051611f71916003840191602090910190614983565b5060808201518051611f8d916004840191602090910190614983565b5060a08201518051611fa9916005840191602090910190614983565b5060c08201518051611fc5916006840191602090910190614983565b5060e08201518051611fe1916007840191602090910190614983565b506101008201518051611ffe916008840191602090910190614983565b50610120820151805161201b916009840191602090910190614983565b50506040518c91507f62d016d4371415f3ad23ef71ccf53e281dea50c5b60ac3cce1b1ec9eb45226cc90600090a25050505050505050505050565b600d6020908152600091825260409182902080546001808301546002808501805488519481161561010002600019011691909104601f8101879004870284018701909752868352929590949192918301828280156120f55780601f106120ca576101008083540402835291602001916120f5565b820191906000526020600020905b8154815290600101906020018083116120d857829003601f168201915b505050506003830154600784015460088501805460408051602060026101006001861615026000190190941693909304601f810184900484028201840190925281815296976001600160a01b03909516969395509083018282801561219b5780601f106121705761010080835404028352916020019161219b565b820191906000526020600020905b81548152906001019060200180831161217e57829003601f168201915b505050600a840154600b850154600c860154600f87015460109097015495969295919450925060ff808216916101009004168c565b6000908152600b60205260409020600f0154421090565b6121ef614a87565b336000908152600a602052604090206005015460ff161561220f57600080fd5b612217614a87565b600180548083526000602080850182815242604080880191909152600560608801526032608088015260a087018690529385018555338352600a9091529190208351815590518183018054859460ff199091169083600281111561227757fe5b021790555060408201516002820155606082015160038201556080820151600482015560a0909101516005909101805460ff191691151591909117905590505b90565b600060205282600052604060002060205281600052604060002081600281106122df57fe5b602081049091015460ff601f9092166101000a900416925083915050565b6000828152600b60205260409020600f015442101561231b57600080fd5b6000828152600b6020526040902060100154610100900460ff16801561235357506000828152600b602052604090206010015460ff16155b61235c57600080fd5b6000828152600b60208190526040909120600c810154910154106128de576000828152600b602090815260408083206010808201805460ff1990811660019081179092556001600160a01b0388168752600f8652848720898852865284872090920180549092168117909155600d90935292208254815582820154818301556002808401805492936123ff93838601939181161561010002600019011604614ac0565b5060038281015490820180546001600160a01b0319166001600160a01b039092169190911790556004808301805461243a9284019190614b35565b506005828101805461244f9284019190614b35565b50600682810180546124649284019190614b35565b506007820154816007015560088201816008019080546001816001161561010002031660029004612496929190614ac0565b50600982810180546124ab9284019190614b35565b50600a82015481600a0155600b82015481600b0155600c82015481600c0155600d820181600d019060026124e0929190614b93565b50600f82810154908201556010918201805492909101805460ff191660ff938416151517808255915461ff00199092166101009283900490931615158202929092179091556000838152600d602052604081206005805460018181018084559290945282547f036b6384b5eca791c62761152d0c79bb0604c104a5fb6f4eb0703f3154bb3db06011909202918201908155838501547f036b6384b5eca791c62761152d0c79bb0604c104a5fb6f4eb0703f3154bb3db1830155600280850180549497959692956125e0957f036b6384b5eca791c62761152d0c79bb0604c104a5fb6f4eb0703f3154bb3db290950194919382161502600019011604614ac0565b5060038281015490820180546001600160a01b0319166001600160a01b039092169190911790556004808301805461261b9284019190614b35565b50600582810180546126309284019190614b35565b50600682810180546126459284019190614b35565b506007820154816007015560088201816008019080546001816001161561010002031660029004612677929190614ac0565b506009828101805461268c9284019190614b35565b50600a82015481600a0155600b82015481600b0155600c82015481600c0155600d820181600d019060026126c1929190614b93565b50600f82810154908201556010918201805492909101805460ff938416151560ff19909116178082559154610100908190049093161515830261ff00199092169190911790556000848152600c602052604081206006805460018181018084559290945282549195509193600a9092027ff652222313e28459528d920b65115c16c04f3efc82aaedc97be59f3f377c0d3f01926127709284928692600290821615909202600019011604614ac0565b5060018201816001019080546001816001161561010002031660029004612798929190614ac0565b50600282810180546127bd928481019291600019610100600183161502011604614ac0565b50600382018160030190805460018160011615610100020316600290046127e5929190614ac0565b506004820181600401908054600181600116156101000203166002900461280d929190614ac0565b5060058201816005019080546001816001161561010002031660029004612835929190614ac0565b506006820181600601908054600181600116156101000203166002900461285d929190614ac0565b5060078201816007019080546001816001161561010002031660029004612885929190614ac0565b50600882018160080190805460018160011615610100020316600290046128ad929190614ac0565b50600982018160090190805460018160011615610100020316600290046128d5929190614ac0565b50505050612c93565b6000828152600d602052604081206007805460018082018084559290945282547fa66cc928b5edb82af9bd49922954155ab7b0942694bea4ce44661d9a8736c6886011909202918201908155848401547fa66cc928b5edb82af9bd49922954155ab7b0942694bea4ce44661d9a8736c6898301556002808501805494969294612999947fa66cc928b5edb82af9bd49922954155ab7b0942694bea4ce44661d9a8736c68a019391929181161561010002600019011604614ac0565b5060038281015490820180546001600160a01b0319166001600160a01b03909216919091179055600480830180546129d49284019190614b35565b50600582810180546129e99284019190614b35565b50600682810180546129fe9284019190614b35565b506007820154816007015560088201816008019080546001816001161561010002031660029004612a30929190614ac0565b5060098281018054612a459284019190614b35565b50600a82015481600a0155600b82015481600b0155600c82015481600c0155600d820181600d01906002612a7a929190614b93565b50600f82810154908201556010918201805492909101805460ff938416151560ff19909116178082559154610100908190049093161515830261ff00199092169190911790556000848152600c602052604081206008805460018181018084559290945282549195509193600a9092027ff3f7a9fe364faab93b216da50a3214154f22a0a2b415b23a84c8169e8b636ee30192612b299284928692600290821615909202600019011604614ac0565b5060018201816001019080546001816001161561010002031660029004612b51929190614ac0565b5060028281018054612b76928481019291600019610100600183161502011604614ac0565b5060038201816003019080546001816001161561010002031660029004612b9e929190614ac0565b5060048201816004019080546001816001161561010002031660029004612bc6929190614ac0565b5060058201816005019080546001816001161561010002031660029004612bee929190614ac0565b5060068201816006019080546001816001161561010002031660029004612c16929190614ac0565b5060078201816007019080546001816001161561010002031660029004612c3e929190614ac0565b5060088201816008019080546001816001161561010002031660029004612c66929190614ac0565b5060098201816009019080546001816001161561010002031660029004612c8e929190614ac0565b505050505b6000828152600b602052604081208181556001810182905590612cb96002830182614bbd565b6003820180546001600160a01b0319169055612cd9600483016000614c04565b612ce7600583016000614c04565b612cf5600683016000614c04565b6007820160009055600882016000612d0d9190614bbd565b612d1b600983016000614c04565b600a820160009055600b820160009055600c820160009055600d82016000612d439190614c22565b506000600f82018190556010909101805461ffff19169055828152600c6020526040812090612d728282614bbd565b612d80600183016000614bbd565b612d8e600283016000614bbd565b612d9c600383016000614bbd565b612daa600483016000614bbd565b612db8600583016000614bbd565b612dc6600683016000614bbd565b612dd4600783016000614bbd565b612de2600883016000614bbd565b612df0600983016000614bbd565b50506001600160a01b0381166000908152600f60209081526040808320858452909152902054600380549091908110612e2557fe5b6000918252602082206011909102018181556001810182905590612e4c6002830182614bbd565b6003820180546001600160a01b0319169055612e6c600483016000614c04565b612e7a600583016000614c04565b612e88600683016000614c04565b6007820160009055600882016000612ea09190614bbd565b612eae600983016000614c04565b600a820160009055600b820160009055600c820160009055600d82016000612ed69190614c22565b506000600f8281018290556010909201805461ffff191690556001600160a01b0383168152602091825260408082208583529092522054600480549091908110612f1c57fe5b600091825260208220600a9091020190612f368282614bbd565b612f44600183016000614bbd565b612f52600283016000614bbd565b612f60600383016000614bbd565b612f6e600483016000614bbd565b612f7c600583016000614bbd565b612f8a600683016000614bbd565b612f98600783016000614bbd565b612fa6600883016000614bbd565b612fb4600983016000614bbd565b50505050565b60009081526020818152604080832033845290915290205460ff1690565b6060806005600681805480602002602001604051908101604052809291908181526020016000905b8282101561357f5783829060005260206000209060110201604051806102200160405290816000820154815260200160018201548152602001600282018054600181600116156101000203166002900480601f0160208091040260200160405190810160405280929190818152602001828054600181600116156101000203166002900480156130d15780601f106130a6576101008083540402835291602001916130d1565b820191906000526020600020905b8154815290600101906020018083116130b457829003601f168201915b505050918352505060038201546001600160a01b0316602080830191909152600483018054604080518285028101850182528281529401939260009084015b828210156131bb5760008481526020908190208301805460408051601f60026000196101006001871615020190941693909304928301859004850281018501909152818152928301828280156131a75780601f1061317c576101008083540402835291602001916131a7565b820191906000526020600020905b81548152906001019060200180831161318a57829003601f168201915b505050505081526020019060010190613110565b50505050815260200160058201805480602002602001604051908101604052809291908181526020016000905b828210156132935760008481526020908190208301805460408051601f600260001961010060018716150201909416939093049283018590048502810185019091528181529283018282801561327f5780601f106132545761010080835404028352916020019161327f565b820191906000526020600020905b81548152906001019060200180831161326257829003601f168201915b5050505050815260200190600101906131e8565b50505050815260200160068201805480602002602001604051908101604052809291908181526020016000905b8282101561336b5760008481526020908190208301805460408051601f60026000196101006001871615020190941693909304928301859004850281018501909152818152928301828280156133575780601f1061332c57610100808354040283529160200191613357565b820191906000526020600020905b81548152906001019060200180831161333a57829003601f168201915b5050505050815260200190600101906132c0565b50505090825250600782015460208083019190915260088301805460408051601f600260001961010060018716150201909416939093049283018590048502810185018252828152940193928301828280156134085780601f106133dd57610100808354040283529160200191613408565b820191906000526020600020905b8154815290600101906020018083116133eb57829003601f168201915b5050505050815260200160098201805480602002602001604051908101604052809291908181526020016000905b828210156134e15760008481526020908190208301805460408051601f60026000196101006001871615020190941693909304928301859004850281018501909152818152928301828280156134cd5780601f106134a2576101008083540402835291602001916134cd565b820191906000526020600020905b8154815290600101906020018083116134b057829003601f168201915b505050505081526020019060010190613436565b50505090825250600a8201546020820152600b820154604080830191909152600c830154606083015280518082019182905260809092019190600d84019060029082845b815481526020019060010190808311613525575050509183525050600f82015460208083019190915260109092015460ff808216151560408401526101009091041615156060909101529082526001929092019101613000565b50505050915080805480602002602001604051908101604052809291908181526020016000905b8282101561160357600084815260209081902060408051600a8602909201805460026001821615610100026000190190911604601f810185900490940283016101609081019092526101408301848152929390928492909184918401828280156136515780601f1061362657610100808354040283529160200191613651565b820191906000526020600020905b81548152906001019060200180831161363457829003601f168201915b50505050508152602001600182018054600181600116156101000203166002900480601f0160208091040260200160405190810160405280929190818152602001828054600181600116156101000203166002900480156136f35780601f106136c8576101008083540402835291602001916136f3565b820191906000526020600020905b8154815290600101906020018083116136d657829003601f168201915b5050509183525050600282810180546040805160206001841615610100026000190190931694909404601f810183900483028501830190915280845293810193908301828280156137855780601f1061375a57610100808354040283529160200191613785565b820191906000526020600020905b81548152906001019060200180831161376857829003601f168201915b505050918352505060038201805460408051602060026001851615610100026000190190941693909304601f81018490048402820184019092528181529382019392918301828280156138195780601f106137ee57610100808354040283529160200191613819565b820191906000526020600020905b8154815290600101906020018083116137fc57829003601f168201915b505050918352505060048201805460408051602060026001851615610100026000190190941693909304601f81018490048402820184019092528181529382019392918301828280156138ad5780601f10613882576101008083540402835291602001916138ad565b820191906000526020600020905b81548152906001019060200180831161389057829003601f168201915b505050918352505060058201805460408051602060026001851615610100026000190190941693909304601f81018490048402820184019092528181529382019392918301828280156139415780601f1061391657610100808354040283529160200191613941565b820191906000526020600020905b81548152906001019060200180831161392457829003601f168201915b505050918352505060068201805460408051602060026001851615610100026000190190941693909304601f81018490048402820184019092528181529382019392918301828280156139d55780601f106139aa576101008083540402835291602001916139d5565b820191906000526020600020905b8154815290600101906020018083116139b857829003601f168201915b505050918352505060078201805460408051602060026001851615610100026000190190941693909304601f8101849004840282018401909252818152938201939291830182828015613a695780601f10613a3e57610100808354040283529160200191613a69565b820191906000526020600020905b815481529060010190602001808311613a4c57829003601f168201915b505050918352505060088201805460408051602060026001851615610100026000190190941693909304601f8101849004840282018401909252818152938201939291830182828015613afd5780601f10613ad257610100808354040283529160200191613afd565b820191906000526020600020905b815481529060010190602001808311613ae057829003601f168201915b505050918352505060098201805460408051602060026001851615610100026000190190941693909304601f8101849004840282018401909252818152938201939291830182828015613b915780601f10613b6657610100808354040283529160200191613b91565b820191906000526020600020905b815481529060010190602001808311613b7457829003601f168201915b505050505081525050815260200190600101906135a6565b600b6020908152600091825260409182902080546001808301546002808501805488519481161561010002600019011691909104601f8101879004870284018701909752868352929590949192918301828280156120f55780601f106120ca576101008083540402835291602001916120f5565b600c6020908152600091825260409182902080548351601f6002600019610100600186161502019093169290920491820184900484028101840190945280845290929183919083018282801561036a5780601f1061033f5761010080835404028352916020019161036a565b600081650102b36211c78111613c9e57600080fd5b6000838152600b6020526040902060100154610100900460ff16158015613cdc57506000838152600d6020526040902060100154610100900460ff16155b15613cea5760019150613cef565b600091505b50919050565b600a60205260009081526040902080546001820154600283015460038401546004850154600590950154939460ff938416949293919290911686565b613d3961489d565b613d41614930565b6000838152600d60209081526040808320600c83529281902081516102208101835284548152600180860154828601526002808701805486519381161561010002600019011691909104601f8101879004870283018701865280835293959294879490860193830182828015613df85780601f10613dcd57610100808354040283529160200191613df8565b820191906000526020600020905b815481529060010190602001808311613ddb57829003601f168201915b505050918352505060038201546001600160a01b0316602080830191909152600483018054604080518285028101850182528281529401939260009084015b82821015613ee25760008481526020908190208301805460408051601f6002600019610100600187161502019094169390930492830185900485028101850190915281815292830182828015613ece5780601f10613ea357610100808354040283529160200191613ece565b820191906000526020600020905b815481529060010190602001808311613eb157829003601f168201915b505050505081526020019060010190613e37565b50505050815260200160058201805480602002602001604051908101604052809291908181526020016000905b82821015613fba5760008481526020908190208301805460408051601f6002600019610100600187161502019094169390930492830185900485028101850190915281815292830182828015613fa65780601f10613f7b57610100808354040283529160200191613fa6565b820191906000526020600020905b815481529060010190602001808311613f8957829003601f168201915b505050505081526020019060010190613f0f565b50505050815260200160068201805480602002602001604051908101604052809291908181526020016000905b828210156140925760008481526020908190208301805460408051601f600260001961010060018716150201909416939093049283018590048502810185019091528181529283018282801561407e5780601f106140535761010080835404028352916020019161407e565b820191906000526020600020905b81548152906001019060200180831161406157829003601f168201915b505050505081526020019060010190613fe7565b50505090825250600782015460208083019190915260088301805460408051601f6002600019610100600187161502019094169390930492830185900485028101850182528281529401939283018282801561412f5780601f106141045761010080835404028352916020019161412f565b820191906000526020600020905b81548152906001019060200180831161411257829003601f168201915b5050505050815260200160098201805480602002602001604051908101604052809291908181526020016000905b828210156142085760008481526020908190208301805460408051601f60026000196101006001871615020190941693909304928301859004850281018501909152818152928301828280156141f45780601f106141c9576101008083540402835291602001916141f4565b820191906000526020600020905b8154815290600101906020018083116141d757829003601f168201915b50505050508152602001906001019061415d565b50505090825250600a8201546020820152600b820154604080830191909152600c830154606083015280518082019182905260809092019190600d84019060029082845b81548152602001906001019080831161424c575050509183525050600f82015460208083019190915260109092015460ff80821615156040808501919091526101009283900490911615156060909301929092528151855460026001821615909302600019011691909104601f81018490049093028101610160908101909252610140810183815293955092849284928491908401828280156143305780601f1061430557610100808354040283529160200191614330565b820191906000526020600020905b81548152906001019060200180831161431357829003601f168201915b50505050508152602001600182018054600181600116156101000203166002900480601f0160208091040260200160405190810160405280929190818152602001828054600181600116156101000203166002900480156143d25780601f106143a7576101008083540402835291602001916143d2565b820191906000526020600020905b8154815290600101906020018083116143b557829003601f168201915b5050509183525050600282810180546040805160206001841615610100026000190190931694909404601f810183900483028501830190915280845293810193908301828280156144645780601f1061443957610100808354040283529160200191614464565b820191906000526020600020905b81548152906001019060200180831161444757829003601f168201915b505050918352505060038201805460408051602060026001851615610100026000190190941693909304601f81018490048402820184019092528181529382019392918301828280156144f85780601f106144cd576101008083540402835291602001916144f8565b820191906000526020600020905b8154815290600101906020018083116144db57829003601f168201915b505050918352505060048201805460408051602060026001851615610100026000190190941693909304601f810184900484028201840190925281815293820193929183018282801561458c5780601f106145615761010080835404028352916020019161458c565b820191906000526020600020905b81548152906001019060200180831161456f57829003601f168201915b505050918352505060058201805460408051602060026001851615610100026000190190941693909304601f81018490048402820184019092528181529382019392918301828280156146205780601f106145f557610100808354040283529160200191614620565b820191906000526020600020905b81548152906001019060200180831161460357829003601f168201915b505050918352505060068201805460408051602060026001851615610100026000190190941693909304601f81018490048402820184019092528181529382019392918301828280156146b45780601f10614689576101008083540402835291602001916146b4565b820191906000526020600020905b81548152906001019060200180831161469757829003601f168201915b505050918352505060078201805460408051602060026001851615610100026000190190941693909304601f81018490048402820184019092528181529382019392918301828280156147485780601f1061471d57610100808354040283529160200191614748565b820191906000526020600020905b81548152906001019060200180831161472b57829003601f168201915b505050918352505060088201805460408051602060026001851615610100026000190190941693909304601f81018490048402820184019092528181529382019392918301828280156147dc5780601f106147b1576101008083540402835291602001916147dc565b820191906000526020600020905b8154815290600101906020018083116147bf57829003601f168201915b505050918352505060098201805460408051602060026001851615610100026000190190941693909304601f81018490048402820184019092528181529382019392918301828280156148705780601f1061484557610100808354040283529160200191614870565b820191906000526020600020905b81548152906001019060200180831161485357829003601f168201915b505050505081525050905091509150915091565b336000908152600a602052604090206001015460ff1690565b60405180610220016040528060008152602001600081526020016060815260200160006001600160a01b03168152602001606081526020016060815260200160608152602001600081526020016060815260200160608152602001600081526020016000815260200160008152602001614915614c30565b81526000602082018190526040820181905260609091015290565b604051806101400160405280606081526020016060815260200160608152602001606081526020016060815260200160608152602001606081526020016060815260200160608152602001606081525090565b828054600181600116156101000203166002900490600052602060002090601f016020900481019282601f106149c457805160ff19168380011785556149f1565b828001600101855582156149f1579182015b828111156149f15782518255916020019190600101906149d6565b506149fd929150614c4e565b5090565b828054828255906000526020600020908101928215614a4e579160200282015b82811115614a4e5782518051614a3e918491602090910190614983565b5091602001919060010190614a21565b506149fd929150614c68565b82600281019282156149f157916020028201828111156149f15782518255916020019190600101906149d6565b6040805160c081019091526000808252602082019081526020016000815260200160008152602001600081526020016000151581525090565b828054600181600116156101000203166002900490600052602060002090601f016020900481019282601f10614af957805485556149f1565b828001600101855582156149f157600052602060002091601f016020900482015b828111156149f1578254825591600101919060010190614b1a565b828054828255906000526020600020908101928215614a4e5760005260206000209182015b82811115614a4e5782829080546001816001161561010002031660029004614b83929190614ac0565b5091600101919060010190614b5a565b82600281019282156149f157918201828111156149f1578254825591600101919060010190614b1a565b50805460018160011615610100020316600290046000825580601f10614be35750614c01565b601f016020900490600052602060002090810190614c019190614c4e565b50565b5080546000825590600052602060002090810190614c019190614c68565b506000815560010160009055565b60405180604001604052806002906020820280388339509192915050565b6122b791905b808211156149fd5760008155600101614c54565b6122b791905b808211156149fd576000614c828282614bbd565b50600101614c6e565b8035614c9681615a37565b92915050565b600082601f830112614cad57600080fd5b8135614cc0614cbb8261595a565b615934565b81815260209384019390925082018360005b83811015614cfe5781358601614ce88882614d13565b8452506020928301929190910190600101614cd2565b5050505092915050565b8035614c9681615a4b565b600082601f830112614d2457600080fd5b8135614d32614cbb8261597a565b91508082526020830160208301858383011115614d4e57600080fd5b614d598382846159eb565b50505092915050565b60006101408284031215614d7557600080fd5b614d80610140615934565b905081356001600160401b03811115614d9857600080fd5b614da484828501614d13565b82525060208201356001600160401b03811115614dc057600080fd5b614dcc84828501614d13565b60208301525060408201356001600160401b03811115614deb57600080fd5b614df784828501614d13565b60408301525060608201356001600160401b03811115614e1657600080fd5b614e2284828501614d13565b60608301525060808201356001600160401b03811115614e4157600080fd5b614e4d84828501614d13565b60808301525060a08201356001600160401b03811115614e6c57600080fd5b614e7884828501614d13565b60a08301525060c08201356001600160401b03811115614e9757600080fd5b614ea384828501614d13565b60c08301525060e08201356001600160401b03811115614ec257600080fd5b614ece84828501614d13565b60e0830152506101008201356001600160401b03811115614eee57600080fd5b614efa84828501614d13565b610100830152506101208201356001600160401b03811115614f1b57600080fd5b614f2784828501614d13565b6101208301525092915050565b8035614c9681615a54565b600060208284031215614f5157600080fd5b6000614f5d8484614c8b565b949350505050565b60008060408385031215614f7857600080fd5b6000614f848585614d08565b9250506020614f9585828601614f34565b9150509250929050565b600060208284031215614fb157600080fd5b6000614f5d8484614f34565b60008060408385031215614fd057600080fd5b6000614fdc8585614f34565b9250506020614f9585828601614c8b565b60008060006060848603121561500257600080fd5b600061500e8686614f34565b935050602061501f86828701614c8b565b925050604061503086828701614f34565b9150509250925092565b60008060008060008060008060006101208a8c03121561505957600080fd5b60006150658c8c614f34565b99505060208a01356001600160401b0381111561508157600080fd5b61508d8c828d01614d13565b98505060408a01356001600160401b038111156150a957600080fd5b6150b58c828d01614c9c565b97505060608a01356001600160401b038111156150d157600080fd5b6150dd8c828d01614c9c565b96505060806150ee8c828d01614f34565b95505060a08a01356001600160401b0381111561510a57600080fd5b6151168c828d01614d13565b94505060c08a01356001600160401b0381111561513257600080fd5b61513e8c828d01614c9c565b93505060e08a01356001600160401b0381111561515a57600080fd5b6151668c828d01614d62565b9250506101008a01356001600160401b0381111561518357600080fd5b61518f8c828d01614c9c565b9150509295985092959850929598565b60006151ab838361538c565b9392505050565b60006151ab83836153c4565b60006151ab83836154d4565b60006151d68383615383565b505060200190565b6151e7816159ba565b82525050565b60006151f8826159a7565b61520281856159b1565b935083602082028501615214856159a1565b8060005b8581101561524e5784840389528151615231858261519f565b945061523c836159a1565b60209a909a0199925050600101615218565b5091979650505050505050565b6000615266826159a7565b61527081856159b1565b935083602082028501615282856159a1565b8060005b8581101561524e578484038952815161529f85826151b2565b94506152aa836159a1565b60209a909a0199925050600101615286565b60006152c7826159a7565b6152d181856159b1565b9350836020820285016152e3856159a1565b8060005b8581101561524e578484038952815161530085826151be565b945061530b836159a1565b60209a909a01999250506001016152e7565b615326816159ab565b61533081846108b2565b925061533b826122b7565b8060005b8381101561536957815161535387826151ca565b965061535e836159a1565b92505060010161533f565b505050505050565b6151e7816159c5565b6151e7816159e0565b6151e7816122b7565b6000615397826159a7565b6153a181856159b1565b93506153b18185602086016159f7565b6153ba81615a23565b9093019392505050565b8051610140808452600091908401906153dd828261538c565b915050602083015184820360208601526153f7828261538c565b91505060408301518482036040860152615411828261538c565b9150506060830151848203606086015261542b828261538c565b91505060808301518482036080860152615445828261538c565b91505060a083015184820360a086015261545f828261538c565b91505060c083015184820360c0860152615479828261538c565b91505060e083015184820360e0860152615493828261538c565b9150506101008301518482036101008601526154af828261538c565b9150506101208301518482036101208601526154cb828261538c565b95945050505050565b80516000906102408401906154e98582615383565b5060208301516154fc6020860182615383565b5060408301518482036040860152615514828261538c565b915050606083015161552960608601826151de565b506080830151848203608086015261554182826151ed565b91505060a083015184820360a086015261555b82826151ed565b91505060c083015184820360c086015261557582826151ed565b91505060e083015161558a60e0860182615383565b506101008301518482036101008601526155a4828261538c565b9150506101208301518482036101208601526155c082826151ed565b9150506101408301516155d7610140860182615383565b506101608301516155ec610160860182615383565b50610180830151615601610180860182615383565b506101a08301516156166101a086018261531d565b506101c083015161562b6101e0860182615383565b506101e0830151615640610200860182615371565b50610200830151615655610220860182615371565b509392505050565b805160c083019061566e8482615383565b506020820151615681602085018261537a565b5060408201516156946040850182615383565b5060608201516156a76060850182615383565b5060808201516156ba6080850182615383565b5060a0820151612fb460a0850182615371565b604080825281016156de81856152bc565b90508181036020830152614f5d818461525b565b60208101614c968284615371565b60208101614c96828461537a565b6101408082528101615720818d61538c565b90508181036020830152615734818c61538c565b90508181036040830152615748818b61538c565b9050818103606083015261575c818a61538c565b90508181036080830152615770818961538c565b905081810360a0830152615784818861538c565b905081810360c0830152615798818761538c565b905081810360e08301526157ac818661538c565b90508181036101008301526157c1818561538c565b90508181036101208301526157d6818461538c565b9c9b505050505050505050505050565b604080825281016157f781856154d4565b90508181036020830152614f5d81846153c4565b60c08101614c96828461565d565b60c081016158278289615383565b615834602083018861537a565b6158416040830187615383565b61584e6060830186615383565b61585b6080830185615383565b61586860a0830184615371565b979650505050505050565b6101808101615882828f615383565b61588f602083018e615383565b81810360408301526158a1818d61538c565b90506158b0606083018c6151de565b6158bd608083018b615383565b81810360a08301526158cf818a61538c565b90506158de60c0830189615383565b6158eb60e0830188615383565b6158f9610100830187615383565b615907610120830186615383565b615915610140830185615371565b615923610160830184615371565b9d9c50505050505050505050505050565b6040518181016001600160401b038111828210171561595257600080fd5b604052919050565b60006001600160401b0382111561597057600080fd5b5060209081020190565b60006001600160401b0382111561599057600080fd5b506020601f91909101601f19160190565b60200190565b5190565b50600290565b90815260200190565b6000614c96826159d4565b151590565b806108b281615a2d565b6001600160a01b031690565b6000614c96826159ca565b82818337506000910152565b60005b83811015615a125781810151838201526020016159fa565b83811115612fb45750506000910152565b601f01601f191690565b60038110614c0157fe5b615a40816159ba565b8114614c0157600080fd5b615a40816159c5565b615a40816122b756fea365627a7a7231582022add2dab3d7d2f98fe26360ee5a386a181ae0222ad1c65efeb0cf33e83780886c6578706572696d656e74616cf564736f6c63430005100040",
  "source": "pragma solidity 0.5.16;\r\n\r\nimport \"./LabelChainHelper.sol\";\r\n\r\npragma experimental ABIEncoderV2;\r\n\r\n\r\n/**\r\n @title DataLabelChain contract\r\n @author Fabrice Tapia\r\n @dev Contract which is a part of the Alyra's Final Project : Eat Healthy LabelChain\r\n */\r\n\r\ncontract DataTest is LabelChainHelper {\r\n\r\n\r\n  address private _owner;\r\n\r\n  // Simple event when a product is added to the product proposal phase\r\n  event TriggerAddProduct(uint indexed idProduct);\r\n\r\n  // Setting up the owner as a user (may not be needed)\r\n  constructor() public {\r\n    _owner = msg.sender;\r\n    addressToUser[_owner] = User(uniqueIdUser, Role.ADMIN, now, 10, 0, true);\r\n    uniqueIdUser++;\r\n  }\r\n\r\n  //  modifier checkProductIsNew (uint productCode) {\r\n  //    require(!productCodeToProduct[productCode].isExist);\r\n  //    _;\r\n  //  }\r\n  //\r\n  //\r\n  //  modifier checkProductProposalIsNew (uint productCode) {\r\n  //    require(!productCodeToProduct[productCode].isExist);\r\n  //    _;\r\n  //  }\r\n\r\n  modifier checkLengthGS1 (uint productCode){\r\n    require(productCode > 1111111111111);\r\n    _;\r\n  }\r\n  /*\r\n    function getProduct(uint productCode) view public returns(Product){\r\n      return productCodeToProduct[productCode];\r\n    }*/\r\n\r\n\r\n  /**\r\n  @notice Product is added in proposal phase by the user,\r\n          then visible for all users for votes\r\n  @dev\r\n         Add a new Product and Nutriments object in corresponding proposal mappings\r\n         Also added in corresponding arrays, useful to get them all from front-end\r\n         Finally, emitting an event to warn the user, all is OK\r\n  @param _productCode, _productName, _labels, _ingredients, _quantity,\r\n         _typeOfProduct, _packaging, _nutriments, _addiditfs\r\n         => Elements needed to fill in both Product and Nutriments object\r\n   */\r\n  function addProductToProposal(\r\n    uint _productCode,\r\n    string memory _productName,\r\n    string[] memory _labels,\r\n    string[] memory _ingredients,\r\n    uint _quantity,\r\n    string memory _typeOfProduct,\r\n    string[] memory _packaging,\r\n    Nutriment memory _nutriments,\r\n    string[] memory _additifs\r\n\r\n  ) public {\r\n    require(!productCodeToProduct[_productCode].isExist);\r\n    Product memory _product;\r\n    Nutriment memory _nutrimentsObject;\r\n    _product.productId = uniqueProductId;\r\n    _product.productCode = _productCode;\r\n    _product.productName = _productName;\r\n    _product.productProposerAddress = msg.sender;\r\n    _product.labels = _labels;\r\n    _product.ingredients = _ingredients;\r\n    _product.additifs = _additifs;\r\n    _product.quantity = _quantity;\r\n    _product.typeOfProduct = _typeOfProduct;\r\n    _product.packaging = _packaging;\r\n    _product.isExist = true;\r\n    _product.created_n_last_modif = [now, now];\r\n    _product.endDate = now + 5 minutes;\r\n    // _product.nutrimentsId = _productCode;\r\n    _product.forVotes = 0;\r\n    _product.againstVotes = 0;\r\n    _product.totalVotes = 0;\r\n    // productCodeToNutriments[_productCode] = _nutriments;\r\n    // _product.hash = keccak256(abi.encodePacked(_product.productName,_product.productProposerAddress, _product.quantity));\r\n    productCodeToProposalProduct[_productCode] = _product;\r\n    ProposalProducts.push(_product);\r\n\r\n    _nutrimentsObject.carbohydrates = _nutriments.carbohydrates;\r\n    _nutrimentsObject.energy = _nutriments.energy;\r\n    _nutrimentsObject.energy_kcal = _nutriments.energy_kcal;\r\n    _nutrimentsObject.proteines = _nutriments.proteines;\r\n    _nutrimentsObject.salt = _nutriments.salt;\r\n    _nutrimentsObject.sugars = _nutriments.sugars;\r\n    _nutrimentsObject.fat = _nutriments.fat;\r\n    _nutrimentsObject.saturated_fat = _nutriments.saturated_fat;\r\n    _nutrimentsObject.fiber = _nutriments.fat;\r\n    _nutrimentsObject.sodium = _nutriments.sodium;\r\n    productCodeToProposalNutriments[_productCode] = _nutrimentsObject;\r\n    ProposalNutriments.push(_nutrimentsObject);\r\n\r\n    uniqueProductId++;\r\n\r\n    addressToProducts[msg.sender][_productCode] = _product;\r\n    addressToNutriments[msg.sender][_productCode] = _nutrimentsObject;\r\n    //    addressToProduct[msg.sender][_productCode] = _product;\r\n    //    addressToNutriments[msg.sender][_product] = _nutrimentsObject;\r\n\r\n    emit TriggerAddProduct(_productCode);\r\n    // keccak256(abi.encodePacked(_productCode,_productName,msg.sender,_labels,_ingredients,_nutriments,_quantity,_typeOfProduct,_packaging))\r\n  }\r\n\r\n  // Getting actual user role at the start or when wallet is changed (may not be needed)\r\n  function getRole() public view returns (Role) {\r\n    return addressToUser[msg.sender].role;\r\n  }\r\n\r\n\r\n  // To add a product in proposal, we need to check if the product doesn't already exist in mappings of products\r\n  function checkProductIsNew(uint _productCode) public view checkLengthGS1(_productCode) returns (bool) {\r\n    if (!productCodeToProposalProduct[_productCode].isExist && !productCodeToProduct[_productCode].isExist) {\r\n      return true;\r\n    } else {\r\n      return false;\r\n    }\r\n  }\r\n\r\n\r\n  /**\r\n@notice Register a user when he does his first proposal or vote\r\n@dev\r\n       Defines a new User object, giving him token and reputation\r\n       Adds it to a mapping with all other subscribed users\r\n */\r\n  function subscribeUser() public returns (User memory) {\r\n    require(addressToUser[msg.sender].isExist == false);\r\n    User memory user;\r\n    user.userId = uniqueIdUser;\r\n    user.role = Role.CUSTOMER;\r\n    user.lastTimeTokenGiven = now;\r\n    user.tokenNumber = 5;\r\n    user.reputation = 50;\r\n    user.isExist = true;\r\n    uniqueIdUser++;\r\n    addressToUser[msg.sender] = user;\r\n    return user;\r\n  }\r\n\r\n  /**\r\n  @notice User is voting for a product in proposal phase (new or update)\r\n  @dev\r\n         User can only vote if he is registered and he has not already voted\r\n         Then adding vote to for and against\r\n  @param _opinion vote value (for or against)\r\n         _productCode product targeted for the vote\r\n */\r\n  function vote(bool _opinion, uint _productCode) public {\r\n    require(addressToUser[msg.sender].tokenNumber > 0);\r\n    // require(productCodeToProduct[_productCode].created_n_last_modif[1] < productCodeToProduct[_productCode].created_n_last_modif[1] + 7 days);\r\n    require(productCodeToProduct[_productCode].created_n_last_modif[1] < productCodeToProduct[_productCode].endDate);\r\n    // require(productCodeToProduct[_productCode].isExist && addressToUser[msg.sender].isExist && !alreadyVoted[_productCode][msg.sender] && productCodeToProduct[_productCode].productProposerAddress != msg.sender);\r\n    alreadyVoted[_productCode][msg.sender][0] = true;\r\n    if (_opinion == true) {\r\n      productCodeToProposalProduct[_productCode].forVotes++;\r\n      ProposalProducts[productCodeToProposalProduct[_productCode].productId].forVotes++;\r\n    } else {\r\n      productCodeToProposalProduct[_productCode].againstVotes++;\r\n      ProposalProducts[productCodeToProposalProduct[_productCode].productId].againstVotes++;\r\n    }\r\n    alreadyVoted[_productCode][msg.sender][1] = _opinion;\r\n    productCodeToProposalProduct[_productCode].totalVotes++;\r\n    ProposalProducts[productCodeToProposalProduct[_productCode].productId].totalVotes++;\r\n    addressToUser[msg.sender].tokenNumber--;\r\n  }\r\n\r\n  function endVote(uint _productCode, address proposerAddress) public {\r\n    require(now >= productCodeToProposalProduct[_productCode].endDate);\r\n    require(productCodeToProposalProduct[_productCode].isExist && !productCodeToProposalProduct[_productCode].isValidated);\r\n\r\n    if (productCodeToProposalProduct[_productCode].forVotes >= productCodeToProposalProduct[_productCode].againstVotes) {\r\n      productCodeToProposalProduct[_productCode].isValidated = true;\r\n      addressToProducts[proposerAddress][_productCode].isValidated = true;\r\n      productCodeToProduct[_productCode] = productCodeToProposalProduct[_productCode];\r\n      Products.push(productCodeToProduct[_productCode]);\r\n      Nutriments.push(productCodeToProposalNutriments[_productCode]);\r\n    } else {\r\n      DeniedProducts.push(productCodeToProduct[_productCode]);\r\n      DeniedNutriments.push(productCodeToProposalNutriments[_productCode]);\r\n    }\r\n    delete productCodeToProposalProduct[_productCode];\r\n    delete productCodeToProposalNutriments[_productCode];\r\n    delete ProposalProducts[addressToProducts[proposerAddress][_productCode].productId];\r\n    delete ProposalNutriments[addressToProducts[proposerAddress][_productCode].productId];\r\n  }\r\n\r\n}\r\n",
  "sourcePath": "C:\\Users\\Fabrice\\Desktop\\Project_EatHealthyLabelChain\\EatHealthyLabelChain\\contracts\\dataTest.sol",
  "compiler": {
    "name": "solc",
    "version": "0.5.16+commit.9c3226ce.Emscripten.clang"
  },
  "schemaVersion": "3.2.0",
  "updatedAt": "2020-07-18T18:18:15.501Z",
  "networkType": "ethereum",
  "devdoc": {
    "author": "Fabrice Tapia",
    "details": "Contract which is a part of the Alyra's Final Project : Eat Healthy LabelChain",
    "methods": {
      "addProductToProposal(uint256,string,string[],string[],uint256,string,string[],(string,string,string,string,string,string,string,string,string,string),string[])": {
        "details": "Add a new Product and Nutriments object in corresponding proposal mappings Also added in corresponding arrays, useful to get them all from front-end Finally, emitting an event to warn the user, all is OK",
        "params": {
          "_productCode": ", _productName, _labels, _ingredients, _quantity, _typeOfProduct, _packaging, _nutriments, _addiditfs => Elements needed to fill in both Product and Nutriments object"
        }
      },
      "subscribeUser()": {
        "details": "Defines a new User object, giving him token and reputation Adds it to a mapping with all other subscribed users"
      },
      "vote(bool,uint256)": {
        "details": "User can only vote if he is registered and he has not already voted Then adding vote to for and against",
        "params": {
          "_opinion": "vote value (for or against) _productCode product targeted for the vote"
        }
      }
    },
    "title": "DataLabelChain contract"
  },
  "userdoc": {
    "methods": {
      "addProductToProposal(uint256,string,string[],string[],uint256,string,string[],(string,string,string,string,string,string,string,string,string,string),string[])": {
        "notice": "Product is added in proposal phase by the user, then visible for all users for votes"
      },
      "subscribeUser()": {
        "notice": "Register a user when he does his first proposal or vote"
      },
      "vote(bool,uint256)": {
        "notice": "User is voting for a product in proposal phase (new or update)"
      }
    }
  }
}