{
  "contractName": "DataTest",
  "abi": [
    {
      "inputs": [],
      "payable": false,
      "stateMutability": "nonpayable",
      "type": "constructor"
    },
    {
      "anonymous": false,
      "inputs": [
        {
          "indexed": true,
          "internalType": "uint256",
          "name": "idProduct",
          "type": "uint256"
        }
      ],
      "name": "TriggerAddProduct",
      "type": "event"
    },
    {
      "constant": true,
      "inputs": [
        {
          "internalType": "address",
          "name": "",
          "type": "address"
        }
      ],
      "name": "addressToUser",
      "outputs": [
        {
          "internalType": "uint256",
          "name": "userId",
          "type": "uint256"
        },
        {
          "internalType": "enum DataTest.Role",
          "name": "role",
          "type": "uint8"
        },
        {
          "internalType": "uint256",
          "name": "lastTimeTokenGiven",
          "type": "uint256"
        },
        {
          "internalType": "int256",
          "name": "tokenNumber",
          "type": "int256"
        },
        {
          "internalType": "int256",
          "name": "reputation",
          "type": "int256"
        },
        {
          "internalType": "bool",
          "name": "isExist",
          "type": "bool"
        }
      ],
      "payable": false,
      "stateMutability": "view",
      "type": "function"
    },
    {
      "constant": true,
      "inputs": [
        {
          "internalType": "uint256",
          "name": "",
          "type": "uint256"
        },
        {
          "internalType": "address",
          "name": "",
          "type": "address"
        }
      ],
      "name": "alreadyVoted",
      "outputs": [
        {
          "internalType": "bool",
          "name": "",
          "type": "bool"
        }
      ],
      "payable": false,
      "stateMutability": "view",
      "type": "function"
    },
    {
      "constant": true,
      "inputs": [
        {
          "internalType": "uint256",
          "name": "",
          "type": "uint256"
        }
      ],
      "name": "productCodeToNutriments",
      "outputs": [
        {
          "internalType": "string",
          "name": "energy",
          "type": "string"
        },
        {
          "internalType": "string",
          "name": "energy_kcal",
          "type": "string"
        },
        {
          "internalType": "string",
          "name": "proteines",
          "type": "string"
        },
        {
          "internalType": "string",
          "name": "carbohydrates",
          "type": "string"
        },
        {
          "internalType": "string",
          "name": "salt",
          "type": "string"
        },
        {
          "internalType": "string",
          "name": "sugars",
          "type": "string"
        },
        {
          "internalType": "string",
          "name": "fat",
          "type": "string"
        },
        {
          "internalType": "string",
          "name": "saturated_fat",
          "type": "string"
        },
        {
          "internalType": "string",
          "name": "fiber",
          "type": "string"
        },
        {
          "internalType": "string",
          "name": "sodium",
          "type": "string"
        }
      ],
      "payable": false,
      "stateMutability": "view",
      "type": "function"
    },
    {
      "constant": true,
      "inputs": [
        {
          "internalType": "uint256",
          "name": "",
          "type": "uint256"
        }
      ],
      "name": "productCodeToProduct",
      "outputs": [
        {
          "internalType": "uint256",
          "name": "productId",
          "type": "uint256"
        },
        {
          "internalType": "uint256",
          "name": "productCode",
          "type": "uint256"
        },
        {
          "internalType": "string",
          "name": "productName",
          "type": "string"
        },
        {
          "internalType": "address",
          "name": "productProposerAddress",
          "type": "address"
        },
        {
          "internalType": "uint256",
          "name": "nutrimentsId",
          "type": "uint256"
        },
        {
          "internalType": "uint256",
          "name": "quantity",
          "type": "uint256"
        },
        {
          "internalType": "string",
          "name": "typeOfProduct",
          "type": "string"
        },
        {
          "internalType": "uint256",
          "name": "totalVotes",
          "type": "uint256"
        },
        {
          "internalType": "uint256",
          "name": "forVotes",
          "type": "uint256"
        },
        {
          "internalType": "uint256",
          "name": "againstVotes",
          "type": "uint256"
        },
        {
          "internalType": "bool",
          "name": "isValidated",
          "type": "bool"
        },
        {
          "internalType": "bool",
          "name": "isExist",
          "type": "bool"
        }
      ],
      "payable": false,
      "stateMutability": "view",
      "type": "function"
    },
    {
      "constant": true,
      "inputs": [
        {
          "internalType": "uint256",
          "name": "",
          "type": "uint256"
        }
      ],
      "name": "productCodeToProposalProduct",
      "outputs": [
        {
          "internalType": "uint256",
          "name": "productId",
          "type": "uint256"
        },
        {
          "internalType": "uint256",
          "name": "productCode",
          "type": "uint256"
        },
        {
          "internalType": "string",
          "name": "productName",
          "type": "string"
        },
        {
          "internalType": "address",
          "name": "productProposerAddress",
          "type": "address"
        },
        {
          "internalType": "uint256",
          "name": "nutrimentsId",
          "type": "uint256"
        },
        {
          "internalType": "uint256",
          "name": "quantity",
          "type": "uint256"
        },
        {
          "internalType": "string",
          "name": "typeOfProduct",
          "type": "string"
        },
        {
          "internalType": "uint256",
          "name": "totalVotes",
          "type": "uint256"
        },
        {
          "internalType": "uint256",
          "name": "forVotes",
          "type": "uint256"
        },
        {
          "internalType": "uint256",
          "name": "againstVotes",
          "type": "uint256"
        },
        {
          "internalType": "bool",
          "name": "isValidated",
          "type": "bool"
        },
        {
          "internalType": "bool",
          "name": "isExist",
          "type": "bool"
        }
      ],
      "payable": false,
      "stateMutability": "view",
      "type": "function"
    },
    {
      "constant": false,
      "inputs": [
        {
          "internalType": "uint256",
          "name": "_productCode",
          "type": "uint256"
        },
        {
          "internalType": "string",
          "name": "_productName",
          "type": "string"
        },
        {
          "internalType": "string[]",
          "name": "_labels",
          "type": "string[]"
        },
        {
          "internalType": "string[]",
          "name": "_ingredients",
          "type": "string[]"
        },
        {
          "internalType": "uint256",
          "name": "_quantity",
          "type": "uint256"
        },
        {
          "internalType": "string",
          "name": "_typeOfProduct",
          "type": "string"
        },
        {
          "internalType": "string[]",
          "name": "_packaging",
          "type": "string[]"
        },
        {
          "components": [
            {
              "internalType": "string",
              "name": "energy",
              "type": "string"
            },
            {
              "internalType": "string",
              "name": "energy_kcal",
              "type": "string"
            },
            {
              "internalType": "string",
              "name": "proteines",
              "type": "string"
            },
            {
              "internalType": "string",
              "name": "carbohydrates",
              "type": "string"
            },
            {
              "internalType": "string",
              "name": "salt",
              "type": "string"
            },
            {
              "internalType": "string",
              "name": "sugars",
              "type": "string"
            },
            {
              "internalType": "string",
              "name": "fat",
              "type": "string"
            },
            {
              "internalType": "string",
              "name": "saturated_fat",
              "type": "string"
            },
            {
              "internalType": "string",
              "name": "fiber",
              "type": "string"
            },
            {
              "internalType": "string",
              "name": "sodium",
              "type": "string"
            }
          ],
          "internalType": "struct DataTest.Nutriments",
          "name": "_nutriments",
          "type": "tuple"
        },
        {
          "internalType": "string[]",
          "name": "_additifs",
          "type": "string[]"
        }
      ],
      "name": "addProductToProposal",
      "outputs": [],
      "payable": false,
      "stateMutability": "nonpayable",
      "type": "function"
    },
    {
      "constant": true,
      "inputs": [],
      "name": "getRole",
      "outputs": [
        {
          "internalType": "enum DataTest.Role",
          "name": "",
          "type": "uint8"
        }
      ],
      "payable": false,
      "stateMutability": "view",
      "type": "function"
    },
    {
      "constant": true,
      "inputs": [
        {
          "internalType": "uint256",
          "name": "_productCode",
          "type": "uint256"
        }
      ],
      "name": "checkProductIsNew",
      "outputs": [
        {
          "internalType": "bool",
          "name": "",
          "type": "bool"
        }
      ],
      "payable": false,
      "stateMutability": "view",
      "type": "function"
    },
    {
      "constant": false,
      "inputs": [],
      "name": "subscribeUser",
      "outputs": [
        {
          "components": [
            {
              "internalType": "uint256",
              "name": "userId",
              "type": "uint256"
            },
            {
              "internalType": "enum DataTest.Role",
              "name": "role",
              "type": "uint8"
            },
            {
              "internalType": "uint256",
              "name": "lastTimeTokenGiven",
              "type": "uint256"
            },
            {
              "internalType": "int256",
              "name": "tokenNumber",
              "type": "int256"
            },
            {
              "internalType": "int256",
              "name": "reputation",
              "type": "int256"
            },
            {
              "internalType": "bool",
              "name": "isExist",
              "type": "bool"
            }
          ],
          "internalType": "struct DataTest.User",
          "name": "",
          "type": "tuple"
        }
      ],
      "payable": false,
      "stateMutability": "nonpayable",
      "type": "function"
    },
    {
      "constant": false,
      "inputs": [
        {
          "internalType": "bool",
          "name": "_opinion",
          "type": "bool"
        },
        {
          "internalType": "uint256",
          "name": "_productCode",
          "type": "uint256"
        }
      ],
      "name": "vote",
      "outputs": [],
      "payable": false,
      "stateMutability": "nonpayable",
      "type": "function"
    },
    {
      "constant": true,
      "inputs": [],
      "name": "getProductsVoting",
      "outputs": [
        {
          "components": [
            {
              "internalType": "uint256",
              "name": "productId",
              "type": "uint256"
            },
            {
              "internalType": "uint256",
              "name": "productCode",
              "type": "uint256"
            },
            {
              "internalType": "string",
              "name": "productName",
              "type": "string"
            },
            {
              "internalType": "address",
              "name": "productProposerAddress",
              "type": "address"
            },
            {
              "internalType": "string[]",
              "name": "labels",
              "type": "string[]"
            },
            {
              "internalType": "uint256",
              "name": "nutrimentsId",
              "type": "uint256"
            },
            {
              "internalType": "string[]",
              "name": "ingredients",
              "type": "string[]"
            },
            {
              "internalType": "string[]",
              "name": "additifs",
              "type": "string[]"
            },
            {
              "internalType": "uint256",
              "name": "quantity",
              "type": "uint256"
            },
            {
              "internalType": "string",
              "name": "typeOfProduct",
              "type": "string"
            },
            {
              "internalType": "string[]",
              "name": "packaging",
              "type": "string[]"
            },
            {
              "internalType": "uint256",
              "name": "totalVotes",
              "type": "uint256"
            },
            {
              "internalType": "uint256",
              "name": "forVotes",
              "type": "uint256"
            },
            {
              "internalType": "uint256",
              "name": "againstVotes",
              "type": "uint256"
            },
            {
              "internalType": "uint256[2]",
              "name": "created_n_last_modif",
              "type": "uint256[2]"
            },
            {
              "internalType": "bool",
              "name": "isValidated",
              "type": "bool"
            },
            {
              "internalType": "bool",
              "name": "isExist",
              "type": "bool"
            }
          ],
          "internalType": "struct DataTest.Product[]",
          "name": "",
          "type": "tuple[]"
        },
        {
          "components": [
            {
              "internalType": "string",
              "name": "energy",
              "type": "string"
            },
            {
              "internalType": "string",
              "name": "energy_kcal",
              "type": "string"
            },
            {
              "internalType": "string",
              "name": "proteines",
              "type": "string"
            },
            {
              "internalType": "string",
              "name": "carbohydrates",
              "type": "string"
            },
            {
              "internalType": "string",
              "name": "salt",
              "type": "string"
            },
            {
              "internalType": "string",
              "name": "sugars",
              "type": "string"
            },
            {
              "internalType": "string",
              "name": "fat",
              "type": "string"
            },
            {
              "internalType": "string",
              "name": "saturated_fat",
              "type": "string"
            },
            {
              "internalType": "string",
              "name": "fiber",
              "type": "string"
            },
            {
              "internalType": "string",
              "name": "sodium",
              "type": "string"
            }
          ],
          "internalType": "struct DataTest.Nutriments[]",
          "name": "",
          "type": "tuple[]"
        }
      ],
      "payable": false,
      "stateMutability": "view",
      "type": "function"
    },
    {
      "constant": true,
      "inputs": [
        {
          "internalType": "uint256",
          "name": "_productCode",
          "type": "uint256"
        }
      ],
      "name": "isAlreadyVotedByCurrentUser",
      "outputs": [
        {
          "internalType": "bool",
          "name": "",
          "type": "bool"
        }
      ],
      "payable": false,
      "stateMutability": "view",
      "type": "function"
    },
    {
      "constant": true,
      "inputs": [
        {
          "internalType": "uint256",
          "name": "_productCode",
          "type": "uint256"
        }
      ],
      "name": "isProposer",
      "outputs": [
        {
          "internalType": "bool",
          "name": "",
          "type": "bool"
        }
      ],
      "payable": false,
      "stateMutability": "view",
      "type": "function"
    }
  ],
  "bytecode": "0x608060405234801561001057600080fd5b5033600160006101000a81548173ffffffffffffffffffffffffffffffffffffffff021916908373ffffffffffffffffffffffffffffffffffffffff1602179055506040518060c00160405280600254815260200160028081111561007157fe5b8152602001428152602001600a8152602001600081526020016001151581525060066000600160009054906101000a900473ffffffffffffffffffffffffffffffffffffffff1673ffffffffffffffffffffffffffffffffffffffff1673ffffffffffffffffffffffffffffffffffffffff1681526020019081526020016000206000820151816000015560208201518160010160006101000a81548160ff0219169083600281111561012057fe5b021790555060408201518160020155606082015181600301556080820151816004015560a08201518160050160006101000a81548160ff021916908315150217905550905050600260008154809291906001019190505550613bf580620001886000396000f3fe608060405234801561001057600080fd5b50600436106100cf5760003560e01c806361ef3c151161008c578063d54d6c7011610066578063d54d6c701461024d578063eafc9df314610288578063edf53886146102b8578063fde08174146102ed576100cf565b806361ef3c15146101c45780636c9672ff146101ff578063be301d341461021d576100cf565b80630574d808146100d457806306e65f481461010d57806310e6e06c1461013d57806313431cc51461015957806357dd19921461017857806360c8b28d14610194575b600080fd5b6100ee60048036036100e99190810190612e48565b61030b565b6040516101049a999897969594939291906136be565b60405180910390f35b61012760048036036101229190810190612e48565b61094f565b6040516101349190613688565b60405180910390f35b61015760048036036101529190810190612e0c565b6109bd565b005b610161610b7a565b60405161016f929190613651565b60405180910390f35b610192600480360361018d9190810190612ead565b611890565b005b6101ae60048036036101a99190810190612e71565b61209e565b6040516101bb9190613688565b60405180910390f35b6101de60048036036101d99190810190612e48565b6120cd565b6040516101f69c9b9a9998979695949392919061381c565b60405180910390f35b610207612297565b60405161021491906137a0565b60405180910390f35b61023760048036036102329190810190612e48565b612434565b6040516102449190613688565b60405180910390f35b61026760048036036102629190810190612e48565b61249a565b60405161027f9c9b9a9998979695949392919061381c565b60405180910390f35b6102a2600480360361029d9190810190612e48565b612664565b6040516102af9190613688565b60405180910390f35b6102d260048036036102cd9190810190612de3565b6126e4565b6040516102e4969594939291906137bb565b60405180910390f35b6102f561273a565b60405161030291906136a3565b60405180910390f35b6009602052806000526040600020600091509050806000018054600181600116156101000203166002900480601f0160208091040260200160405190810160405280929190818152602001828054600181600116156101000203166002900480156103b75780601f1061038c576101008083540402835291602001916103b7565b820191906000526020600020905b81548152906001019060200180831161039a57829003601f168201915b505050505090806001018054600181600116156101000203166002900480601f0160208091040260200160405190810160405280929190818152602001828054600181600116156101000203166002900480156104555780601f1061042a57610100808354040283529160200191610455565b820191906000526020600020905b81548152906001019060200180831161043857829003601f168201915b505050505090806002018054600181600116156101000203166002900480601f0160208091040260200160405190810160405280929190818152602001828054600181600116156101000203166002900480156104f35780601f106104c8576101008083540402835291602001916104f3565b820191906000526020600020905b8154815290600101906020018083116104d657829003601f168201915b505050505090806003018054600181600116156101000203166002900480601f0160208091040260200160405190810160405280929190818152602001828054600181600116156101000203166002900480156105915780601f1061056657610100808354040283529160200191610591565b820191906000526020600020905b81548152906001019060200180831161057457829003601f168201915b505050505090806004018054600181600116156101000203166002900480601f01602080910402602001604051908101604052809291908181526020018280546001816001161561010002031660029004801561062f5780601f106106045761010080835404028352916020019161062f565b820191906000526020600020905b81548152906001019060200180831161061257829003601f168201915b505050505090806005018054600181600116156101000203166002900480601f0160208091040260200160405190810160405280929190818152602001828054600181600116156101000203166002900480156106cd5780601f106106a2576101008083540402835291602001916106cd565b820191906000526020600020905b8154815290600101906020018083116106b057829003601f168201915b505050505090806006018054600181600116156101000203166002900480601f01602080910402602001604051908101604052809291908181526020018280546001816001161561010002031660029004801561076b5780601f106107405761010080835404028352916020019161076b565b820191906000526020600020905b81548152906001019060200180831161074e57829003601f168201915b505050505090806007018054600181600116156101000203166002900480601f0160208091040260200160405190810160405280929190818152602001828054600181600116156101000203166002900480156108095780601f106107de57610100808354040283529160200191610809565b820191906000526020600020905b8154815290600101906020018083116107ec57829003601f168201915b505050505090806008018054600181600116156101000203166002900480601f0160208091040260200160405190810160405280929190818152602001828054600181600116156101000203166002900480156108a75780601f1061087c576101008083540402835291602001916108a7565b820191906000526020600020905b81548152906001019060200180831161088a57829003601f168201915b505050505090806009018054600181600116156101000203166002900480601f0160208091040260200160405190810160405280929190818152602001828054600181600116156101000203166002900480156109455780601f1061091a57610100808354040283529160200191610945565b820191906000526020600020905b81548152906001019060200180831161092857829003601f168201915b505050505090508a565b60003373ffffffffffffffffffffffffffffffffffffffff166007600084815260200190815260200160002060030160009054906101000a900473ffffffffffffffffffffffffffffffffffffffff1673ffffffffffffffffffffffffffffffffffffffff16149050919050565b600160008083815260200190815260200160002060003373ffffffffffffffffffffffffffffffffffffffff1673ffffffffffffffffffffffffffffffffffffffff16815260200190815260200160002060006101000a81548160ff021916908315150217905550600115158215151415610aa15760076000828152602001908152602001600020600c01600081548092919060010191905055506004600760008381526020019081526020016000206000015481548110610a7b57fe5b9060005260206000209060110201600c0160008154809291906001019190505550610b0c565b60076000828152602001908152602001600020600d01600081548092919060010191905055506004600760008381526020019081526020016000206000015481548110610aea57fe5b9060005260206000209060110201600d01600081548092919060010191905055505b60076000828152602001908152602001600020600b01600081548092919060010191905055506004600760008381526020019081526020016000206000015481548110610b5557fe5b9060005260206000209060110201600b01600081548092919060010191905055505050565b6060806004600581805480602002602001604051908101604052809291908181526020016000905b828210156111d45783829060005260206000209060110201604051806102200160405290816000820154815260200160018201548152602001600282018054600181600116156101000203166002900480601f016020809104026020016040519081016040528092919081815260200182805460018160011615610100020316600290048015610c735780601f10610c4857610100808354040283529160200191610c73565b820191906000526020600020905b815481529060010190602001808311610c5657829003601f168201915b505050505081526020016003820160009054906101000a900473ffffffffffffffffffffffffffffffffffffffff1673ffffffffffffffffffffffffffffffffffffffff1673ffffffffffffffffffffffffffffffffffffffff16815260200160048201805480602002602001604051908101604052809291908181526020016000905b82821015610db3578382906000526020600020018054600181600116156101000203166002900480601f016020809104026020016040519081016040528092919081815260200182805460018160011615610100020316600290048015610d9f5780601f10610d7457610100808354040283529160200191610d9f565b820191906000526020600020905b815481529060010190602001808311610d8257829003601f168201915b505050505081526020019060010190610cf7565b5050505081526020016005820154815260200160068201805480602002602001604051908101604052809291908181526020016000905b82821015610ea6578382906000526020600020018054600181600116156101000203166002900480601f016020809104026020016040519081016040528092919081815260200182805460018160011615610100020316600290048015610e925780601f10610e6757610100808354040283529160200191610e92565b820191906000526020600020905b815481529060010190602001808311610e7557829003601f168201915b505050505081526020019060010190610dea565b50505050815260200160078201805480602002602001604051908101604052809291908181526020016000905b82821015610f8f578382906000526020600020018054600181600116156101000203166002900480601f016020809104026020016040519081016040528092919081815260200182805460018160011615610100020316600290048015610f7b5780601f10610f5057610100808354040283529160200191610f7b565b820191906000526020600020905b815481529060010190602001808311610f5e57829003601f168201915b505050505081526020019060010190610ed3565b50505050815260200160088201548152602001600982018054600181600116156101000203166002900480601f01602080910402602001604051908101604052809291908181526020018280546001816001161561010002031660029004801561103a5780601f1061100f5761010080835404028352916020019161103a565b820191906000526020600020905b81548152906001019060200180831161101d57829003601f168201915b50505050508152602001600a8201805480602002602001604051908101604052809291908181526020016000905b82821015611124578382906000526020600020018054600181600116156101000203166002900480601f0160208091040260200160405190810160405280929190818152602001828054600181600116156101000203166002900480156111105780601f106110e557610100808354040283529160200191611110565b820191906000526020600020905b8154815290600101906020018083116110f357829003601f168201915b505050505081526020019060010190611068565b505050508152602001600b8201548152602001600c8201548152602001600d8201548152602001600e8201600280602002604051908101604052809291908260028015611186576020028201915b815481526020019060010190808311611172575b505050505081526020016010820160009054906101000a900460ff161515151581526020016010820160019054906101000a900460ff16151515158152505081526020019060010190610ba2565b50505050915080805480602002602001604051908101604052809291908181526020016000905b8282101561188257838290600052602060002090600a020160405180610140016040529081600082018054600181600116156101000203166002900480601f0160208091040260200160405190810160405280929190818152602001828054600181600116156101000203166002900480156112b85780601f1061128d576101008083540402835291602001916112b8565b820191906000526020600020905b81548152906001019060200180831161129b57829003601f168201915b50505050508152602001600182018054600181600116156101000203166002900480601f01602080910402602001604051908101604052809291908181526020018280546001816001161561010002031660029004801561135a5780601f1061132f5761010080835404028352916020019161135a565b820191906000526020600020905b81548152906001019060200180831161133d57829003601f168201915b50505050508152602001600282018054600181600116156101000203166002900480601f0160208091040260200160405190810160405280929190818152602001828054600181600116156101000203166002900480156113fc5780601f106113d1576101008083540402835291602001916113fc565b820191906000526020600020905b8154815290600101906020018083116113df57829003601f168201915b50505050508152602001600382018054600181600116156101000203166002900480601f01602080910402602001604051908101604052809291908181526020018280546001816001161561010002031660029004801561149e5780601f106114735761010080835404028352916020019161149e565b820191906000526020600020905b81548152906001019060200180831161148157829003601f168201915b50505050508152602001600482018054600181600116156101000203166002900480601f0160208091040260200160405190810160405280929190818152602001828054600181600116156101000203166002900480156115405780601f1061151557610100808354040283529160200191611540565b820191906000526020600020905b81548152906001019060200180831161152357829003601f168201915b50505050508152602001600582018054600181600116156101000203166002900480601f0160208091040260200160405190810160405280929190818152602001828054600181600116156101000203166002900480156115e25780601f106115b7576101008083540402835291602001916115e2565b820191906000526020600020905b8154815290600101906020018083116115c557829003601f168201915b50505050508152602001600682018054600181600116156101000203166002900480601f0160208091040260200160405190810160405280929190818152602001828054600181600116156101000203166002900480156116845780601f1061165957610100808354040283529160200191611684565b820191906000526020600020905b81548152906001019060200180831161166757829003601f168201915b50505050508152602001600782018054600181600116156101000203166002900480601f0160208091040260200160405190810160405280929190818152602001828054600181600116156101000203166002900480156117265780601f106116fb57610100808354040283529160200191611726565b820191906000526020600020905b81548152906001019060200180831161170957829003601f168201915b50505050508152602001600882018054600181600116156101000203166002900480601f0160208091040260200160405190810160405280929190818152602001828054600181600116156101000203166002900480156117c85780601f1061179d576101008083540402835291602001916117c8565b820191906000526020600020905b8154815290600101906020018083116117ab57829003601f168201915b50505050508152602001600982018054600181600116156101000203166002900480601f01602080910402602001604051908101604052809291908181526020018280546001816001161561010002031660029004801561186a5780601f1061183f5761010080835404028352916020019161186a565b820191906000526020600020905b81548152906001019060200180831161184d57829003601f168201915b505050505081525050815260200190600101906111fb565b505050509050915091509091565b600860008a815260200190815260200160002060100160019054906101000a900460ff16156118be57600080fd5b6118c6612791565b6118ce612835565b6003548260000181815250508a82602001818152505089826040018190525033826060019073ffffffffffffffffffffffffffffffffffffffff16908173ffffffffffffffffffffffffffffffffffffffff1681525050888260800181905250878260c00181905250828260e0018190525086826101000181815250508582610120018190525084826101400181905250600182610200019015159081151581525050604051806040016040528042815260200142815250826101c001819052508a8260a00181815250506000826101800181815250506000826101a001818152505060008261016001818152505081600760008d815260200190815260200160002060008201518160000155602082015181600101556040820151816002019080519060200190611a01929190612888565b5060608201518160030160006101000a81548173ffffffffffffffffffffffffffffffffffffffff021916908373ffffffffffffffffffffffffffffffffffffffff1602179055506080820151816004019080519060200190611a65929190612908565b5060a0820151816005015560c0820151816006019080519060200190611a8c929190612908565b5060e0820151816007019080519060200190611aa9929190612908565b506101008201518160080155610120820151816009019080519060200190611ad2929190612888565b5061014082015181600a019080519060200190611af0929190612908565b5061016082015181600b015561018082015181600c01556101a082015181600d01556101c082015181600e01906002611b2a929190612968565b506101e08201518160100160006101000a81548160ff0219169083151502179055506102008201518160100160016101000a81548160ff0219169083151502179055509050506004829080600181540180825580915050906001820390600052602060002090601102016000909192909190915060008201518160000155602082015181600101556040820151816002019080519060200190611bce929190612888565b5060608201518160030160006101000a81548173ffffffffffffffffffffffffffffffffffffffff021916908373ffffffffffffffffffffffffffffffffffffffff1602179055506080820151816004019080519060200190611c32929190612908565b5060a0820151816005015560c0820151816006019080519060200190611c59929190612908565b5060e0820151816007019080519060200190611c76929190612908565b506101008201518160080155610120820151816009019080519060200190611c9f929190612888565b5061014082015181600a019080519060200190611cbd929190612908565b5061016082015181600b015561018082015181600c01556101a082015181600d01556101c082015181600e01906002611cf7929190612968565b506101e08201518160100160006101000a81548160ff0219169083151502179055506102008201518160100160016101000a81548160ff02191690831515021790555050505083606001518160600181905250836000015181600001819052508360200151816020018190525083604001518160400181905250836080015181608001819052508360a001518160a001819052508360c001518160c001819052508360e001518160e001819052508360c0015181610100018190525083610120015181610120018190525080600960008d81526020019081526020016000206000820151816000019080519060200190611df2929190612888565b506020820151816001019080519060200190611e0f929190612888565b506040820151816002019080519060200190611e2c929190612888565b506060820151816003019080519060200190611e49929190612888565b506080820151816004019080519060200190611e66929190612888565b5060a0820151816005019080519060200190611e83929190612888565b5060c0820151816006019080519060200190611ea0929190612888565b5060e0820151816007019080519060200190611ebd929190612888565b50610100820151816008019080519060200190611edb929190612888565b50610120820151816009019080519060200190611ef9929190612888565b509050506005819080600181540180825580915050906001820390600052602060002090600a0201600090919290919091506000820151816000019080519060200190611f47929190612888565b506020820151816001019080519060200190611f64929190612888565b506040820151816002019080519060200190611f81929190612888565b506060820151816003019080519060200190611f9e929190612888565b506080820151816004019080519060200190611fbb929190612888565b5060a0820151816005019080519060200190611fd8929190612888565b5060c0820151816006019080519060200190611ff5929190612888565b5060e0820151816007019080519060200190612012929190612888565b50610100820151816008019080519060200190612030929190612888565b5061012082015181600901908051906020019061204e929190612888565b505050506003600081548092919060010191905055508a7f62d016d4371415f3ad23ef71ccf53e281dea50c5b60ac3cce1b1ec9eb45226cc60405160405180910390a25050505050505050505050565b60006020528160005260406000206020528060005260406000206000915091509054906101000a900460ff1681565b6008602052806000526040600020600091509050806000015490806001015490806002018054600181600116156101000203166002900480601f0160208091040260200160405190810160405280929190818152602001828054600181600116156101000203166002900480156121855780601f1061215a57610100808354040283529160200191612185565b820191906000526020600020905b81548152906001019060200180831161216857829003601f168201915b5050505050908060030160009054906101000a900473ffffffffffffffffffffffffffffffffffffffff1690806005015490806008015490806009018054600181600116156101000203166002900480601f0160208091040260200160405190810160405280929190818152602001828054600181600116156101000203166002900480156122555780601f1061222a57610100808354040283529160200191612255565b820191906000526020600020905b81548152906001019060200180831161223857829003601f168201915b50505050509080600b01549080600c01549080600d0154908060100160009054906101000a900460ff16908060100160019054906101000a900460ff1690508c565b61229f6129a8565b60001515600660003373ffffffffffffffffffffffffffffffffffffffff1673ffffffffffffffffffffffffffffffffffffffff16815260200190815260200160002060050160009054906101000a900460ff161515146122ff57600080fd5b6123076129a8565b60025481600001818152505060008160200190600281111561232557fe5b9081600281111561233257fe5b81525050428160400181815250506005816060018181525050603281608001818152505060018160a001901515908115158152505060026000815480929190600101919050555080600660003373ffffffffffffffffffffffffffffffffffffffff1673ffffffffffffffffffffffffffffffffffffffff1681526020019081526020016000206000820151816000015560208201518160010160006101000a81548160ff021916908360028111156123e757fe5b021790555060408201518160020155606082015181600301556080820151816004015560a08201518160050160006101000a81548160ff0219169083151502179055509050508091505090565b600080600083815260200190815260200160002060003373ffffffffffffffffffffffffffffffffffffffff1673ffffffffffffffffffffffffffffffffffffffff16815260200190815260200160002060009054906101000a900460ff169050919050565b6007602052806000526040600020600091509050806000015490806001015490806002018054600181600116156101000203166002900480601f0160208091040260200160405190810160405280929190818152602001828054600181600116156101000203166002900480156125525780601f1061252757610100808354040283529160200191612552565b820191906000526020600020905b81548152906001019060200180831161253557829003601f168201915b5050505050908060030160009054906101000a900473ffffffffffffffffffffffffffffffffffffffff1690806005015490806008015490806009018054600181600116156101000203166002900480601f0160208091040260200160405190810160405280929190818152602001828054600181600116156101000203166002900480156126225780601f106125f757610100808354040283529160200191612622565b820191906000526020600020905b81548152906001019060200180831161260557829003601f168201915b50505050509080600b01549080600c01549080600d0154908060100160009054906101000a900460ff16908060100160019054906101000a900460ff1690508c565b600081650102b36211c7811161267957600080fd5b6007600084815260200190815260200160002060100160019054906101000a900460ff161580156126cb57506008600084815260200190815260200160002060100160019054906101000a900460ff16155b156126d957600191506126de565b600091505b50919050565b60066020528060005260406000206000915090508060000154908060010160009054906101000a900460ff16908060020154908060030154908060040154908060050160009054906101000a900460ff16905086565b6000600660003373ffffffffffffffffffffffffffffffffffffffff1673ffffffffffffffffffffffffffffffffffffffff16815260200190815260200160002060010160009054906101000a900460ff16905090565b604051806102200160405280600081526020016000815260200160608152602001600073ffffffffffffffffffffffffffffffffffffffff1681526020016060815260200160008152602001606081526020016060815260200160008152602001606081526020016060815260200160008152602001600081526020016000815260200161281d6129eb565b81526020016000151581526020016000151581525090565b604051806101400160405280606081526020016060815260200160608152602001606081526020016060815260200160608152602001606081526020016060815260200160608152602001606081525090565b828054600181600116156101000203166002900490600052602060002090601f016020900481019282601f106128c957805160ff19168380011785556128f7565b828001600101855582156128f7579182015b828111156128f65782518255916020019190600101906128db565b5b5090506129049190612a0d565b5090565b828054828255906000526020600020908101928215612957579160200282015b82811115612956578251829080519060200190612946929190612888565b5091602001919060010190612928565b5b5090506129649190612a32565b5090565b8260028101928215612997579160200282015b8281111561299657825182559160200191906001019061297b565b5b5090506129a49190612a0d565b5090565b6040518060c0016040528060008152602001600060028111156129c757fe5b81526020016000815260200160008152602001600081526020016000151581525090565b6040518060400160405280600290602082028038833980820191505090505090565b612a2f91905b80821115612a2b576000816000905550600101612a13565b5090565b90565b612a5b91905b80821115612a575760008181612a4e9190612a5e565b50600101612a38565b5090565b90565b50805460018160011615610100020316600290046000825580601f10612a845750612aa3565b601f016020900490600052602060002090810190612aa29190612a0d565b5b50565b600081359050612ab581613b6d565b92915050565b600082601f830112612acc57600080fd5b8135612adf612ada82613911565b6138e4565b9150818183526020840193506020810190508360005b83811015612b255781358601612b0b8882612b44565b845260208401935060208301925050600181019050612af5565b5050505092915050565b600081359050612b3e81613b84565b92915050565b600082601f830112612b5557600080fd5b8135612b68612b6382613939565b6138e4565b91508082526020830160208301858383011115612b8457600080fd5b612b8f838284613b0d565b50505092915050565b600082601f830112612ba957600080fd5b8135612bbc612bb782613965565b6138e4565b91508082526020830160208301858383011115612bd857600080fd5b612be3838284613b0d565b50505092915050565b60006101408284031215612bff57600080fd5b612c0a6101406138e4565b9050600082013567ffffffffffffffff811115612c2657600080fd5b612c3284828501612b44565b600083015250602082013567ffffffffffffffff811115612c5257600080fd5b612c5e84828501612b44565b602083015250604082013567ffffffffffffffff811115612c7e57600080fd5b612c8a84828501612b44565b604083015250606082013567ffffffffffffffff811115612caa57600080fd5b612cb684828501612b44565b606083015250608082013567ffffffffffffffff811115612cd657600080fd5b612ce284828501612b44565b60808301525060a082013567ffffffffffffffff811115612d0257600080fd5b612d0e84828501612b44565b60a08301525060c082013567ffffffffffffffff811115612d2e57600080fd5b612d3a84828501612b44565b60c08301525060e082013567ffffffffffffffff811115612d5a57600080fd5b612d6684828501612b44565b60e08301525061010082013567ffffffffffffffff811115612d8757600080fd5b612d9384828501612b44565b6101008301525061012082013567ffffffffffffffff811115612db557600080fd5b612dc184828501612b44565b6101208301525092915050565b600081359050612ddd81613b9b565b92915050565b600060208284031215612df557600080fd5b6000612e0384828501612aa6565b91505092915050565b60008060408385031215612e1f57600080fd5b6000612e2d85828601612b2f565b9250506020612e3e85828601612dce565b9150509250929050565b600060208284031215612e5a57600080fd5b6000612e6884828501612dce565b91505092915050565b60008060408385031215612e8457600080fd5b6000612e9285828601612dce565b9250506020612ea385828601612aa6565b9150509250929050565b60008060008060008060008060006101208a8c031215612ecc57600080fd5b6000612eda8c828d01612dce565b99505060208a013567ffffffffffffffff811115612ef757600080fd5b612f038c828d01612b98565b98505060408a013567ffffffffffffffff811115612f2057600080fd5b612f2c8c828d01612abb565b97505060608a013567ffffffffffffffff811115612f4957600080fd5b612f558c828d01612abb565b9650506080612f668c828d01612dce565b95505060a08a013567ffffffffffffffff811115612f8357600080fd5b612f8f8c828d01612b98565b94505060c08a013567ffffffffffffffff811115612fac57600080fd5b612fb88c828d01612abb565b93505060e08a013567ffffffffffffffff811115612fd557600080fd5b612fe18c828d01612bec565b9250506101008a013567ffffffffffffffff811115612fff57600080fd5b61300b8c828d01612abb565b9150509295985092959850929598565b6000613027838361329d565b905092915050565b600061303b838361330f565b905092915050565b600061304f8383613428565b905092915050565b60006130638383613633565b60208301905092915050565b61307881613a96565b82525050565b61308781613a96565b82525050565b6000613098826139cb565b6130a28185613a36565b9350836020820285016130b485613991565b8060005b858110156130f057848403895281516130d1858261301b565b94506130dc83613a02565b925060208a019950506001810190506130b8565b50829750879550505050505092915050565b600061310d826139d6565b6131178185613a47565b935083602082028501613129856139a1565b8060005b858110156131655784840389528151613146858261302f565b945061315183613a0f565b925060208a0199505060018101905061312d565b50829750879550505050505092915050565b6000613182826139e1565b61318c8185613a58565b93508360208202850161319e856139b1565b8060005b858110156131da57848403895281516131bb8582613043565b94506131c683613a1c565b925060208a019950506001810190506131a2565b50829750879550505050505092915050565b6131f5816139ec565b6131ff8184613a69565b925061320a826139c1565b8060005b8381101561323b5781516132228782613057565b965061322d83613a29565b92505060018101905061320e565b505050505050565b61324c81613aa8565b82525050565b61325b81613aa8565b82525050565b61326a81613afb565b82525050565b61327981613afb565b82525050565b61328881613ac7565b82525050565b61329781613ac7565b82525050565b60006132a8826139f7565b6132b28185613a74565b93506132c2818560208601613b1c565b6132cb81613b4f565b840191505092915050565b60006132e1826139f7565b6132eb8185613a85565b93506132fb818560208601613b1c565b61330481613b4f565b840191505092915050565b600061014083016000830151848203600086015261332d828261329d565b91505060208301518482036020860152613347828261329d565b91505060408301518482036040860152613361828261329d565b9150506060830151848203606086015261337b828261329d565b91505060808301518482036080860152613395828261329d565b91505060a083015184820360a08601526133af828261329d565b91505060c083015184820360c08601526133c9828261329d565b91505060e083015184820360e08601526133e3828261329d565b9150506101008301518482036101008601526133ff828261329d565b91505061012083015184820361012086015261341b828261329d565b9150508091505092915050565b6000610240830160008301516134416000860182613633565b5060208301516134546020860182613633565b506040830151848203604086015261346c828261329d565b9150506060830151613481606086018261306f565b5060808301518482036080860152613499828261308d565b91505060a08301516134ae60a0860182613633565b5060c083015184820360c08601526134c6828261308d565b91505060e083015184820360e08601526134e0828261308d565b9150506101008301516134f7610100860182613633565b50610120830151848203610120860152613511828261329d565b91505061014083015184820361014086015261352d828261308d565b915050610160830151613544610160860182613633565b50610180830151613559610180860182613633565b506101a083015161356e6101a0860182613633565b506101c08301516135836101c08601826131ec565b506101e0830151613598610200860182613243565b506102008301516135ad610220860182613243565b508091505092915050565b60c0820160008201516135ce6000850182613633565b5060208201516135e16020850182613261565b5060408201516135f46040850182613633565b506060820151613607606085018261327f565b50608082015161361a608085018261327f565b5060a082015161362d60a0850182613243565b50505050565b61363c81613af1565b82525050565b61364b81613af1565b82525050565b6000604082019050818103600083015261366b8185613177565b9050818103602083015261367f8184613102565b90509392505050565b600060208201905061369d6000830184613252565b92915050565b60006020820190506136b86000830184613270565b92915050565b60006101408201905081810360008301526136d9818d6132d6565b905081810360208301526136ed818c6132d6565b90508181036040830152613701818b6132d6565b90508181036060830152613715818a6132d6565b9050818103608083015261372981896132d6565b905081810360a083015261373d81886132d6565b905081810360c083015261375181876132d6565b905081810360e083015261376581866132d6565b905081810361010083015261377a81856132d6565b905081810361012083015261378f81846132d6565b90509b9a5050505050505050505050565b600060c0820190506137b560008301846135b8565b92915050565b600060c0820190506137d06000830189613642565b6137dd6020830188613270565b6137ea6040830187613642565b6137f7606083018661328e565b613804608083018561328e565b61381160a0830184613252565b979650505050505050565b600061018082019050613832600083018f613642565b61383f602083018e613642565b8181036040830152613851818d6132d6565b9050613860606083018c61307e565b61386d608083018b613642565b61387a60a083018a613642565b81810360c083015261388c81896132d6565b905061389b60e0830188613642565b6138a9610100830187613642565b6138b7610120830186613642565b6138c5610140830185613252565b6138d3610160830184613252565b9d9c50505050505050505050505050565b6000604051905081810181811067ffffffffffffffff8211171561390757600080fd5b8060405250919050565b600067ffffffffffffffff82111561392857600080fd5b602082029050602081019050919050565b600067ffffffffffffffff82111561395057600080fd5b601f19601f8301169050602081019050919050565b600067ffffffffffffffff82111561397c57600080fd5b601f19601f8301169050602081019050919050565b6000819050602082019050919050565b6000819050602082019050919050565b6000819050602082019050919050565b6000819050919050565b600081519050919050565b600081519050919050565b600081519050919050565b600060029050919050565b600081519050919050565b6000602082019050919050565b6000602082019050919050565b6000602082019050919050565b6000602082019050919050565b600082825260208201905092915050565b600082825260208201905092915050565b600082825260208201905092915050565b600081905092915050565b600082825260208201905092915050565b600082825260208201905092915050565b6000613aa182613ad1565b9050919050565b60008115159050919050565b6000819050613ac282613b60565b919050565b6000819050919050565b600073ffffffffffffffffffffffffffffffffffffffff82169050919050565b6000819050919050565b6000613b0682613ab4565b9050919050565b82818337600083830152505050565b60005b83811015613b3a578082015181840152602081019050613b1f565b83811115613b49576000848401525b50505050565b6000601f19601f8301169050919050565b60038110613b6a57fe5b50565b613b7681613a96565b8114613b8157600080fd5b50565b613b8d81613aa8565b8114613b9857600080fd5b50565b613ba481613af1565b8114613baf57600080fd5b5056fea365627a7a72315820f33e84bb67b1baac5cc5d3b291853666ac12065ef263f61dab637497830cf7056c6578706572696d656e74616cf564736f6c63430005100040",
  "source": "pragma solidity 0.5.16;\r\n\r\npragma experimental ABIEncoderV2;\r\n\r\n\r\n\r\n\r\n/**\r\n @title DataLabelChain contract\r\n @author Fabrice Tapia\r\n @dev Contract which is a part of the Alyra's Final Project : Eat Healthy LabelChain\r\n */\r\n\r\ncontract DataTest {\r\n\r\n  // Option : define roles depending on the user status\r\n  enum Role {CUSTOMER, SELLER, ADMIN}\r\n\r\n  // Basic User structure with useful parameters.\r\n  // In particular, token date, token number and reputation\r\n  // needed for the consensus\r\n  struct User{\r\n    uint userId;\r\n    Role role;\r\n    uint lastTimeTokenGiven;\r\n    int tokenNumber;\r\n    int reputation;\r\n    bool isExist;\r\n  }\r\n\r\n  // Basic Product definition containing values about the product itself\r\n  // but also about consensus\r\n  struct Product{\r\n    uint productId;\r\n    uint productCode;\r\n    string productName;\r\n    address productProposerAddress;\r\n    string[] labels;\r\n    uint nutrimentsId;\r\n    string[] ingredients;\r\n    string[] additifs;\r\n    uint quantity;\r\n    string typeOfProduct;\r\n    string[] packaging;\r\n    uint totalVotes;\r\n    uint forVotes;\r\n    uint againstVotes;\r\n    // mapping(address => bool) alreadyVoted;\r\n    // address[] alreadyVoted;\r\n    uint[2] created_n_last_modif;\r\n    //  bytes32 hash;\r\n    bool isValidated;\r\n    bool isExist;\r\n  }\r\n\r\n  mapping(uint => mapping(address => bool)) public alreadyVoted;\r\n\r\n  // Basic Nutriment structure needed for the Product structure\r\n  // A way to divide Product content\r\n  struct Nutriments {\r\n    string energy;\r\n    string energy_kcal;\r\n    string proteines;\r\n    string carbohydrates;\r\n    string salt;\r\n    string sugars;\r\n    string fat;\r\n    string saturated_fat;\r\n    string fiber;\r\n    string sodium;\r\n  }\r\n\r\n  address private _owner;\r\n\r\n  // Integer needed for the implicit user registration\r\n  // for the first time he proposed a product\r\n  uint uniqueIdUser;\r\n\r\n  uint uniqueProductId;\r\n\r\n  // Getter of all products in proposal phase\r\n  Product[] ProposalProducts;\r\n\r\n  // Getter of all nutriments products in proposal phase\r\n  Nutriments[] ProposalNutriments;\r\n\r\n  // Accessing to a User structure by his address\r\n  mapping(address => User) public addressToUser;\r\n\r\n  // Accessing to a Product in proposal phase by his code\r\n  mapping(uint => Product) public productCodeToProposalProduct;\r\n\r\n  // Accessing to a Product adopted by his code\r\n  mapping(uint => Product) public productCodeToProduct;\r\n\r\n  // Accessing to Nutriments of a Product adopted by his code\r\n  mapping(uint => Nutriments) public productCodeToNutriments;\r\n\r\n  // Simple event when a product is added to the product proposal phase\r\n  event TriggerAddProduct(uint indexed idProduct);\r\n\r\n  // Setting up the owner as a user (may not be needed)\r\n  constructor() public {\r\n    _owner = msg.sender;\r\n    addressToUser[_owner] = User(uniqueIdUser, Role.ADMIN, now, 10, 0,true);\r\n    uniqueIdUser++;\r\n  }\r\n\r\n//  modifier checkProductIsNew (uint productCode) {\r\n//    require(!productCodeToProduct[productCode].isExist);\r\n//    _;\r\n//  }\r\n//\r\n//\r\n//  modifier checkProductProposalIsNew (uint productCode) {\r\n//    require(!productCodeToProduct[productCode].isExist);\r\n//    _;\r\n//  }\r\n\r\n  modifier checkLengthGS1 (uint productCode){\r\n    require(productCode > 1111111111111);\r\n    _;\r\n  }\r\n/*\r\n  function getProduct(uint productCode) view public returns(Product){\r\n    return productCodeToProduct[productCode];\r\n  }*/\r\n\r\n\r\n  /**\r\n  @notice Product is added in proposal phase by the user,\r\n          then visible for all users for votes\r\n  @dev\r\n         Add a new Product and Nutriments object in corresponding proposal mappings\r\n         Also added in corresponding arrays, useful to get them all from front-end\r\n         Finally, emitting an event to warn the user, all is OK\r\n  @param _productCode, _productName, _labels, _ingredients, _quantity,\r\n         _typeOfProduct, _packaging, _nutriments, _addiditfs\r\n         => Elements needed to fill in both Product and Nutriments object\r\n   */\r\n  function addProductToProposal(\r\n    uint _productCode,\r\n    string memory _productName,\r\n    string[] memory _labels,\r\n    string[] memory _ingredients,\r\n    uint _quantity,\r\n    string memory _typeOfProduct,\r\n    string[] memory _packaging,\r\n    Nutriments memory _nutriments,\r\n    string[] memory _additifs\r\n\r\n  ) public {\r\n    require(!productCodeToProduct[_productCode].isExist);\r\n    Product memory _product;\r\n    Nutriments memory _nutrimentsObject;\r\n    _product.productId = uniqueProductId;\r\n    _product.productCode = _productCode;\r\n    _product.productName = _productName;\r\n    _product.productProposerAddress = msg.sender;\r\n    _product.labels = _labels;\r\n    _product.ingredients = _ingredients;\r\n    _product.additifs = _additifs;\r\n    _product.quantity = _quantity;\r\n    _product.typeOfProduct = _typeOfProduct;\r\n    _product.packaging = _packaging;\r\n    //_product.isValidated = false;\r\n    _product.isExist = true;\r\n    _product.created_n_last_modif = [now, now];\r\n    _product.nutrimentsId = _productCode;\r\n    _product.forVotes = 0;\r\n    _product.againstVotes = 0;\r\n    _product.totalVotes = 0;\r\n    // productCodeToNutriments[_productCode] = _nutriments;\r\n   // _product.hash = keccak256(abi.encodePacked(_product.productName,_product.productProposerAddress, _product.quantity));\r\n    productCodeToProposalProduct[_productCode] = _product;\r\n    ProposalProducts.push(_product);\r\n\r\n    _nutrimentsObject.carbohydrates = _nutriments.carbohydrates;\r\n    _nutrimentsObject.energy = _nutriments.energy;\r\n    _nutrimentsObject.energy_kcal = _nutriments.energy_kcal;\r\n    _nutrimentsObject.proteines = _nutriments.proteines;\r\n    _nutrimentsObject.salt = _nutriments.salt;\r\n    _nutrimentsObject.sugars = _nutriments.sugars;\r\n    _nutrimentsObject.fat = _nutriments.fat;\r\n    _nutrimentsObject.saturated_fat = _nutriments.saturated_fat;\r\n    _nutrimentsObject.fiber = _nutriments.fat;\r\n    _nutrimentsObject.sodium = _nutriments.sodium;\r\n    productCodeToNutriments[_productCode] = _nutrimentsObject;\r\n    ProposalNutriments.push(_nutrimentsObject);\r\n\r\n    uniqueProductId++;\r\n\r\n    emit TriggerAddProduct(_productCode);\r\n    // keccak256(abi.encodePacked(_productCode,_productName,msg.sender,_labels,_ingredients,_nutriments,_quantity,_typeOfProduct,_packaging))\r\n  }\r\n\r\n  // Getting actual user role at the start or when wallet is changed (may not be needed)\r\n  function getRole() public view returns (Role) {\r\n    return addressToUser[msg.sender].role;\r\n  }\r\n\r\n\r\n  // To add a product in proposal, we need to check if the product doesn't already exist in mappings of products\r\n  function checkProductIsNew (uint _productCode) public view checkLengthGS1(_productCode) returns (bool) {\r\n    if(!productCodeToProposalProduct[_productCode].isExist && !productCodeToProduct[_productCode].isExist){\r\n      return true;\r\n    }else{\r\n      return false;\r\n    }\r\n  }\r\n\r\n\r\n  /**\r\n@notice Register a user when he does his first proposal or vote\r\n@dev\r\n       Defines a new User object, giving him token and reputation\r\n       Adds it to a mapping with all other subscribed users\r\n */\r\n  function subscribeUser() public returns (User memory) {\r\n    require(addressToUser[msg.sender].isExist == false);\r\n    User memory user;\r\n    user.userId = uniqueIdUser;\r\n    user.role = Role.CUSTOMER;\r\n    user.lastTimeTokenGiven = now;\r\n    user.tokenNumber = 5;\r\n    user.reputation = 50;\r\n    user.isExist = true;\r\n    uniqueIdUser++;\r\n    addressToUser[msg.sender] = user;\r\n    return user;\r\n  }\r\n\r\n  /**\r\n  @notice User is voting for a product in proposal phase (new or update)\r\n  @dev\r\n         User can only vote if he is registered and he has not already voted\r\n         Then adding vote to for and against\r\n  @param _opinion vote value (for or against)\r\n         _productCode product targeted for the vote\r\n */\r\n  function vote(bool _opinion, uint _productCode) public {\r\n    // require(productCodeToProduct[_productCode].isExist && addressToUser[msg.sender].isExist && !alreadyVoted[_productCode][msg.sender] && productCodeToProduct[_productCode].productProposerAddress != msg.sender);\r\n    alreadyVoted[_productCode][msg.sender] = true;\r\n    if(_opinion == true){\r\n      productCodeToProposalProduct[_productCode].forVotes++;\r\n      ProposalProducts[productCodeToProposalProduct[_productCode].productId].forVotes++;\r\n    }else{\r\n      productCodeToProposalProduct[_productCode].againstVotes++;\r\n      ProposalProducts[productCodeToProposalProduct[_productCode].productId].againstVotes++;\r\n    }\r\n    productCodeToProposalProduct[_productCode].totalVotes++;\r\n    ProposalProducts[productCodeToProposalProduct[_productCode].productId].totalVotes++;\r\n  }\r\n\r\n  function getProductsVoting() public view returns(Product[] memory, Nutriments[] memory){\r\n    return (ProposalProducts, ProposalNutriments);\r\n  }\r\n\r\n  function isAlreadyVotedByCurrentUser(uint _productCode) public view returns (bool){\r\n    return alreadyVoted[_productCode][msg.sender];\r\n  }\r\n\r\n  function isProposer(uint _productCode) public view returns (bool){\r\n    return productCodeToProposalProduct[_productCode].productProposerAddress == msg.sender;\r\n  }\r\n\r\n}\r\n",
  "sourcePath": "C:\\Users\\Fabrice\\Desktop\\Project_EatHealthyLabelChain\\EatHealthyLabelChain\\contracts\\dataTest.sol",
  "compiler": {
    "name": "solc",
    "version": "0.5.16+commit.9c3226ce.Emscripten.clang"
  },
  "schemaVersion": "3.2.0",
  "updatedAt": "2020-07-13T13:57:55.564Z",
  "networkType": "ethereum",
  "devdoc": {
    "author": "Fabrice Tapia",
    "details": "Contract which is a part of the Alyra's Final Project : Eat Healthy LabelChain",
    "methods": {
      "addProductToProposal(uint256,string,string[],string[],uint256,string,string[],(string,string,string,string,string,string,string,string,string,string),string[])": {
        "details": "Add a new Product and Nutriments object in corresponding proposal mappings Also added in corresponding arrays, useful to get them all from front-end Finally, emitting an event to warn the user, all is OK",
        "params": {
          "_productCode": ", _productName, _labels, _ingredients, _quantity, _typeOfProduct, _packaging, _nutriments, _addiditfs => Elements needed to fill in both Product and Nutriments object"
        }
      },
      "subscribeUser()": {
        "details": "Defines a new User object, giving him token and reputation Adds it to a mapping with all other subscribed users"
      },
      "vote(bool,uint256)": {
        "details": "User can only vote if he is registered and he has not already voted Then adding vote to for and against",
        "params": {
          "_opinion": "vote value (for or against) _productCode product targeted for the vote"
        }
      }
    },
    "title": "DataLabelChain contract"
  },
  "userdoc": {
    "methods": {
      "addProductToProposal(uint256,string,string[],string[],uint256,string,string[],(string,string,string,string,string,string,string,string,string,string),string[])": {
        "notice": "Product is added in proposal phase by the user, then visible for all users for votes"
      },
      "subscribeUser()": {
        "notice": "Register a user when he does his first proposal or vote"
      },
      "vote(bool,uint256)": {
        "notice": "User is voting for a product in proposal phase (new or update)"
      }
    }
  }
}