{
  "contractName": "DataTest",
  "abi": [
    {
      "inputs": [],
      "payable": false,
      "stateMutability": "nonpayable",
      "type": "constructor"
    },
    {
      "anonymous": false,
      "inputs": [
        {
          "indexed": true,
          "internalType": "uint256",
          "name": "idProduct",
          "type": "uint256"
        }
      ],
      "name": "TriggerAddProduct",
      "type": "event"
    },
    {
      "constant": true,
      "inputs": [
        {
          "internalType": "address",
          "name": "",
          "type": "address"
        }
      ],
      "name": "addressToUser",
      "outputs": [
        {
          "internalType": "uint256",
          "name": "userId",
          "type": "uint256"
        },
        {
          "internalType": "enum LabelChainHelper.Role",
          "name": "role",
          "type": "uint8"
        },
        {
          "internalType": "uint256",
          "name": "lastTimeTokenGiven",
          "type": "uint256"
        },
        {
          "internalType": "int256",
          "name": "tokenNumber",
          "type": "int256"
        },
        {
          "internalType": "int256",
          "name": "reputation",
          "type": "int256"
        },
        {
          "internalType": "bool",
          "name": "isExist",
          "type": "bool"
        }
      ],
      "payable": false,
      "stateMutability": "view",
      "type": "function"
    },
    {
      "constant": true,
      "inputs": [
        {
          "internalType": "uint256",
          "name": "",
          "type": "uint256"
        },
        {
          "internalType": "address",
          "name": "",
          "type": "address"
        },
        {
          "internalType": "uint256",
          "name": "",
          "type": "uint256"
        }
      ],
      "name": "alreadyVoted",
      "outputs": [
        {
          "internalType": "bool",
          "name": "",
          "type": "bool"
        }
      ],
      "payable": false,
      "stateMutability": "view",
      "type": "function"
    },
    {
      "constant": true,
      "inputs": [],
      "name": "getProductsVoting",
      "outputs": [
        {
          "components": [
            {
              "internalType": "uint256",
              "name": "productId",
              "type": "uint256"
            },
            {
              "internalType": "uint256",
              "name": "productCode",
              "type": "uint256"
            },
            {
              "internalType": "string",
              "name": "productName",
              "type": "string"
            },
            {
              "internalType": "address",
              "name": "productProposerAddress",
              "type": "address"
            },
            {
              "internalType": "string[]",
              "name": "labels",
              "type": "string[]"
            },
            {
              "internalType": "string[]",
              "name": "ingredients",
              "type": "string[]"
            },
            {
              "internalType": "string[]",
              "name": "additifs",
              "type": "string[]"
            },
            {
              "internalType": "uint256",
              "name": "quantity",
              "type": "uint256"
            },
            {
              "internalType": "string",
              "name": "typeOfProduct",
              "type": "string"
            },
            {
              "internalType": "string[]",
              "name": "packaging",
              "type": "string[]"
            },
            {
              "internalType": "uint256",
              "name": "totalVotes",
              "type": "uint256"
            },
            {
              "internalType": "uint256",
              "name": "forVotes",
              "type": "uint256"
            },
            {
              "internalType": "uint256",
              "name": "againstVotes",
              "type": "uint256"
            },
            {
              "internalType": "uint256[2]",
              "name": "created_n_last_modif",
              "type": "uint256[2]"
            },
            {
              "internalType": "uint256",
              "name": "endDate",
              "type": "uint256"
            },
            {
              "internalType": "bool",
              "name": "isValidated",
              "type": "bool"
            },
            {
              "internalType": "bool",
              "name": "isExist",
              "type": "bool"
            }
          ],
          "internalType": "struct LabelChainHelper.Product[]",
          "name": "",
          "type": "tuple[]"
        },
        {
          "components": [
            {
              "internalType": "string",
              "name": "energy",
              "type": "string"
            },
            {
              "internalType": "string",
              "name": "energy_kcal",
              "type": "string"
            },
            {
              "internalType": "string",
              "name": "proteines",
              "type": "string"
            },
            {
              "internalType": "string",
              "name": "carbohydrates",
              "type": "string"
            },
            {
              "internalType": "string",
              "name": "salt",
              "type": "string"
            },
            {
              "internalType": "string",
              "name": "sugars",
              "type": "string"
            },
            {
              "internalType": "string",
              "name": "fat",
              "type": "string"
            },
            {
              "internalType": "string",
              "name": "saturated_fat",
              "type": "string"
            },
            {
              "internalType": "string",
              "name": "fiber",
              "type": "string"
            },
            {
              "internalType": "string",
              "name": "sodium",
              "type": "string"
            }
          ],
          "internalType": "struct LabelChainHelper.Nutriment[]",
          "name": "",
          "type": "tuple[]"
        }
      ],
      "payable": false,
      "stateMutability": "view",
      "type": "function"
    },
    {
      "constant": true,
      "inputs": [
        {
          "internalType": "uint256",
          "name": "_productCode",
          "type": "uint256"
        }
      ],
      "name": "isAlreadyVotedByCurrentUser",
      "outputs": [
        {
          "internalType": "bool",
          "name": "",
          "type": "bool"
        }
      ],
      "payable": false,
      "stateMutability": "view",
      "type": "function"
    },
    {
      "constant": true,
      "inputs": [
        {
          "internalType": "uint256",
          "name": "_productCode",
          "type": "uint256"
        }
      ],
      "name": "isDateOK",
      "outputs": [
        {
          "internalType": "bool",
          "name": "",
          "type": "bool"
        }
      ],
      "payable": false,
      "stateMutability": "view",
      "type": "function"
    },
    {
      "constant": true,
      "inputs": [
        {
          "internalType": "uint256",
          "name": "_productCode",
          "type": "uint256"
        }
      ],
      "name": "isProposer",
      "outputs": [
        {
          "internalType": "bool",
          "name": "",
          "type": "bool"
        }
      ],
      "payable": false,
      "stateMutability": "view",
      "type": "function"
    },
    {
      "constant": true,
      "inputs": [
        {
          "internalType": "uint256",
          "name": "",
          "type": "uint256"
        }
      ],
      "name": "productCodeToNutriments",
      "outputs": [
        {
          "internalType": "string",
          "name": "energy",
          "type": "string"
        },
        {
          "internalType": "string",
          "name": "energy_kcal",
          "type": "string"
        },
        {
          "internalType": "string",
          "name": "proteines",
          "type": "string"
        },
        {
          "internalType": "string",
          "name": "carbohydrates",
          "type": "string"
        },
        {
          "internalType": "string",
          "name": "salt",
          "type": "string"
        },
        {
          "internalType": "string",
          "name": "sugars",
          "type": "string"
        },
        {
          "internalType": "string",
          "name": "fat",
          "type": "string"
        },
        {
          "internalType": "string",
          "name": "saturated_fat",
          "type": "string"
        },
        {
          "internalType": "string",
          "name": "fiber",
          "type": "string"
        },
        {
          "internalType": "string",
          "name": "sodium",
          "type": "string"
        }
      ],
      "payable": false,
      "stateMutability": "view",
      "type": "function"
    },
    {
      "constant": true,
      "inputs": [
        {
          "internalType": "uint256",
          "name": "",
          "type": "uint256"
        }
      ],
      "name": "productCodeToProduct",
      "outputs": [
        {
          "internalType": "uint256",
          "name": "productId",
          "type": "uint256"
        },
        {
          "internalType": "uint256",
          "name": "productCode",
          "type": "uint256"
        },
        {
          "internalType": "string",
          "name": "productName",
          "type": "string"
        },
        {
          "internalType": "address",
          "name": "productProposerAddress",
          "type": "address"
        },
        {
          "internalType": "uint256",
          "name": "quantity",
          "type": "uint256"
        },
        {
          "internalType": "string",
          "name": "typeOfProduct",
          "type": "string"
        },
        {
          "internalType": "uint256",
          "name": "totalVotes",
          "type": "uint256"
        },
        {
          "internalType": "uint256",
          "name": "forVotes",
          "type": "uint256"
        },
        {
          "internalType": "uint256",
          "name": "againstVotes",
          "type": "uint256"
        },
        {
          "internalType": "uint256",
          "name": "endDate",
          "type": "uint256"
        },
        {
          "internalType": "bool",
          "name": "isValidated",
          "type": "bool"
        },
        {
          "internalType": "bool",
          "name": "isExist",
          "type": "bool"
        }
      ],
      "payable": false,
      "stateMutability": "view",
      "type": "function"
    },
    {
      "constant": true,
      "inputs": [
        {
          "internalType": "uint256",
          "name": "",
          "type": "uint256"
        }
      ],
      "name": "productCodeToProposalNutriments",
      "outputs": [
        {
          "internalType": "string",
          "name": "energy",
          "type": "string"
        },
        {
          "internalType": "string",
          "name": "energy_kcal",
          "type": "string"
        },
        {
          "internalType": "string",
          "name": "proteines",
          "type": "string"
        },
        {
          "internalType": "string",
          "name": "carbohydrates",
          "type": "string"
        },
        {
          "internalType": "string",
          "name": "salt",
          "type": "string"
        },
        {
          "internalType": "string",
          "name": "sugars",
          "type": "string"
        },
        {
          "internalType": "string",
          "name": "fat",
          "type": "string"
        },
        {
          "internalType": "string",
          "name": "saturated_fat",
          "type": "string"
        },
        {
          "internalType": "string",
          "name": "fiber",
          "type": "string"
        },
        {
          "internalType": "string",
          "name": "sodium",
          "type": "string"
        }
      ],
      "payable": false,
      "stateMutability": "view",
      "type": "function"
    },
    {
      "constant": true,
      "inputs": [
        {
          "internalType": "uint256",
          "name": "",
          "type": "uint256"
        }
      ],
      "name": "productCodeToProposalProduct",
      "outputs": [
        {
          "internalType": "uint256",
          "name": "productId",
          "type": "uint256"
        },
        {
          "internalType": "uint256",
          "name": "productCode",
          "type": "uint256"
        },
        {
          "internalType": "string",
          "name": "productName",
          "type": "string"
        },
        {
          "internalType": "address",
          "name": "productProposerAddress",
          "type": "address"
        },
        {
          "internalType": "uint256",
          "name": "quantity",
          "type": "uint256"
        },
        {
          "internalType": "string",
          "name": "typeOfProduct",
          "type": "string"
        },
        {
          "internalType": "uint256",
          "name": "totalVotes",
          "type": "uint256"
        },
        {
          "internalType": "uint256",
          "name": "forVotes",
          "type": "uint256"
        },
        {
          "internalType": "uint256",
          "name": "againstVotes",
          "type": "uint256"
        },
        {
          "internalType": "uint256",
          "name": "endDate",
          "type": "uint256"
        },
        {
          "internalType": "bool",
          "name": "isValidated",
          "type": "bool"
        },
        {
          "internalType": "bool",
          "name": "isExist",
          "type": "bool"
        }
      ],
      "payable": false,
      "stateMutability": "view",
      "type": "function"
    },
    {
      "constant": false,
      "inputs": [
        {
          "internalType": "uint256",
          "name": "_productCode",
          "type": "uint256"
        },
        {
          "internalType": "string",
          "name": "_productName",
          "type": "string"
        },
        {
          "internalType": "string[]",
          "name": "_labels",
          "type": "string[]"
        },
        {
          "internalType": "string[]",
          "name": "_ingredients",
          "type": "string[]"
        },
        {
          "internalType": "uint256",
          "name": "_quantity",
          "type": "uint256"
        },
        {
          "internalType": "string",
          "name": "_typeOfProduct",
          "type": "string"
        },
        {
          "internalType": "string[]",
          "name": "_packaging",
          "type": "string[]"
        },
        {
          "components": [
            {
              "internalType": "string",
              "name": "energy",
              "type": "string"
            },
            {
              "internalType": "string",
              "name": "energy_kcal",
              "type": "string"
            },
            {
              "internalType": "string",
              "name": "proteines",
              "type": "string"
            },
            {
              "internalType": "string",
              "name": "carbohydrates",
              "type": "string"
            },
            {
              "internalType": "string",
              "name": "salt",
              "type": "string"
            },
            {
              "internalType": "string",
              "name": "sugars",
              "type": "string"
            },
            {
              "internalType": "string",
              "name": "fat",
              "type": "string"
            },
            {
              "internalType": "string",
              "name": "saturated_fat",
              "type": "string"
            },
            {
              "internalType": "string",
              "name": "fiber",
              "type": "string"
            },
            {
              "internalType": "string",
              "name": "sodium",
              "type": "string"
            }
          ],
          "internalType": "struct LabelChainHelper.Nutriment",
          "name": "_nutriments",
          "type": "tuple"
        },
        {
          "internalType": "string[]",
          "name": "_additifs",
          "type": "string[]"
        }
      ],
      "name": "addProductToProposal",
      "outputs": [],
      "payable": false,
      "stateMutability": "nonpayable",
      "type": "function"
    },
    {
      "constant": true,
      "inputs": [],
      "name": "getRole",
      "outputs": [
        {
          "internalType": "enum LabelChainHelper.Role",
          "name": "",
          "type": "uint8"
        }
      ],
      "payable": false,
      "stateMutability": "view",
      "type": "function"
    },
    {
      "constant": true,
      "inputs": [
        {
          "internalType": "uint256",
          "name": "_productCode",
          "type": "uint256"
        }
      ],
      "name": "checkProductIsNew",
      "outputs": [
        {
          "internalType": "bool",
          "name": "",
          "type": "bool"
        }
      ],
      "payable": false,
      "stateMutability": "view",
      "type": "function"
    },
    {
      "constant": false,
      "inputs": [],
      "name": "subscribeUser",
      "outputs": [
        {
          "components": [
            {
              "internalType": "uint256",
              "name": "userId",
              "type": "uint256"
            },
            {
              "internalType": "enum LabelChainHelper.Role",
              "name": "role",
              "type": "uint8"
            },
            {
              "internalType": "uint256",
              "name": "lastTimeTokenGiven",
              "type": "uint256"
            },
            {
              "internalType": "int256",
              "name": "tokenNumber",
              "type": "int256"
            },
            {
              "internalType": "int256",
              "name": "reputation",
              "type": "int256"
            },
            {
              "internalType": "bool",
              "name": "isExist",
              "type": "bool"
            }
          ],
          "internalType": "struct LabelChainHelper.User",
          "name": "",
          "type": "tuple"
        }
      ],
      "payable": false,
      "stateMutability": "nonpayable",
      "type": "function"
    },
    {
      "constant": false,
      "inputs": [
        {
          "internalType": "bool",
          "name": "_opinion",
          "type": "bool"
        },
        {
          "internalType": "uint256",
          "name": "_productCode",
          "type": "uint256"
        }
      ],
      "name": "vote",
      "outputs": [],
      "payable": false,
      "stateMutability": "nonpayable",
      "type": "function"
    },
    {
      "constant": false,
      "inputs": [
        {
          "internalType": "uint256",
          "name": "_productCode",
          "type": "uint256"
        },
        {
          "internalType": "address",
          "name": "proposerAddress",
          "type": "address"
        }
      ],
      "name": "endVoteInit",
      "outputs": [],
      "payable": false,
      "stateMutability": "nonpayable",
      "type": "function"
    },
    {
      "constant": false,
      "inputs": [
        {
          "internalType": "uint256",
          "name": "_productCode",
          "type": "uint256"
        },
        {
          "internalType": "address",
          "name": "proposerAddress",
          "type": "address"
        }
      ],
      "name": "endVote",
      "outputs": [],
      "payable": false,
      "stateMutability": "nonpayable",
      "type": "function"
    }
  ],
  "bytecode": "0x608060405234801561001057600080fd5b50601180546001600160a01b0319163317908190556040805160c081018252600180548252600260208084018281524285870152600a6060860181905260006080870181905260a087018690526001600160a01b03909816885290915293909420825181559251838201805493959193909260ff1990911691849081111561009457fe5b021790555060408201516002820155606082015160038201556080820151600482015560a0909101516005909101805460ff19169115159190911790556001805481019055614d8d80620000e96000396000f3fe608060405234801561001057600080fd5b506004361061010b5760003560e01c806393b6e35e116100a2578063d62192fb11610071578063d62192fb1461023f578063eafc9df314610252578063edf5388614610265578063f7b114251461028a578063fde081741461029d5761010b565b806393b6e35e146101f3578063a9bfcb2214610206578063be301d3414610219578063d54d6c701461022c5761010b565b806357dd1992116100de57806357dd19921461018d57806361ef3c15146101a0578063639b7f82146101cb5780636c9672ff146101de5761010b565b80630574d8081461011057806306e65f481461014257806310e6e06c1461016257806313431cc514610177575b600080fd5b61012361011e3660046142b1565b6102b2565b6040516101399a99989796959493929190614a20565b60405180910390f35b6101556101503660046142b1565b610873565b6040516101399190614a04565b610175610170366004614277565b610896565b005b61017f610a11565b6040516101399291906149df565b61017561019b36600461434c565b6115f0565b6101b36101ae3660046142b1565b612035565b6040516101399c9b9a99989796959493929190614b60565b6101556101d93660046142b1565b6121af565b6101e66121c6565b6040516101399190614af8565b6101556102013660046142ff565b612299565b6101756102143660046142cf565b6122dc565b6101556102273660046142b1565b612f99565b6101b361023a3660046142b1565b612fb7565b61012361024d3660046142b1565b61302b565b6101556102603660046142b1565b613097565b610278610273366004614251565b613103565b60405161013996959493929190614b06565b6101756102983660046142cf565b61313f565b6102a5613b96565b6040516101399190614a12565b600e6020908152600091825260409182902080548351601f600260001961010060018616150201909316929092049182018490048402810184019094528084529092918391908301828280156103495780601f1061031e57610100808354040283529160200191610349565b820191906000526020600020905b81548152906001019060200180831161032c57829003601f168201915b505050505090806001018054600181600116156101000203166002900480601f0160208091040260200160405190810160405280929190818152602001828054600181600116156101000203166002900480156103e75780601f106103bc576101008083540402835291602001916103e7565b820191906000526020600020905b8154815290600101906020018083116103ca57829003601f168201915b50505060028085018054604080516020601f60001961010060018716150201909416959095049283018590048502810185019091528181529596959450909250908301828280156104795780601f1061044e57610100808354040283529160200191610479565b820191906000526020600020905b81548152906001019060200180831161045c57829003601f168201915b5050505060038301805460408051602060026001851615610100026000190190941693909304601f81018490048402820184019092528181529495949350908301828280156105095780601f106104de57610100808354040283529160200191610509565b820191906000526020600020905b8154815290600101906020018083116104ec57829003601f168201915b5050505060048301805460408051602060026001851615610100026000190190941693909304601f81018490048402820184019092528181529495949350908301828280156105995780601f1061056e57610100808354040283529160200191610599565b820191906000526020600020905b81548152906001019060200180831161057c57829003601f168201915b5050505060058301805460408051602060026001851615610100026000190190941693909304601f81018490048402820184019092528181529495949350908301828280156106295780601f106105fe57610100808354040283529160200191610629565b820191906000526020600020905b81548152906001019060200180831161060c57829003601f168201915b5050505060068301805460408051602060026001851615610100026000190190941693909304601f81018490048402820184019092528181529495949350908301828280156106b95780601f1061068e576101008083540402835291602001916106b9565b820191906000526020600020905b81548152906001019060200180831161069c57829003601f168201915b5050505060078301805460408051602060026001851615610100026000190190941693909304601f81018490048402820184019092528181529495949350908301828280156107495780601f1061071e57610100808354040283529160200191610749565b820191906000526020600020905b81548152906001019060200180831161072c57829003601f168201915b5050505060088301805460408051602060026001851615610100026000190190941693909304601f81018490048402820184019092528181529495949350908301828280156107d95780601f106107ae576101008083540402835291602001916107d9565b820191906000526020600020905b8154815290600101906020018083116107bc57829003601f168201915b5050505060098301805460408051602060026001851615610100026000190190941693909304601f81018490048402820184019092528181529495949350908301828280156108695780601f1061083e57610100808354040283529160200191610869565b820191906000526020600020905b81548152906001019060200180831161084c57829003601f168201915b505050505090508a565b6000818152600b60205260409020600301546001600160a01b031633145b919050565b336000908152600a6020526040812060030154136108b357600080fd5b6000818152600d60205260409020600f810154600e90910154106108d657600080fd5b6000818152602081815260408083203384529091529020805460ff19166001908117909155821515141561094e576000818152600b60208190526040909120908101805460010190555460038054909190811061092f57fe5b60009182526020909120600b6011909202010180546001019055610992565b6000818152600b60205260409020600c8101805460010190555460038054909190811061097757fe5b60009182526020909120600c60119092020101805460010190555b6000818152602081815260408083203384528252808320805461ff00191661010087151502179055838352600b9091529020600a810180546001019055546003805490919081106109df57fe5b60009182526020808320600a601190930201820180546001019055338352526040902060030180546000190190555050565b6060806003600481805480602002602001604051908101604052809291908181526020016000905b82821015610fb85783829060005260206000209060110201604051806102200160405290816000820154815260200160018201548152602001600282018054600181600116156101000203166002900480601f016020809104026020016040519081016040528092919081815260200182805460018160011615610100020316600290048015610b0a5780601f10610adf57610100808354040283529160200191610b0a565b820191906000526020600020905b815481529060010190602001808311610aed57829003601f168201915b505050918352505060038201546001600160a01b0316602080830191909152600483018054604080518285028101850182528281529401939260009084015b82821015610bf45760008481526020908190208301805460408051601f6002600019610100600187161502019094169390930492830185900485028101850190915281815292830182828015610be05780601f10610bb557610100808354040283529160200191610be0565b820191906000526020600020905b815481529060010190602001808311610bc357829003601f168201915b505050505081526020019060010190610b49565b50505050815260200160058201805480602002602001604051908101604052809291908181526020016000905b82821015610ccc5760008481526020908190208301805460408051601f6002600019610100600187161502019094169390930492830185900485028101850190915281815292830182828015610cb85780601f10610c8d57610100808354040283529160200191610cb8565b820191906000526020600020905b815481529060010190602001808311610c9b57829003601f168201915b505050505081526020019060010190610c21565b50505050815260200160068201805480602002602001604051908101604052809291908181526020016000905b82821015610da45760008481526020908190208301805460408051601f6002600019610100600187161502019094169390930492830185900485028101850190915281815292830182828015610d905780601f10610d6557610100808354040283529160200191610d90565b820191906000526020600020905b815481529060010190602001808311610d7357829003601f168201915b505050505081526020019060010190610cf9565b50505090825250600782015460208083019190915260088301805460408051601f60026000196101006001871615020190941693909304928301859004850281018501825282815294019392830182828015610e415780601f10610e1657610100808354040283529160200191610e41565b820191906000526020600020905b815481529060010190602001808311610e2457829003601f168201915b5050505050815260200160098201805480602002602001604051908101604052809291908181526020016000905b82821015610f1a5760008481526020908190208301805460408051601f6002600019610100600187161502019094169390930492830185900485028101850190915281815292830182828015610f065780601f10610edb57610100808354040283529160200191610f06565b820191906000526020600020905b815481529060010190602001808311610ee957829003601f168201915b505050505081526020019060010190610e6f565b50505090825250600a8201546020820152600b820154604080830191909152600c830154606083015280518082019182905260809092019190600d84019060029082845b815481526020019060010190808311610f5e575050509183525050600f82015460208083019190915260109092015460ff808216151560408401526101009091041615156060909101529082526001929092019101610a39565b50505050915080805480602002602001604051908101604052809291908181526020016000905b828210156115e257600084815260209081902060408051600a8602909201805460026001821615610100026000190190911604601f8101859004909402830161016090810190925261014083018481529293909284929091849184018282801561108a5780601f1061105f5761010080835404028352916020019161108a565b820191906000526020600020905b81548152906001019060200180831161106d57829003601f168201915b50505050508152602001600182018054600181600116156101000203166002900480601f01602080910402602001604051908101604052809291908181526020018280546001816001161561010002031660029004801561112c5780601f106111015761010080835404028352916020019161112c565b820191906000526020600020905b81548152906001019060200180831161110f57829003601f168201915b5050509183525050600282810180546040805160206001841615610100026000190190931694909404601f810183900483028501830190915280845293810193908301828280156111be5780601f10611193576101008083540402835291602001916111be565b820191906000526020600020905b8154815290600101906020018083116111a157829003601f168201915b505050918352505060038201805460408051602060026001851615610100026000190190941693909304601f81018490048402820184019092528181529382019392918301828280156112525780601f1061122757610100808354040283529160200191611252565b820191906000526020600020905b81548152906001019060200180831161123557829003601f168201915b505050918352505060048201805460408051602060026001851615610100026000190190941693909304601f81018490048402820184019092528181529382019392918301828280156112e65780601f106112bb576101008083540402835291602001916112e6565b820191906000526020600020905b8154815290600101906020018083116112c957829003601f168201915b505050918352505060058201805460408051602060026001851615610100026000190190941693909304601f810184900484028201840190925281815293820193929183018282801561137a5780601f1061134f5761010080835404028352916020019161137a565b820191906000526020600020905b81548152906001019060200180831161135d57829003601f168201915b505050918352505060068201805460408051602060026001851615610100026000190190941693909304601f810184900484028201840190925281815293820193929183018282801561140e5780601f106113e35761010080835404028352916020019161140e565b820191906000526020600020905b8154815290600101906020018083116113f157829003601f168201915b505050918352505060078201805460408051602060026001851615610100026000190190941693909304601f81018490048402820184019092528181529382019392918301828280156114a25780601f10611477576101008083540402835291602001916114a2565b820191906000526020600020905b81548152906001019060200180831161148557829003601f168201915b505050918352505060088201805460408051602060026001851615610100026000190190941693909304601f81018490048402820184019092528181529382019392918301828280156115365780601f1061150b57610100808354040283529160200191611536565b820191906000526020600020905b81548152906001019060200180831161151957829003601f168201915b505050918352505060098201805460408051602060026001851615610100026000190190941693909304601f81018490048402820184019092528181529382019392918301828280156115ca5780601f1061159f576101008083540402835291602001916115ca565b820191906000526020600020905b8154815290600101906020018083116115ad57829003601f168201915b50505050508152505081526020019060010190610fdf565b505050509050915091509091565b6000898152600d6020526040902060100154610100900460ff161561161457600080fd5b61161c613baf565b611624613c42565b6002548260000181815250508a8260200181815250508982604001819052503382606001906001600160a01b031690816001600160a01b031681525050888260800181905250878260a00181905250828260c00181905250868260e00181815250508582610100018190525084826101200181905250600182610200019015159081151581525050604051806040016040528042815260200142815250826101a001819052504261012c01826101c001818152505060008261016001818152505060008261018001818152505060008261014001818152505081600b60008d815260200190815260200160002060008201518160000155602082015181600101556040820151816002019080519060200190611741929190613c95565b5060608201516003820180546001600160a01b0319166001600160a01b0390921691909117905560808201518051611783916004840191602090910190613d13565b5060a0820151805161179f916005840191602090910190613d13565b5060c082015180516117bb916006840191602090910190613d13565b5060e0820151600782015561010082015180516117e2916008840191602090910190613c95565b5061012082015180516117ff916009840191602090910190613d13565b50610140820151600a820155610160820151600b820155610180820151600c8201556101a082015161183790600d8301906002613d6c565b506101c0820151600f8201556101e0820151601090910180546102009093015115156101000261ff001992151560ff1990941693909317919091169190911790556003805460018101808355600092909252835160119091027fc2575a0e9e593c00f959f8c92f12db2869c3395a3b0502d05e2516446f71f85b81019182556020808601517fc2575a0e9e593c00f959f8c92f12db2869c3395a3b0502d05e2516446f71f85c8301556040860151805187949361191a937fc2575a0e9e593c00f959f8c92f12db2869c3395a3b0502d05e2516446f71f85d909101920190613c95565b5060608201516003820180546001600160a01b0319166001600160a01b039092169190911790556080820151805161195c916004840191602090910190613d13565b5060a08201518051611978916005840191602090910190613d13565b5060c08201518051611994916006840191602090910190613d13565b5060e0820151600782015561010082015180516119bb916008840191602090910190613c95565b5061012082015180516119d8916009840191602090910190613d13565b50610140820151600a820155610160820151600b820155610180820151600c8201556101a0820151611a1090600d8301906002613d6c565b506101c0820151600f8201556101e0820151601090910180546102009093015160ff199093169115159190911761ff0019166101009215158302179055606086810151908401528551835260208087015181850152604080880151818601526080808901519086015260a0808901519086015260c080890180519187019190915260e0808a0151908701525192850192909252610120808801519085015260008e8152600c825291909120835180518594509192611ad392849290910190613c95565b506020828101518051611aec9260018501920190613c95565b5060408201518051611b08916002840191602090910190613c95565b5060608201518051611b24916003840191602090910190613c95565b5060808201518051611b40916004840191602090910190613c95565b5060a08201518051611b5c916005840191602090910190613c95565b5060c08201518051611b78916006840191602090910190613c95565b5060e08201518051611b94916007840191602090910190613c95565b506101008201518051611bb1916008840191602090910190613c95565b506101208201518051611bce916009840191602090910190613c95565b50506004805460018101808355600092909252835180519293508492600a9092027f8a35acfbc15ff81a39ae7d344fd709f28e8600b4aa8c65c6b64bfe7fe36bd19b0191611c2491839160209190910190613c95565b506020828101518051611c3d9260018501920190613c95565b5060408201518051611c59916002840191602090910190613c95565b5060608201518051611c75916003840191602090910190613c95565b5060808201518051611c91916004840191602090910190613c95565b5060a08201518051611cad916005840191602090910190613c95565b5060c08201518051611cc9916006840191602090910190613c95565b5060e08201518051611ce5916007840191602090910190613c95565b506101008201518051611d02916008840191602090910190613c95565b506101208201518051611d1f916009840191602090910190613c95565b5050505060026000815480929190600101919050555081600f6000336001600160a01b03166001600160a01b0316815260200190815260200160002060008d815260200190815260200160002060008201518160000155602082015181600101556040820151816002019080519060200190611d9c929190613c95565b5060608201516003820180546001600160a01b0319166001600160a01b0390921691909117905560808201518051611dde916004840191602090910190613d13565b5060a08201518051611dfa916005840191602090910190613d13565b5060c08201518051611e16916006840191602090910190613d13565b5060e082015160078201556101008201518051611e3d916008840191602090910190613c95565b506101208201518051611e5a916009840191602090910190613d13565b50610140820151600a820155610160820151600b820155610180820151600c8201556101a0820151611e9290600d8301906002613d6c565b506101c0820151600f8201556101e0820151601091820180546102009094015115156101000261ff001992151560ff19909516949094179190911692909217909155336000908152602091825260408082208e835283529020825180518493611eff928492910190613c95565b506020828101518051611f189260018501920190613c95565b5060408201518051611f34916002840191602090910190613c95565b5060608201518051611f50916003840191602090910190613c95565b5060808201518051611f6c916004840191602090910190613c95565b5060a08201518051611f88916005840191602090910190613c95565b5060c08201518051611fa4916006840191602090910190613c95565b5060e08201518051611fc0916007840191602090910190613c95565b506101008201518051611fdd916008840191602090910190613c95565b506101208201518051611ffa916009840191602090910190613c95565b50506040518c91507f62d016d4371415f3ad23ef71ccf53e281dea50c5b60ac3cce1b1ec9eb45226cc90600090a25050505050505050505050565b600d6020908152600091825260409182902080546001808301546002808501805488519481161561010002600019011691909104601f8101879004870284018701909752868352929590949192918301828280156120d45780601f106120a9576101008083540402835291602001916120d4565b820191906000526020600020905b8154815290600101906020018083116120b757829003601f168201915b505050506003830154600784015460088501805460408051602060026101006001861615026000190190941693909304601f810184900484028201840190925281815296976001600160a01b03909516969395509083018282801561217a5780601f1061214f5761010080835404028352916020019161217a565b820191906000526020600020905b81548152906001019060200180831161215d57829003601f168201915b505050600a840154600b850154600c860154600f87015460109097015495969295919450925060ff808216916101009004168c565b6000908152600b60205260409020600f0154421090565b6121ce613d99565b336000908152600a602052604090206005015460ff16156121ee57600080fd5b6121f6613d99565b600180548083526000602080850182815242604080880191909152600560608801526032608088015260a087018690529385018555338352600a9091529190208351815590518183018054859460ff199091169083600281111561225657fe5b021790555060408201516002820155606082015160038201556080820151600482015560a0909101516005909101805460ff191691151591909117905590505b90565b600060205282600052604060002060205281600052604060002081600281106122be57fe5b602081049091015460ff601f9092166101000a900416925083915050565b6000828152600b60205260409020600f01544210156122fa57600080fd5b6000828152600b6020526040902060100154610100900460ff16801561233257506000828152600b602052604090206010015460ff16155b61233b57600080fd5b6000828152600b60208190526040909120600c810154910154106128bd576000828152600b602090815260408083206010808201805460ff1990811660019081179092556001600160a01b0388168752600f8652848720898852865284872090920180549092168117909155600d90935292208254815582820154818301556002808401805492936123de93838601939181161561010002600019011604613dd2565b5060038281015490820180546001600160a01b0319166001600160a01b03909216919091179055600480830180546124199284019190613e47565b506005828101805461242e9284019190613e47565b50600682810180546124439284019190613e47565b506007820154816007015560088201816008019080546001816001161561010002031660029004612475929190613dd2565b506009828101805461248a9284019190613e47565b50600a82015481600a0155600b82015481600b0155600c82015481600c0155600d820181600d019060026124bf929190613ea5565b50600f82810154908201556010918201805492909101805460ff191660ff938416151517808255915461ff00199092166101009283900490931615158202929092179091556000838152600d602052604081206005805460018181018084559290945282547f036b6384b5eca791c62761152d0c79bb0604c104a5fb6f4eb0703f3154bb3db06011909202918201908155838501547f036b6384b5eca791c62761152d0c79bb0604c104a5fb6f4eb0703f3154bb3db1830155600280850180549497959692956125bf957f036b6384b5eca791c62761152d0c79bb0604c104a5fb6f4eb0703f3154bb3db290950194919382161502600019011604613dd2565b5060038281015490820180546001600160a01b0319166001600160a01b03909216919091179055600480830180546125fa9284019190613e47565b506005828101805461260f9284019190613e47565b50600682810180546126249284019190613e47565b506007820154816007015560088201816008019080546001816001161561010002031660029004612656929190613dd2565b506009828101805461266b9284019190613e47565b50600a82015481600a0155600b82015481600b0155600c82015481600c0155600d820181600d019060026126a0929190613ea5565b50600f82810154908201556010918201805492909101805460ff938416151560ff19909116178082559154610100908190049093161515830261ff00199092169190911790556000848152600c602052604081206006805460018181018084559290945282549195509193600a9092027ff652222313e28459528d920b65115c16c04f3efc82aaedc97be59f3f377c0d3f019261274f9284928692600290821615909202600019011604613dd2565b5060018201816001019080546001816001161561010002031660029004612777929190613dd2565b506002828101805461279c928481019291600019610100600183161502011604613dd2565b50600382018160030190805460018160011615610100020316600290046127c4929190613dd2565b50600482018160040190805460018160011615610100020316600290046127ec929190613dd2565b5060058201816005019080546001816001161561010002031660029004612814929190613dd2565b506006820181600601908054600181600116156101000203166002900461283c929190613dd2565b5060078201816007019080546001816001161561010002031660029004612864929190613dd2565b506008820181600801908054600181600116156101000203166002900461288c929190613dd2565b50600982018160090190805460018160011615610100020316600290046128b4929190613dd2565b50505050612c72565b6000828152600d602052604081206007805460018082018084559290945282547fa66cc928b5edb82af9bd49922954155ab7b0942694bea4ce44661d9a8736c6886011909202918201908155848401547fa66cc928b5edb82af9bd49922954155ab7b0942694bea4ce44661d9a8736c6898301556002808501805494969294612978947fa66cc928b5edb82af9bd49922954155ab7b0942694bea4ce44661d9a8736c68a019391929181161561010002600019011604613dd2565b5060038281015490820180546001600160a01b0319166001600160a01b03909216919091179055600480830180546129b39284019190613e47565b50600582810180546129c89284019190613e47565b50600682810180546129dd9284019190613e47565b506007820154816007015560088201816008019080546001816001161561010002031660029004612a0f929190613dd2565b5060098281018054612a249284019190613e47565b50600a82015481600a0155600b82015481600b0155600c82015481600c0155600d820181600d01906002612a59929190613ea5565b50600f82810154908201556010918201805492909101805460ff938416151560ff19909116178082559154610100908190049093161515830261ff00199092169190911790556000848152600c602052604081206008805460018181018084559290945282549195509193600a9092027ff3f7a9fe364faab93b216da50a3214154f22a0a2b415b23a84c8169e8b636ee30192612b089284928692600290821615909202600019011604613dd2565b5060018201816001019080546001816001161561010002031660029004612b30929190613dd2565b5060028281018054612b55928481019291600019610100600183161502011604613dd2565b5060038201816003019080546001816001161561010002031660029004612b7d929190613dd2565b5060048201816004019080546001816001161561010002031660029004612ba5929190613dd2565b5060058201816005019080546001816001161561010002031660029004612bcd929190613dd2565b5060068201816006019080546001816001161561010002031660029004612bf5929190613dd2565b5060078201816007019080546001816001161561010002031660029004612c1d929190613dd2565b5060088201816008019080546001816001161561010002031660029004612c45929190613dd2565b5060098201816009019080546001816001161561010002031660029004612c6d929190613dd2565b505050505b6000828152600b602052604081208181556001810182905590612c986002830182613ecf565b6003820180546001600160a01b0319169055612cb8600483016000613f16565b612cc6600583016000613f16565b612cd4600683016000613f16565b6007820160009055600882016000612cec9190613ecf565b612cfa600983016000613f16565b600a820160009055600b820160009055600c820160009055600d82016000612d229190613f34565b506000600f82018190556010909101805461ffff19169055828152600c6020526040812090612d518282613ecf565b612d5f600183016000613ecf565b612d6d600283016000613ecf565b612d7b600383016000613ecf565b612d89600483016000613ecf565b612d97600583016000613ecf565b612da5600683016000613ecf565b612db3600783016000613ecf565b612dc1600883016000613ecf565b612dcf600983016000613ecf565b50506001600160a01b0381166000908152600f60209081526040808320858452909152902054600380549091908110612e0457fe5b6000918252602082206011909102018181556001810182905590612e2b6002830182613ecf565b6003820180546001600160a01b0319169055612e4b600483016000613f16565b612e59600583016000613f16565b612e67600683016000613f16565b6007820160009055600882016000612e7f9190613ecf565b612e8d600983016000613f16565b600a820160009055600b820160009055600c820160009055600d82016000612eb59190613f34565b506000600f8281018290556010909201805461ffff191690556001600160a01b0383168152602091825260408082208583529092522054600480549091908110612efb57fe5b600091825260208220600a9091020190612f158282613ecf565b612f23600183016000613ecf565b612f31600283016000613ecf565b612f3f600383016000613ecf565b612f4d600483016000613ecf565b612f5b600583016000613ecf565b612f69600683016000613ecf565b612f77600783016000613ecf565b612f85600883016000613ecf565b612f93600983016000613ecf565b50505050565b60009081526020818152604080832033845290915290205460ff1690565b600b6020908152600091825260409182902080546001808301546002808501805488519481161561010002600019011691909104601f8101879004870284018701909752868352929590949192918301828280156120d45780601f106120a9576101008083540402835291602001916120d4565b600c6020908152600091825260409182902080548351601f600260001961010060018616150201909316929092049182018490048402810184019094528084529092918391908301828280156103495780601f1061031e57610100808354040283529160200191610349565b600081650102b36211c781116130ac57600080fd5b6000838152600b6020526040902060100154610100900460ff161580156130ea57506000838152600d6020526040902060100154610100900460ff16155b156130f857600191506130fd565b600091505b50919050565b600a60205260009081526040902080546001820154600283015460038401546004850154600590950154939460ff938416949293919290911686565b6000828152600d6020526040902060100154610100900460ff16801561317757506000828152600b602052604090206010015460ff16155b61318057600080fd5b6000828152600b60208190526040909120600c81015491015410613702576000828152600b602090815260408083206010808201805460ff1990811660019081179092556001600160a01b0388168752600f8652848720898852865284872090920180549092168117909155600d909352922082548155828201548183015560028084018054929361322393838601939181161561010002600019011604613dd2565b5060038281015490820180546001600160a01b0319166001600160a01b039092169190911790556004808301805461325e9284019190613e47565b50600582810180546132739284019190613e47565b50600682810180546132889284019190613e47565b5060078201548160070155600882018160080190805460018160011615610100020316600290046132ba929190613dd2565b50600982810180546132cf9284019190613e47565b50600a82015481600a0155600b82015481600b0155600c82015481600c0155600d820181600d01906002613304929190613ea5565b50600f82810154908201556010918201805492909101805460ff191660ff938416151517808255915461ff00199092166101009283900490931615158202929092179091556000838152600d602052604081206005805460018181018084559290945282547f036b6384b5eca791c62761152d0c79bb0604c104a5fb6f4eb0703f3154bb3db06011909202918201908155838501547f036b6384b5eca791c62761152d0c79bb0604c104a5fb6f4eb0703f3154bb3db183015560028085018054949795969295613404957f036b6384b5eca791c62761152d0c79bb0604c104a5fb6f4eb0703f3154bb3db290950194919382161502600019011604613dd2565b5060038281015490820180546001600160a01b0319166001600160a01b039092169190911790556004808301805461343f9284019190613e47565b50600582810180546134549284019190613e47565b50600682810180546134699284019190613e47565b50600782015481600701556008820181600801908054600181600116156101000203166002900461349b929190613dd2565b50600982810180546134b09284019190613e47565b50600a82015481600a0155600b82015481600b0155600c82015481600c0155600d820181600d019060026134e5929190613ea5565b50600f82810154908201556010918201805492909101805460ff938416151560ff19909116178082559154610100908190049093161515830261ff00199092169190911790556000848152600c602052604081206006805460018181018084559290945282549195509193600a9092027ff652222313e28459528d920b65115c16c04f3efc82aaedc97be59f3f377c0d3f01926135949284928692600290821615909202600019011604613dd2565b50600182018160010190805460018160011615610100020316600290046135bc929190613dd2565b50600282810180546135e1928481019291600019610100600183161502011604613dd2565b5060038201816003019080546001816001161561010002031660029004613609929190613dd2565b5060048201816004019080546001816001161561010002031660029004613631929190613dd2565b5060058201816005019080546001816001161561010002031660029004613659929190613dd2565b5060068201816006019080546001816001161561010002031660029004613681929190613dd2565b50600782018160070190805460018160011615610100020316600290046136a9929190613dd2565b50600882018160080190805460018160011615610100020316600290046136d1929190613dd2565b50600982018160090190805460018160011615610100020316600290046136f9929190613dd2565b50505050613ab7565b6000828152600d602052604081206007805460018082018084559290945282547fa66cc928b5edb82af9bd49922954155ab7b0942694bea4ce44661d9a8736c6886011909202918201908155848401547fa66cc928b5edb82af9bd49922954155ab7b0942694bea4ce44661d9a8736c68983015560028085018054949692946137bd947fa66cc928b5edb82af9bd49922954155ab7b0942694bea4ce44661d9a8736c68a019391929181161561010002600019011604613dd2565b5060038281015490820180546001600160a01b0319166001600160a01b03909216919091179055600480830180546137f89284019190613e47565b506005828101805461380d9284019190613e47565b50600682810180546138229284019190613e47565b506007820154816007015560088201816008019080546001816001161561010002031660029004613854929190613dd2565b50600982810180546138699284019190613e47565b50600a82015481600a0155600b82015481600b0155600c82015481600c0155600d820181600d0190600261389e929190613ea5565b50600f82810154908201556010918201805492909101805460ff938416151560ff19909116178082559154610100908190049093161515830261ff00199092169190911790556000848152600c602052604081206008805460018181018084559290945282549195509193600a9092027ff3f7a9fe364faab93b216da50a3214154f22a0a2b415b23a84c8169e8b636ee3019261394d9284928692600290821615909202600019011604613dd2565b5060018201816001019080546001816001161561010002031660029004613975929190613dd2565b506002828101805461399a928481019291600019610100600183161502011604613dd2565b50600382018160030190805460018160011615610100020316600290046139c2929190613dd2565b50600482018160040190805460018160011615610100020316600290046139ea929190613dd2565b5060058201816005019080546001816001161561010002031660029004613a12929190613dd2565b5060068201816006019080546001816001161561010002031660029004613a3a929190613dd2565b5060078201816007019080546001816001161561010002031660029004613a62929190613dd2565b5060088201816008019080546001816001161561010002031660029004613a8a929190613dd2565b5060098201816009019080546001816001161561010002031660029004613ab2929190613dd2565b505050505b6000828152600b602052604081208181556001810182905590613add6002830182613ecf565b6003820180546001600160a01b0319169055613afd600483016000613f16565b613b0b600583016000613f16565b613b19600683016000613f16565b6007820160009055600882016000613b319190613ecf565b613b3f600983016000613f16565b600a820160009055600b820160009055600c820160009055600d82016000613b679190613f34565b506000600f82018190556010909101805461ffff19169055828152600c6020526040812090612f158282613ecf565b336000908152600a602052604090206001015460ff1690565b60405180610220016040528060008152602001600081526020016060815260200160006001600160a01b03168152602001606081526020016060815260200160608152602001600081526020016060815260200160608152602001600081526020016000815260200160008152602001613c27613f42565b81526000602082018190526040820181905260609091015290565b604051806101400160405280606081526020016060815260200160608152602001606081526020016060815260200160608152602001606081526020016060815260200160608152602001606081525090565b828054600181600116156101000203166002900490600052602060002090601f016020900481019282601f10613cd657805160ff1916838001178555613d03565b82800160010185558215613d03579182015b82811115613d03578251825591602001919060010190613ce8565b50613d0f929150613f60565b5090565b828054828255906000526020600020908101928215613d60579160200282015b82811115613d605782518051613d50918491602090910190613c95565b5091602001919060010190613d33565b50613d0f929150613f7a565b8260028101928215613d035791602002820182811115613d03578251825591602001919060010190613ce8565b6040805160c081019091526000808252602082019081526020016000815260200160008152602001600081526020016000151581525090565b828054600181600116156101000203166002900490600052602060002090601f016020900481019282601f10613e0b5780548555613d03565b82800160010185558215613d0357600052602060002091601f016020900482015b82811115613d03578254825591600101919060010190613e2c565b828054828255906000526020600020908101928215613d605760005260206000209182015b82811115613d605782829080546001816001161561010002031660029004613e95929190613dd2565b5091600101919060010190613e6c565b8260028101928215613d035791820182811115613d03578254825591600101919060010190613e2c565b50805460018160011615610100020316600290046000825580601f10613ef55750613f13565b601f016020900490600052602060002090810190613f139190613f60565b50565b5080546000825590600052602060002090810190613f139190613f7a565b506000815560010160009055565b60405180604001604052806002906020820280388339509192915050565b61229691905b80821115613d0f5760008155600101613f66565b61229691905b80821115613d0f576000613f948282613ecf565b50600101613f80565b8035613fa881614d24565b92915050565b600082601f830112613fbf57600080fd5b8135613fd2613fcd82614c47565b614c21565b81815260209384019390925082018360005b838110156140105781358601613ffa8882614025565b8452506020928301929190910190600101613fe4565b5050505092915050565b8035613fa881614d38565b600082601f83011261403657600080fd5b8135614044613fcd82614c67565b9150808252602083016020830185838301111561406057600080fd5b61406b838284614cd8565b50505092915050565b6000610140828403121561408757600080fd5b614092610140614c21565b905081356001600160401b038111156140aa57600080fd5b6140b684828501614025565b82525060208201356001600160401b038111156140d257600080fd5b6140de84828501614025565b60208301525060408201356001600160401b038111156140fd57600080fd5b61410984828501614025565b60408301525060608201356001600160401b0381111561412857600080fd5b61413484828501614025565b60608301525060808201356001600160401b0381111561415357600080fd5b61415f84828501614025565b60808301525060a08201356001600160401b0381111561417e57600080fd5b61418a84828501614025565b60a08301525060c08201356001600160401b038111156141a957600080fd5b6141b584828501614025565b60c08301525060e08201356001600160401b038111156141d457600080fd5b6141e084828501614025565b60e0830152506101008201356001600160401b0381111561420057600080fd5b61420c84828501614025565b610100830152506101208201356001600160401b0381111561422d57600080fd5b61423984828501614025565b6101208301525092915050565b8035613fa881614d41565b60006020828403121561426357600080fd5b600061426f8484613f9d565b949350505050565b6000806040838503121561428a57600080fd5b6000614296858561401a565b92505060206142a785828601614246565b9150509250929050565b6000602082840312156142c357600080fd5b600061426f8484614246565b600080604083850312156142e257600080fd5b60006142ee8585614246565b92505060206142a785828601613f9d565b60008060006060848603121561431457600080fd5b60006143208686614246565b935050602061433186828701613f9d565b925050604061434286828701614246565b9150509250925092565b60008060008060008060008060006101208a8c03121561436b57600080fd5b60006143778c8c614246565b99505060208a01356001600160401b0381111561439357600080fd5b61439f8c828d01614025565b98505060408a01356001600160401b038111156143bb57600080fd5b6143c78c828d01613fae565b97505060608a01356001600160401b038111156143e357600080fd5b6143ef8c828d01613fae565b96505060806144008c828d01614246565b95505060a08a01356001600160401b0381111561441c57600080fd5b6144288c828d01614025565b94505060c08a01356001600160401b0381111561444457600080fd5b6144508c828d01613fae565b93505060e08a01356001600160401b0381111561446c57600080fd5b6144788c828d01614074565b9250506101008a01356001600160401b0381111561449557600080fd5b6144a18c828d01613fae565b9150509295985092959850929598565b60006144bd838361469e565b9392505050565b60006144bd83836146d6565b60006144bd83836147e6565b60006144e88383614695565b505060200190565b6144f981614ca7565b82525050565b600061450a82614c94565b6145148185614c9e565b93508360208202850161452685614c8e565b8060005b85811015614560578484038952815161454385826144b1565b945061454e83614c8e565b60209a909a019992505060010161452a565b5091979650505050505050565b600061457882614c94565b6145828185614c9e565b93508360208202850161459485614c8e565b8060005b8581101561456057848403895281516145b185826144c4565b94506145bc83614c8e565b60209a909a0199925050600101614598565b60006145d982614c94565b6145e38185614c9e565b9350836020820285016145f585614c8e565b8060005b85811015614560578484038952815161461285826144d0565b945061461d83614c8e565b60209a909a01999250506001016145f9565b61463881614c98565b6146428184610891565b925061464d82612296565b8060005b8381101561467b57815161466587826144dc565b965061467083614c8e565b925050600101614651565b505050505050565b6144f981614cb2565b6144f981614ccd565b6144f981612296565b60006146a982614c94565b6146b38185614c9e565b93506146c3818560208601614ce4565b6146cc81614d10565b9093019392505050565b8051610140808452600091908401906146ef828261469e565b91505060208301518482036020860152614709828261469e565b91505060408301518482036040860152614723828261469e565b9150506060830151848203606086015261473d828261469e565b91505060808301518482036080860152614757828261469e565b91505060a083015184820360a0860152614771828261469e565b91505060c083015184820360c086015261478b828261469e565b91505060e083015184820360e08601526147a5828261469e565b9150506101008301518482036101008601526147c1828261469e565b9150506101208301518482036101208601526147dd828261469e565b95945050505050565b80516000906102408401906147fb8582614695565b50602083015161480e6020860182614695565b5060408301518482036040860152614826828261469e565b915050606083015161483b60608601826144f0565b506080830151848203608086015261485382826144ff565b91505060a083015184820360a086015261486d82826144ff565b91505060c083015184820360c086015261488782826144ff565b91505060e083015161489c60e0860182614695565b506101008301518482036101008601526148b6828261469e565b9150506101208301518482036101208601526148d282826144ff565b9150506101408301516148e9610140860182614695565b506101608301516148fe610160860182614695565b50610180830151614913610180860182614695565b506101a08301516149286101a086018261462f565b506101c083015161493d6101e0860182614695565b506101e0830151614952610200860182614683565b50610200830151614967610220860182614683565b509392505050565b805160c08301906149808482614695565b506020820151614993602085018261468c565b5060408201516149a66040850182614695565b5060608201516149b96060850182614695565b5060808201516149cc6080850182614695565b5060a0820151612f9360a0850182614683565b604080825281016149f081856145ce565b9050818103602083015261426f818461456d565b60208101613fa88284614683565b60208101613fa8828461468c565b6101408082528101614a32818d61469e565b90508181036020830152614a46818c61469e565b90508181036040830152614a5a818b61469e565b90508181036060830152614a6e818a61469e565b90508181036080830152614a82818961469e565b905081810360a0830152614a96818861469e565b905081810360c0830152614aaa818761469e565b905081810360e0830152614abe818661469e565b9050818103610100830152614ad3818561469e565b9050818103610120830152614ae8818461469e565b9c9b505050505050505050505050565b60c08101613fa8828461496f565b60c08101614b148289614695565b614b21602083018861468c565b614b2e6040830187614695565b614b3b6060830186614695565b614b486080830185614695565b614b5560a0830184614683565b979650505050505050565b6101808101614b6f828f614695565b614b7c602083018e614695565b8181036040830152614b8e818d61469e565b9050614b9d606083018c6144f0565b614baa608083018b614695565b81810360a0830152614bbc818a61469e565b9050614bcb60c0830189614695565b614bd860e0830188614695565b614be6610100830187614695565b614bf4610120830186614695565b614c02610140830185614683565b614c10610160830184614683565b9d9c50505050505050505050505050565b6040518181016001600160401b0381118282101715614c3f57600080fd5b604052919050565b60006001600160401b03821115614c5d57600080fd5b5060209081020190565b60006001600160401b03821115614c7d57600080fd5b506020601f91909101601f19160190565b60200190565b5190565b50600290565b90815260200190565b6000613fa882614cc1565b151590565b8061089181614d1a565b6001600160a01b031690565b6000613fa882614cb7565b82818337506000910152565b60005b83811015614cff578181015183820152602001614ce7565b83811115612f935750506000910152565b601f01601f191690565b60038110613f1357fe5b614d2d81614ca7565b8114613f1357600080fd5b614d2d81614cb2565b614d2d8161229656fea365627a7a7231582066253b4695146bcb9a81f9e8b4695b7eeb4a7332d177c507e0be17263810552e6c6578706572696d656e74616cf564736f6c63430005100040",
  "source": "pragma solidity 0.5.16;\r\n\r\nimport \"./LabelChainHelper.sol\";\r\n\r\npragma experimental ABIEncoderV2;\r\n\r\n\r\n/**\r\n @title DataLabelChain contract\r\n @author Fabrice Tapia\r\n @dev Contract which is a part of the Alyra's Final Project : Eat Healthy LabelChain\r\n */\r\n\r\ncontract DataTest is LabelChainHelper {\r\n\r\n\r\n  address private _owner;\r\n\r\n  // Simple event when a product is added to the product proposal phase\r\n  event TriggerAddProduct(uint indexed idProduct);\r\n\r\n  // Setting up the owner as a user (may not be needed)\r\n  constructor() public {\r\n    _owner = msg.sender;\r\n    addressToUser[_owner] = User(uniqueIdUser, Role.ADMIN, now, 10, 0, true);\r\n    uniqueIdUser++;\r\n  }\r\n\r\n  //  modifier checkProductIsNew (uint productCode) {\r\n  //    require(!productCodeToProduct[productCode].isExist);\r\n  //    _;\r\n  //  }\r\n  //\r\n  //\r\n  //  modifier checkProductProposalIsNew (uint productCode) {\r\n  //    require(!productCodeToProduct[productCode].isExist);\r\n  //    _;\r\n  //  }\r\n\r\n  modifier checkLengthGS1 (uint productCode){\r\n    require(productCode > 1111111111111);\r\n    _;\r\n  }\r\n  /*\r\n    function getProduct(uint productCode) view public returns(Product){\r\n      return productCodeToProduct[productCode];\r\n    }*/\r\n\r\n\r\n  /**\r\n  @notice Product is added in proposal phase by the user,\r\n          then visible for all users for votes\r\n  @dev\r\n         Add a new Product and Nutriments object in corresponding proposal mappings\r\n         Also added in corresponding arrays, useful to get them all from front-end\r\n         Finally, emitting an event to warn the user, all is OK\r\n  @param _productCode, _productName, _labels, _ingredients, _quantity,\r\n         _typeOfProduct, _packaging, _nutriments, _addiditfs\r\n         => Elements needed to fill in both Product and Nutriments object\r\n   */\r\n  function addProductToProposal(\r\n    uint _productCode,\r\n    string memory _productName,\r\n    string[] memory _labels,\r\n    string[] memory _ingredients,\r\n    uint _quantity,\r\n    string memory _typeOfProduct,\r\n    string[] memory _packaging,\r\n    Nutriment memory _nutriments,\r\n    string[] memory _additifs\r\n\r\n  ) public {\r\n    require(!productCodeToProduct[_productCode].isExist);\r\n    Product memory _product;\r\n    Nutriment memory _nutrimentsObject;\r\n    _product.productId = uniqueProductId;\r\n    _product.productCode = _productCode;\r\n    _product.productName = _productName;\r\n    _product.productProposerAddress = msg.sender;\r\n    _product.labels = _labels;\r\n    _product.ingredients = _ingredients;\r\n    _product.additifs = _additifs;\r\n    _product.quantity = _quantity;\r\n    _product.typeOfProduct = _typeOfProduct;\r\n    _product.packaging = _packaging;\r\n    _product.isExist = true;\r\n    _product.created_n_last_modif = [now, now];\r\n    _product.endDate = now + 5 minutes;\r\n    // _product.nutrimentsId = _productCode;\r\n    _product.forVotes = 0;\r\n    _product.againstVotes = 0;\r\n    _product.totalVotes = 0;\r\n    // productCodeToNutriments[_productCode] = _nutriments;\r\n    // _product.hash = keccak256(abi.encodePacked(_product.productName,_product.productProposerAddress, _product.quantity));\r\n    productCodeToProposalProduct[_productCode] = _product;\r\n    ProposalProducts.push(_product);\r\n\r\n    _nutrimentsObject.carbohydrates = _nutriments.carbohydrates;\r\n    _nutrimentsObject.energy = _nutriments.energy;\r\n    _nutrimentsObject.energy_kcal = _nutriments.energy_kcal;\r\n    _nutrimentsObject.proteines = _nutriments.proteines;\r\n    _nutrimentsObject.salt = _nutriments.salt;\r\n    _nutrimentsObject.sugars = _nutriments.sugars;\r\n    _nutrimentsObject.fat = _nutriments.fat;\r\n    _nutrimentsObject.saturated_fat = _nutriments.saturated_fat;\r\n    _nutrimentsObject.fiber = _nutriments.fat;\r\n    _nutrimentsObject.sodium = _nutriments.sodium;\r\n    productCodeToProposalNutriments[_productCode] = _nutrimentsObject;\r\n    ProposalNutriments.push(_nutrimentsObject);\r\n\r\n    uniqueProductId++;\r\n\r\n    addressToProducts[msg.sender][_productCode] = _product;\r\n    addressToNutriments[msg.sender][_productCode] = _nutrimentsObject;\r\n    //    addressToProduct[msg.sender][_productCode] = _product;\r\n    //    addressToNutriments[msg.sender][_product] = _nutrimentsObject;\r\n\r\n    emit TriggerAddProduct(_productCode);\r\n    // keccak256(abi.encodePacked(_productCode,_productName,msg.sender,_labels,_ingredients,_nutriments,_quantity,_typeOfProduct,_packaging))\r\n  }\r\n\r\n  // Getting actual user role at the start or when wallet is changed (may not be needed)\r\n  function getRole() public view returns (Role) {\r\n    return addressToUser[msg.sender].role;\r\n  }\r\n\r\n\r\n  // To add a product in proposal, we need to check if the product doesn't already exist in mappings of products\r\n  function checkProductIsNew(uint _productCode) public view checkLengthGS1(_productCode) returns (bool) {\r\n    if (!productCodeToProposalProduct[_productCode].isExist && !productCodeToProduct[_productCode].isExist) {\r\n      return true;\r\n    } else {\r\n      return false;\r\n    }\r\n  }\r\n\r\n\r\n  /**\r\n@notice Register a user when he does his first proposal or vote\r\n@dev\r\n       Defines a new User object, giving him token and reputation\r\n       Adds it to a mapping with all other subscribed users\r\n */\r\n  function subscribeUser() public returns (User memory) {\r\n    require(addressToUser[msg.sender].isExist == false);\r\n    User memory user;\r\n    user.userId = uniqueIdUser;\r\n    user.role = Role.CUSTOMER;\r\n    user.lastTimeTokenGiven = now;\r\n    user.tokenNumber = 5;\r\n    user.reputation = 50;\r\n    user.isExist = true;\r\n    uniqueIdUser++;\r\n    addressToUser[msg.sender] = user;\r\n    return user;\r\n  }\r\n\r\n  /**\r\n  @notice User is voting for a product in proposal phase (new or update)\r\n  @dev\r\n         User can only vote if he is registered and he has not already voted\r\n         Then adding vote to for and against\r\n  @param _opinion vote value (for or against)\r\n         _productCode product targeted for the vote\r\n */\r\n  function vote(bool _opinion, uint _productCode) public {\r\n    require(addressToUser[msg.sender].tokenNumber > 0);\r\n    // require(productCodeToProduct[_productCode].created_n_last_modif[1] < productCodeToProduct[_productCode].created_n_last_modif[1] + 7 days);\r\n    require(productCodeToProduct[_productCode].created_n_last_modif[1] < productCodeToProduct[_productCode].endDate);\r\n    // require(productCodeToProduct[_productCode].isExist && addressToUser[msg.sender].isExist && !alreadyVoted[_productCode][msg.sender] && productCodeToProduct[_productCode].productProposerAddress != msg.sender);\r\n    alreadyVoted[_productCode][msg.sender][0] = true;\r\n    if (_opinion == true) {\r\n      productCodeToProposalProduct[_productCode].forVotes++;\r\n      ProposalProducts[productCodeToProposalProduct[_productCode].productId].forVotes++;\r\n    } else {\r\n      productCodeToProposalProduct[_productCode].againstVotes++;\r\n      ProposalProducts[productCodeToProposalProduct[_productCode].productId].againstVotes++;\r\n    }\r\n    alreadyVoted[_productCode][msg.sender][1] = _opinion;\r\n    productCodeToProposalProduct[_productCode].totalVotes++;\r\n    ProposalProducts[productCodeToProposalProduct[_productCode].productId].totalVotes++;\r\n    addressToUser[msg.sender].tokenNumber--;\r\n  }\r\n\r\n  function endVoteInit(uint _productCode, address proposerAddress) public {\r\n    // require(now >= productCodeToProduct[_productCode].endDate);\r\n    require(productCodeToProduct[_productCode].isExist && !productCodeToProposalProduct[_productCode].isValidated);\r\n    // require(productCodeToProposalProduct[_product.productCode].productProposerAddress == msg.sender);\r\n\r\n    if (productCodeToProposalProduct[_productCode].forVotes >= productCodeToProposalProduct[_productCode].againstVotes) {\r\n      productCodeToProposalProduct[_productCode].isValidated = true;\r\n      addressToProducts[proposerAddress][_productCode].isValidated = true;\r\n      productCodeToProduct[_productCode] = productCodeToProposalProduct[_productCode];\r\n      Products.push(productCodeToProduct[_productCode]);\r\n      Nutriments.push(productCodeToProposalNutriments[_productCode]);\r\n    } else {\r\n      DeniedProducts.push(productCodeToProduct[_productCode]);\r\n      DeniedNutriments.push(productCodeToProposalNutriments[_productCode]);\r\n    }\r\n    delete productCodeToProposalProduct[_productCode];\r\n    delete productCodeToProposalNutriments[_productCode];\r\n  }\r\n\r\n  function endVote(uint _productCode, address proposerAddress) public {\r\n    require(now >= productCodeToProposalProduct[_productCode].endDate);\r\n    require(productCodeToProposalProduct[_productCode].isExist && !productCodeToProposalProduct[_productCode].isValidated);\r\n\r\n    if (productCodeToProposalProduct[_productCode].forVotes >= productCodeToProposalProduct[_productCode].againstVotes) {\r\n      productCodeToProposalProduct[_productCode].isValidated = true;\r\n      addressToProducts[proposerAddress][_productCode].isValidated = true;\r\n      productCodeToProduct[_productCode] = productCodeToProposalProduct[_productCode];\r\n      Products.push(productCodeToProduct[_productCode]);\r\n      Nutriments.push(productCodeToProposalNutriments[_productCode]);\r\n    } else {\r\n      DeniedProducts.push(productCodeToProduct[_productCode]);\r\n      DeniedNutriments.push(productCodeToProposalNutriments[_productCode]);\r\n    }\r\n    delete productCodeToProposalProduct[_productCode];\r\n    delete productCodeToProposalNutriments[_productCode];\r\n    delete ProposalProducts[addressToProducts[proposerAddress][_productCode].productId];\r\n    delete ProposalNutriments[addressToProducts[proposerAddress][_productCode].productId];\r\n  }\r\n\r\n}\r\n",
  "sourcePath": "C:\\Users\\Fabrice\\Desktop\\Project_EatHealthyLabelChain\\EatHealthyLabelChain\\contracts\\dataTest.sol",
  "compiler": {
    "name": "solc",
    "version": "0.5.16+commit.9c3226ce.Emscripten.clang"
  },
  "schemaVersion": "3.2.0",
  "updatedAt": "2020-07-18T12:17:59.763Z",
  "networkType": "ethereum",
  "devdoc": {
    "author": "Fabrice Tapia",
    "details": "Contract which is a part of the Alyra's Final Project : Eat Healthy LabelChain",
    "methods": {
      "addProductToProposal(uint256,string,string[],string[],uint256,string,string[],(string,string,string,string,string,string,string,string,string,string),string[])": {
        "details": "Add a new Product and Nutriments object in corresponding proposal mappings Also added in corresponding arrays, useful to get them all from front-end Finally, emitting an event to warn the user, all is OK",
        "params": {
          "_productCode": ", _productName, _labels, _ingredients, _quantity, _typeOfProduct, _packaging, _nutriments, _addiditfs => Elements needed to fill in both Product and Nutriments object"
        }
      },
      "subscribeUser()": {
        "details": "Defines a new User object, giving him token and reputation Adds it to a mapping with all other subscribed users"
      },
      "vote(bool,uint256)": {
        "details": "User can only vote if he is registered and he has not already voted Then adding vote to for and against",
        "params": {
          "_opinion": "vote value (for or against) _productCode product targeted for the vote"
        }
      }
    },
    "title": "DataLabelChain contract"
  },
  "userdoc": {
    "methods": {
      "addProductToProposal(uint256,string,string[],string[],uint256,string,string[],(string,string,string,string,string,string,string,string,string,string),string[])": {
        "notice": "Product is added in proposal phase by the user, then visible for all users for votes"
      },
      "subscribeUser()": {
        "notice": "Register a user when he does his first proposal or vote"
      },
      "vote(bool,uint256)": {
        "notice": "User is voting for a product in proposal phase (new or update)"
      }
    }
  }
}