{
  "contractName": "DataTest",
  "abi": [
    {
      "inputs": [],
      "payable": false,
      "stateMutability": "nonpayable",
      "type": "constructor"
    },
    {
      "anonymous": false,
      "inputs": [
        {
          "indexed": true,
          "internalType": "uint256",
          "name": "idProduct",
          "type": "uint256"
        }
      ],
      "name": "TriggerAddProduct",
      "type": "event"
    },
    {
      "constant": true,
      "inputs": [
        {
          "internalType": "address",
          "name": "",
          "type": "address"
        }
      ],
      "name": "ownerToUser",
      "outputs": [
        {
          "internalType": "uint256",
          "name": "userId",
          "type": "uint256"
        },
        {
          "internalType": "string",
          "name": "userName",
          "type": "string"
        },
        {
          "internalType": "string",
          "name": "userMail",
          "type": "string"
        },
        {
          "internalType": "enum DataTest.Role",
          "name": "role",
          "type": "uint8"
        },
        {
          "internalType": "bool",
          "name": "isExist",
          "type": "bool"
        }
      ],
      "payable": false,
      "stateMutability": "view",
      "type": "function"
    },
    {
      "constant": true,
      "inputs": [
        {
          "internalType": "uint256",
          "name": "",
          "type": "uint256"
        }
      ],
      "name": "productCodeToProduct",
      "outputs": [
        {
          "internalType": "uint256",
          "name": "productId",
          "type": "uint256"
        },
        {
          "internalType": "uint256",
          "name": "productCode",
          "type": "uint256"
        },
        {
          "internalType": "string",
          "name": "productName",
          "type": "string"
        },
        {
          "internalType": "uint256",
          "name": "productProposerId",
          "type": "uint256"
        },
        {
          "internalType": "uint256",
          "name": "totalVotes",
          "type": "uint256"
        },
        {
          "internalType": "uint256",
          "name": "forVotes",
          "type": "uint256"
        },
        {
          "internalType": "bool",
          "name": "isValidated",
          "type": "bool"
        },
        {
          "internalType": "bool",
          "name": "isExist",
          "type": "bool"
        }
      ],
      "payable": false,
      "stateMutability": "view",
      "type": "function"
    },
    {
      "constant": true,
      "inputs": [
        {
          "internalType": "uint256",
          "name": "productCode",
          "type": "uint256"
        }
      ],
      "name": "getProduct",
      "outputs": [
        {
          "components": [
            {
              "internalType": "uint256",
              "name": "productId",
              "type": "uint256"
            },
            {
              "internalType": "uint256",
              "name": "productCode",
              "type": "uint256"
            },
            {
              "internalType": "string",
              "name": "productName",
              "type": "string"
            },
            {
              "internalType": "uint256",
              "name": "productProposerId",
              "type": "uint256"
            },
            {
              "internalType": "int256[]",
              "name": "labelIds",
              "type": "int256[]"
            },
            {
              "internalType": "uint256",
              "name": "totalVotes",
              "type": "uint256"
            },
            {
              "internalType": "uint256",
              "name": "forVotes",
              "type": "uint256"
            },
            {
              "internalType": "bool",
              "name": "isValidated",
              "type": "bool"
            },
            {
              "internalType": "bool",
              "name": "isExist",
              "type": "bool"
            }
          ],
          "internalType": "struct DataTest.Product",
          "name": "",
          "type": "tuple"
        }
      ],
      "payable": false,
      "stateMutability": "view",
      "type": "function"
    },
    {
      "constant": false,
      "inputs": [
        {
          "internalType": "uint256",
          "name": "productCode",
          "type": "uint256"
        },
        {
          "internalType": "string",
          "name": "productName",
          "type": "string"
        },
        {
          "internalType": "uint256",
          "name": "productProposerId",
          "type": "uint256"
        },
        {
          "internalType": "int256[]",
          "name": "labelIds",
          "type": "int256[]"
        }
      ],
      "name": "addProductToProposal",
      "outputs": [],
      "payable": false,
      "stateMutability": "nonpayable",
      "type": "function"
    },
    {
      "constant": true,
      "inputs": [],
      "name": "getRole",
      "outputs": [
        {
          "internalType": "enum DataTest.Role",
          "name": "",
          "type": "uint8"
        }
      ],
      "payable": false,
      "stateMutability": "view",
      "type": "function"
    }
  ],
  "bytecode": "0x60806040523480156200001157600080fd5b50336000806101000a81548173ffffffffffffffffffffffffffffffffffffffff021916908373ffffffffffffffffffffffffffffffffffffffff1602179055506040518060a0016040528060015481526020016040518060400160405280601181526020017f464142524949494949494949494949434500000000000000000000000000000081525081526020016040518060400160405280600b81526020017f796f697040796f702e66720000000000000000000000000000000000000000008152508152602001600280811115620000e857fe5b815260200160011515815250600260008060009054906101000a900473ffffffffffffffffffffffffffffffffffffffff1673ffffffffffffffffffffffffffffffffffffffff1673ffffffffffffffffffffffffffffffffffffffff1681526020019081526020016000206000820151816000015560208201518160010190805190602001906200017c929190620001ef565b5060408201518160020190805190602001906200019b929190620001ef565b5060608201518160030160006101000a81548160ff02191690836002811115620001c157fe5b021790555060808201518160030160016101000a81548160ff0219169083151502179055509050506200029e565b828054600181600116156101000203166002900490600052602060002090601f016020900481019282601f106200023257805160ff191683800117855562000263565b8280016001018555821562000263579182015b828111156200026257825182559160200191906001019062000245565b5b50905062000272919062000276565b5090565b6200029b91905b80821115620002975760008160009055506001016200027d565b5090565b90565b610fe280620002ae6000396000f3fe608060405234801561001057600080fd5b50600436106100575760003560e01c806361ef3c151461005c57806399fabed614610093578063b9db15b4146100c7578063c284c5e8146100f7578063fde0817414610113575b600080fd5b610076600480360361007191908101906109af565b610131565b60405161008a989796959493929190610d17565b60405180910390f35b6100ad60048036036100a89190810190610986565b61022b565b6040516100be959493929190610cb6565b60405180910390f35b6100e160048036036100dc91908101906109af565b6103ab565b6040516100ee9190610c94565b60405180910390f35b610111600480360361010c91908101906109d8565b61053b565b005b61011b6106b2565b6040516101289190610c79565b60405180910390f35b6003602052806000526040600020600091509050806000015490806001015490806002018054600181600116156101000203166002900480601f0160208091040260200160405190810160405280929190818152602001828054600181600116156101000203166002900480156101e95780601f106101be576101008083540402835291602001916101e9565b820191906000526020600020905b8154815290600101906020018083116101cc57829003601f168201915b5050505050908060030154908060050154908060060154908060070160009054906101000a900460ff16908060070160019054906101000a900460ff16905088565b6002602052806000526040600020600091509050806000015490806001018054600181600116156101000203166002900480601f0160208091040260200160405190810160405280929190818152602001828054600181600116156101000203166002900480156102dd5780601f106102b2576101008083540402835291602001916102dd565b820191906000526020600020905b8154815290600101906020018083116102c057829003601f168201915b505050505090806002018054600181600116156101000203166002900480601f01602080910402602001604051908101604052809291908181526020018280546001816001161561010002031660029004801561037b5780601f106103505761010080835404028352916020019161037b565b820191906000526020600020905b81548152906001019060200180831161035e57829003601f168201915b5050505050908060030160009054906101000a900460ff16908060030160019054906101000a900460ff16905085565b6103b3610709565b60036000838152602001908152602001600020604051806101200160405290816000820154815260200160018201548152602001600282018054600181600116156101000203166002900480601f01602080910402602001604051908101604052809291908181526020018280546001816001161561010002031660029004801561047f5780601f106104545761010080835404028352916020019161047f565b820191906000526020600020905b81548152906001019060200180831161046257829003601f168201915b5050505050815260200160038201548152602001600482018054806020026020016040519081016040528092919081815260200182805480156104e157602002820191906000526020600020905b8154815260200190600101908083116104cd575b5050505050815260200160058201548152602001600682015481526020016007820160009054906101000a900460ff161515151581526020016007820160019054906101000a900460ff1615151515815250509050919050565b6003600085815260200190815260200160002060070160019054906101000a900460ff161561056957600080fd5b610571610709565b848160200181815250508381604001819052508281606001818152505081816080018190525060008160e00190151590811515815250506001816101000190151590811515815250508060036000878152602001908152602001600020600082015181600001556020820151816001015560408201518160020190805190602001906105fe929190610759565b506060820151816003015560808201518160040190805190602001906106259291906107d9565b5060a0820151816005015560c0820151816006015560e08201518160070160006101000a81548160ff0219169083151502179055506101008201518160070160016101000a81548160ff021916908315150217905550905050847f62d016d4371415f3ad23ef71ccf53e281dea50c5b60ac3cce1b1ec9eb45226cc60405160405180910390a25050505050565b6000600260003373ffffffffffffffffffffffffffffffffffffffff1673ffffffffffffffffffffffffffffffffffffffff16815260200190815260200160002060030160009054906101000a900460ff16905090565b604051806101200160405280600081526020016000815260200160608152602001600081526020016060815260200160008152602001600081526020016000151581526020016000151581525090565b828054600181600116156101000203166002900490600052602060002090601f016020900481019282601f1061079a57805160ff19168380011785556107c8565b828001600101855582156107c8579182015b828111156107c75782518255916020019190600101906107ac565b5b5090506107d59190610826565b5090565b828054828255906000526020600020908101928215610815579160200282015b828111156108145782518255916020019190600101906107f9565b5b509050610822919061084b565b5090565b61084891905b8082111561084457600081600090555060010161082c565b5090565b90565b61086d91905b80821115610869576000816000905550600101610851565b5090565b90565b60008135905061087f81610f5a565b92915050565b600082601f83011261089657600080fd5b81356108a96108a482610dc9565b610d9c565b915081818352602084019350602081019050838560208402820111156108ce57600080fd5b60005b838110156108fe57816108e48882610908565b8452602084019350602083019250506001810190506108d1565b5050505092915050565b60008135905061091781610f71565b92915050565b600082601f83011261092e57600080fd5b813561094161093c82610df1565b610d9c565b9150808252602083016020830185838301111561095d57600080fd5b610968838284610efa565b50505092915050565b60008135905061098081610f88565b92915050565b60006020828403121561099857600080fd5b60006109a684828501610870565b91505092915050565b6000602082840312156109c157600080fd5b60006109cf84828501610971565b91505092915050565b600080600080608085870312156109ee57600080fd5b60006109fc87828801610971565b945050602085013567ffffffffffffffff811115610a1957600080fd5b610a258782880161091d565b9350506040610a3687828801610971565b925050606085013567ffffffffffffffff811115610a5357600080fd5b610a5f87828801610885565b91505092959194509250565b6000610a778383610b0e565b60208301905092915050565b6000610a8e82610e2d565b610a988185610e50565b9350610aa383610e1d565b8060005b83811015610ad4578151610abb8882610a6b565b9750610ac683610e43565b925050600181019050610aa7565b5085935050505092915050565b610aea81610e95565b82525050565b610af981610e95565b82525050565b610b0881610ee8565b82525050565b610b1781610eb4565b82525050565b6000610b2882610e38565b610b328185610e61565b9350610b42818560208601610f09565b610b4b81610f3c565b840191505092915050565b6000610b6182610e38565b610b6b8185610e72565b9350610b7b818560208601610f09565b610b8481610f3c565b840191505092915050565b600061012083016000830151610ba86000860182610c5b565b506020830151610bbb6020860182610c5b565b5060408301518482036040860152610bd38282610b1d565b9150506060830151610be86060860182610c5b565b5060808301518482036080860152610c008282610a83565b91505060a0830151610c1560a0860182610c5b565b5060c0830151610c2860c0860182610c5b565b5060e0830151610c3b60e0860182610ae1565b50610100830151610c50610100860182610ae1565b508091505092915050565b610c6481610ede565b82525050565b610c7381610ede565b82525050565b6000602082019050610c8e6000830184610aff565b92915050565b60006020820190508181036000830152610cae8184610b8f565b905092915050565b600060a082019050610ccb6000830188610c6a565b8181036020830152610cdd8187610b56565b90508181036040830152610cf18186610b56565b9050610d006060830185610aff565b610d0d6080830184610af0565b9695505050505050565b600061010082019050610d2d600083018b610c6a565b610d3a602083018a610c6a565b8181036040830152610d4c8189610b56565b9050610d5b6060830188610c6a565b610d686080830187610c6a565b610d7560a0830186610c6a565b610d8260c0830185610af0565b610d8f60e0830184610af0565b9998505050505050505050565b6000604051905081810181811067ffffffffffffffff82111715610dbf57600080fd5b8060405250919050565b600067ffffffffffffffff821115610de057600080fd5b602082029050602081019050919050565b600067ffffffffffffffff821115610e0857600080fd5b601f19601f8301169050602081019050919050565b6000819050602082019050919050565b600081519050919050565b600081519050919050565b6000602082019050919050565b600082825260208201905092915050565b600082825260208201905092915050565b600082825260208201905092915050565b6000610e8e82610ebe565b9050919050565b60008115159050919050565b6000819050610eaf82610f4d565b919050565b6000819050919050565b600073ffffffffffffffffffffffffffffffffffffffff82169050919050565b6000819050919050565b6000610ef382610ea1565b9050919050565b82818337600083830152505050565b60005b83811015610f27578082015181840152602081019050610f0c565b83811115610f36576000848401525b50505050565b6000601f19601f8301169050919050565b60038110610f5757fe5b50565b610f6381610e83565b8114610f6e57600080fd5b50565b610f7a81610eb4565b8114610f8557600080fd5b50565b610f9181610ede565b8114610f9c57600080fd5b5056fea365627a7a7231582076a2213e08bfb0ed99593800746203405ba98ea6366376a658dd442a087067026c6578706572696d656e74616cf564736f6c63430005100040",
  "source": "pragma solidity 0.5.16;\r\npragma experimental ABIEncoderV2;\r\n\r\n\r\n\r\n/**\r\n @title DataLabelChain contract\r\n @author Fabrice Tapia\r\n @dev Contract which is a part of the Alyra's Final Project : Eat Healthy LabelChain\r\n */\r\n\r\ncontract DataTest {\r\n\r\n  enum Role {CUSTOMER, SELLER, ADMIN}\r\n  struct User{\r\n    uint userId;\r\n    string userName;\r\n    string userMail;\r\n    Role role;\r\n    bool isExist;\r\n  }\r\n\r\n  struct Product{\r\n    uint productId;\r\n    uint productCode;\r\n    string productName;\r\n    uint productProposerId;\r\n    int[] labelIds;\r\n    uint totalVotes;\r\n    uint forVotes;\r\n    bool isValidated;\r\n    bool isExist;\r\n  }\r\n\r\n  address private _owner;\r\n\r\n  uint uniqueIdUser;\r\n\r\n  mapping(address => User) public ownerToUser;\r\n\r\n  mapping(uint => Product) public productCodeToProduct;\r\n\r\n  event TriggerAddProduct(uint indexed idProduct);\r\n\r\n  constructor() public {\r\n    _owner = msg.sender;\r\n    ownerToUser[_owner] = User(uniqueIdUser, \"FABRIIIIIIIIIIICE\", \"yoip@yop.fr\", Role.ADMIN, true);\r\n  }\r\n\r\n  function getProduct(uint productCode) view public returns(Product memory){\r\n    return productCodeToProduct[productCode];\r\n  }\r\n\r\n  function addProductToProposal(uint productCode, string memory productName, uint productProposerId, int[] memory labelIds) public {\r\n    require(!productCodeToProduct[productCode].isExist);\r\n    Product memory product;\r\n    product.productCode = productCode;\r\n    product.productName = productName;\r\n    product.productProposerId = productProposerId;\r\n    product.labelIds = labelIds;\r\n    product.isValidated = false;\r\n    product.isExist = true;\r\n    productCodeToProduct[productCode] = product;\r\n    emit TriggerAddProduct(productCode);\r\n  }\r\n\r\n  function getRole() public view returns (Role) {\r\n    return ownerToUser[msg.sender].role;\r\n  }\r\n}\r\n",
  "sourcePath": "C:\\Users\\Fabrice\\Desktop\\Project_EatHealthyLabelChain\\EatHealthyLabelChain\\contracts\\dataTest.sol",
  "compiler": {
    "name": "solc",
    "version": "0.5.16+commit.9c3226ce.Emscripten.clang"
  },
  "schemaVersion": "3.2.0",
  "updatedAt": "2020-06-27T19:52:20.456Z",
  "devdoc": {
    "author": "Fabrice Tapia",
    "details": "Contract which is a part of the Alyra's Final Project : Eat Healthy LabelChain",
    "methods": {},
    "title": "DataLabelChain contract"
  },
  "userdoc": {
    "methods": {}
  }
}