{
  "contractName": "DataTest",
  "abi": [
    {
      "inputs": [],
      "payable": false,
      "stateMutability": "nonpayable",
      "type": "constructor"
    },
    {
      "anonymous": false,
      "inputs": [
        {
          "indexed": true,
          "internalType": "uint256",
          "name": "idProduct",
          "type": "uint256"
        }
      ],
      "name": "TriggerAddProduct",
      "type": "event"
    },
    {
      "constant": true,
      "inputs": [
        {
          "internalType": "address",
          "name": "",
          "type": "address"
        }
      ],
      "name": "addressToUser",
      "outputs": [
        {
          "internalType": "uint256",
          "name": "userId",
          "type": "uint256"
        },
        {
          "internalType": "enum DataTest.Role",
          "name": "role",
          "type": "uint8"
        },
        {
          "internalType": "uint256",
          "name": "lastTimeTokenGiven",
          "type": "uint256"
        },
        {
          "internalType": "int256",
          "name": "tokenNumber",
          "type": "int256"
        },
        {
          "internalType": "int256",
          "name": "reputation",
          "type": "int256"
        },
        {
          "internalType": "bool",
          "name": "isExist",
          "type": "bool"
        }
      ],
      "payable": false,
      "stateMutability": "view",
      "type": "function"
    },
    {
      "constant": true,
      "inputs": [
        {
          "internalType": "uint256",
          "name": "",
          "type": "uint256"
        }
      ],
      "name": "productCodeToNutriments",
      "outputs": [
        {
          "internalType": "string",
          "name": "energy",
          "type": "string"
        },
        {
          "internalType": "string",
          "name": "energy_kcal",
          "type": "string"
        },
        {
          "internalType": "string",
          "name": "proteines",
          "type": "string"
        },
        {
          "internalType": "string",
          "name": "carbohydrates",
          "type": "string"
        },
        {
          "internalType": "string",
          "name": "salt",
          "type": "string"
        },
        {
          "internalType": "string",
          "name": "sugars",
          "type": "string"
        },
        {
          "internalType": "string",
          "name": "fat",
          "type": "string"
        },
        {
          "internalType": "string",
          "name": "saturated_fat",
          "type": "string"
        },
        {
          "internalType": "string",
          "name": "fiber",
          "type": "string"
        },
        {
          "internalType": "string",
          "name": "sodium",
          "type": "string"
        }
      ],
      "payable": false,
      "stateMutability": "view",
      "type": "function"
    },
    {
      "constant": true,
      "inputs": [
        {
          "internalType": "uint256",
          "name": "",
          "type": "uint256"
        }
      ],
      "name": "productCodeToProduct",
      "outputs": [
        {
          "internalType": "uint256",
          "name": "productCode",
          "type": "uint256"
        },
        {
          "internalType": "string",
          "name": "productName",
          "type": "string"
        },
        {
          "internalType": "address",
          "name": "productProposerAddress",
          "type": "address"
        },
        {
          "internalType": "uint256",
          "name": "nutrimentsId",
          "type": "uint256"
        },
        {
          "internalType": "uint256",
          "name": "quantity",
          "type": "uint256"
        },
        {
          "internalType": "string",
          "name": "typeOfProduct",
          "type": "string"
        },
        {
          "internalType": "uint256",
          "name": "totalVotes",
          "type": "uint256"
        },
        {
          "internalType": "uint256",
          "name": "forVotes",
          "type": "uint256"
        },
        {
          "internalType": "uint256",
          "name": "againstVotes",
          "type": "uint256"
        },
        {
          "internalType": "bool",
          "name": "isValidated",
          "type": "bool"
        },
        {
          "internalType": "bool",
          "name": "isExist",
          "type": "bool"
        }
      ],
      "payable": false,
      "stateMutability": "view",
      "type": "function"
    },
    {
      "constant": true,
      "inputs": [
        {
          "internalType": "uint256",
          "name": "",
          "type": "uint256"
        }
      ],
      "name": "productCodeToProposalProduct",
      "outputs": [
        {
          "internalType": "uint256",
          "name": "productCode",
          "type": "uint256"
        },
        {
          "internalType": "string",
          "name": "productName",
          "type": "string"
        },
        {
          "internalType": "address",
          "name": "productProposerAddress",
          "type": "address"
        },
        {
          "internalType": "uint256",
          "name": "nutrimentsId",
          "type": "uint256"
        },
        {
          "internalType": "uint256",
          "name": "quantity",
          "type": "uint256"
        },
        {
          "internalType": "string",
          "name": "typeOfProduct",
          "type": "string"
        },
        {
          "internalType": "uint256",
          "name": "totalVotes",
          "type": "uint256"
        },
        {
          "internalType": "uint256",
          "name": "forVotes",
          "type": "uint256"
        },
        {
          "internalType": "uint256",
          "name": "againstVotes",
          "type": "uint256"
        },
        {
          "internalType": "bool",
          "name": "isValidated",
          "type": "bool"
        },
        {
          "internalType": "bool",
          "name": "isExist",
          "type": "bool"
        }
      ],
      "payable": false,
      "stateMutability": "view",
      "type": "function"
    },
    {
      "constant": false,
      "inputs": [
        {
          "internalType": "uint256",
          "name": "_productCode",
          "type": "uint256"
        },
        {
          "internalType": "string",
          "name": "_productName",
          "type": "string"
        },
        {
          "internalType": "string[]",
          "name": "_labels",
          "type": "string[]"
        },
        {
          "internalType": "string[]",
          "name": "_ingredients",
          "type": "string[]"
        },
        {
          "internalType": "uint256",
          "name": "_quantity",
          "type": "uint256"
        },
        {
          "internalType": "string",
          "name": "_typeOfProduct",
          "type": "string"
        },
        {
          "internalType": "string[]",
          "name": "_packaging",
          "type": "string[]"
        },
        {
          "components": [
            {
              "internalType": "string",
              "name": "energy",
              "type": "string"
            },
            {
              "internalType": "string",
              "name": "energy_kcal",
              "type": "string"
            },
            {
              "internalType": "string",
              "name": "proteines",
              "type": "string"
            },
            {
              "internalType": "string",
              "name": "carbohydrates",
              "type": "string"
            },
            {
              "internalType": "string",
              "name": "salt",
              "type": "string"
            },
            {
              "internalType": "string",
              "name": "sugars",
              "type": "string"
            },
            {
              "internalType": "string",
              "name": "fat",
              "type": "string"
            },
            {
              "internalType": "string",
              "name": "saturated_fat",
              "type": "string"
            },
            {
              "internalType": "string",
              "name": "fiber",
              "type": "string"
            },
            {
              "internalType": "string",
              "name": "sodium",
              "type": "string"
            }
          ],
          "internalType": "struct DataTest.Nutriments",
          "name": "_nutriments",
          "type": "tuple"
        },
        {
          "internalType": "string[]",
          "name": "_additifs",
          "type": "string[]"
        }
      ],
      "name": "addProductToProposal",
      "outputs": [],
      "payable": false,
      "stateMutability": "nonpayable",
      "type": "function"
    },
    {
      "constant": true,
      "inputs": [],
      "name": "getRole",
      "outputs": [
        {
          "internalType": "enum DataTest.Role",
          "name": "",
          "type": "uint8"
        }
      ],
      "payable": false,
      "stateMutability": "view",
      "type": "function"
    },
    {
      "constant": true,
      "inputs": [
        {
          "internalType": "uint256",
          "name": "_productCode",
          "type": "uint256"
        }
      ],
      "name": "checkProductIsNew",
      "outputs": [
        {
          "internalType": "bool",
          "name": "",
          "type": "bool"
        }
      ],
      "payable": false,
      "stateMutability": "view",
      "type": "function"
    },
    {
      "constant": true,
      "inputs": [],
      "name": "getProductsVoting",
      "outputs": [
        {
          "components": [
            {
              "internalType": "uint256",
              "name": "productCode",
              "type": "uint256"
            },
            {
              "internalType": "string",
              "name": "productName",
              "type": "string"
            },
            {
              "internalType": "address",
              "name": "productProposerAddress",
              "type": "address"
            },
            {
              "internalType": "string[]",
              "name": "labels",
              "type": "string[]"
            },
            {
              "internalType": "uint256",
              "name": "nutrimentsId",
              "type": "uint256"
            },
            {
              "internalType": "string[]",
              "name": "ingredients",
              "type": "string[]"
            },
            {
              "internalType": "string[]",
              "name": "additifs",
              "type": "string[]"
            },
            {
              "internalType": "uint256",
              "name": "quantity",
              "type": "uint256"
            },
            {
              "internalType": "string",
              "name": "typeOfProduct",
              "type": "string"
            },
            {
              "internalType": "string[]",
              "name": "packaging",
              "type": "string[]"
            },
            {
              "internalType": "uint256",
              "name": "totalVotes",
              "type": "uint256"
            },
            {
              "internalType": "uint256",
              "name": "forVotes",
              "type": "uint256"
            },
            {
              "internalType": "uint256",
              "name": "againstVotes",
              "type": "uint256"
            },
            {
              "internalType": "uint256[2]",
              "name": "created_n_last_modif",
              "type": "uint256[2]"
            },
            {
              "internalType": "bool",
              "name": "isValidated",
              "type": "bool"
            },
            {
              "internalType": "bool",
              "name": "isExist",
              "type": "bool"
            }
          ],
          "internalType": "struct DataTest.Product[]",
          "name": "",
          "type": "tuple[]"
        },
        {
          "components": [
            {
              "internalType": "string",
              "name": "energy",
              "type": "string"
            },
            {
              "internalType": "string",
              "name": "energy_kcal",
              "type": "string"
            },
            {
              "internalType": "string",
              "name": "proteines",
              "type": "string"
            },
            {
              "internalType": "string",
              "name": "carbohydrates",
              "type": "string"
            },
            {
              "internalType": "string",
              "name": "salt",
              "type": "string"
            },
            {
              "internalType": "string",
              "name": "sugars",
              "type": "string"
            },
            {
              "internalType": "string",
              "name": "fat",
              "type": "string"
            },
            {
              "internalType": "string",
              "name": "saturated_fat",
              "type": "string"
            },
            {
              "internalType": "string",
              "name": "fiber",
              "type": "string"
            },
            {
              "internalType": "string",
              "name": "sodium",
              "type": "string"
            }
          ],
          "internalType": "struct DataTest.Nutriments[]",
          "name": "",
          "type": "tuple[]"
        }
      ],
      "payable": false,
      "stateMutability": "view",
      "type": "function"
    },
    {
      "constant": false,
      "inputs": [],
      "name": "subscribeUser",
      "outputs": [
        {
          "components": [
            {
              "internalType": "uint256",
              "name": "userId",
              "type": "uint256"
            },
            {
              "internalType": "enum DataTest.Role",
              "name": "role",
              "type": "uint8"
            },
            {
              "internalType": "uint256",
              "name": "lastTimeTokenGiven",
              "type": "uint256"
            },
            {
              "internalType": "int256",
              "name": "tokenNumber",
              "type": "int256"
            },
            {
              "internalType": "int256",
              "name": "reputation",
              "type": "int256"
            },
            {
              "internalType": "bool",
              "name": "isExist",
              "type": "bool"
            }
          ],
          "internalType": "struct DataTest.User",
          "name": "",
          "type": "tuple"
        }
      ],
      "payable": false,
      "stateMutability": "nonpayable",
      "type": "function"
    }
  ],
  "bytecode": "0x608060405234801561001057600080fd5b50336000806101000a81548173ffffffffffffffffffffffffffffffffffffffff021916908373ffffffffffffffffffffffffffffffffffffffff1602179055506040518060c00160405280600154815260200160028081111561007057fe5b8152602001428152602001600a81526020016000815260200160011515815250600460008060009054906101000a900473ffffffffffffffffffffffffffffffffffffffff1673ffffffffffffffffffffffffffffffffffffffff1673ffffffffffffffffffffffffffffffffffffffff1681526020019081526020016000206000820151816000015560208201518160010160006101000a81548160ff0219169083600281111561011e57fe5b021790555060408201518160020155606082015181600301556080820151816004015560a08201518160050160006101000a81548160ff02191690831515021790555090505060016000815480929190600101919050555061371f80620001866000396000f3fe608060405234801561001057600080fd5b50600436106100935760003560e01c80636c9672ff116100665780636c9672ff14610146578063d54d6c7014610164578063eafc9df31461019e578063edf53886146101ce578063fde081741461020357610093565b80630574d8081461009857806313431cc5146100d157806357dd1992146100f057806361ef3c151461010c575b600080fd5b6100b260048036036100ad91908101906129e9565b610221565b6040516100c89a9998979695949392919061320e565b60405180910390f35b6100d9610865565b6040516100e79291906131a1565b60405180910390f35b61010a60048036036101059190810190612a12565b611571565b005b610126600480360361012191908101906129e9565b611d38565b60405161013d9b9a9998979695949392919061336c565b60405180910390f35b61014e611efc565b60405161015b91906132f0565b60405180910390f35b61017e600480360361017991908101906129e9565b612099565b6040516101959b9a9998979695949392919061336c565b60405180910390f35b6101b860048036036101b391908101906129e9565b61225d565b6040516101c591906131d8565b60405180910390f35b6101e860048036036101e391908101906129c0565b6122dd565b6040516101fa9695949392919061330b565b60405180910390f35b61020b612333565b60405161021891906131f3565b60405180910390f35b6007602052806000526040600020600091509050806000018054600181600116156101000203166002900480601f0160208091040260200160405190810160405280929190818152602001828054600181600116156101000203166002900480156102cd5780601f106102a2576101008083540402835291602001916102cd565b820191906000526020600020905b8154815290600101906020018083116102b057829003601f168201915b505050505090806001018054600181600116156101000203166002900480601f01602080910402602001604051908101604052809291908181526020018280546001816001161561010002031660029004801561036b5780601f106103405761010080835404028352916020019161036b565b820191906000526020600020905b81548152906001019060200180831161034e57829003601f168201915b505050505090806002018054600181600116156101000203166002900480601f0160208091040260200160405190810160405280929190818152602001828054600181600116156101000203166002900480156104095780601f106103de57610100808354040283529160200191610409565b820191906000526020600020905b8154815290600101906020018083116103ec57829003601f168201915b505050505090806003018054600181600116156101000203166002900480601f0160208091040260200160405190810160405280929190818152602001828054600181600116156101000203166002900480156104a75780601f1061047c576101008083540402835291602001916104a7565b820191906000526020600020905b81548152906001019060200180831161048a57829003601f168201915b505050505090806004018054600181600116156101000203166002900480601f0160208091040260200160405190810160405280929190818152602001828054600181600116156101000203166002900480156105455780601f1061051a57610100808354040283529160200191610545565b820191906000526020600020905b81548152906001019060200180831161052857829003601f168201915b505050505090806005018054600181600116156101000203166002900480601f0160208091040260200160405190810160405280929190818152602001828054600181600116156101000203166002900480156105e35780601f106105b8576101008083540402835291602001916105e3565b820191906000526020600020905b8154815290600101906020018083116105c657829003601f168201915b505050505090806006018054600181600116156101000203166002900480601f0160208091040260200160405190810160405280929190818152602001828054600181600116156101000203166002900480156106815780601f1061065657610100808354040283529160200191610681565b820191906000526020600020905b81548152906001019060200180831161066457829003601f168201915b505050505090806007018054600181600116156101000203166002900480601f01602080910402602001604051908101604052809291908181526020018280546001816001161561010002031660029004801561071f5780601f106106f45761010080835404028352916020019161071f565b820191906000526020600020905b81548152906001019060200180831161070257829003601f168201915b505050505090806008018054600181600116156101000203166002900480601f0160208091040260200160405190810160405280929190818152602001828054600181600116156101000203166002900480156107bd5780601f10610792576101008083540402835291602001916107bd565b820191906000526020600020905b8154815290600101906020018083116107a057829003601f168201915b505050505090806009018054600181600116156101000203166002900480601f01602080910402602001604051908101604052809291908181526020018280546001816001161561010002031660029004801561085b5780601f106108305761010080835404028352916020019161085b565b820191906000526020600020905b81548152906001019060200180831161083e57829003601f168201915b505050505090508a565b6060806002600381805480602002602001604051908101604052809291908181526020016000905b82821015610eb557838290600052602060002090601002016040518061020001604052908160008201548152602001600182018054600181600116156101000203166002900480601f0160208091040260200160405190810160405280929190818152602001828054600181600116156101000203166002900480156109545780601f1061092957610100808354040283529160200191610954565b820191906000526020600020905b81548152906001019060200180831161093757829003601f168201915b505050505081526020016002820160009054906101000a900473ffffffffffffffffffffffffffffffffffffffff1673ffffffffffffffffffffffffffffffffffffffff1673ffffffffffffffffffffffffffffffffffffffff16815260200160038201805480602002602001604051908101604052809291908181526020016000905b82821015610a94578382906000526020600020018054600181600116156101000203166002900480601f016020809104026020016040519081016040528092919081815260200182805460018160011615610100020316600290048015610a805780601f10610a5557610100808354040283529160200191610a80565b820191906000526020600020905b815481529060010190602001808311610a6357829003601f168201915b5050505050815260200190600101906109d8565b5050505081526020016004820154815260200160058201805480602002602001604051908101604052809291908181526020016000905b82821015610b87578382906000526020600020018054600181600116156101000203166002900480601f016020809104026020016040519081016040528092919081815260200182805460018160011615610100020316600290048015610b735780601f10610b4857610100808354040283529160200191610b73565b820191906000526020600020905b815481529060010190602001808311610b5657829003601f168201915b505050505081526020019060010190610acb565b50505050815260200160068201805480602002602001604051908101604052809291908181526020016000905b82821015610c70578382906000526020600020018054600181600116156101000203166002900480601f016020809104026020016040519081016040528092919081815260200182805460018160011615610100020316600290048015610c5c5780601f10610c3157610100808354040283529160200191610c5c565b820191906000526020600020905b815481529060010190602001808311610c3f57829003601f168201915b505050505081526020019060010190610bb4565b50505050815260200160078201548152602001600882018054600181600116156101000203166002900480601f016020809104026020016040519081016040528092919081815260200182805460018160011615610100020316600290048015610d1b5780601f10610cf057610100808354040283529160200191610d1b565b820191906000526020600020905b815481529060010190602001808311610cfe57829003601f168201915b5050505050815260200160098201805480602002602001604051908101604052809291908181526020016000905b82821015610e05578382906000526020600020018054600181600116156101000203166002900480601f016020809104026020016040519081016040528092919081815260200182805460018160011615610100020316600290048015610df15780601f10610dc657610100808354040283529160200191610df1565b820191906000526020600020905b815481529060010190602001808311610dd457829003601f168201915b505050505081526020019060010190610d49565b505050508152602001600a8201548152602001600b8201548152602001600c8201548152602001600d8201600280602002604051908101604052809291908260028015610e67576020028201915b815481526020019060010190808311610e53575b50505050508152602001600f820160009054906101000a900460ff16151515158152602001600f820160019054906101000a900460ff1615151515815250508152602001906001019061088d565b50505050915080805480602002602001604051908101604052809291908181526020016000905b8282101561156357838290600052602060002090600a020160405180610140016040529081600082018054600181600116156101000203166002900480601f016020809104026020016040519081016040528092919081815260200182805460018160011615610100020316600290048015610f995780601f10610f6e57610100808354040283529160200191610f99565b820191906000526020600020905b815481529060010190602001808311610f7c57829003601f168201915b50505050508152602001600182018054600181600116156101000203166002900480601f01602080910402602001604051908101604052809291908181526020018280546001816001161561010002031660029004801561103b5780601f106110105761010080835404028352916020019161103b565b820191906000526020600020905b81548152906001019060200180831161101e57829003601f168201915b50505050508152602001600282018054600181600116156101000203166002900480601f0160208091040260200160405190810160405280929190818152602001828054600181600116156101000203166002900480156110dd5780601f106110b2576101008083540402835291602001916110dd565b820191906000526020600020905b8154815290600101906020018083116110c057829003601f168201915b50505050508152602001600382018054600181600116156101000203166002900480601f01602080910402602001604051908101604052809291908181526020018280546001816001161561010002031660029004801561117f5780601f106111545761010080835404028352916020019161117f565b820191906000526020600020905b81548152906001019060200180831161116257829003601f168201915b50505050508152602001600482018054600181600116156101000203166002900480601f0160208091040260200160405190810160405280929190818152602001828054600181600116156101000203166002900480156112215780601f106111f657610100808354040283529160200191611221565b820191906000526020600020905b81548152906001019060200180831161120457829003601f168201915b50505050508152602001600582018054600181600116156101000203166002900480601f0160208091040260200160405190810160405280929190818152602001828054600181600116156101000203166002900480156112c35780601f10611298576101008083540402835291602001916112c3565b820191906000526020600020905b8154815290600101906020018083116112a657829003601f168201915b50505050508152602001600682018054600181600116156101000203166002900480601f0160208091040260200160405190810160405280929190818152602001828054600181600116156101000203166002900480156113655780601f1061133a57610100808354040283529160200191611365565b820191906000526020600020905b81548152906001019060200180831161134857829003601f168201915b50505050508152602001600782018054600181600116156101000203166002900480601f0160208091040260200160405190810160405280929190818152602001828054600181600116156101000203166002900480156114075780601f106113dc57610100808354040283529160200191611407565b820191906000526020600020905b8154815290600101906020018083116113ea57829003601f168201915b50505050508152602001600882018054600181600116156101000203166002900480601f0160208091040260200160405190810160405280929190818152602001828054600181600116156101000203166002900480156114a95780601f1061147e576101008083540402835291602001916114a9565b820191906000526020600020905b81548152906001019060200180831161148c57829003601f168201915b50505050508152602001600982018054600181600116156101000203166002900480601f01602080910402602001604051908101604052809291908181526020018280546001816001161561010002031660029004801561154b5780601f106115205761010080835404028352916020019161154b565b820191906000526020600020905b81548152906001019060200180831161152e57829003601f168201915b50505050508152505081526020019060010190610edc565b505050509050915091509091565b600660008a8152602001908152602001600020600f0160019054906101000a900460ff161561159f57600080fd5b6115a761238a565b6115af612427565b8a82600001818152505089826020018190525033826040019073ffffffffffffffffffffffffffffffffffffffff16908173ffffffffffffffffffffffffffffffffffffffff1681525050888260600181905250878260a00181905250828260c00181905250868260e001818152505085826101000181905250848261012001819052506000826101c00190151590811515815250506001826101e0019015159081151581525050604051806040016040528042815260200142815250826101a001819052508a82608001818152505081600560008d81526020019081526020016000206000820151816000015560208201518160010190805190602001906116b992919061247a565b5060408201518160020160006101000a81548173ffffffffffffffffffffffffffffffffffffffff021916908373ffffffffffffffffffffffffffffffffffffffff160217905550606082015181600301908051906020019061171d9291906124fa565b506080820151816004015560a08201518160050190805190602001906117449291906124fa565b5060c08201518160060190805190602001906117619291906124fa565b5060e0820151816007015561010082015181600801908051906020019061178992919061247a565b506101208201518160090190805190602001906117a79291906124fa565b5061014082015181600a015561016082015181600b015561018082015181600c01556101a082015181600d019060026117e192919061255a565b506101c082015181600f0160006101000a81548160ff0219169083151502179055506101e082015181600f0160016101000a81548160ff0219169083151502179055509050506002829080600181540180825580915050906001820390600052602060002090601002016000909192909190915060008201518160000155602082015181600101908051906020019061187b92919061247a565b5060408201518160020160006101000a81548173ffffffffffffffffffffffffffffffffffffffff021916908373ffffffffffffffffffffffffffffffffffffffff16021790555060608201518160030190805190602001906118df9291906124fa565b506080820151816004015560a08201518160050190805190602001906119069291906124fa565b5060c08201518160060190805190602001906119239291906124fa565b5060e0820151816007015561010082015181600801908051906020019061194b92919061247a565b506101208201518160090190805190602001906119699291906124fa565b5061014082015181600a015561016082015181600b015561018082015181600c01556101a082015181600d019060026119a392919061255a565b506101c082015181600f0160006101000a81548160ff0219169083151502179055506101e082015181600f0160016101000a81548160ff02191690831515021790555050505083606001518160600181905250836000015181600001819052508360200151816020018190525083604001518160400181905250836080015181608001819052508360a001518160a001819052508360c001518160c001819052508360e001518160e001819052508360c0015181610100018190525083610120015181610120018190525080600760008d81526020019081526020016000206000820151816000019080519060200190611a9e92919061247a565b506020820151816001019080519060200190611abb92919061247a565b506040820151816002019080519060200190611ad892919061247a565b506060820151816003019080519060200190611af592919061247a565b506080820151816004019080519060200190611b1292919061247a565b5060a0820151816005019080519060200190611b2f92919061247a565b5060c0820151816006019080519060200190611b4c92919061247a565b5060e0820151816007019080519060200190611b6992919061247a565b50610100820151816008019080519060200190611b8792919061247a565b50610120820151816009019080519060200190611ba592919061247a565b509050506003819080600181540180825580915050906001820390600052602060002090600a0201600090919290919091506000820151816000019080519060200190611bf392919061247a565b506020820151816001019080519060200190611c1092919061247a565b506040820151816002019080519060200190611c2d92919061247a565b506060820151816003019080519060200190611c4a92919061247a565b506080820151816004019080519060200190611c6792919061247a565b5060a0820151816005019080519060200190611c8492919061247a565b5060c0820151816006019080519060200190611ca192919061247a565b5060e0820151816007019080519060200190611cbe92919061247a565b50610100820151816008019080519060200190611cdc92919061247a565b50610120820151816009019080519060200190611cfa92919061247a565b505050508a7f62d016d4371415f3ad23ef71ccf53e281dea50c5b60ac3cce1b1ec9eb45226cc60405160405180910390a25050505050505050505050565b6006602052806000526040600020600091509050806000015490806001018054600181600116156101000203166002900480601f016020809104026020016040519081016040528092919081815260200182805460018160011615610100020316600290048015611dea5780601f10611dbf57610100808354040283529160200191611dea565b820191906000526020600020905b815481529060010190602001808311611dcd57829003601f168201915b5050505050908060020160009054906101000a900473ffffffffffffffffffffffffffffffffffffffff1690806004015490806007015490806008018054600181600116156101000203166002900480601f016020809104026020016040519081016040528092919081815260200182805460018160011615610100020316600290048015611eba5780601f10611e8f57610100808354040283529160200191611eba565b820191906000526020600020905b815481529060010190602001808311611e9d57829003601f168201915b50505050509080600a01549080600b01549080600c01549080600f0160009054906101000a900460ff169080600f0160019054906101000a900460ff1690508b565b611f0461259a565b60001515600460003373ffffffffffffffffffffffffffffffffffffffff1673ffffffffffffffffffffffffffffffffffffffff16815260200190815260200160002060050160009054906101000a900460ff16151514611f6457600080fd5b611f6c61259a565b600154816000018181525050600081602001906002811115611f8a57fe5b90816002811115611f9757fe5b81525050428160400181815250506005816060018181525050603281608001818152505060018160a001901515908115158152505060016000815480929190600101919050555080600460003373ffffffffffffffffffffffffffffffffffffffff1673ffffffffffffffffffffffffffffffffffffffff1681526020019081526020016000206000820151816000015560208201518160010160006101000a81548160ff0219169083600281111561204c57fe5b021790555060408201518160020155606082015181600301556080820151816004015560a08201518160050160006101000a81548160ff0219169083151502179055509050508091505090565b6005602052806000526040600020600091509050806000015490806001018054600181600116156101000203166002900480601f01602080910402602001604051908101604052809291908181526020018280546001816001161561010002031660029004801561214b5780601f106121205761010080835404028352916020019161214b565b820191906000526020600020905b81548152906001019060200180831161212e57829003601f168201915b5050505050908060020160009054906101000a900473ffffffffffffffffffffffffffffffffffffffff1690806004015490806007015490806008018054600181600116156101000203166002900480601f01602080910402602001604051908101604052809291908181526020018280546001816001161561010002031660029004801561221b5780601f106121f05761010080835404028352916020019161221b565b820191906000526020600020905b8154815290600101906020018083116121fe57829003601f168201915b50505050509080600a01549080600b01549080600c01549080600f0160009054906101000a900460ff169080600f0160019054906101000a900460ff1690508b565b600081650102b36211c7811161227257600080fd5b60056000848152602001908152602001600020600f0160019054906101000a900460ff161580156122c4575060066000848152602001908152602001600020600f0160019054906101000a900460ff16155b156122d257600191506122d7565b600091505b50919050565b60046020528060005260406000206000915090508060000154908060010160009054906101000a900460ff16908060020154908060030154908060040154908060050160009054906101000a900460ff16905086565b6000600460003373ffffffffffffffffffffffffffffffffffffffff1673ffffffffffffffffffffffffffffffffffffffff16815260200190815260200160002060010160009054906101000a900460ff16905090565b6040518061020001604052806000815260200160608152602001600073ffffffffffffffffffffffffffffffffffffffff1681526020016060815260200160008152602001606081526020016060815260200160008152602001606081526020016060815260200160008152602001600081526020016000815260200161240f6125dd565b81526020016000151581526020016000151581525090565b604051806101400160405280606081526020016060815260200160608152602001606081526020016060815260200160608152602001606081526020016060815260200160608152602001606081525090565b828054600181600116156101000203166002900490600052602060002090601f016020900481019282601f106124bb57805160ff19168380011785556124e9565b828001600101855582156124e9579182015b828111156124e85782518255916020019190600101906124cd565b5b5090506124f691906125ff565b5090565b828054828255906000526020600020908101928215612549579160200282015b8281111561254857825182908051906020019061253892919061247a565b509160200191906001019061251a565b5b5090506125569190612624565b5090565b8260028101928215612589579160200282015b8281111561258857825182559160200191906001019061256d565b5b50905061259691906125ff565b5090565b6040518060c0016040528060008152602001600060028111156125b957fe5b81526020016000815260200160008152602001600081526020016000151581525090565b6040518060400160405280600290602082028038833980820191505090505090565b61262191905b8082111561261d576000816000905550600101612605565b5090565b90565b61264d91905b8082111561264957600081816126409190612650565b5060010161262a565b5090565b90565b50805460018160011615610100020316600290046000825580601f106126765750612695565b601f01602090049060005260206000209081019061269491906125ff565b5b50565b6000813590506126a7816136ae565b92915050565b600082601f8301126126be57600080fd5b81356126d16126cc82613452565b613425565b9150818183526020840193506020810190508360005b8381101561271757813586016126fd8882612721565b8452602084019350602083019250506001810190506126e7565b5050505092915050565b600082601f83011261273257600080fd5b81356127456127408261347a565b613425565b9150808252602083016020830185838301111561276157600080fd5b61276c83828461364e565b50505092915050565b600082601f83011261278657600080fd5b8135612799612794826134a6565b613425565b915080825260208301602083018583830111156127b557600080fd5b6127c083828461364e565b50505092915050565b600061014082840312156127dc57600080fd5b6127e7610140613425565b9050600082013567ffffffffffffffff81111561280357600080fd5b61280f84828501612721565b600083015250602082013567ffffffffffffffff81111561282f57600080fd5b61283b84828501612721565b602083015250604082013567ffffffffffffffff81111561285b57600080fd5b61286784828501612721565b604083015250606082013567ffffffffffffffff81111561288757600080fd5b61289384828501612721565b606083015250608082013567ffffffffffffffff8111156128b357600080fd5b6128bf84828501612721565b60808301525060a082013567ffffffffffffffff8111156128df57600080fd5b6128eb84828501612721565b60a08301525060c082013567ffffffffffffffff81111561290b57600080fd5b61291784828501612721565b60c08301525060e082013567ffffffffffffffff81111561293757600080fd5b61294384828501612721565b60e08301525061010082013567ffffffffffffffff81111561296457600080fd5b61297084828501612721565b6101008301525061012082013567ffffffffffffffff81111561299257600080fd5b61299e84828501612721565b6101208301525092915050565b6000813590506129ba816136c5565b92915050565b6000602082840312156129d257600080fd5b60006129e084828501612698565b91505092915050565b6000602082840312156129fb57600080fd5b6000612a09848285016129ab565b91505092915050565b60008060008060008060008060006101208a8c031215612a3157600080fd5b6000612a3f8c828d016129ab565b99505060208a013567ffffffffffffffff811115612a5c57600080fd5b612a688c828d01612775565b98505060408a013567ffffffffffffffff811115612a8557600080fd5b612a918c828d016126ad565b97505060608a013567ffffffffffffffff811115612aae57600080fd5b612aba8c828d016126ad565b9650506080612acb8c828d016129ab565b95505060a08a013567ffffffffffffffff811115612ae857600080fd5b612af48c828d01612775565b94505060c08a013567ffffffffffffffff811115612b1157600080fd5b612b1d8c828d016126ad565b93505060e08a013567ffffffffffffffff811115612b3a57600080fd5b612b468c828d016127c9565b9250506101008a013567ffffffffffffffff811115612b6457600080fd5b612b708c828d016126ad565b9150509295985092959850929598565b6000612b8c8383612e02565b905092915050565b6000612ba08383612e74565b905092915050565b6000612bb48383612f8d565b905092915050565b6000612bc88383613183565b60208301905092915050565b612bdd816135d7565b82525050565b612bec816135d7565b82525050565b6000612bfd8261350c565b612c078185613577565b935083602082028501612c19856134d2565b8060005b85811015612c555784840389528151612c368582612b80565b9450612c4183613543565b925060208a01995050600181019050612c1d565b50829750879550505050505092915050565b6000612c7282613517565b612c7c8185613588565b935083602082028501612c8e856134e2565b8060005b85811015612cca5784840389528151612cab8582612b94565b9450612cb683613550565b925060208a01995050600181019050612c92565b50829750879550505050505092915050565b6000612ce782613522565b612cf18185613599565b935083602082028501612d03856134f2565b8060005b85811015612d3f5784840389528151612d208582612ba8565b9450612d2b8361355d565b925060208a01995050600181019050612d07565b50829750879550505050505092915050565b612d5a8161352d565b612d6481846135aa565b9250612d6f82613502565b8060005b83811015612da0578151612d878782612bbc565b9650612d928361356a565b925050600181019050612d73565b505050505050565b612db1816135e9565b82525050565b612dc0816135e9565b82525050565b612dcf8161363c565b82525050565b612dde8161363c565b82525050565b612ded81613608565b82525050565b612dfc81613608565b82525050565b6000612e0d82613538565b612e1781856135b5565b9350612e2781856020860161365d565b612e3081613690565b840191505092915050565b6000612e4682613538565b612e5081856135c6565b9350612e6081856020860161365d565b612e6981613690565b840191505092915050565b6000610140830160008301518482036000860152612e928282612e02565b91505060208301518482036020860152612eac8282612e02565b91505060408301518482036040860152612ec68282612e02565b91505060608301518482036060860152612ee08282612e02565b91505060808301518482036080860152612efa8282612e02565b91505060a083015184820360a0860152612f148282612e02565b91505060c083015184820360c0860152612f2e8282612e02565b91505060e083015184820360e0860152612f488282612e02565b915050610100830151848203610100860152612f648282612e02565b915050610120830151848203610120860152612f808282612e02565b9150508091505092915050565b600061022083016000830151612fa66000860182613183565b5060208301518482036020860152612fbe8282612e02565b9150506040830151612fd36040860182612bd4565b5060608301518482036060860152612feb8282612bf2565b91505060808301516130006080860182613183565b5060a083015184820360a08601526130188282612bf2565b91505060c083015184820360c08601526130328282612bf2565b91505060e083015161304760e0860182613183565b506101008301518482036101008601526130618282612e02565b91505061012083015184820361012086015261307d8282612bf2565b915050610140830151613094610140860182613183565b506101608301516130a9610160860182613183565b506101808301516130be610180860182613183565b506101a08301516130d36101a0860182612d51565b506101c08301516130e86101e0860182612da8565b506101e08301516130fd610200860182612da8565b508091505092915050565b60c08201600082015161311e6000850182613183565b5060208201516131316020850182612dc6565b5060408201516131446040850182613183565b5060608201516131576060850182612de4565b50608082015161316a6080850182612de4565b5060a082015161317d60a0850182612da8565b50505050565b61318c81613632565b82525050565b61319b81613632565b82525050565b600060408201905081810360008301526131bb8185612cdc565b905081810360208301526131cf8184612c67565b90509392505050565b60006020820190506131ed6000830184612db7565b92915050565b60006020820190506132086000830184612dd5565b92915050565b6000610140820190508181036000830152613229818d612e3b565b9050818103602083015261323d818c612e3b565b90508181036040830152613251818b612e3b565b90508181036060830152613265818a612e3b565b905081810360808301526132798189612e3b565b905081810360a083015261328d8188612e3b565b905081810360c08301526132a18187612e3b565b905081810360e08301526132b58186612e3b565b90508181036101008301526132ca8185612e3b565b90508181036101208301526132df8184612e3b565b90509b9a5050505050505050505050565b600060c0820190506133056000830184613108565b92915050565b600060c0820190506133206000830189613192565b61332d6020830188612dd5565b61333a6040830187613192565b6133476060830186612df3565b6133546080830185612df3565b61336160a0830184612db7565b979650505050505050565b600061016082019050613382600083018e613192565b8181036020830152613394818d612e3b565b90506133a3604083018c612be3565b6133b0606083018b613192565b6133bd608083018a613192565b81810360a08301526133cf8189612e3b565b90506133de60c0830188613192565b6133eb60e0830187613192565b6133f9610100830186613192565b613407610120830185612db7565b613415610140830184612db7565b9c9b505050505050505050505050565b6000604051905081810181811067ffffffffffffffff8211171561344857600080fd5b8060405250919050565b600067ffffffffffffffff82111561346957600080fd5b602082029050602081019050919050565b600067ffffffffffffffff82111561349157600080fd5b601f19601f8301169050602081019050919050565b600067ffffffffffffffff8211156134bd57600080fd5b601f19601f8301169050602081019050919050565b6000819050602082019050919050565b6000819050602082019050919050565b6000819050602082019050919050565b6000819050919050565b600081519050919050565b600081519050919050565b600081519050919050565b600060029050919050565b600081519050919050565b6000602082019050919050565b6000602082019050919050565b6000602082019050919050565b6000602082019050919050565b600082825260208201905092915050565b600082825260208201905092915050565b600082825260208201905092915050565b600081905092915050565b600082825260208201905092915050565b600082825260208201905092915050565b60006135e282613612565b9050919050565b60008115159050919050565b6000819050613603826136a1565b919050565b6000819050919050565b600073ffffffffffffffffffffffffffffffffffffffff82169050919050565b6000819050919050565b6000613647826135f5565b9050919050565b82818337600083830152505050565b60005b8381101561367b578082015181840152602081019050613660565b8381111561368a576000848401525b50505050565b6000601f19601f8301169050919050565b600381106136ab57fe5b50565b6136b7816135d7565b81146136c257600080fd5b50565b6136ce81613632565b81146136d957600080fd5b5056fea365627a7a72315820df56c62a4de34bffbb8c5c377dff64b5e6b64d82ea3661afd71034452eec6d226c6578706572696d656e74616cf564736f6c63430005100040",
  "source": "pragma solidity 0.5.16;\r\npragma experimental ABIEncoderV2;\r\n\r\n\r\n\r\n/**\r\n @title DataLabelChain contract\r\n @author Fabrice Tapia\r\n @dev Contract which is a part of the Alyra's Final Project : Eat Healthy LabelChain\r\n */\r\n\r\ncontract DataTest {\r\n\r\n  enum Role {CUSTOMER, SELLER, ADMIN}\r\n  struct User{\r\n    uint userId;\r\n    Role role;\r\n    uint lastTimeTokenGiven;\r\n    int tokenNumber;\r\n    int reputation;\r\n    bool isExist;\r\n  }\r\n\r\n\r\n  struct Product{\r\n    // uint productId;\r\n    uint productCode;\r\n    string productName;\r\n    address productProposerAddress;\r\n    string[] labels;\r\n    uint nutrimentsId;\r\n    string[] ingredients;\r\n    string[] additifs;\r\n    uint quantity;\r\n    string typeOfProduct;\r\n    string[] packaging;\r\n    uint totalVotes;\r\n    uint forVotes;\r\n    uint againstVotes;\r\n    uint[2] created_n_last_modif;\r\n    //  bytes32 hash;\r\n    bool isValidated;\r\n    bool isExist;\r\n  }\r\n\r\n  struct Nutriments {\r\n    string energy;\r\n    string energy_kcal;\r\n    string proteines;\r\n    string carbohydrates;\r\n    string salt;\r\n    string sugars;\r\n    string fat;\r\n    string saturated_fat;\r\n    string fiber;\r\n    string sodium;\r\n  }\r\n\r\n  address private _owner;\r\n\r\n  uint uniqueIdUser;\r\n\r\n  Product[] ProposalProducts;\r\n\r\n  Nutriments[] ProposalNutriments;\r\n\r\n  mapping(address => User) public addressToUser;\r\n\r\n  mapping(uint => Product) public productCodeToProposalProduct;\r\n\r\n  mapping(uint => Product) public productCodeToProduct;\r\n\r\n  mapping(uint => Nutriments) public productCodeToNutriments;\r\n\r\n  event TriggerAddProduct(uint indexed idProduct);\r\n\r\n  constructor() public {\r\n    _owner = msg.sender;\r\n    addressToUser[_owner] = User(uniqueIdUser, Role.ADMIN, now, 10, 0,true);\r\n    uniqueIdUser++;\r\n  }\r\n\r\n//  modifier checkProductIsNew (uint productCode) {\r\n//    require(!productCodeToProduct[productCode].isExist);\r\n//    _;\r\n//  }\r\n//\r\n//\r\n//  modifier checkProductProposalIsNew (uint productCode) {\r\n//    require(!productCodeToProduct[productCode].isExist);\r\n//    _;\r\n//  }\r\n\r\n  modifier checkLengthGS1 (uint productCode){\r\n    require(productCode > 1111111111111);\r\n    _;\r\n  }\r\n/*\r\n  function getProduct(uint productCode) view public returns(Product){\r\n    return productCodeToProduct[productCode];\r\n  }*/\r\n\r\n\r\n  function addProductToProposal(\r\n    uint _productCode,\r\n    string memory _productName,\r\n    string[] memory _labels,\r\n    string[] memory _ingredients,\r\n    uint _quantity,\r\n    string memory _typeOfProduct,\r\n    string[] memory _packaging,\r\n    Nutriments memory _nutriments,\r\n    string[] memory _additifs\r\n\r\n  ) public {\r\n    require(!productCodeToProduct[_productCode].isExist);\r\n    Product memory _product;\r\n    Nutriments memory _nutrimentsObject;\r\n    _product.productCode = _productCode;\r\n    _product.productName = _productName;\r\n    _product.productProposerAddress = msg.sender;\r\n    _product.labels = _labels;\r\n    _product.ingredients = _ingredients;\r\n    _product.additifs = _additifs;\r\n    _product.quantity = _quantity;\r\n    _product.typeOfProduct = _typeOfProduct;\r\n    _product.packaging = _packaging;\r\n    _product.isValidated = false;\r\n    _product.isExist = true;\r\n    _product.created_n_last_modif = [now, now];\r\n    _product.nutrimentsId = _productCode;\r\n    // productCodeToNutriments[_productCode] = _nutriments;\r\n   // _product.hash = keccak256(abi.encodePacked(_product.productName,_product.productProposerAddress, _product.quantity));\r\n    productCodeToProposalProduct[_productCode] = _product;\r\n    ProposalProducts.push(_product);\r\n\r\n    _nutrimentsObject.carbohydrates = _nutriments.carbohydrates;\r\n    _nutrimentsObject.energy = _nutriments.energy;\r\n    _nutrimentsObject.energy_kcal = _nutriments.energy_kcal;\r\n    _nutrimentsObject.proteines = _nutriments.proteines;\r\n    _nutrimentsObject.salt = _nutriments.salt;\r\n    _nutrimentsObject.sugars = _nutriments.sugars;\r\n    _nutrimentsObject.fat = _nutriments.fat;\r\n    _nutrimentsObject.saturated_fat = _nutriments.saturated_fat;\r\n    _nutrimentsObject.fiber = _nutriments.fat;\r\n    _nutrimentsObject.sodium = _nutriments.sodium;\r\n    productCodeToNutriments[_productCode] = _nutrimentsObject;\r\n    ProposalNutriments.push(_nutrimentsObject);\r\n    emit TriggerAddProduct(_productCode);\r\n    // keccak256(abi.encodePacked(_productCode,_productName,msg.sender,_labels,_ingredients,_nutriments,_quantity,_typeOfProduct,_packaging))\r\n  }\r\n\r\n  function getRole() public view returns (Role) {\r\n    return addressToUser[msg.sender].role;\r\n  }\r\n\r\n\r\n  // To add a product in proposal, we need to check if the product doesn't already exist in mappings of products\r\n  function checkProductIsNew (uint _productCode) public view checkLengthGS1(_productCode) returns (bool) {\r\n    if(!productCodeToProposalProduct[_productCode].isExist && !productCodeToProduct[_productCode].isExist){\r\n      return true;\r\n    }else{\r\n      return false;\r\n    }\r\n  }\r\n\r\n  function getProductsVoting() public view returns(Product[] memory, Nutriments[] memory){\r\n    return (ProposalProducts, ProposalNutriments);\r\n  }\r\n\r\n  function subscribeUser() public returns (User memory) {\r\n    require(addressToUser[msg.sender].isExist == false);\r\n    User memory user;\r\n    user.userId = uniqueIdUser;\r\n    user.role = Role.CUSTOMER;\r\n    user.lastTimeTokenGiven = now;\r\n    user.tokenNumber = 5;\r\n    user.reputation = 50;\r\n    user.isExist = true;\r\n    uniqueIdUser++;\r\n    addressToUser[msg.sender] = user;\r\n    return user;\r\n  }\r\n}\r\n",
  "sourcePath": "C:\\Users\\Fabrice\\Desktop\\Project_EatHealthyLabelChain\\EatHealthyLabelChain\\contracts\\dataTest.sol",
  "compiler": {
    "name": "solc",
    "version": "0.5.16+commit.9c3226ce.Emscripten.clang"
  },
  "schemaVersion": "3.2.0",
  "updatedAt": "2020-07-10T18:26:06.395Z",
  "networkType": "ethereum",
  "devdoc": {
    "author": "Fabrice Tapia",
    "details": "Contract which is a part of the Alyra's Final Project : Eat Healthy LabelChain",
    "methods": {},
    "title": "DataLabelChain contract"
  },
  "userdoc": {
    "methods": {}
  }
}