{
  "contractName": "EatHealthyChain",
  "abi": [
    {
      "inputs": [],
      "payable": false,
      "stateMutability": "nonpayable",
      "type": "constructor"
    },
    {
      "anonymous": false,
      "inputs": [
        {
          "indexed": false,
          "internalType": "bytes32[6]",
          "name": "hashes",
          "type": "bytes32[6]"
        },
        {
          "indexed": false,
          "internalType": "address",
          "name": "proposerProduct",
          "type": "address"
        },
        {
          "indexed": false,
          "internalType": "uint256[2]",
          "name": "voteDates",
          "type": "uint256[2]"
        }
      ],
      "name": "TriggerAddProduct",
      "type": "event"
    },
    {
      "anonymous": false,
      "inputs": [
        {
          "indexed": false,
          "internalType": "bytes32[6]",
          "name": "hashes",
          "type": "bytes32[6]"
        }
      ],
      "name": "TriggerVerifyCompliance",
      "type": "event"
    },
    {
      "constant": true,
      "inputs": [
        {
          "internalType": "address",
          "name": "",
          "type": "address"
        }
      ],
      "name": "addressToUser",
      "outputs": [
        {
          "internalType": "uint32",
          "name": "userId",
          "type": "uint32"
        },
        {
          "internalType": "uint256",
          "name": "lastTimeTokenGiven",
          "type": "uint256"
        },
        {
          "internalType": "int16",
          "name": "tokenNumber",
          "type": "int16"
        },
        {
          "internalType": "int16",
          "name": "reputation",
          "type": "int16"
        },
        {
          "internalType": "bool",
          "name": "isExist",
          "type": "bool"
        }
      ],
      "payable": false,
      "stateMutability": "view",
      "type": "function"
    },
    {
      "constant": true,
      "inputs": [
        {
          "internalType": "uint256",
          "name": "",
          "type": "uint256"
        },
        {
          "internalType": "uint256",
          "name": "",
          "type": "uint256"
        },
        {
          "internalType": "address",
          "name": "",
          "type": "address"
        },
        {
          "internalType": "uint256",
          "name": "",
          "type": "uint256"
        }
      ],
      "name": "alreadyVoted",
      "outputs": [
        {
          "internalType": "bool",
          "name": "",
          "type": "bool"
        }
      ],
      "payable": false,
      "stateMutability": "view",
      "type": "function"
    },
    {
      "constant": true,
      "inputs": [
        {
          "internalType": "uint256",
          "name": "",
          "type": "uint256"
        }
      ],
      "name": "productCodeToHashes",
      "outputs": [
        {
          "internalType": "bytes32",
          "name": "ingredients_hash",
          "type": "bytes32"
        },
        {
          "internalType": "bytes32",
          "name": "labels_hash",
          "type": "bytes32"
        },
        {
          "internalType": "bytes32",
          "name": "nutriments_hash",
          "type": "bytes32"
        },
        {
          "internalType": "bytes32",
          "name": "additives_hash",
          "type": "bytes32"
        },
        {
          "internalType": "bytes32",
          "name": "variousData_hash",
          "type": "bytes32"
        },
        {
          "internalType": "bytes32",
          "name": "all_hash",
          "type": "bytes32"
        }
      ],
      "payable": false,
      "stateMutability": "view",
      "type": "function"
    },
    {
      "constant": true,
      "inputs": [
        {
          "internalType": "uint256",
          "name": "",
          "type": "uint256"
        }
      ],
      "name": "productCodeToProduct",
      "outputs": [
        {
          "internalType": "address",
          "name": "productProposerAddress",
          "type": "address"
        },
        {
          "internalType": "uint16",
          "name": "forVotes",
          "type": "uint16"
        },
        {
          "internalType": "uint16",
          "name": "againstVotes",
          "type": "uint16"
        },
        {
          "internalType": "uint32",
          "name": "productId",
          "type": "uint32"
        },
        {
          "internalType": "uint64",
          "name": "productCode",
          "type": "uint64"
        },
        {
          "internalType": "uint256",
          "name": "startDate",
          "type": "uint256"
        },
        {
          "internalType": "uint256",
          "name": "endDate",
          "type": "uint256"
        },
        {
          "internalType": "bool",
          "name": "isVotable",
          "type": "bool"
        }
      ],
      "payable": false,
      "stateMutability": "view",
      "type": "function"
    },
    {
      "constant": true,
      "inputs": [
        {
          "internalType": "uint256",
          "name": "",
          "type": "uint256"
        }
      ],
      "name": "productCodeToProposalHashes",
      "outputs": [
        {
          "internalType": "bytes32",
          "name": "ingredients_hash",
          "type": "bytes32"
        },
        {
          "internalType": "bytes32",
          "name": "labels_hash",
          "type": "bytes32"
        },
        {
          "internalType": "bytes32",
          "name": "nutriments_hash",
          "type": "bytes32"
        },
        {
          "internalType": "bytes32",
          "name": "additives_hash",
          "type": "bytes32"
        },
        {
          "internalType": "bytes32",
          "name": "variousData_hash",
          "type": "bytes32"
        },
        {
          "internalType": "bytes32",
          "name": "all_hash",
          "type": "bytes32"
        }
      ],
      "payable": false,
      "stateMutability": "view",
      "type": "function"
    },
    {
      "constant": true,
      "inputs": [
        {
          "internalType": "uint256",
          "name": "",
          "type": "uint256"
        }
      ],
      "name": "productCodeToProposalProduct",
      "outputs": [
        {
          "internalType": "address",
          "name": "productProposerAddress",
          "type": "address"
        },
        {
          "internalType": "uint16",
          "name": "forVotes",
          "type": "uint16"
        },
        {
          "internalType": "uint16",
          "name": "againstVotes",
          "type": "uint16"
        },
        {
          "internalType": "uint32",
          "name": "productId",
          "type": "uint32"
        },
        {
          "internalType": "uint64",
          "name": "productCode",
          "type": "uint64"
        },
        {
          "internalType": "uint256",
          "name": "startDate",
          "type": "uint256"
        },
        {
          "internalType": "uint256",
          "name": "endDate",
          "type": "uint256"
        },
        {
          "internalType": "bool",
          "name": "isVotable",
          "type": "bool"
        }
      ],
      "payable": false,
      "stateMutability": "view",
      "type": "function"
    },
    {
      "constant": false,
      "inputs": [
        {
          "internalType": "uint64",
          "name": "_productCode",
          "type": "uint64"
        },
        {
          "internalType": "string[]",
          "name": "_labels",
          "type": "string[]"
        },
        {
          "internalType": "string[]",
          "name": "_ingredients",
          "type": "string[]"
        },
        {
          "internalType": "string[]",
          "name": "_additifs",
          "type": "string[]"
        },
        {
          "components": [
            {
              "internalType": "string",
              "name": "energy",
              "type": "string"
            },
            {
              "internalType": "string",
              "name": "energy_kcal",
              "type": "string"
            },
            {
              "internalType": "string",
              "name": "proteines",
              "type": "string"
            },
            {
              "internalType": "string",
              "name": "carbohydrates",
              "type": "string"
            },
            {
              "internalType": "string",
              "name": "salt",
              "type": "string"
            },
            {
              "internalType": "string",
              "name": "sugar",
              "type": "string"
            },
            {
              "internalType": "string",
              "name": "fat",
              "type": "string"
            },
            {
              "internalType": "string",
              "name": "saturated_fat",
              "type": "string"
            },
            {
              "internalType": "string",
              "name": "fiber",
              "type": "string"
            },
            {
              "internalType": "string",
              "name": "sodium",
              "type": "string"
            }
          ],
          "internalType": "struct EatHealthyChain.Nutriment",
          "name": "_nutriments",
          "type": "tuple"
        },
        {
          "internalType": "string",
          "name": "_productName",
          "type": "string"
        },
        {
          "internalType": "string",
          "name": "_typeOfProduct",
          "type": "string"
        },
        {
          "internalType": "uint16",
          "name": "_quantity",
          "type": "uint16"
        },
        {
          "internalType": "string",
          "name": "_packaging",
          "type": "string"
        }
      ],
      "name": "addProductToProposal",
      "outputs": [],
      "payable": false,
      "stateMutability": "nonpayable",
      "type": "function"
    },
    {
      "constant": false,
      "inputs": [
        {
          "internalType": "bool",
          "name": "_opinion",
          "type": "bool"
        },
        {
          "internalType": "uint256",
          "name": "_productCode",
          "type": "uint256"
        }
      ],
      "name": "vote",
      "outputs": [],
      "payable": false,
      "stateMutability": "nonpayable",
      "type": "function"
    },
    {
      "constant": false,
      "inputs": [
        {
          "internalType": "uint256",
          "name": "_productCode",
          "type": "uint256"
        },
        {
          "internalType": "address",
          "name": "proposerAddress",
          "type": "address"
        }
      ],
      "name": "endVote",
      "outputs": [],
      "payable": false,
      "stateMutability": "nonpayable",
      "type": "function"
    },
    {
      "constant": false,
      "inputs": [],
      "name": "subscribeUser",
      "outputs": [],
      "payable": false,
      "stateMutability": "nonpayable",
      "type": "function"
    },
    {
      "constant": false,
      "inputs": [
        {
          "components": [
            {
              "internalType": "uint64",
              "name": "productCode",
              "type": "uint64"
            },
            {
              "internalType": "uint64",
              "name": "productCodeAlternative",
              "type": "uint64"
            },
            {
              "internalType": "uint16",
              "name": "forVotes",
              "type": "uint16"
            },
            {
              "internalType": "uint16",
              "name": "againstVotes",
              "type": "uint16"
            }
          ],
          "internalType": "struct EatHealthyChain.Alternative[]",
          "name": "_alternativeVotes",
          "type": "tuple[]"
        }
      ],
      "name": "manageAlternative",
      "outputs": [],
      "payable": false,
      "stateMutability": "nonpayable",
      "type": "function"
    },
    {
      "constant": true,
      "inputs": [
        {
          "internalType": "uint64",
          "name": "_productCode",
          "type": "uint64"
        },
        {
          "internalType": "string[]",
          "name": "_labels",
          "type": "string[]"
        },
        {
          "internalType": "string[]",
          "name": "_ingredients",
          "type": "string[]"
        },
        {
          "internalType": "string[]",
          "name": "_additifs",
          "type": "string[]"
        },
        {
          "components": [
            {
              "internalType": "string",
              "name": "energy",
              "type": "string"
            },
            {
              "internalType": "string",
              "name": "energy_kcal",
              "type": "string"
            },
            {
              "internalType": "string",
              "name": "proteines",
              "type": "string"
            },
            {
              "internalType": "string",
              "name": "carbohydrates",
              "type": "string"
            },
            {
              "internalType": "string",
              "name": "salt",
              "type": "string"
            },
            {
              "internalType": "string",
              "name": "sugar",
              "type": "string"
            },
            {
              "internalType": "string",
              "name": "fat",
              "type": "string"
            },
            {
              "internalType": "string",
              "name": "saturated_fat",
              "type": "string"
            },
            {
              "internalType": "string",
              "name": "fiber",
              "type": "string"
            },
            {
              "internalType": "string",
              "name": "sodium",
              "type": "string"
            }
          ],
          "internalType": "struct EatHealthyChain.Nutriment",
          "name": "_nutriments",
          "type": "tuple"
        },
        {
          "internalType": "string",
          "name": "_productName",
          "type": "string"
        },
        {
          "internalType": "string",
          "name": "_typeOfProduct",
          "type": "string"
        },
        {
          "internalType": "uint16",
          "name": "_quantity",
          "type": "uint16"
        },
        {
          "internalType": "string",
          "name": "_packaging",
          "type": "string"
        }
      ],
      "name": "verifyCompliance",
      "outputs": [
        {
          "internalType": "bytes32[6]",
          "name": "",
          "type": "bytes32[6]"
        }
      ],
      "payable": false,
      "stateMutability": "view",
      "type": "function"
    },
    {
      "constant": true,
      "inputs": [
        {
          "internalType": "uint256",
          "name": "_productCode",
          "type": "uint256"
        }
      ],
      "name": "getProductHashes",
      "outputs": [
        {
          "internalType": "bytes32[6]",
          "name": "",
          "type": "bytes32[6]"
        }
      ],
      "payable": false,
      "stateMutability": "view",
      "type": "function"
    },
    {
      "constant": true,
      "inputs": [
        {
          "internalType": "uint256",
          "name": "_productCode",
          "type": "uint256"
        }
      ],
      "name": "checkProductIsNew",
      "outputs": [
        {
          "internalType": "bool",
          "name": "",
          "type": "bool"
        }
      ],
      "payable": false,
      "stateMutability": "view",
      "type": "function"
    },
    {
      "constant": true,
      "inputs": [
        {
          "internalType": "uint256",
          "name": "_productCode",
          "type": "uint256"
        }
      ],
      "name": "isProductProposer",
      "outputs": [
        {
          "internalType": "bool",
          "name": "",
          "type": "bool"
        }
      ],
      "payable": false,
      "stateMutability": "view",
      "type": "function"
    },
    {
      "constant": true,
      "inputs": [
        {
          "internalType": "uint256",
          "name": "_productCode",
          "type": "uint256"
        }
      ],
      "name": "isAlreadyVotedByCurrentUser",
      "outputs": [
        {
          "internalType": "bool",
          "name": "",
          "type": "bool"
        }
      ],
      "payable": false,
      "stateMutability": "view",
      "type": "function"
    },
    {
      "constant": true,
      "inputs": [
        {
          "internalType": "uint256",
          "name": "_productCode",
          "type": "uint256"
        }
      ],
      "name": "getDates",
      "outputs": [
        {
          "internalType": "uint256",
          "name": "",
          "type": "uint256"
        },
        {
          "internalType": "uint256",
          "name": "",
          "type": "uint256"
        }
      ],
      "payable": false,
      "stateMutability": "view",
      "type": "function"
    }
  ],
  "bytecode": "0x608060405234801561001057600080fd5b50600080546001600160a01b031990811633178083556001805490921673712eb6c16ab3694b684b6c74b40a676c6d13621a1782556040805160a08101825263ffffffff600160a01b80850482168352426020808501918252600a858701908152606086018a8152608087018a81526001600160a01b03999099168b52600292839052968a209551865490861663ffffffff199091161786559151858901559051930180549451955115156401000000000260ff60201b1996880b61ffff908116620100000263ffff000019968a0b90911661ffff19909716969096179490941694909417949094169190911790915583548281048216909301160263ffffffff60a01b199091161790556125ac8061012a6000396000f3fe608060405234801561001057600080fd5b506004361061010b5760003560e01c8063a98d5fc8116100a2578063be301d3411610071578063be301d3414610242578063d54d6c7014610255578063dd471e8614610268578063eafc9df31461027b578063edf538861461028e5761010b565b8063a98d5fc8146101db578063a9bfcb22146101fc578063abe31d151461020f578063ba44cef8146102225761010b565b80636b648da5116100de5780636b648da51461019a5780636c9672ff146101ad5780636df57048146101b55780637b37d549146101c85761010b565b806310e6e06c146101105780631c1ac2b7146101255780632957d9141461015357806361ef3c1514610173575b600080fd5b61012361011e3660046117f4565b6102b2565b005b61013861013336600461182e565b610514565b60405161014a9695949392919061224c565b60405180910390f35b61016661016136600461182e565b610549565b60405161014a919061223e565b61018661018136600461182e565b610568565b60405161014a98979695949392919061218c565b6101236101a83660046118dd565b6105d5565b610123610a59565b6101236101c33660046117c0565b610b53565b6101386101d636600461182e565b610c91565b6101ee6101e936600461182e565b610cc6565b60405161014a92919061237c565b61012361020a36600461184c565b610ce3565b61016661021d36600461187c565b610deb565b6102356102303660046118dd565b610e3b565b60405161014a91906121f6565b61016661025036600461182e565b610f89565b61018661026336600461182e565b610fcb565b61023561027636600461182e565b611034565b61016661028936600461182e565b611096565b6102a161029c36600461179a565b611111565b60405161014a959493929190612397565b6000818152600460205260409020546001600160a01b03163314156102f25760405162461bcd60e51b81526004016102e99061234b565b60405180910390fd5b33600090815260026020819052604082200154600190810b900b136103295760405162461bcd60e51b81526004016102e9906122cb565b6000818152600460208190526040909120015460ff1661035b5760405162461bcd60e51b81526004016102e99061231b565b60008181526004602052604090206003810154600290910154106103915760405162461bcd60e51b81526004016102e9906122db565b60008181526003602090815260408083206004835281842054600160c01b900463ffffffff168452825280832033845290915290205460ff16156103e75760405162461bcd60e51b81526004016102e9906122bb565b6000818152600360209081526040808320600483528184205463ffffffff600160c01b90910416845282528083203384529091529020805460ff19166001908117909155821515141561046b5760008181526004602052604090208054600161ffff600160a01b808404821692909201160261ffff60a01b1990911617905561049e565b60008181526004602052604090208054600161ffff600160b01b808404821692909201160261ffff60b01b199091161790555b60009081526003602090815260408083206004835281842054600160c01b900463ffffffff1684528252808320338452825280832080549415156101000261ff001990951694909417909355600290819052919020018054600019600182810b91909101900b61ffff1661ffff19909116179055565b600560208190526000918252604090912080546001820154600283015460038401546004850154949095015492949193909286565b6000818152600460205260409020546001600160a01b03163314919050565b600660205260009081526040902080546001820154600283015460038401546004909401546001600160a01b03841694600160a01b850461ffff90811695600160b01b810490911694600160c01b90910463ffffffff16936001600160401b039091169290919060ff1688565b886001600160401b0316650102b36211c781116106045760405162461bcd60e51b81526004016102e99061229b565b3360009081526002602081905260409091200154640100000000900460ff1615156001146106445760405162461bcd60e51b81526004016102e99061235b565b6001600160401b038a166000908152600460205260409020546001600160a01b0316156106835760405162461bcd60e51b81526004016102e9906122ab565b61068b61132a565b61069361136e565b600054600160c01b900463ffffffff1660608301526001600160401b038c1660808301523382526040516106cb908c9060200161222d565b60408051601f19818403018152918152815160209283012083830152516106f4918c910161222d565b60408051601f19818403018152918152815160209283012083525161071b918b910161222d565b60408051601f198184030181529181528151602092830120606084015251610745918a910161236b565b60408051601f1981840301815291815281516020928301208382015251610776918e918a918a918a918a910161213d565b60408051601f1981840301815291815281516020928301206080840181905283830151845160608601518685015194516107b696939592949193016120e4565b604051602081830303815290604052805190602001208160a001818152505060018260e0019015159081151581525050428260a00181815250504261012c018260c001818152505081600460008e6001600160401b0316815260200190815260200160002060008201518160000160006101000a8154816001600160a01b0302191690836001600160a01b0316021790555060208201518160000160146101000a81548161ffff021916908361ffff16021790555060408201518160000160166101000a81548161ffff021916908361ffff16021790555060608201518160000160186101000a81548163ffffffff021916908363ffffffff16021790555060808201518160010160006101000a8154816001600160401b0302191690836001600160401b0316021790555060a0820151816002015560c0820151816003015560e08201518160040160006101000a81548160ff02191690831515021790555090505080600560008e6001600160401b03168152602001908152602001600020600082015181600001556020820151816001015560408201518160020155606082015181600301556080820151816004015560a082015181600501559050506000601881819054906101000a900463ffffffff168092919060010191906101000a81548163ffffffff021916908363ffffffff160217905550507fb19b8f96e594f972fb1b83f9c257997f845955d8f10af6541a7429c84c2977e86040518060c0016040528083602001518152602001836000015181526020018360600151815260200183604001518152602001836080015181526020018360a001518152503360405180604001604052808660a0015181526020018660c00151815250604051610a4393929190612204565b60405180910390a1505050505050505050505050565b3360009081526002602081905260409091200154640100000000900460ff1615610a8257600080fd5b610a8a6113a3565b6000805463ffffffff600160a01b808304821680865242602080880191825260056040808a01918252603260608b01908152600160808c01818152968101891690970263ffffffff60a01b1990991698909817895533895260029283905290972097518854951663ffffffff19909516949094178755518683015593519490910180549251935115156401000000000264ff000000001994830b61ffff908116620100000263ffff0000199790940b1661ffff1990941693909317949094161791909116179055565b6001546001600160a01b03163314610b7d5760405162461bcd60e51b81526004016102e9906122fb565b60005b8151811015610c8d57818181518110610b9557fe5b602002602001015160066000848481518110610bad57fe5b6020026020010151600001516001600160401b031681526020019081526020016000206005016000848481518110610be157fe5b6020908102919091018101518101516001600160401b03908116835282820193909352604091820160002084518154928601519386015160609096015167ffffffffffffffff19909316908516176fffffffffffffffff000000000000000019166801000000000000000093909416929092029290921761ffff60801b1916600160801b61ffff948516021761ffff60901b1916600160901b9390921692909202179055600101610b80565b5050565b600760205260009081526040902080546001820154600283015460038401546004850154600590950154939492939192909186565b600090815260046020526040902060028101546003909101549091565b6001546001600160a01b03163314610d0d5760405162461bcd60e51b81526004016102e99061232b565b6000828152600460205260409020600381015460029091015410610d435760405162461bcd60e51b81526004016102e99061233b565b6000828152600460208190526040909120015460ff16610d755760405162461bcd60e51b81526004016102e9906122eb565b6000828152600460205260409020546001600160a01b0316610da95760405162461bcd60e51b81526004016102e99061230b565b60008281526004602052604090205461ffff600160b01b82048116600160a01b9092041610610de157610ddc8282611154565b610c8d565b610c8d828261129a565b60036020528360005260406000206020528260005260406000206020528160005260406000208160028110610e1c57fe5b602081049091015460ff601f9092166101000a90041693508492505050565b610e436113d1565b600089604051602001610e56919061222d565b604051602081830303815290604052805190602001209050600089604051602001610e81919061222d565b604051602081830303815290604052805190602001209050600089604051602001610eac919061222d565b604051602081830303815290604052805190602001209050600089604051602001610ed7919061236b565b60405160208183030381529060405280519060200120905060008e8a8a8a8a604051602001610f0a95949392919061213d565b60408051601f19818403018152828252805160209091012060c08301909152915080610f3d878787878760e087016120e4565b60405160208183030381529060405280519060200120815260200186815260200185815260200184815260200183815260200182815250955050505050505b9998505050505050505050565b6000908152600360209081526040808320600483528184205463ffffffff600160c01b909104168452825280832033845290915290205460ff16151560011490565b6004602081905260009182526040909120805460018201546002830154600384015493909401546001600160a01b0383169461ffff600160a01b8504811695600160b01b86049091169463ffffffff600160c01b90910416936001600160401b03169260ff1688565b61103c6113d1565b506040805160c081018252600083815260076020818152848320600581015485526001810154828601528054958501959095526003850154606085015260028501546080850152949091529092526004015460a082015290565b600081650102b36211c781116110be5760405162461bcd60e51b81526004016102e99061229b565b6000838152600460205260409020546001600160a01b03161580156110f857506000838152600660205260409020546001600160a01b0316155b15611106576001915061110b565b600091505b50919050565b60026020819052600091825260409091208054600180830154929093015463ffffffff9091169281810b9162010000810490910b90640100000000900460ff1685565b6000828152600460208181526040808420808401805460ff19908116825560068552838720835481546001600160a01b0319166001600160a01b0390911617808255845461ffff600160a01b91829004811690910261ffff60a01b19909216919091178083558554600160b01b9081900490921690910261ffff60b01b1990911617808255845463ffffffff600160c01b91829004160263ffffffff60c01b19909116178155600180850154828201805467ffffffffffffffff19166001600160401b0390921691909117905560028086015481840155600395860154868401559354918801805460ff93909316151592909316919091179091556005808652848820600790965293909620845481558487015496810196909655838101549086015582810154908501558183015492840192909255810154910155610c8d82826112de565b6000828152600660205260409020546001600160a01b0316156112c157610ddc82826112de565b50600090815260046020819052604090912001805460ff19169055565b506000908152600460208190526040822080546001600160e01b031916815560018101805467ffffffffffffffff1916905560028101839055600381019290925501805460ff19169055565b6040805161010081018252600080825260208201819052918101829052606081018290526080810182905260a0810182905260c0810182905260e081019190915290565b6040805160c081018252600080825260208201819052918101829052606081018290526080810182905260a081019190915290565b6040805160a08101825260008082526020820181905291810182905260608101829052608081019190915290565b6040518060c001604052806006906020820280388339509192915050565b80356113fa8161252e565b92915050565b600082601f83011261141157600080fd5b813561142461141f82612409565b6123e3565b81815260209384019390925082018360005b83811015611462578135860161144c88826114e9565b8452506020928301929190910190600101611436565b5050505092915050565b600082601f83011261147d57600080fd5b813561148b61141f82612409565b915081818352602084019350602081019050838560808402820111156114b057600080fd5b60005b8381101561146257816114c68882611538565b845250602090920191608091909101906001016114b3565b80356113fa81612545565b600082601f8301126114fa57600080fd5b813561150861141f82612429565b9150808252602083016020830185838301111561152457600080fd5b61152f8382846124c6565b50505092915050565b60006080828403121561154a57600080fd5b61155460806123e3565b90506000611562848461178f565b82525060206115738484830161178f565b602083015250604061158784828501611779565b604083015250606061159b84828501611779565b60608301525092915050565b600061014082840312156115ba57600080fd5b6115c56101406123e3565b905081356001600160401b038111156115dd57600080fd5b6115e9848285016114e9565b82525060208201356001600160401b0381111561160557600080fd5b611611848285016114e9565b60208301525060408201356001600160401b0381111561163057600080fd5b61163c848285016114e9565b60408301525060608201356001600160401b0381111561165b57600080fd5b611667848285016114e9565b60608301525060808201356001600160401b0381111561168657600080fd5b611692848285016114e9565b60808301525060a08201356001600160401b038111156116b157600080fd5b6116bd848285016114e9565b60a08301525060c08201356001600160401b038111156116dc57600080fd5b6116e8848285016114e9565b60c08301525060e08201356001600160401b0381111561170757600080fd5b611713848285016114e9565b60e0830152506101008201356001600160401b0381111561173357600080fd5b61173f848285016114e9565b610100830152506101208201356001600160401b0381111561176057600080fd5b61176c848285016114e9565b6101208301525092915050565b80356113fa8161254e565b80356113fa81612557565b80356113fa81612560565b6000602082840312156117ac57600080fd5b60006117b884846113ef565b949350505050565b6000602082840312156117d257600080fd5b81356001600160401b038111156117e857600080fd5b6117b88482850161146c565b6000806040838503121561180757600080fd5b600061181385856114de565b925050602061182485828601611784565b9150509250929050565b60006020828403121561184057600080fd5b60006117b88484611784565b6000806040838503121561185f57600080fd5b600061186b8585611784565b9250506020611824858286016113ef565b6000806000806080858703121561189257600080fd5b600061189e8787611784565b94505060206118af87828801611784565b93505060406118c0878288016113ef565b92505060606118d187828801611784565b91505092959194509250565b60008060008060008060008060006101208a8c0312156118fc57600080fd5b60006119088c8c61178f565b99505060208a01356001600160401b0381111561192457600080fd5b6119308c828d01611400565b98505060408a01356001600160401b0381111561194c57600080fd5b6119588c828d01611400565b97505060608a01356001600160401b0381111561197457600080fd5b6119808c828d01611400565b96505060808a01356001600160401b0381111561199c57600080fd5b6119a88c828d016115a7565b95505060a08a01356001600160401b038111156119c457600080fd5b6119d08c828d016114e9565b94505060c08a01356001600160401b038111156119ec57600080fd5b6119f88c828d016114e9565b93505060e0611a098c828d01611779565b9250506101008a01356001600160401b03811115611a2657600080fd5b611a328c828d016114e9565b9150509295985092959850929598565b6000611a4e8383611b98565b505060200190565b6000611a628383611bea565b9392505050565b611a72816124b5565b82525050565b611a7281612477565b611a8a81612459565b611a948184612469565b9250611a9f82612450565b8060005b83811015611acd578151611ab78782611a42565b9650611ac283612453565b925050600101611aa3565b505050505050565b6000611ae08261245f565b611aea818561246e565b935083602082028501611afc85612453565b8060005b85811015611b365784840389528151611b198582611a56565b9450611b2483612453565b60209a909a0199925050600101611b00565b5091979650505050505050565b611b4c81612463565b611b568184612469565b9250611b6182612450565b8060005b83811015611acd578151611b798782611a42565b9650611b8483612453565b925050600101611b65565b611a7281612482565b611a7281612450565b611a72611bad82612450565b612450565b611a7281612487565b6000611bc68261245f565b611bd08185612469565b9350611be08185602086016124d2565b9290920192915050565b6000611bf58261245f565b611bff818561246e565b9350611c0f8185602086016124d2565b611c1881612518565b9093019392505050565b6000611c2f602e8361246e565b7f4c6520636f64652064652070726f64756974206e276120706173206c6120626f81526d6e6e65206c6f6e6775657572202160901b602082015260400192915050565b6000611c7f60208361246e565b7f43652070726f64756974206573742064c3a96ac3a02070726f706f73c3a92021815260200192915050565b6000611cb860168361246e565b75566f7573206176657a2064c3a96ac3a020766f74c3a960501b815260200192915050565b6000611cea601e8361246e565b7f566f7573206e276176657a2070617320617373657a20646520746f6b656e0000815260200192915050565b6000611d23601e8361246e565b7f4c6520766f74652064652063652070726f647569742065737420636c6f730000815260200192915050565b6000611d5c602f8361246e565b7f43652070726f64756974206e2765737420706173204e4f5556454155206e692081526e32b71026a7a224a324a1a0aa24a7a760891b602082015260400192915050565b6000611dad60348361246e565b7f566f7573206e6520706f7576657a20706173206d657474726520c3a0206a6f7581527372206c657320616c7465726e617469766573202160601b602082015260400192915050565b6000611e0360268361246e565b7f43652070726f64756974206e276578697374652070617320656e2070726f706f81526539b4ba34b7b760d11b602082015260400192915050565b6000611e4b601c8361246e565b7f43652070726f64756974206e276573742070617320656e20766f746500000000815260200192915050565b6000611e8460278361246e565b7f566f7573206e6520706f7576657a20706173206d65747472652066696e20617581526620766f7465202160c81b602082015260400192915050565b6000611ecd60248361246e565b7f4c612066696e20647520766f7465206e276573742070617320646570617373c3815263a965202160e01b602082015260400192915050565b6000611f1360368361246e565b7f566f7573206e6520706f7576657a2070617320766f74657220706f757220766f8152753a393290383937b8393290383937b837b9b4ba34b7b760511b602082015260400192915050565b6000611f6b601c8361246e565b7f436574207574696c69736174657572206e276578697374652070617300000000815260200192915050565b805161014080845260009190840190611fb08282611bea565b91505060208301518482036020860152611fca8282611bea565b91505060408301518482036040860152611fe48282611bea565b91505060608301518482036060860152611ffe8282611bea565b915050608083015184820360808601526120188282611bea565b91505060a083015184820360a08601526120328282611bea565b91505060c083015184820360c086015261204c8282611bea565b91505060e083015184820360e08601526120668282611bea565b9150506101008301518482036101008601526120828282611bea565b91505061012083015184820361012086015261209e8282611bea565b95945050505050565b611a728161248d565b611a726120bc8261248d565b612502565b611a72816124a0565b611a72816124a9565b611a726120df826124a9565b61250d565b60006120f08288611ba1565b6020820191506121008287611ba1565b6020820191506121108286611ba1565b6020820191506121208285611ba1565b6020820191506121308284611ba1565b5060200195945050505050565b600061214982886120d3565b6008820191506121598287611bbb565b91506121658286611bbb565b915061217182856120b0565b6002820191506121818284611bbb565b979650505050505050565b610100810161219b828b611a78565b6121a8602083018a6120a7565b6121b560408301896120a7565b6121c260608301886120c1565b6121cf60808301876120ca565b6121dc60a0830186611b98565b6121e960c0830185611b98565b610f7c60e0830184611b8f565b60c081016113fa8284611a81565b61012081016122138286611a81565b61222060c0830185611a69565b6117b860e0830184611b43565b60208082528101611a628184611ad5565b602081016113fa8284611b8f565b60c0810161225a8289611b98565b6122676020830188611b98565b6122746040830187611b98565b6122816060830186611b98565b61228e6080830185611b98565b61218160a0830184611b98565b602080825281016113fa81611c22565b602080825281016113fa81611c72565b602080825281016113fa81611cab565b602080825281016113fa81611cdd565b602080825281016113fa81611d16565b602080825281016113fa81611d4f565b602080825281016113fa81611da0565b602080825281016113fa81611df6565b602080825281016113fa81611e3e565b602080825281016113fa81611e77565b602080825281016113fa81611ec0565b602080825281016113fa81611f06565b602080825281016113fa81611f5e565b60208082528101611a628184611f97565b6040810161238a8285611b98565b611a626020830184611b98565b60a081016123a582886120c1565b6123b26020830187611b98565b6123bf6040830186611bb2565b6123cc6060830185611bb2565b6123d96080830184611b8f565b9695505050505050565b6040518181016001600160401b038111828210171561240157600080fd5b604052919050565b60006001600160401b0382111561241f57600080fd5b5060209081020190565b60006001600160401b0382111561243f57600080fd5b506020601f91909101601f19160190565b90565b60200190565b50600690565b5190565b50600290565b919050565b90815260200190565b60006113fa82612494565b151590565b60010b90565b61ffff1690565b6001600160a01b031690565b63ffffffff1690565b6001600160401b031690565b60006113fa8260006113fa82612477565b82818337506000910152565b60005b838110156124ed5781810151838201526020016124d5565b838111156124fc576000848401525b50505050565b60006113fa82612528565b60006113fa82612522565b601f01601f191690565b60c01b90565b60f01b90565b61253781612477565b811461254257600080fd5b50565b61253781612482565b6125378161248d565b61253781612450565b612537816124a956fea365627a7a723158206ccfccdb5e184385c7c0d5339342e2294c1e503d36f3f50fd40e5643f8d008b76c6578706572696d656e74616cf564736f6c63430005100040",
  "source": "pragma solidity 0.5.16;\r\n\r\npragma experimental ABIEncoderV2;\r\n\r\ncontract EatHealthyChain {\r\n  // Basic Product definition containing values about the product itself\r\n  // but also about consensus\r\n  struct Product {\r\n    address productProposerAddress;\r\n    uint16 forVotes;\r\n    uint16 againstVotes;\r\n    uint32 productId;\r\n    uint64 productCode;\r\n    uint startDate;\r\n    uint endDate;\r\n    //  bool isExist;\r\n    bool isVotable;\r\n    mapping(uint => Alternative) alternatives;\r\n  }\r\n\r\n  struct Alternative {\r\n    uint64 productCode;\r\n    uint64 productCodeAlternative;\r\n    uint16 forVotes;\r\n    uint16 againstVotes;\r\n  }\r\n\r\n  struct Hashes {\r\n    bytes32 ingredients_hash;\r\n    bytes32 labels_hash;\r\n    bytes32 nutriments_hash;\r\n    bytes32 additives_hash;\r\n    bytes32 variousData_hash;\r\n    bytes32 all_hash;\r\n  }\r\n\r\n  // Basic Nutriment structure needed for the Product structure\r\n  // A way to divide Product content\r\n  struct Nutriment {\r\n    string energy;\r\n    string energy_kcal;\r\n    string proteines;\r\n    string carbohydrates;\r\n    string salt;\r\n    string sugar;\r\n    string fat;\r\n    string saturated_fat;\r\n    string fiber;\r\n    string sodium;\r\n  }\r\n\r\n  // Basic User structure with useful parameters.\r\n  // In particular, token date, token number and reputation\r\n  // needed for the consensus\r\n  struct User {\r\n    uint32 userId;\r\n    uint lastTimeTokenGiven;\r\n    int16 tokenNumber;\r\n    int16 reputation;\r\n    bool isExist;\r\n    //  Role role;\r\n  }\r\n\r\n  address private _owner;\r\n\r\n  uint32 private uniqueIdUser;\r\n\r\n  uint32 private uniqueProductId;\r\n\r\n  address internal endVoteResponsible;\r\n\r\n  // Accessing to a User structure by his address\r\n  mapping(address => User) public addressToUser;\r\n\r\n  mapping(uint => mapping(uint => mapping(address => bool[2]))) public alreadyVoted;\r\n\r\n  // Accessing to a Product in proposal phase by his code\r\n  mapping(uint => Product) public productCodeToProposalProduct;\r\n\r\n  mapping(uint => Hashes) public productCodeToProposalHashes;\r\n\r\n  // Accessing to a Product adopted by his code\r\n  mapping(uint => Product) public productCodeToProduct;\r\n\r\n  mapping(uint => Hashes) public productCodeToHashes;\r\n\r\n  // mapping(address => mapping(uint => Product)) addressToProducts;\r\n\r\n  event TriggerAddProduct(bytes32[6] hashes, address proposerProduct, uint[2] voteDates);\r\n\r\n  event TriggerVerifyCompliance(bytes32[6] hashes);\r\n\r\n  constructor() public {\r\n    _owner = msg.sender;\r\n    endVoteResponsible = 0x712EB6c16Ab3694b684B6c74B40A676c6d13621a;\r\n    addressToUser[_owner] = User(uniqueIdUser, now, 10, 0, true /*,  Role.ADMIN*/);\r\n    uniqueIdUser++;\r\n  }\r\n\r\n  modifier checkLengthGS1 (uint productCode){\r\n    require(productCode > 1111111111111, \"Le code de produit n'a pas la bonne longueur !\");\r\n    _;\r\n  }\r\n\r\n  /**\r\n@notice Product is added in proposal phase by the user,\r\n        then visible for all users for votes\r\n@dev\r\n       Add a new Product and Nutriments object in corresponding proposal mappings\r\n       Also added in corresponding arrays, useful to get them all from front-end\r\n       Finally, emitting an event to warn the user, all is OK\r\n@param _productCode, _productName, _labels, _ingredients, _quantity,\r\n       _typeOfProduct, _packaging, _nutriments, _addiditfs\r\n       => Elements needed to fill in both Product and Nutriments object\r\n */\r\n  function addProductToProposal(\r\n    uint64 _productCode,\r\n    string[] memory _labels,\r\n    string[] memory _ingredients,\r\n    string[] memory _additifs,\r\n    Nutriment memory _nutriments,\r\n    string memory _productName,\r\n    string memory _typeOfProduct,\r\n    uint16 _quantity,\r\n    string memory _packaging\r\n  ) checkLengthGS1(_productCode) public {\r\n    require(addressToUser[msg.sender].isExist == true, \"Cet utilisateur n'existe pas\");\r\n    require(productCodeToProposalProduct[_productCode].productProposerAddress == address(0), \"Ce produit est dj propos !\");\r\n    Product memory _product;\r\n    Hashes memory _hashes;\r\n    _product.productId = uniqueProductId;\r\n    _product.productCode = _productCode;\r\n    _product.productProposerAddress = msg.sender;\r\n    _hashes.labels_hash = keccak256(abi.encode(_labels));\r\n    _hashes.ingredients_hash = keccak256(abi.encode(_ingredients));\r\n    _hashes.additives_hash = keccak256(abi.encode(_additifs));\r\n    _hashes.nutriments_hash = keccak256(abi.encode(_nutriments));\r\n    _hashes.variousData_hash = keccak256(abi.encodePacked(_productCode, _productName, _typeOfProduct, _quantity, _packaging));\r\n    _hashes.all_hash = keccak256(abi.encodePacked(_hashes.labels_hash, _hashes.ingredients_hash, _hashes.additives_hash, _hashes.nutriments_hash, _hashes.variousData_hash));\r\n    //  _product.isExist = true;\r\n    _product.isVotable = true;\r\n    _product.startDate = now;\r\n    _product.endDate = now + 5 minutes;\r\n    productCodeToProposalProduct[_productCode] = _product;\r\n    // addressToProducts[msg.sender][_productCode] = _product;\r\n    productCodeToProposalHashes[_productCode] = _hashes;\r\n    uniqueProductId++;\r\n    // addressToUser[msg.sender].tokenNumber--;\r\n    emit TriggerAddProduct([_hashes.labels_hash, _hashes.ingredients_hash, _hashes.additives_hash, _hashes.nutriments_hash, _hashes.variousData_hash, _hashes.all_hash], msg.sender, [_product.startDate, _product.endDate]);\r\n  }\r\n\r\n  /**\r\n  @notice User is voting for a product in proposal phase (new or update)\r\n  @dev\r\n         User can only vote if he is registered and he has not already voted\r\n         Then adding vote to for and against\r\n  @param _opinion vote value (for or against)\r\n         _productCode product targeted for the vote\r\n  */\r\n  function vote(bool _opinion, uint _productCode) public {\r\n    require(productCodeToProposalProduct[_productCode].productProposerAddress != msg.sender, \"Vous ne pouvez pas voter pour votre propre proposition\");\r\n    require(addressToUser[msg.sender].tokenNumber > 0, \"Vous n'avez pas assez de token\");\r\n    require(productCodeToProposalProduct[_productCode].isVotable, \"Ce produit n'est pas en vote\");\r\n    require(productCodeToProposalProduct[_productCode].startDate < productCodeToProposalProduct[_productCode].endDate, \"Le vote de ce produit est clos\");\r\n    require(alreadyVoted[_productCode][productCodeToProposalProduct[_productCode].productId][msg.sender][0] == false, \"Vous avez dj vot\");\r\n    alreadyVoted[_productCode][productCodeToProposalProduct[_productCode].productId][msg.sender][0] = true;\r\n    if (_opinion == true) {\r\n      productCodeToProposalProduct[_productCode].forVotes++;\r\n    } else {\r\n      productCodeToProposalProduct[_productCode].againstVotes++;\r\n    }\r\n    alreadyVoted[_productCode][productCodeToProposalProduct[_productCode].productId][msg.sender][1] = _opinion;\r\n    addressToUser[msg.sender].tokenNumber--;\r\n  }\r\n\r\n  /**\r\n  @notice User is voting for a product in proposal phase (new or update)\r\n  @dev\r\n         User can only vote if he is registered and he has not already voted\r\n         Then adding vote to for and against\r\n  @param proposerAddress proposer\r\n         _productCode product targeted for the vote\r\n         _productCode product targeted for the vote\r\n*/\r\n  function endVote(uint _productCode, address proposerAddress) public {\r\n    require(msg.sender == endVoteResponsible, 'Vous ne pouvez pas mettre fin au vote !');\r\n    require(productCodeToProposalProduct[_productCode].startDate < productCodeToProposalProduct[_productCode].endDate, \"La fin du vote n'est pas depasse !\");\r\n    require(productCodeToProposalProduct[_productCode].isVotable, \"Ce produit n'est pas NOUVEAU ni en MODIFICATION\");\r\n    require(productCodeToProposalProduct[_productCode].productProposerAddress != address(0), \"Ce produit n'existe pas en proposition\");\r\n    if (productCodeToProposalProduct[_productCode].forVotes >= productCodeToProposalProduct[_productCode].againstVotes) {\r\n      acceptedProduct(_productCode, proposerAddress);\r\n    } else {\r\n      refusedProduct(_productCode, proposerAddress);\r\n    }\r\n  }\r\n\r\n  /*\r\n  @notice Register a user when he does his first proposal or vote\r\n  @dev\r\n  Defines a new User object, giving him token and reputation\r\n  Adds it to a mapping with all other subscribed users\r\n  */\r\n  function subscribeUser() public {\r\n    require(addressToUser[msg.sender].isExist == false);\r\n    User memory user;\r\n    user.userId = uniqueIdUser;\r\n    // user.role = Role.CUSTOMER;\r\n    user.lastTimeTokenGiven = now;\r\n    user.tokenNumber = 5;\r\n    user.reputation = 50;\r\n    user.isExist = true;\r\n    uniqueIdUser++;\r\n    addressToUser[msg.sender] = user;\r\n  }\r\n\r\n  function deleteProductFromProposal(uint _productCode, address proposerAddress) internal {\r\n    delete productCodeToProposalProduct[_productCode];\r\n    delete productCodeToProposalProduct[_productCode];\r\n  }\r\n\r\n  function refusedProduct(uint _productCode, address proposerAddress) internal {\r\n    if (productCodeToProduct[_productCode].productProposerAddress != address(0)) {\r\n      deleteProductFromProposal(_productCode, proposerAddress);\r\n    } else {\r\n      productCodeToProposalProduct[_productCode].isVotable = false;\r\n      //  addressToProducts[proposerAddress][_productCode].isVotable = false;\r\n    }\r\n  }\r\n\r\n  function acceptedProduct(uint _productCode, address proposerAddress) internal {\r\n    productCodeToProposalProduct[_productCode].isVotable = false;\r\n    //  addressToProducts[proposerAddress][_productCode].isVotable = false;\r\n    productCodeToProduct[_productCode] = productCodeToProposalProduct[_productCode];\r\n    productCodeToHashes[_productCode] = productCodeToProposalHashes[_productCode];\r\n    deleteProductFromProposal(_productCode, proposerAddress);\r\n\r\n  }\r\n\r\n  function manageAlternative(Alternative[] memory _alternativeVotes) public {\r\n    require(msg.sender == endVoteResponsible, 'Vous ne pouvez pas mettre  jour les alternatives !');\r\n   // require(productCodeToProduct[_productCodeTarget].productProposerAddress != address(0), \"Ce produit n'existe pas !\");\r\n    for(uint i = 0; i < _alternativeVotes.length; i++) {\r\n      productCodeToProduct[_alternativeVotes[i].productCode].alternatives[_alternativeVotes[i].productCodeAlternative] = _alternativeVotes[i];\r\n    }\r\n\r\n\r\n  }\r\n\r\n\r\n  function verifyCompliance(\r\n    uint64 _productCode,\r\n    string[] memory _labels,\r\n    string[] memory _ingredients,\r\n    string[] memory _additifs,\r\n    Nutriment memory _nutriments,\r\n    string memory _productName,\r\n    string memory _typeOfProduct,\r\n    uint16 _quantity,\r\n    string memory _packaging) public view returns (bytes32[6] memory) {\r\n      bytes32 labels_hash =  keccak256(abi.encode(_labels));\r\n      bytes32 ingredients_hash =  keccak256(abi.encode(_ingredients));\r\n      bytes32 additives_hash =  keccak256(abi.encode(_additifs));\r\n      bytes32 nutriments_hash =  keccak256(abi.encode(_nutriments));\r\n      bytes32 variousDatas_hash = keccak256(abi.encodePacked(_productCode, _productName, _typeOfProduct, _quantity, _packaging));\r\n\r\n      return [keccak256(abi.encodePacked(labels_hash, ingredients_hash, additives_hash, nutriments_hash, variousDatas_hash)),\r\n      labels_hash,\r\n      ingredients_hash,\r\n      additives_hash,\r\n      nutriments_hash,\r\n      variousDatas_hash\r\n    ];\r\n  }\r\n\r\n  function getProductHashes(uint _productCode) public view  returns (bytes32[6] memory){\r\n    return [productCodeToHashes[_productCode].all_hash,\r\n    productCodeToHashes[_productCode].labels_hash,\r\n    productCodeToHashes[_productCode].ingredients_hash,\r\n    productCodeToHashes[_productCode].additives_hash,\r\n    productCodeToHashes[_productCode].nutriments_hash,\r\n    productCodeToHashes[_productCode].variousData_hash\r\n    ];\r\n  }\r\n\r\n  // To add a product in proposal, we need to check if the product doesn't already exist in mappings of products\r\n  function checkProductIsNew(uint _productCode) public view checkLengthGS1(_productCode) returns (bool) {\r\n    if (productCodeToProposalProduct[_productCode].productProposerAddress == address(0) && productCodeToProduct[_productCode].productProposerAddress == address(0)) {\r\n      return true;\r\n    } else {\r\n      return false;\r\n    }\r\n  }\r\n\r\n  function isProductProposer(uint _productCode) public view returns (bool) {\r\n    return productCodeToProposalProduct[_productCode].productProposerAddress == msg.sender;\r\n  }\r\n\r\n  function isAlreadyVotedByCurrentUser(uint _productCode) public view returns (bool) {\r\n    return alreadyVoted[_productCode][productCodeToProposalProduct[_productCode].productId][msg.sender][0] == true;\r\n  }\r\n\r\n  function getDates(uint _productCode) public view returns (uint, uint) {\r\n    return (productCodeToProposalProduct[_productCode].startDate, productCodeToProposalProduct[_productCode].endDate);\r\n  }\r\n\r\n}\r\n",
  "sourcePath": "C:\\Users\\Fabrice\\Desktop\\Project_EatHealthyLabelChain\\EatHealthyLabelChain\\contracts\\EatHealthyChain.sol",
  "compiler": {
    "name": "solc",
    "version": "0.5.16+commit.9c3226ce.Emscripten.clang"
  },
  "schemaVersion": "3.2.0",
  "updatedAt": "2020-08-23T13:46:40.594Z",
  "networkType": "ethereum",
  "devdoc": {
    "methods": {
      "addProductToProposal(uint64,string[],string[],string[],(string,string,string,string,string,string,string,string,string,string),string,string,uint16,string)": {
        "details": "Add a new Product and Nutriments object in corresponding proposal mappings Also added in corresponding arrays, useful to get them all from front-end Finally, emitting an event to warn the user, all is OK",
        "params": {
          "_productCode": ", _productName, _labels, _ingredients, _quantity, _typeOfProduct, _packaging, _nutriments, _addiditfs => Elements needed to fill in both Product and Nutriments object"
        }
      },
      "endVote(uint256,address)": {
        "details": "User can only vote if he is registered and he has not already voted Then adding vote to for and against",
        "params": {
          "proposerAddress": "proposer _productCode product targeted for the vote _productCode product targeted for the vote"
        }
      },
      "vote(bool,uint256)": {
        "details": "User can only vote if he is registered and he has not already voted Then adding vote to for and against",
        "params": {
          "_opinion": "vote value (for or against) _productCode product targeted for the vote"
        }
      }
    }
  },
  "userdoc": {
    "methods": {
      "addProductToProposal(uint64,string[],string[],string[],(string,string,string,string,string,string,string,string,string,string),string,string,uint16,string)": {
        "notice": "Product is added in proposal phase by the user, then visible for all users for votes"
      },
      "endVote(uint256,address)": {
        "notice": "User is voting for a product in proposal phase (new or update)"
      },
      "vote(bool,uint256)": {
        "notice": "User is voting for a product in proposal phase (new or update)"
      }
    }
  }
}