{
  "contractName": "EatHealthyChain",
  "abi": [
    {
      "inputs": [],
      "payable": false,
      "stateMutability": "nonpayable",
      "type": "constructor"
    },
    {
      "anonymous": false,
      "inputs": [
        {
          "indexed": false,
          "internalType": "bytes32[6]",
          "name": "hashes",
          "type": "bytes32[6]"
        },
        {
          "indexed": false,
          "internalType": "address",
          "name": "proposerProduct",
          "type": "address"
        },
        {
          "indexed": false,
          "internalType": "uint256[2]",
          "name": "voteDates",
          "type": "uint256[2]"
        }
      ],
      "name": "TriggerAddProduct",
      "type": "event"
    },
    {
      "anonymous": false,
      "inputs": [
        {
          "indexed": false,
          "internalType": "bytes32[6]",
          "name": "hashes",
          "type": "bytes32[6]"
        }
      ],
      "name": "TriggerVerifyCompliance",
      "type": "event"
    },
    {
      "constant": true,
      "inputs": [
        {
          "internalType": "address",
          "name": "",
          "type": "address"
        }
      ],
      "name": "addressToUser",
      "outputs": [
        {
          "internalType": "uint32",
          "name": "userId",
          "type": "uint32"
        },
        {
          "internalType": "uint256",
          "name": "lastTimeTokenGiven",
          "type": "uint256"
        },
        {
          "internalType": "int16",
          "name": "tokenNumber",
          "type": "int16"
        },
        {
          "internalType": "int16",
          "name": "reputation",
          "type": "int16"
        },
        {
          "internalType": "bool",
          "name": "isExist",
          "type": "bool"
        }
      ],
      "payable": false,
      "stateMutability": "view",
      "type": "function"
    },
    {
      "constant": true,
      "inputs": [
        {
          "internalType": "uint256",
          "name": "",
          "type": "uint256"
        },
        {
          "internalType": "uint256",
          "name": "",
          "type": "uint256"
        },
        {
          "internalType": "address",
          "name": "",
          "type": "address"
        },
        {
          "internalType": "uint256",
          "name": "",
          "type": "uint256"
        }
      ],
      "name": "alreadyVoted",
      "outputs": [
        {
          "internalType": "bool",
          "name": "",
          "type": "bool"
        }
      ],
      "payable": false,
      "stateMutability": "view",
      "type": "function"
    },
    {
      "constant": true,
      "inputs": [
        {
          "internalType": "uint256",
          "name": "",
          "type": "uint256"
        }
      ],
      "name": "productCodeToHashes",
      "outputs": [
        {
          "internalType": "bytes32",
          "name": "ingredients_hash",
          "type": "bytes32"
        },
        {
          "internalType": "bytes32",
          "name": "labels_hash",
          "type": "bytes32"
        },
        {
          "internalType": "bytes32",
          "name": "nutriments_hash",
          "type": "bytes32"
        },
        {
          "internalType": "bytes32",
          "name": "additives_hash",
          "type": "bytes32"
        },
        {
          "internalType": "bytes32",
          "name": "variousData_hash",
          "type": "bytes32"
        },
        {
          "internalType": "bytes32",
          "name": "all_hash",
          "type": "bytes32"
        }
      ],
      "payable": false,
      "stateMutability": "view",
      "type": "function"
    },
    {
      "constant": true,
      "inputs": [
        {
          "internalType": "uint256",
          "name": "",
          "type": "uint256"
        }
      ],
      "name": "productCodeToProduct",
      "outputs": [
        {
          "internalType": "address",
          "name": "productProposerAddress",
          "type": "address"
        },
        {
          "internalType": "uint16",
          "name": "forVotes",
          "type": "uint16"
        },
        {
          "internalType": "uint16",
          "name": "againstVotes",
          "type": "uint16"
        },
        {
          "internalType": "uint32",
          "name": "productId",
          "type": "uint32"
        },
        {
          "internalType": "uint64",
          "name": "productCode",
          "type": "uint64"
        },
        {
          "internalType": "uint256",
          "name": "startDate",
          "type": "uint256"
        },
        {
          "internalType": "uint256",
          "name": "endDate",
          "type": "uint256"
        },
        {
          "internalType": "bool",
          "name": "isVotable",
          "type": "bool"
        }
      ],
      "payable": false,
      "stateMutability": "view",
      "type": "function"
    },
    {
      "constant": true,
      "inputs": [
        {
          "internalType": "uint256",
          "name": "",
          "type": "uint256"
        }
      ],
      "name": "productCodeToProposalHashes",
      "outputs": [
        {
          "internalType": "bytes32",
          "name": "ingredients_hash",
          "type": "bytes32"
        },
        {
          "internalType": "bytes32",
          "name": "labels_hash",
          "type": "bytes32"
        },
        {
          "internalType": "bytes32",
          "name": "nutriments_hash",
          "type": "bytes32"
        },
        {
          "internalType": "bytes32",
          "name": "additives_hash",
          "type": "bytes32"
        },
        {
          "internalType": "bytes32",
          "name": "variousData_hash",
          "type": "bytes32"
        },
        {
          "internalType": "bytes32",
          "name": "all_hash",
          "type": "bytes32"
        }
      ],
      "payable": false,
      "stateMutability": "view",
      "type": "function"
    },
    {
      "constant": true,
      "inputs": [
        {
          "internalType": "uint256",
          "name": "",
          "type": "uint256"
        }
      ],
      "name": "productCodeToProposalProduct",
      "outputs": [
        {
          "internalType": "address",
          "name": "productProposerAddress",
          "type": "address"
        },
        {
          "internalType": "uint16",
          "name": "forVotes",
          "type": "uint16"
        },
        {
          "internalType": "uint16",
          "name": "againstVotes",
          "type": "uint16"
        },
        {
          "internalType": "uint32",
          "name": "productId",
          "type": "uint32"
        },
        {
          "internalType": "uint64",
          "name": "productCode",
          "type": "uint64"
        },
        {
          "internalType": "uint256",
          "name": "startDate",
          "type": "uint256"
        },
        {
          "internalType": "uint256",
          "name": "endDate",
          "type": "uint256"
        },
        {
          "internalType": "bool",
          "name": "isVotable",
          "type": "bool"
        }
      ],
      "payable": false,
      "stateMutability": "view",
      "type": "function"
    },
    {
      "constant": false,
      "inputs": [
        {
          "internalType": "uint64",
          "name": "_productCode",
          "type": "uint64"
        },
        {
          "internalType": "string[]",
          "name": "_labels",
          "type": "string[]"
        },
        {
          "internalType": "string[]",
          "name": "_ingredients",
          "type": "string[]"
        },
        {
          "internalType": "string[]",
          "name": "_additifs",
          "type": "string[]"
        },
        {
          "components": [
            {
              "internalType": "string",
              "name": "energy",
              "type": "string"
            },
            {
              "internalType": "string",
              "name": "energy_kcal",
              "type": "string"
            },
            {
              "internalType": "string",
              "name": "proteines",
              "type": "string"
            },
            {
              "internalType": "string",
              "name": "carbohydrates",
              "type": "string"
            },
            {
              "internalType": "string",
              "name": "salt",
              "type": "string"
            },
            {
              "internalType": "string",
              "name": "sugar",
              "type": "string"
            },
            {
              "internalType": "string",
              "name": "fat",
              "type": "string"
            },
            {
              "internalType": "string",
              "name": "saturated_fat",
              "type": "string"
            },
            {
              "internalType": "string",
              "name": "fiber",
              "type": "string"
            },
            {
              "internalType": "string",
              "name": "sodium",
              "type": "string"
            }
          ],
          "internalType": "struct EatHealthyChain.Nutriment",
          "name": "_nutriments",
          "type": "tuple"
        },
        {
          "internalType": "string",
          "name": "_productName",
          "type": "string"
        },
        {
          "internalType": "string",
          "name": "_typeOfProduct",
          "type": "string"
        },
        {
          "internalType": "uint16",
          "name": "_quantity",
          "type": "uint16"
        },
        {
          "internalType": "string",
          "name": "_packaging",
          "type": "string"
        }
      ],
      "name": "addProductToProposal",
      "outputs": [],
      "payable": false,
      "stateMutability": "nonpayable",
      "type": "function"
    },
    {
      "constant": false,
      "inputs": [
        {
          "internalType": "bool",
          "name": "_opinion",
          "type": "bool"
        },
        {
          "internalType": "uint256",
          "name": "_productCode",
          "type": "uint256"
        }
      ],
      "name": "vote",
      "outputs": [],
      "payable": false,
      "stateMutability": "nonpayable",
      "type": "function"
    },
    {
      "constant": false,
      "inputs": [
        {
          "internalType": "uint256",
          "name": "_productCode",
          "type": "uint256"
        },
        {
          "internalType": "address",
          "name": "proposerAddress",
          "type": "address"
        }
      ],
      "name": "endVote",
      "outputs": [],
      "payable": false,
      "stateMutability": "nonpayable",
      "type": "function"
    },
    {
      "constant": false,
      "inputs": [],
      "name": "subscribeUser",
      "outputs": [],
      "payable": false,
      "stateMutability": "nonpayable",
      "type": "function"
    },
    {
      "constant": true,
      "inputs": [
        {
          "internalType": "uint64",
          "name": "_productCode",
          "type": "uint64"
        },
        {
          "internalType": "string[]",
          "name": "_labels",
          "type": "string[]"
        },
        {
          "internalType": "string[]",
          "name": "_ingredients",
          "type": "string[]"
        },
        {
          "internalType": "string[]",
          "name": "_additifs",
          "type": "string[]"
        },
        {
          "components": [
            {
              "internalType": "string",
              "name": "energy",
              "type": "string"
            },
            {
              "internalType": "string",
              "name": "energy_kcal",
              "type": "string"
            },
            {
              "internalType": "string",
              "name": "proteines",
              "type": "string"
            },
            {
              "internalType": "string",
              "name": "carbohydrates",
              "type": "string"
            },
            {
              "internalType": "string",
              "name": "salt",
              "type": "string"
            },
            {
              "internalType": "string",
              "name": "sugar",
              "type": "string"
            },
            {
              "internalType": "string",
              "name": "fat",
              "type": "string"
            },
            {
              "internalType": "string",
              "name": "saturated_fat",
              "type": "string"
            },
            {
              "internalType": "string",
              "name": "fiber",
              "type": "string"
            },
            {
              "internalType": "string",
              "name": "sodium",
              "type": "string"
            }
          ],
          "internalType": "struct EatHealthyChain.Nutriment",
          "name": "_nutriments",
          "type": "tuple"
        },
        {
          "internalType": "string",
          "name": "_productName",
          "type": "string"
        },
        {
          "internalType": "string",
          "name": "_typeOfProduct",
          "type": "string"
        },
        {
          "internalType": "uint16",
          "name": "_quantity",
          "type": "uint16"
        },
        {
          "internalType": "string",
          "name": "_packaging",
          "type": "string"
        }
      ],
      "name": "verifyCompliance",
      "outputs": [
        {
          "internalType": "bytes32[6]",
          "name": "",
          "type": "bytes32[6]"
        }
      ],
      "payable": false,
      "stateMutability": "view",
      "type": "function"
    },
    {
      "constant": true,
      "inputs": [
        {
          "internalType": "uint256",
          "name": "_productCode",
          "type": "uint256"
        }
      ],
      "name": "getProductHashes",
      "outputs": [
        {
          "internalType": "bytes32[6]",
          "name": "",
          "type": "bytes32[6]"
        }
      ],
      "payable": false,
      "stateMutability": "view",
      "type": "function"
    },
    {
      "constant": true,
      "inputs": [
        {
          "internalType": "uint256",
          "name": "_productCode",
          "type": "uint256"
        }
      ],
      "name": "checkProductIsNew",
      "outputs": [
        {
          "internalType": "bool",
          "name": "",
          "type": "bool"
        }
      ],
      "payable": false,
      "stateMutability": "view",
      "type": "function"
    },
    {
      "constant": true,
      "inputs": [
        {
          "internalType": "uint256",
          "name": "_productCode",
          "type": "uint256"
        }
      ],
      "name": "isProductProposer",
      "outputs": [
        {
          "internalType": "bool",
          "name": "",
          "type": "bool"
        }
      ],
      "payable": false,
      "stateMutability": "view",
      "type": "function"
    },
    {
      "constant": true,
      "inputs": [
        {
          "internalType": "uint256",
          "name": "_productCode",
          "type": "uint256"
        }
      ],
      "name": "isAlreadyVotedByCurrentUser",
      "outputs": [
        {
          "internalType": "bool",
          "name": "",
          "type": "bool"
        }
      ],
      "payable": false,
      "stateMutability": "view",
      "type": "function"
    },
    {
      "constant": true,
      "inputs": [
        {
          "internalType": "uint256",
          "name": "_productCode",
          "type": "uint256"
        }
      ],
      "name": "getDates",
      "outputs": [
        {
          "internalType": "uint256",
          "name": "",
          "type": "uint256"
        },
        {
          "internalType": "uint256",
          "name": "",
          "type": "uint256"
        }
      ],
      "payable": false,
      "stateMutability": "view",
      "type": "function"
    }
  ],
  "bytecode": "0x608060405234801561001057600080fd5b50600080546001600160a01b031990811633178083556001805490921673712eb6c16ab3694b684b6c74b40a676c6d13621a1782556040805160a08101825263ffffffff600160a01b80850482168352426020808501918252600a858701908152606086018a8152608087018a81526001600160a01b03999099168b52600292839052968a209551865490861663ffffffff199091161786559151858901559051930180549451955115156401000000000260ff60201b1996880b61ffff908116620100000263ffff000019968a0b90911661ffff19909716969096179490941694909417949094169190911790915583548281048216909301160263ffffffff60a01b199091161790556121828061012a6000396000f3fe608060405234801561001057600080fd5b50600436106101005760003560e01c8063a9bfcb2211610097578063d54d6c7011610066578063d54d6c7014610237578063dd471e861461024a578063eafc9df31461025d578063edf538861461027057610100565b8063a9bfcb22146101de578063abe31d15146101f1578063ba44cef814610204578063be301d341461022457610100565b80636b648da5116100d35780636b648da51461018f5780636c9672ff146101a25780637b37d549146101aa578063a98d5fc8146101bd57610100565b806310e6e06c146101055780631c1ac2b71461011a5780632957d9141461014857806361ef3c1514610168575b600080fd5b61011861011336600461152a565b610294565b005b61012d610128366004611564565b6104bf565b60405161013f96959493929190611e62565b60405180910390f35b61015b610156366004611564565b6104f4565b60405161013f9190611e54565b61017b610176366004611564565b610513565b60405161013f989796959493929190611da2565b61011861019d366004611613565b610580565b6101186109de565b61012d6101b8366004611564565b610ad8565b6101d06101cb366004611564565b610b0d565b60405161013f929190611f52565b6101186101ec366004611582565b610b2a565b61015b6101ff3660046115b2565b610c36565b610217610212366004611613565b610c86565b60405161013f9190611e0c565b61015b610232366004611564565b610dd4565b61017b610245366004611564565b610e16565b610217610258366004611564565b610e7f565b61015b61026b366004611564565b610ee1565b61028361027e366004611504565b610f5c565b60405161013f959493929190611f6d565b33600090815260026020819052604082200154600190810b900b136102d45760405162461bcd60e51b81526004016102cb90611ed1565b60405180910390fd5b6000818152600460208190526040909120015460ff166103065760405162461bcd60e51b81526004016102cb90611f11565b600081815260046020526040902060038101546002909101541061033c5760405162461bcd60e51b81526004016102cb90611ee1565b60008181526003602090815260408083206004835281842054600160c01b900463ffffffff168452825280832033845290915290205460ff16156103925760405162461bcd60e51b81526004016102cb90611ec1565b6000818152600360209081526040808320600483528184205463ffffffff600160c01b90910416845282528083203384529091529020805460ff1916600190811790915582151514156104165760008181526004602052604090208054600161ffff600160a01b808404821692909201160261ffff60a01b19909116179055610449565b60008181526004602052604090208054600161ffff600160b01b808404821692909201160261ffff60b01b199091161790555b60009081526003602090815260408083206004835281842054600160c01b900463ffffffff1684528252808320338452825280832080549415156101000261ff001990951694909417909355600290819052919020018054600019600182810b91909101900b61ffff1661ffff19909116179055565b600560208190526000918252604090912080546001820154600283015460038401546004850154949095015492949193909286565b6000818152600460205260409020546001600160a01b03163314919050565b600660205260009081526040902080546001820154600283015460038401546004909401546001600160a01b03841694600160a01b850461ffff90811695600160b01b810490911694600160c01b90910463ffffffff16936001600160401b039091169290919060ff1688565b886001600160401b0316650102b36211c781116105af5760405162461bcd60e51b81526004016102cb90611eb1565b3360009081526002602081905260409091200154640100000000900460ff1615156001146105dc57600080fd5b6001600160401b038a166000908152600460205260409020546001600160a01b03161561060857600080fd5b610610611175565b6106186111b9565b600054600160c01b900463ffffffff1660608301526001600160401b038c166080830152338252604051610650908c90602001611e43565b60408051601f1981840301815291815281516020928301208383015251610679918c9101611e43565b60408051601f1981840301815291815281516020928301208352516106a0918b9101611e43565b60408051601f1981840301815291815281516020928301206060840152516106ca918a9101611f41565b60408051601f19818403018152918152815160209283012083820152516106fb918e918a918a918a918a9101611d53565b60408051601f19818403018152918152815160209283012060808401819052838301518451606086015186850151945161073b9693959294919301611cfa565b604051602081830303815290604052805190602001208160a001818152505060018260e0019015159081151581525050428260a00181815250504261012c018260c001818152505081600460008e6001600160401b0316815260200190815260200160002060008201518160000160006101000a8154816001600160a01b0302191690836001600160a01b0316021790555060208201518160000160146101000a81548161ffff021916908361ffff16021790555060408201518160000160166101000a81548161ffff021916908361ffff16021790555060608201518160000160186101000a81548163ffffffff021916908363ffffffff16021790555060808201518160010160006101000a8154816001600160401b0302191690836001600160401b0316021790555060a0820151816002015560c0820151816003015560e08201518160040160006101000a81548160ff02191690831515021790555090505080600560008e6001600160401b03168152602001908152602001600020600082015181600001556020820151816001015560408201518160020155606082015181600301556080820151816004015560a082015181600501559050506000601881819054906101000a900463ffffffff168092919060010191906101000a81548163ffffffff021916908363ffffffff160217905550507fb19b8f96e594f972fb1b83f9c257997f845955d8f10af6541a7429c84c2977e86040518060c0016040528083602001518152602001836000015181526020018360600151815260200183604001518152602001836080015181526020018360a001518152503360405180604001604052808660a0015181526020018660c001518152506040516109c893929190611e1a565b60405180910390a1505050505050505050505050565b3360009081526002602081905260409091200154640100000000900460ff1615610a0757600080fd5b610a0f6111ee565b6000805463ffffffff600160a01b808304821680865242602080880191825260056040808a01918252603260608b01908152600160808c01818152968101891690970263ffffffff60a01b1990991698909817895533895260029283905290972097518854951663ffffffff19909516949094178755518683015593519490910180549251935115156401000000000264ff000000001994830b61ffff908116620100000263ffff0000199790940b1661ffff1990941693909317949094161791909116179055565b600760205260009081526040902080546001820154600283015460038401546004850154600590950154939492939192909186565b600090815260046020526040902060028101546003909101549091565b6001546001600160a01b03163314610b545760405162461bcd60e51b81526004016102cb90611f21565b6000828152600460205260409020600381015460029091015410610b8a5760405162461bcd60e51b81526004016102cb90611f31565b6000828152600460208190526040909120015460ff16610bbc5760405162461bcd60e51b81526004016102cb90611ef1565b6000828152600460205260409020546001600160a01b0316610bf05760405162461bcd60e51b81526004016102cb90611f01565b60008281526004602052604090205461ffff600160b01b82048116600160a01b9092041610610c2857610c238282610f9f565b610c32565b610c3282826110e5565b5050565b60036020528360005260406000206020528260005260406000206020528160005260406000208160028110610c6757fe5b602081049091015460ff601f9092166101000a90041693508492505050565b610c8e61121c565b600089604051602001610ca19190611e43565b604051602081830303815290604052805190602001209050600089604051602001610ccc9190611e43565b604051602081830303815290604052805190602001209050600089604051602001610cf79190611e43565b604051602081830303815290604052805190602001209050600089604051602001610d229190611f41565b60405160208183030381529060405280519060200120905060008e8a8a8a8a604051602001610d55959493929190611d53565b60408051601f19818403018152828252805160209091012060c08301909152915080610d88878787878760e08701611cfa565b60405160208183030381529060405280519060200120815260200186815260200185815260200184815260200183815260200182815250955050505050505b9998505050505050505050565b6000908152600360209081526040808320600483528184205463ffffffff600160c01b909104168452825280832033845290915290205460ff16151560011490565b6004602081905260009182526040909120805460018201546002830154600384015493909401546001600160a01b0383169461ffff600160a01b8504811695600160b01b86049091169463ffffffff600160c01b90910416936001600160401b03169260ff1688565b610e8761121c565b506040805160c081018252600083815260076020818152848320600581015485526001810154828601528054958501959095526003850154606085015260028501546080850152949091529092526004015460a082015290565b600081650102b36211c78111610f095760405162461bcd60e51b81526004016102cb90611eb1565b6000838152600460205260409020546001600160a01b0316158015610f4357506000838152600660205260409020546001600160a01b0316155b15610f515760019150610f56565b600091505b50919050565b60026020819052600091825260409091208054600180830154929093015463ffffffff9091169281810b9162010000810490910b90640100000000900460ff1685565b6000828152600460208181526040808420808401805460ff19908116825560068552838720835481546001600160a01b0319166001600160a01b0390911617808255845461ffff600160a01b91829004811690910261ffff60a01b19909216919091178083558554600160b01b9081900490921690910261ffff60b01b1990911617808255845463ffffffff600160c01b91829004160263ffffffff60c01b19909116178155600180850154828201805467ffffffffffffffff19166001600160401b0390921691909117905560028086015481840155600395860154868401559354918801805460ff93909316151592909316919091179091556005808652848820600790965293909620845481558487015496810196909655838101549086015582810154908501558183015492840192909255810154910155610c328282611129565b6000828152600660205260409020546001600160a01b03161561110c57610c238282611129565b50600090815260046020819052604090912001805460ff19169055565b506000908152600460208190526040822080546001600160e01b031916815560018101805467ffffffffffffffff1916905560028101839055600381019290925501805460ff19169055565b6040805161010081018252600080825260208201819052918101829052606081018290526080810182905260a0810182905260c0810182905260e081019190915290565b6040805160c081018252600080825260208201819052918101829052606081018290526080810182905260a081019190915290565b6040805160a08101825260008082526020820181905291810182905260608101829052608081019190915290565b6040518060c001604052806006906020820280388339509192915050565b803561124581612104565b92915050565b600082601f83011261125c57600080fd5b813561126f61126a82611fdf565b611fb9565b81815260209384019390925082018360005b838110156112ad578135860161129788826112c2565b8452506020928301929190910190600101611281565b5050505092915050565b80356112458161211b565b600082601f8301126112d357600080fd5b81356112e161126a82611fff565b915080825260208301602083018583830111156112fd57600080fd5b61130883828461209c565b50505092915050565b6000610140828403121561132457600080fd5b61132f610140611fb9565b905081356001600160401b0381111561134757600080fd5b611353848285016112c2565b82525060208201356001600160401b0381111561136f57600080fd5b61137b848285016112c2565b60208301525060408201356001600160401b0381111561139a57600080fd5b6113a6848285016112c2565b60408301525060608201356001600160401b038111156113c557600080fd5b6113d1848285016112c2565b60608301525060808201356001600160401b038111156113f057600080fd5b6113fc848285016112c2565b60808301525060a08201356001600160401b0381111561141b57600080fd5b611427848285016112c2565b60a08301525060c08201356001600160401b0381111561144657600080fd5b611452848285016112c2565b60c08301525060e08201356001600160401b0381111561147157600080fd5b61147d848285016112c2565b60e0830152506101008201356001600160401b0381111561149d57600080fd5b6114a9848285016112c2565b610100830152506101208201356001600160401b038111156114ca57600080fd5b6114d6848285016112c2565b6101208301525092915050565b803561124581612124565b80356112458161212d565b803561124581612136565b60006020828403121561151657600080fd5b6000611522848461123a565b949350505050565b6000806040838503121561153d57600080fd5b600061154985856112b7565b925050602061155a858286016114ee565b9150509250929050565b60006020828403121561157657600080fd5b600061152284846114ee565b6000806040838503121561159557600080fd5b60006115a185856114ee565b925050602061155a8582860161123a565b600080600080608085870312156115c857600080fd5b60006115d487876114ee565b94505060206115e5878288016114ee565b93505060406115f68782880161123a565b9250506060611607878288016114ee565b91505092959194509250565b60008060008060008060008060006101208a8c03121561163257600080fd5b600061163e8c8c6114f9565b99505060208a01356001600160401b0381111561165a57600080fd5b6116668c828d0161124b565b98505060408a01356001600160401b0381111561168257600080fd5b61168e8c828d0161124b565b97505060608a01356001600160401b038111156116aa57600080fd5b6116b68c828d0161124b565b96505060808a01356001600160401b038111156116d257600080fd5b6116de8c828d01611311565b95505060a08a01356001600160401b038111156116fa57600080fd5b6117068c828d016112c2565b94505060c08a01356001600160401b0381111561172257600080fd5b61172e8c828d016112c2565b93505060e061173f8c828d016114e3565b9250506101008a01356001600160401b0381111561175c57600080fd5b6117688c828d016112c2565b9150509295985092959850929598565b600061178483836118ce565b505060200190565b60006117988383611920565b9392505050565b6117a88161208b565b82525050565b6117a88161204d565b6117c08161202f565b6117ca818461203f565b92506117d582612026565b8060005b838110156118035781516117ed8782611778565b96506117f883612029565b9250506001016117d9565b505050505050565b600061181682612035565b6118208185612044565b93508360208202850161183285612029565b8060005b8581101561186c578484038952815161184f858261178c565b945061185a83612029565b60209a909a0199925050600101611836565b5091979650505050505050565b61188281612039565b61188c818461203f565b925061189782612026565b8060005b838110156118035781516118af8782611778565b96506118ba83612029565b92505060010161189b565b6117a881612058565b6117a881612026565b6117a86118e382612026565b612026565b6117a88161205d565b60006118fc82612035565b611906818561203f565b93506119168185602086016120a8565b9290920192915050565b600061192b82612035565b6119358185612044565b93506119458185602086016120a8565b61194e816120ee565b9093019392505050565b6000611965602e83612044565b7f4c6520636f64652064652070726f64756974206e276120706173206c6120626f81526d6e6e65206c6f6e6775657572202160901b602082015260400192915050565b60006119b5601683612044565b75566f7573206176657a2064c3a96ac3a020766f74c3a960501b815260200192915050565b60006119e7601e83612044565b7f566f7573206e276176657a2070617320617373657a20646520746f6b656e0000815260200192915050565b6000611a20601e83612044565b7f4c6520766f74652064652063652070726f647569742065737420636c6f730000815260200192915050565b6000611a59602f83612044565b7f43652070726f64756974206e2765737420706173204e4f5556454155206e692081526e32b71026a7a224a324a1a0aa24a7a760891b602082015260400192915050565b6000611aaa602683612044565b7f43652070726f64756974206e276578697374652070617320656e2070726f706f81526539b4ba34b7b760d11b602082015260400192915050565b6000611af2601c83612044565b7f43652070726f64756974206e276573742070617320656e20766f746500000000815260200192915050565b6000611b2b602783612044565b7f566f7573206e6520706f7576657a20706173206d65747472652066696e20617581526620766f7465202160c81b602082015260400192915050565b6000611b74602483612044565b7f4c612066696e20647520766f7465206e276573742070617320646570617373c3815263a965202160e01b602082015260400192915050565b805161014080845260009190840190611bc68282611920565b91505060208301518482036020860152611be08282611920565b91505060408301518482036040860152611bfa8282611920565b91505060608301518482036060860152611c148282611920565b91505060808301518482036080860152611c2e8282611920565b91505060a083015184820360a0860152611c488282611920565b91505060c083015184820360c0860152611c628282611920565b91505060e083015184820360e0860152611c7c8282611920565b915050610100830151848203610100860152611c988282611920565b915050610120830151848203610120860152611cb48282611920565b95945050505050565b6117a881612063565b6117a8611cd282612063565b6120d8565b6117a881612076565b6117a88161207f565b6117a8611cf58261207f565b6120e3565b6000611d0682886118d7565b602082019150611d1682876118d7565b602082019150611d2682866118d7565b602082019150611d3682856118d7565b602082019150611d4682846118d7565b5060200195945050505050565b6000611d5f8288611ce9565b600882019150611d6f82876118f1565b9150611d7b82866118f1565b9150611d878285611cc6565b600282019150611d9782846118f1565b979650505050505050565b6101008101611db1828b6117ae565b611dbe602083018a611cbd565b611dcb6040830189611cbd565b611dd86060830188611cd7565b611de56080830187611ce0565b611df260a08301866118ce565b611dff60c08301856118ce565b610dc760e08301846118c5565b60c0810161124582846117b7565b6101208101611e2982866117b7565b611e3660c083018561179f565b61152260e0830184611879565b60208082528101611798818461180b565b6020810161124582846118c5565b60c08101611e7082896118ce565b611e7d60208301886118ce565b611e8a60408301876118ce565b611e9760608301866118ce565b611ea460808301856118ce565b611d9760a08301846118ce565b6020808252810161124581611958565b60208082528101611245816119a8565b60208082528101611245816119da565b6020808252810161124581611a13565b6020808252810161124581611a4c565b6020808252810161124581611a9d565b6020808252810161124581611ae5565b6020808252810161124581611b1e565b6020808252810161124581611b67565b602080825281016117988184611bad565b60408101611f6082856118ce565b61179860208301846118ce565b60a08101611f7b8288611cd7565b611f8860208301876118ce565b611f9560408301866118e8565b611fa260608301856118e8565b611faf60808301846118c5565b9695505050505050565b6040518181016001600160401b0381118282101715611fd757600080fd5b604052919050565b60006001600160401b03821115611ff557600080fd5b5060209081020190565b60006001600160401b0382111561201557600080fd5b506020601f91909101601f19160190565b90565b60200190565b50600690565b5190565b50600290565b919050565b90815260200190565b60006112458261206a565b151590565b60010b90565b61ffff1690565b6001600160a01b031690565b63ffffffff1690565b6001600160401b031690565b60006112458260006112458261204d565b82818337506000910152565b60005b838110156120c35781810151838201526020016120ab565b838111156120d2576000848401525b50505050565b6000611245826120fe565b6000611245826120f8565b601f01601f191690565b60c01b90565b60f01b90565b61210d8161204d565b811461211857600080fd5b50565b61210d81612058565b61210d81612063565b61210d81612026565b61210d8161207f56fea365627a7a7231582083efbdb6ee60c5da47132dea03c5d346d440ed0946257a83ba8f7fbb1d36cbfc6c6578706572696d656e74616cf564736f6c63430005100040",
  "source": "pragma solidity 0.5.16;\r\n\r\npragma experimental ABIEncoderV2;\r\n\r\ncontract EatHealthyChain {\r\n  // Basic Product definition containing values about the product itself\r\n  // but also about consensus\r\n  struct Product {\r\n    address productProposerAddress;\r\n    uint16 forVotes;\r\n    uint16 againstVotes;\r\n    uint32 productId;\r\n    uint64 productCode;\r\n    uint startDate;\r\n    uint endDate;\r\n    //  bool isExist;\r\n    bool isVotable;\r\n  }\r\n\r\n  struct Hashes {\r\n    bytes32 ingredients_hash;\r\n    bytes32 labels_hash;\r\n    bytes32 nutriments_hash;\r\n    bytes32 additives_hash;\r\n    bytes32 variousData_hash;\r\n    bytes32 all_hash;\r\n  }\r\n\r\n  // Basic Nutriment structure needed for the Product structure\r\n  // A way to divide Product content\r\n  struct Nutriment {\r\n    string energy;\r\n    string energy_kcal;\r\n    string proteines;\r\n    string carbohydrates;\r\n    string salt;\r\n    string sugar;\r\n    string fat;\r\n    string saturated_fat;\r\n    string fiber;\r\n    string sodium;\r\n  }\r\n\r\n  // Basic User structure with useful parameters.\r\n  // In particular, token date, token number and reputation\r\n  // needed for the consensus\r\n  struct User {\r\n    uint32 userId;\r\n    uint lastTimeTokenGiven;\r\n    int16 tokenNumber;\r\n    int16 reputation;\r\n    bool isExist;\r\n    //  Role role;\r\n  }\r\n\r\n  address private _owner;\r\n\r\n  uint32 private uniqueIdUser;\r\n\r\n  uint32 private uniqueProductId;\r\n\r\n  address internal endVoteResponsible;\r\n\r\n  // Accessing to a User structure by his address\r\n  mapping(address => User) public addressToUser;\r\n\r\n  mapping(uint => mapping(uint => mapping(address => bool[2]))) public alreadyVoted;\r\n\r\n  // Accessing to a Product in proposal phase by his code\r\n  mapping(uint => Product) public productCodeToProposalProduct;\r\n\r\n  mapping(uint => Hashes) public productCodeToProposalHashes;\r\n\r\n  // Accessing to a Product adopted by his code\r\n  mapping(uint => Product) public productCodeToProduct;\r\n\r\n  mapping(uint => Hashes) public productCodeToHashes;\r\n\r\n  // mapping(address => mapping(uint => Product)) addressToProducts;\r\n\r\n  event TriggerAddProduct(bytes32[6] hashes, address proposerProduct, uint[2] voteDates);\r\n\r\n  event TriggerVerifyCompliance(bytes32[6] hashes);\r\n\r\n  constructor() public {\r\n    _owner = msg.sender;\r\n    endVoteResponsible = 0x712EB6c16Ab3694b684B6c74B40A676c6d13621a;\r\n    addressToUser[_owner] = User(uniqueIdUser, now, 10, 0, true /*,  Role.ADMIN*/);\r\n    uniqueIdUser++;\r\n  }\r\n\r\n  modifier checkLengthGS1 (uint productCode){\r\n    require(productCode > 1111111111111, \"Le code de produit n'a pas la bonne longueur !\");\r\n    _;\r\n  }\r\n\r\n  /**\r\n@notice Product is added in proposal phase by the user,\r\n        then visible for all users for votes\r\n@dev\r\n       Add a new Product and Nutriments object in corresponding proposal mappings\r\n       Also added in corresponding arrays, useful to get them all from front-end\r\n       Finally, emitting an event to warn the user, all is OK\r\n@param _productCode, _productName, _labels, _ingredients, _quantity,\r\n       _typeOfProduct, _packaging, _nutriments, _addiditfs\r\n       => Elements needed to fill in both Product and Nutriments object\r\n */\r\n  function addProductToProposal(\r\n    uint64 _productCode,\r\n    string[] memory _labels,\r\n    string[] memory _ingredients,\r\n    string[] memory _additifs,\r\n    Nutriment memory _nutriments,\r\n    string memory _productName,\r\n    string memory _typeOfProduct,\r\n    uint16 _quantity,\r\n    string memory _packaging\r\n  ) checkLengthGS1(_productCode) public {\r\n    require(addressToUser[msg.sender].isExist == true);\r\n    require(productCodeToProposalProduct[_productCode].productProposerAddress == address(0));\r\n    Product memory _product;\r\n    Hashes memory _hashes;\r\n    _product.productId = uniqueProductId;\r\n    _product.productCode = _productCode;\r\n    _product.productProposerAddress = msg.sender;\r\n    _hashes.labels_hash = keccak256(abi.encode(_labels));\r\n    _hashes.ingredients_hash = keccak256(abi.encode(_ingredients));\r\n    _hashes.additives_hash = keccak256(abi.encode(_additifs));\r\n    _hashes.nutriments_hash = keccak256(abi.encode(_nutriments));\r\n    _hashes.variousData_hash = keccak256(abi.encodePacked(_productCode, _productName, _typeOfProduct, _quantity, _packaging));\r\n    _hashes.all_hash = keccak256(abi.encodePacked(_hashes.labels_hash, _hashes.ingredients_hash, _hashes.additives_hash, _hashes.nutriments_hash, _hashes.variousData_hash));\r\n    //  _product.isExist = true;\r\n    _product.isVotable = true;\r\n    _product.startDate = now;\r\n    _product.endDate = now + 5 minutes;\r\n    productCodeToProposalProduct[_productCode] = _product;\r\n    // addressToProducts[msg.sender][_productCode] = _product;\r\n    productCodeToProposalHashes[_productCode] = _hashes;\r\n    uniqueProductId++;\r\n    // addressToUser[msg.sender].tokenNumber--;\r\n    emit TriggerAddProduct([_hashes.labels_hash, _hashes.ingredients_hash, _hashes.additives_hash, _hashes.nutriments_hash, _hashes.variousData_hash, _hashes.all_hash], msg.sender, [_product.startDate, _product.endDate]);\r\n  }\r\n\r\n  /**\r\n  @notice User is voting for a product in proposal phase (new or update)\r\n  @dev\r\n         User can only vote if he is registered and he has not already voted\r\n         Then adding vote to for and against\r\n  @param _opinion vote value (for or against)\r\n         _productCode product targeted for the vote\r\n  */\r\n  function vote(bool _opinion, uint _productCode) public {\r\n    require(addressToUser[msg.sender].tokenNumber > 0, \"Vous n'avez pas assez de token\");\r\n    require(productCodeToProposalProduct[_productCode].isVotable, \"Ce produit n'est pas en vote\");\r\n    require(productCodeToProposalProduct[_productCode].startDate < productCodeToProposalProduct[_productCode].endDate, \"Le vote de ce produit est clos\");\r\n    require(alreadyVoted[_productCode][productCodeToProposalProduct[_productCode].productId][msg.sender][0] == false, \"Vous avez dj vot\");\r\n    alreadyVoted[_productCode][productCodeToProposalProduct[_productCode].productId][msg.sender][0] = true;\r\n    if (_opinion == true) {\r\n      productCodeToProposalProduct[_productCode].forVotes++;\r\n    } else {\r\n      productCodeToProposalProduct[_productCode].againstVotes++;\r\n    }\r\n    alreadyVoted[_productCode][productCodeToProposalProduct[_productCode].productId][msg.sender][1] = _opinion;\r\n    addressToUser[msg.sender].tokenNumber--;\r\n  }\r\n\r\n  /**\r\n  @notice User is voting for a product in proposal phase (new or update)\r\n  @dev\r\n         User can only vote if he is registered and he has not already voted\r\n         Then adding vote to for and against\r\n  @param proposerAddress proposer\r\n         _productCode product targeted for the vote\r\n*/\r\n  function endVote(uint _productCode, address proposerAddress) public {\r\n    require(msg.sender == endVoteResponsible, 'Vous ne pouvez pas mettre fin au vote !');\r\n    require(productCodeToProposalProduct[_productCode].startDate < productCodeToProposalProduct[_productCode].endDate, \"La fin du vote n'est pas depasse !\");\r\n    require(productCodeToProposalProduct[_productCode].isVotable, \"Ce produit n'est pas NOUVEAU ni en MODIFICATION\");\r\n    require(productCodeToProposalProduct[_productCode].productProposerAddress != address(0), \"Ce produit n'existe pas en proposition\");\r\n    if (productCodeToProposalProduct[_productCode].forVotes >= productCodeToProposalProduct[_productCode].againstVotes) {\r\n      acceptedProduct(_productCode, proposerAddress);\r\n    } else {\r\n      refusedProduct(_productCode, proposerAddress);\r\n    }\r\n  }\r\n\r\n  /*\r\n  @notice Register a user when he does his first proposal or vote\r\n  @dev\r\n  Defines a new User object, giving him token and reputation\r\n  Adds it to a mapping with all other subscribed users\r\n  */\r\n  function subscribeUser() public {\r\n    require(addressToUser[msg.sender].isExist == false);\r\n    User memory user;\r\n    user.userId = uniqueIdUser;\r\n    // user.role = Role.CUSTOMER;\r\n    user.lastTimeTokenGiven = now;\r\n    user.tokenNumber = 5;\r\n    user.reputation = 50;\r\n    user.isExist = true;\r\n    uniqueIdUser++;\r\n    addressToUser[msg.sender] = user;\r\n  }\r\n\r\n  function deleteProductFromProposal(uint _productCode, address proposerAddress) internal {\r\n    delete productCodeToProposalProduct[_productCode];\r\n    delete productCodeToProposalProduct[_productCode];\r\n  }\r\n\r\n  function refusedProduct(uint _productCode, address proposerAddress) internal {\r\n    if (productCodeToProduct[_productCode].productProposerAddress != address(0)) {\r\n      deleteProductFromProposal(_productCode, proposerAddress);\r\n    } else {\r\n      productCodeToProposalProduct[_productCode].isVotable = false;\r\n      //  addressToProducts[proposerAddress][_productCode].isVotable = false;\r\n    }\r\n\r\n  }\r\n\r\n  function acceptedProduct(uint _productCode, address proposerAddress) internal {\r\n    productCodeToProposalProduct[_productCode].isVotable = false;\r\n    //  addressToProducts[proposerAddress][_productCode].isVotable = false;\r\n    productCodeToProduct[_productCode] = productCodeToProposalProduct[_productCode];\r\n    productCodeToHashes[_productCode] = productCodeToProposalHashes[_productCode];\r\n    deleteProductFromProposal(_productCode, proposerAddress);\r\n\r\n  }\r\n\r\n  /*function getProductHashes(uint _productCode) public view returns (bytes32[5] memory) {\r\n    return [productCodeToProposalHashes[_productCode].labels_hash,\r\n    productCodeToProposalHashes[_productCode].ingredients_hash,\r\n    productCodeToProposalHashes[_productCode].additives_hash,\r\n    productCodeToProposalHashes[_productCode].nutriments_hash,\r\n    productCodeToProposalHashes[_productCode].variousData_hash\r\n    ];\r\n  }*/\r\n\r\n  function verifyCompliance(\r\n    uint64 _productCode,\r\n    string[] memory _labels,\r\n    string[] memory _ingredients,\r\n    string[] memory _additifs,\r\n    Nutriment memory _nutriments,\r\n    string memory _productName,\r\n    string memory _typeOfProduct,\r\n    uint16 _quantity,\r\n    string memory _packaging) public view returns (bytes32[6] memory) {\r\n      bytes32 labels_hash =  keccak256(abi.encode(_labels));\r\n      bytes32 ingredients_hash =  keccak256(abi.encode(_ingredients));\r\n      bytes32 additives_hash =  keccak256(abi.encode(_additifs));\r\n      bytes32 nutriments_hash =  keccak256(abi.encode(_nutriments));\r\n      bytes32 variousDatas_hash = keccak256(abi.encodePacked(_productCode, _productName, _typeOfProduct, _quantity, _packaging));\r\n\r\n      return [keccak256(abi.encodePacked(labels_hash, ingredients_hash, additives_hash, nutriments_hash, variousDatas_hash)),\r\n      labels_hash,\r\n      ingredients_hash,\r\n      additives_hash,\r\n      nutriments_hash,\r\n      variousDatas_hash\r\n    ];\r\n  }\r\n\r\n  function getProductHashes(uint _productCode) public view  returns (bytes32[6] memory){\r\n    return [productCodeToHashes[_productCode].all_hash,\r\n    productCodeToHashes[_productCode].labels_hash,\r\n    productCodeToHashes[_productCode].ingredients_hash,\r\n    productCodeToHashes[_productCode].additives_hash,\r\n    productCodeToHashes[_productCode].nutriments_hash,\r\n    productCodeToHashes[_productCode].variousData_hash\r\n    ];\r\n  }\r\n\r\n  // To add a product in proposal, we need to check if the product doesn't already exist in mappings of products\r\n  function checkProductIsNew(uint _productCode) public view checkLengthGS1(_productCode) returns (bool) {\r\n    if (productCodeToProposalProduct[_productCode].productProposerAddress == address(0) && productCodeToProduct[_productCode].productProposerAddress == address(0)) {\r\n      return true;\r\n    } else {\r\n      return false;\r\n    }\r\n  }\r\n\r\n  function isProductProposer(uint _productCode) public view returns (bool) {\r\n    return productCodeToProposalProduct[_productCode].productProposerAddress == msg.sender;\r\n  }\r\n\r\n  function isAlreadyVotedByCurrentUser(uint _productCode) public view returns (bool) {\r\n    return alreadyVoted[_productCode][productCodeToProposalProduct[_productCode].productId][msg.sender][0] == true;\r\n  }\r\n\r\n  function getDates(uint _productCode) public view returns (uint, uint) {\r\n    return (productCodeToProposalProduct[_productCode].startDate, productCodeToProposalProduct[_productCode].endDate);\r\n  }\r\n\r\n}\r\n",
  "sourcePath": "C:\\Users\\Fabrice\\Desktop\\Project_EatHealthyLabelChain\\EatHealthyLabelChain\\contracts\\EatHealthyChain.sol",
  "compiler": {
    "name": "solc",
    "version": "0.5.16+commit.9c3226ce.Emscripten.clang"
  },
  "schemaVersion": "3.2.0",
  "updatedAt": "2020-08-06T17:39:46.915Z",
  "networkType": "ethereum",
  "devdoc": {
    "methods": {
      "addProductToProposal(uint64,string[],string[],string[],(string,string,string,string,string,string,string,string,string,string),string,string,uint16,string)": {
        "details": "Add a new Product and Nutriments object in corresponding proposal mappings Also added in corresponding arrays, useful to get them all from front-end Finally, emitting an event to warn the user, all is OK",
        "params": {
          "_productCode": ", _productName, _labels, _ingredients, _quantity, _typeOfProduct, _packaging, _nutriments, _addiditfs => Elements needed to fill in both Product and Nutriments object"
        }
      },
      "endVote(uint256,address)": {
        "details": "User can only vote if he is registered and he has not already voted Then adding vote to for and against",
        "params": {
          "proposerAddress": "proposer _productCode product targeted for the vote"
        }
      },
      "vote(bool,uint256)": {
        "details": "User can only vote if he is registered and he has not already voted Then adding vote to for and against",
        "params": {
          "_opinion": "vote value (for or against) _productCode product targeted for the vote"
        }
      }
    }
  },
  "userdoc": {
    "methods": {
      "addProductToProposal(uint64,string[],string[],string[],(string,string,string,string,string,string,string,string,string,string),string,string,uint16,string)": {
        "notice": "Product is added in proposal phase by the user, then visible for all users for votes"
      },
      "endVote(uint256,address)": {
        "notice": "User is voting for a product in proposal phase (new or update)"
      },
      "vote(bool,uint256)": {
        "notice": "User is voting for a product in proposal phase (new or update)"
      }
    }
  }
}