{
  "contractName": "EatHealthyChain",
  "abi": [
    {
      "inputs": [],
      "payable": false,
      "stateMutability": "nonpayable",
      "type": "constructor"
    },
    {
      "anonymous": false,
      "inputs": [
        {
          "indexed": false,
          "internalType": "bytes32[6]",
          "name": "hashes",
          "type": "bytes32[6]"
        },
        {
          "indexed": false,
          "internalType": "address",
          "name": "proposerProduct",
          "type": "address"
        },
        {
          "indexed": false,
          "internalType": "uint256[2]",
          "name": "voteDates",
          "type": "uint256[2]"
        }
      ],
      "name": "TriggerAddProduct",
      "type": "event"
    },
    {
      "constant": true,
      "inputs": [
        {
          "internalType": "address",
          "name": "",
          "type": "address"
        }
      ],
      "name": "addressToUser",
      "outputs": [
        {
          "internalType": "int16",
          "name": "tokenNumber",
          "type": "int16"
        },
        {
          "internalType": "int16",
          "name": "reputation",
          "type": "int16"
        },
        {
          "internalType": "uint32",
          "name": "userId",
          "type": "uint32"
        },
        {
          "internalType": "uint256",
          "name": "lastTimeTokenGiven",
          "type": "uint256"
        },
        {
          "internalType": "bool",
          "name": "isExist",
          "type": "bool"
        }
      ],
      "payable": false,
      "stateMutability": "view",
      "type": "function"
    },
    {
      "constant": true,
      "inputs": [
        {
          "internalType": "uint256",
          "name": "",
          "type": "uint256"
        },
        {
          "internalType": "uint256",
          "name": "",
          "type": "uint256"
        },
        {
          "internalType": "address",
          "name": "",
          "type": "address"
        },
        {
          "internalType": "uint256",
          "name": "",
          "type": "uint256"
        }
      ],
      "name": "alreadyVoted",
      "outputs": [
        {
          "internalType": "bool",
          "name": "",
          "type": "bool"
        }
      ],
      "payable": false,
      "stateMutability": "view",
      "type": "function"
    },
    {
      "constant": true,
      "inputs": [
        {
          "internalType": "uint256",
          "name": "",
          "type": "uint256"
        }
      ],
      "name": "productCodeToHashIPFS",
      "outputs": [
        {
          "internalType": "string",
          "name": "",
          "type": "string"
        }
      ],
      "payable": false,
      "stateMutability": "view",
      "type": "function"
    },
    {
      "constant": true,
      "inputs": [
        {
          "internalType": "uint256",
          "name": "",
          "type": "uint256"
        }
      ],
      "name": "productCodeToHashes",
      "outputs": [
        {
          "internalType": "bytes32",
          "name": "ingredients_hash",
          "type": "bytes32"
        },
        {
          "internalType": "bytes32",
          "name": "labels_hash",
          "type": "bytes32"
        },
        {
          "internalType": "bytes32",
          "name": "nutriments_hash",
          "type": "bytes32"
        },
        {
          "internalType": "bytes32",
          "name": "additives_hash",
          "type": "bytes32"
        },
        {
          "internalType": "bytes32",
          "name": "variousData_hash",
          "type": "bytes32"
        },
        {
          "internalType": "bytes32",
          "name": "all_hash",
          "type": "bytes32"
        }
      ],
      "payable": false,
      "stateMutability": "view",
      "type": "function"
    },
    {
      "constant": true,
      "inputs": [
        {
          "internalType": "uint256",
          "name": "",
          "type": "uint256"
        }
      ],
      "name": "productCodeToProduct",
      "outputs": [
        {
          "internalType": "address",
          "name": "productProposerAddress",
          "type": "address"
        },
        {
          "internalType": "uint16",
          "name": "forVotes",
          "type": "uint16"
        },
        {
          "internalType": "uint16",
          "name": "againstVotes",
          "type": "uint16"
        },
        {
          "internalType": "uint32",
          "name": "productId",
          "type": "uint32"
        },
        {
          "internalType": "uint64",
          "name": "productCode",
          "type": "uint64"
        },
        {
          "internalType": "uint256",
          "name": "startDate",
          "type": "uint256"
        },
        {
          "internalType": "uint256",
          "name": "endDate",
          "type": "uint256"
        },
        {
          "internalType": "bool",
          "name": "isVotable",
          "type": "bool"
        },
        {
          "internalType": "string",
          "name": "hash_IPFS",
          "type": "string"
        }
      ],
      "payable": false,
      "stateMutability": "view",
      "type": "function"
    },
    {
      "constant": true,
      "inputs": [
        {
          "internalType": "uint256",
          "name": "",
          "type": "uint256"
        }
      ],
      "name": "productCodeToProposalHashes",
      "outputs": [
        {
          "internalType": "bytes32",
          "name": "ingredients_hash",
          "type": "bytes32"
        },
        {
          "internalType": "bytes32",
          "name": "labels_hash",
          "type": "bytes32"
        },
        {
          "internalType": "bytes32",
          "name": "nutriments_hash",
          "type": "bytes32"
        },
        {
          "internalType": "bytes32",
          "name": "additives_hash",
          "type": "bytes32"
        },
        {
          "internalType": "bytes32",
          "name": "variousData_hash",
          "type": "bytes32"
        },
        {
          "internalType": "bytes32",
          "name": "all_hash",
          "type": "bytes32"
        }
      ],
      "payable": false,
      "stateMutability": "view",
      "type": "function"
    },
    {
      "constant": true,
      "inputs": [
        {
          "internalType": "uint256",
          "name": "",
          "type": "uint256"
        }
      ],
      "name": "productCodeToProposalProduct",
      "outputs": [
        {
          "internalType": "address",
          "name": "productProposerAddress",
          "type": "address"
        },
        {
          "internalType": "uint16",
          "name": "forVotes",
          "type": "uint16"
        },
        {
          "internalType": "uint16",
          "name": "againstVotes",
          "type": "uint16"
        },
        {
          "internalType": "uint32",
          "name": "productId",
          "type": "uint32"
        },
        {
          "internalType": "uint64",
          "name": "productCode",
          "type": "uint64"
        },
        {
          "internalType": "uint256",
          "name": "startDate",
          "type": "uint256"
        },
        {
          "internalType": "uint256",
          "name": "endDate",
          "type": "uint256"
        },
        {
          "internalType": "bool",
          "name": "isVotable",
          "type": "bool"
        },
        {
          "internalType": "string",
          "name": "hash_IPFS",
          "type": "string"
        }
      ],
      "payable": false,
      "stateMutability": "view",
      "type": "function"
    },
    {
      "constant": true,
      "inputs": [
        {
          "internalType": "uint256",
          "name": "",
          "type": "uint256"
        },
        {
          "internalType": "uint256",
          "name": "",
          "type": "uint256"
        }
      ],
      "name": "productCodeToRealLabels",
      "outputs": [
        {
          "internalType": "uint256",
          "name": "id",
          "type": "uint256"
        },
        {
          "internalType": "uint256",
          "name": "expiration_date",
          "type": "uint256"
        },
        {
          "internalType": "string",
          "name": "label_name",
          "type": "string"
        }
      ],
      "payable": false,
      "stateMutability": "view",
      "type": "function"
    },
    {
      "constant": false,
      "inputs": [
        {
          "internalType": "uint64",
          "name": "_productCode",
          "type": "uint64"
        },
        {
          "internalType": "uint16",
          "name": "_quantity",
          "type": "uint16"
        },
        {
          "internalType": "string[]",
          "name": "_labels",
          "type": "string[]"
        },
        {
          "internalType": "string[]",
          "name": "_ingredients",
          "type": "string[]"
        },
        {
          "internalType": "string[]",
          "name": "_additives",
          "type": "string[]"
        },
        {
          "components": [
            {
              "internalType": "string",
              "name": "energy",
              "type": "string"
            },
            {
              "internalType": "string",
              "name": "energy_kcal",
              "type": "string"
            },
            {
              "internalType": "string",
              "name": "proteines",
              "type": "string"
            },
            {
              "internalType": "string",
              "name": "carbohydrates",
              "type": "string"
            },
            {
              "internalType": "string",
              "name": "salt",
              "type": "string"
            },
            {
              "internalType": "string",
              "name": "sugar",
              "type": "string"
            },
            {
              "internalType": "string",
              "name": "fat",
              "type": "string"
            },
            {
              "internalType": "string",
              "name": "saturated_fat",
              "type": "string"
            },
            {
              "internalType": "string",
              "name": "fiber",
              "type": "string"
            },
            {
              "internalType": "string",
              "name": "sodium",
              "type": "string"
            }
          ],
          "internalType": "struct EatHealthyChain.Nutriment",
          "name": "_nutriments",
          "type": "tuple"
        },
        {
          "internalType": "string",
          "name": "_productName",
          "type": "string"
        },
        {
          "internalType": "string",
          "name": "_typeOfProduct",
          "type": "string"
        },
        {
          "internalType": "string",
          "name": "_packaging",
          "type": "string"
        },
        {
          "internalType": "string",
          "name": "_hash_ipfs",
          "type": "string"
        }
      ],
      "name": "addProductToProposal",
      "outputs": [],
      "payable": false,
      "stateMutability": "nonpayable",
      "type": "function"
    },
    {
      "constant": false,
      "inputs": [
        {
          "internalType": "bool",
          "name": "_opinion",
          "type": "bool"
        },
        {
          "internalType": "uint256",
          "name": "_productCode",
          "type": "uint256"
        }
      ],
      "name": "vote",
      "outputs": [],
      "payable": false,
      "stateMutability": "nonpayable",
      "type": "function"
    },
    {
      "constant": false,
      "inputs": [
        {
          "internalType": "uint256",
          "name": "_productCode",
          "type": "uint256"
        }
      ],
      "name": "endVote",
      "outputs": [],
      "payable": false,
      "stateMutability": "nonpayable",
      "type": "function"
    },
    {
      "constant": false,
      "inputs": [],
      "name": "subscribeUser",
      "outputs": [],
      "payable": false,
      "stateMutability": "nonpayable",
      "type": "function"
    },
    {
      "constant": false,
      "inputs": [
        {
          "components": [
            {
              "internalType": "uint64",
              "name": "productCode",
              "type": "uint64"
            },
            {
              "internalType": "uint64",
              "name": "productCodeAlternative",
              "type": "uint64"
            },
            {
              "internalType": "uint16",
              "name": "forVotes",
              "type": "uint16"
            },
            {
              "internalType": "uint16",
              "name": "againstVotes",
              "type": "uint16"
            },
            {
              "internalType": "bool",
              "name": "isVotedToday",
              "type": "bool"
            },
            {
              "internalType": "uint256",
              "name": "propositionDate",
              "type": "uint256"
            }
          ],
          "internalType": "struct EatHealthyChain.Alternative[]",
          "name": "_alternativeVotes",
          "type": "tuple[]"
        }
      ],
      "name": "manageAlternatives",
      "outputs": [],
      "payable": false,
      "stateMutability": "nonpayable",
      "type": "function"
    },
    {
      "constant": true,
      "inputs": [
        {
          "internalType": "uint64",
          "name": "_productCode",
          "type": "uint64"
        },
        {
          "internalType": "string[]",
          "name": "_labels",
          "type": "string[]"
        },
        {
          "internalType": "string[]",
          "name": "_ingredients",
          "type": "string[]"
        },
        {
          "internalType": "string[]",
          "name": "_additives",
          "type": "string[]"
        },
        {
          "components": [
            {
              "internalType": "string",
              "name": "energy",
              "type": "string"
            },
            {
              "internalType": "string",
              "name": "energy_kcal",
              "type": "string"
            },
            {
              "internalType": "string",
              "name": "proteines",
              "type": "string"
            },
            {
              "internalType": "string",
              "name": "carbohydrates",
              "type": "string"
            },
            {
              "internalType": "string",
              "name": "salt",
              "type": "string"
            },
            {
              "internalType": "string",
              "name": "sugar",
              "type": "string"
            },
            {
              "internalType": "string",
              "name": "fat",
              "type": "string"
            },
            {
              "internalType": "string",
              "name": "saturated_fat",
              "type": "string"
            },
            {
              "internalType": "string",
              "name": "fiber",
              "type": "string"
            },
            {
              "internalType": "string",
              "name": "sodium",
              "type": "string"
            }
          ],
          "internalType": "struct EatHealthyChain.Nutriment",
          "name": "_nutriments",
          "type": "tuple"
        },
        {
          "internalType": "string",
          "name": "_productName",
          "type": "string"
        },
        {
          "internalType": "string",
          "name": "_typeOfProduct",
          "type": "string"
        },
        {
          "internalType": "uint16",
          "name": "_quantity",
          "type": "uint16"
        },
        {
          "internalType": "string",
          "name": "_packaging",
          "type": "string"
        },
        {
          "internalType": "string",
          "name": "_hash_ipfs",
          "type": "string"
        }
      ],
      "name": "verifyCompliance",
      "outputs": [
        {
          "internalType": "bytes32[6]",
          "name": "",
          "type": "bytes32[6]"
        }
      ],
      "payable": false,
      "stateMutability": "pure",
      "type": "function"
    },
    {
      "constant": true,
      "inputs": [
        {
          "internalType": "uint256",
          "name": "_productCode",
          "type": "uint256"
        }
      ],
      "name": "getProductHashes",
      "outputs": [
        {
          "internalType": "bytes32[6]",
          "name": "",
          "type": "bytes32[6]"
        }
      ],
      "payable": false,
      "stateMutability": "view",
      "type": "function"
    },
    {
      "constant": true,
      "inputs": [
        {
          "internalType": "uint256",
          "name": "_productCode",
          "type": "uint256"
        }
      ],
      "name": "checkProductIsNew",
      "outputs": [
        {
          "internalType": "bool",
          "name": "",
          "type": "bool"
        }
      ],
      "payable": false,
      "stateMutability": "view",
      "type": "function"
    },
    {
      "constant": true,
      "inputs": [
        {
          "internalType": "uint256",
          "name": "_productCode",
          "type": "uint256"
        }
      ],
      "name": "isProductProposer",
      "outputs": [
        {
          "internalType": "bool",
          "name": "",
          "type": "bool"
        }
      ],
      "payable": false,
      "stateMutability": "view",
      "type": "function"
    },
    {
      "constant": true,
      "inputs": [
        {
          "internalType": "uint256",
          "name": "_productCode",
          "type": "uint256"
        }
      ],
      "name": "isAlreadyVotedByCurrentUser",
      "outputs": [
        {
          "internalType": "bool",
          "name": "",
          "type": "bool"
        }
      ],
      "payable": false,
      "stateMutability": "view",
      "type": "function"
    },
    {
      "constant": true,
      "inputs": [
        {
          "internalType": "uint256",
          "name": "_productCode",
          "type": "uint256"
        }
      ],
      "name": "getDates",
      "outputs": [
        {
          "internalType": "uint256",
          "name": "",
          "type": "uint256"
        },
        {
          "internalType": "uint256",
          "name": "",
          "type": "uint256"
        }
      ],
      "payable": false,
      "stateMutability": "view",
      "type": "function"
    }
  ],
  "bytecode": "0x60806040523480156200001157600080fd5b50600080546001600160a01b03191633178082556040805160a081018252600a8152602080820185815263ffffffff600160a01b808704821685870190815242606087019081526001608088018181526001600160a01b039a909a168b5295869052968920955186549451915184166401000000000263ffffffff60201b1992870b61ffff908116620100000263ffff00001993890b90911661ffff199097169690961791909116949094171692909217845593518383015593516002909201805492151560ff19909316929092179091558354838104831690910190911690910263ffffffff60a01b19909116179055620001156001600160e01b036200011b16565b6200056f565b600760209081526040805160608101825260008054600160e01b900463ffffffff16825242620d2f000182850190815283518085018552600b81526a4c6162656c20526f75676560a81b818701529383019384526000805160206200300c8339815191528054600181018083559190935283516000805160206200304c8339815191526003909402938401908155915160008051602062002fac83398151915284015593518051949593949193620001e893600080516020620030ac8339815191520192910190620004ca565b505060076020908152604080516060810182526000805463ffffffff600160e01b909104168252620d2f00420182850190815283518085018552600380825262414f4360e81b828801529484019081526000805160206200300c833981519152805460018101808355919094528451939095026000805160206200304c8339815191528101938455915160008051602062002fac8339815191528301555180519497509295509093620002b193600080516020620030ac833981519152909201920190620004ca565b505060098054600181810190925565011f71fb09226000805160206200308c833981519152909101556000805463ffffffff600160e01b80830482168501821681026001600160e01b03909316929092178084556007602090815260408051606081018252949092049092168352620a8c0042018383019081528151808401835285815291840191825260008051602062002fec83398151915280549687018082559552835160039096026000805160206200306c833981519152810196875590516000805160206200302c83398151915282015590518051949750929550620003b39360008051602062002fcc8339815191529091019290910190620004ca565b5050600760209081526040805160608101825260008054600160e01b900463ffffffff16825242620a8c00018285019081528351808601855282815293830193845260008051602062002fec8339815191528054600181018083559190935283516000805160206200306c833981519152600390940293840190815591516000805160206200302c8339815191528401559351805194975092955093620004709360008051602062002fcc833981519152909201920190620004ca565b50506009805460018181018355600092835265050d80ea58e36000805160206200308c83398151915290920191909155815463ffffffff600160e01b8083048216909301169091026001600160e01b039091161790555050565b828054600181600116156101000203166002900490600052602060002090601f016020900481019282601f106200050d57805160ff19168380011785556200053d565b828001600101855582156200053d579182015b828111156200053d57825182559160200191906001019062000520565b506200054b9291506200054f565b5090565b6200056c91905b808211156200054b576000815560010162000556565b90565b612a2d806200057f6000396000f3fe608060405234801561001057600080fd5b50600436106101215760003560e01c80637b37d549116100ad578063be301d3411610071578063be301d341461029b578063d54d6c70146102ae578063dd471e86146102c1578063eafc9df3146102d4578063edf53886146102e757610121565b80637b37d5491461022e578063865df0ad14610241578063a98d5fc814610254578063abe31d1514610275578063afa3db881461028857610121565b8063230fcaae116100f4578063230fcaae1461019c5780632957d914146101be5780635172454d146101de57806361ef3c15146101fe5780636c9672ff1461022657610121565b80630638d4801461012657806310e6e06c1461014f5780631257bbe7146101645780631c1ac2b714610177575b600080fd5b610139610134366004611d09565b61030b565b6040516101469190612674565b60405180910390f35b61016261015d366004611c31565b61045b565b005b610162610172366004611bfd565b610683565b61018a610185366004611c6b565b6107ec565b604051610146969594939291906126ca565b6101af6101aa366004611c89565b610821565b6040516101469392919061283d565b6101d16101cc366004611c6b565b6108eb565b60405161014691906126bc565b6101f16101ec366004611c6b565b61090a565b6040516101469190612770565b61021161020c366004611c6b565b6109a5565b604051610146999897969594939291906125e8565b610162610aa6565b61018a61023c366004611c6b565b610b9d565b61016261024f366004611c6b565b610bd2565b610267610262366004611c6b565b610ca3565b604051610146929190612822565b6101d1610283366004611ca8565b610cc0565b610162610296366004611e9a565b610d10565b6101d16102a9366004611c6b565b6111ad565b6102116102bc366004611c6b565b6111ef565b6101396102cf366004611c6b565b6112bb565b6101d16102e2366004611c6b565b61131d565b6102fa6102f5366004611bd7565b611398565b604051610146959493929190612724565b610313611633565b60008a60405160200161032691906126ab565b60405160208183030381529060405280519060200120905060008a60405160200161035191906126ab565b60405160208183030381529060405280519060200120905060008a60405160200161037c91906126ab565b60405160208183030381529060405280519060200120905060008a6040516020016103a79190612811565b60405160208183030381529060405280519060200120905060008f8b8b8b8b8b6040516020016103dc9695949392919061258c565b60408051601f19818403018152828252805160209091012060c0830190915291508061040f878787878760e08701612533565b60405160208183030381529060405280519060200120815260200186815260200185815260200184815260200183815260200182815250955050505050509a9950505050505050505050565b600081815260036020526040902060040154819060ff166104975760405162461bcd60e51b815260040161048e906127d1565b60405180910390fd5b6000828152600360205260409020546001600160a01b03163314156104ce5760405162461bcd60e51b815260040161048e906127e1565b336000908152600160208190526040822054810b900b136105015760405162461bcd60e51b815260040161048e906127b1565b60008281526002602090815260408083206003835281842054600160c01b900463ffffffff168452825280832033845290915290205460ff16156105575760405162461bcd60e51b815260040161048e906127a1565b6000828152600260209081526040808320600383528184205463ffffffff600160c01b90910416845282528083203384529091529020805460ff1916600190811790915583151514156105db5760008281526003602052604090208054600161ffff600160a01b808404821692909201160261ffff60a01b1990911617905561060e565b60008281526003602052604090208054600161ffff600160b01b808404821692909201160261ffff60b01b199091161790555b5060009081526002602090815260408083206003835281842054600160c01b900463ffffffff1684528252808320338452825280832080549415156101000261ff001990951694909417909355600190819052919020805460001981840b0190920b61ffff1661ffff19909216919091179055565b6000546001600160a01b031633146106ad5760405162461bcd60e51b815260040161048e906127f1565b60005b81518110156107e8578181815181106106c557fe5b6020026020010151600560008484815181106106dd57fe5b6020026020010151600001516001600160401b03168152602001908152602001600020600601600084848151811061071157fe5b6020908102919091018101518101516001600160401b0390811683528282019390935260409182016000208451815492860151938601516060870151608088015167ffffffffffffffff19909516928716929092176fffffffffffffffff000000000000000019166801000000000000000095909616949094029490941761ffff60801b1916600160801b61ffff948516021761ffff60901b1916600160901b93909416929092029290921760ff60a01b1916600160a01b9215159290920291909117815560a090910151600191820155016106b0565b5050565b600460208190526000918252604090912080546001820154600283015460038401549484015460059094015492949193909286565b6007602052816000526040600020818154811061083a57fe5b6000918252602091829020600391909102018054600180830154600280850180546040805195821615610100026000190190911692909204601f810188900488028501880190925281845293975090955092939092908301828280156108e15780601f106108b6576101008083540402835291602001916108e1565b820191906000526020600020905b8154815290600101906020018083116108c457829003601f168201915b5050505050905083565b6000818152600360205260409020546001600160a01b03163314919050565b60086020908152600091825260409182902080548351601f60026000196101006001861615020190931692909204918201849004840281018401909452808452909183018282801561099d5780601f106109725761010080835404028352916020019161099d565b820191906000526020600020905b81548152906001019060200180831161098057829003601f168201915b505050505081565b60056020818152600092835260409283902080546001808301546002808501546003860154600487015498870180548b516101009782161597909702600019011693909304601f8101899004890286018901909a528985526001600160a01b03861699600160a01b870461ffff9081169a600160b01b890490911699600160c01b90980463ffffffff16986001600160401b03909616979396929560ff909116949093909190830182828015610a9c5780601f10610a7157610100808354040283529160200191610a9c565b820191906000526020600020905b815481529060010190602001808311610a7f57829003601f168201915b5050505050905089565b3360009081526001602052604090206002015460ff1615610ac657600080fd5b610ace611651565b60008054600160a01b80820463ffffffff908116604086810182815242606089019081526005895260326020808b01918252600160808c0181815263ffffffff60a01b19909a1696810188169098029590951789553389529386905291909620965187549251965161ffff1990931690850b61ffff9081169190911763ffff000019166201000097860b91909116969096029590951767ffffffff0000000019166401000000009190921602178455915191830191909155516002909101805460ff1916911515919091179055565b600660205260009081526040902080546001820154600283015460038401546004850154600590950154939492939192909186565b6000546001600160a01b03163314610bfc5760405162461bcd60e51b815260040161048e906127f1565b600081815260036020526040902060040154819060ff16610c2f5760405162461bcd60e51b815260040161048e906127d1565b6000828152600360205260409020546001600160a01b0316610c635760405162461bcd60e51b815260040161048e906127c1565b60008281526003602052604090205461ffff600160b01b82048116600160a01b9092041610610c9a57610c95826113d9565b6107e8565b6107e88261155f565b600090815260036020819052604090912060028101549101549091565b60026020528360005260406000206020528260005260406000206020528160005260406000208160028110610cf157fe5b602081049091015460ff601f9092166101000a90041693508492505050565b896001600160401b0316650102b36211c78111610d3f5760405162461bcd60e51b815260040161048e90612781565b3360009081526001602081905260409091206002015460ff16151514610d775760405162461bcd60e51b815260040161048e90612801565b6001600160401b038b166000818152600360205260409020546001600160a01b031615610db65760405162461bcd60e51b815260040161048e90612791565b610dbe61167f565b8a604051602001610dcf91906126ab565b60408051601f1981840301815291815281516020928301208383015251610df8918c91016126ab565b60408051601f198184030181529181528151602092830120835251610e1f918b91016126ab565b60408051601f198184030181529181528151602092830120606084015251610e49918a9101612811565b604051602081830303815290604052805190602001208160400181815250508c87878e8888604051602001610e839695949392919061258c565b60408051601f198184030181529181528151602092830120608084018190528383015184516060860151868501519451610ec39693959294919301612533565b604051602081830303815290604052805190602001208160a0018181525050604051806101200160405280336001600160a01b03168152602001600061ffff168152602001600061ffff168152602001600060189054906101000a900463ffffffff1663ffffffff1681526020018e6001600160401b031681526020014281526020014261012c01815260200160011515815260200185815250600360008f6001600160401b0316815260200190815260200160002060008201518160000160006101000a8154816001600160a01b0302191690836001600160a01b0316021790555060208201518160000160146101000a81548161ffff021916908361ffff16021790555060408201518160000160166101000a81548161ffff021916908361ffff16021790555060608201518160000160186101000a81548163ffffffff021916908363ffffffff16021790555060808201518160010160006101000a8154816001600160401b0302191690836001600160401b0316021790555060a0820151816002015560c0820151816003015560e08201518160040160006101000a81548160ff0219169083151502179055506101008201518160050190805190602001906110919291906116b4565b5050506001600160401b038d166000908152600460208181526040808420855181558286018051600180840191909155838801805160028501556060808a01805160038701556080808c0180519a88019a909a5560a0808d0180516005909901989098558b5463ffffffff600160c01b80830482169098011690960263ffffffff60c01b1990961695909517909a55865160c081018852945185528a518589015251848701529051908301529451958101959095525192840192909252815180830183524280825261012c019181019190915290517fb19b8f96e594f972fb1b83f9c257997f845955d8f10af6541a7429c84c2977e892611196929091339190612682565b60405180910390a150505050505050505050505050565b6000908152600260209081526040808320600383528184205463ffffffff600160c01b909104168452825280832033845290915290205460ff16151560011490565b60036020818152600092835260409283902080546001808301546002808501549685015460048601546005870180548b516101009782161597909702600019011693909304601f8101899004890286018901909a528985526001600160a01b03861699600160a01b870461ffff9081169a600160b01b890490911699600160c01b90980463ffffffff16986001600160401b03909616979096939560ff909316949293929190830182828015610a9c5780601f10610a7157610100808354040283529160200191610a9c565b6112c3611633565b506040805160c081018252600083815260066020818152848320600581015485526001810154828601528054958501959095526003850154606085015260028501546080850152949091529092526004015460a082015290565b600081650102b36211c781116113455760405162461bcd60e51b815260040161048e90612781565b6000838152600360205260409020546001600160a01b031615801561137f57506000838152600560205260409020546001600160a01b0316155b1561138d5760019150611392565b600091505b50919050565b600160208190526000918252604090912080548183015460029092015481840b93620100008304900b9264010000000090920463ffffffff16919060ff1685565b60008181526003602081815260408084206004808201805460ff19908116825560059586905293909620825481546001600160a01b0319166001600160a01b0390911617808255835461ffff600160a01b91829004811690910261ffff60a01b19909216919091178083558454600160b01b9081900490921690910261ffff60b01b1990911617808255835463ffffffff600160c01b91829004160263ffffffff60c01b19909116178155600180840154828201805467ffffffffffffffff19166001600160401b039092169190911790556002808501548184015584880154978301979097559654918101805460ff939093161515929094169190911790925582810180549195929461150194860193919291821615610100026000190190911604611732565b5050506000818152600460208181526040808420600690925290922082548155600180840154908201556002808401549082015560038084015490820155828201549181019190915560059182015491015561155c816115a5565b50565b6000818152600560205260409020546001600160a01b03161561158a57611585816115a5565b61155c565b6000908152600360205260409020600401805460ff19169055565b6000818152600360208190526040822080546001600160e01b031916815560018101805467ffffffffffffffff191690556002810183905590810182905560048101805460ff19169055906115fd60058301826117a7565b50506000908152600460208190526040822082815560018101839055600281018390556003810183905590810182905560050155565b6040518060c001604052806006906020820280388339509192915050565b6040805160a08101825260008082526020820181905291810182905260608101829052608081019190915290565b6040805160c081018252600080825260208201819052918101829052606081018290526080810182905260a081019190915290565b828054600181600116156101000203166002900490600052602060002090601f016020900481019282601f106116f557805160ff1916838001178555611722565b82800160010185558215611722579182015b82811115611722578251825591602001919060010190611707565b5061172e9291506117e7565b5090565b828054600181600116156101000203166002900490600052602060002090601f016020900481019282601f1061176b5780548555611722565b8280016001018555821561172257600052602060002091601f016020900482015b8281111561172257825482559160010191906001019061178c565b50805460018160011615610100020316600290046000825580601f106117cd575061155c565b601f01602090049060005260206000209081019061155c91905b61180191905b8082111561172e57600081556001016117ed565b90565b803561180f816129b2565b92915050565b600082601f83011261182657600080fd5b813561183961183482612890565b61286a565b81815260209384019390925082018360005b83811015611877578135860161186188826118fe565b845250602092830192919091019060010161184b565b5050505092915050565b600082601f83011261189257600080fd5b81356118a061183482612890565b915081818352602084019350602081019050838560c08402820111156118c557600080fd5b60005b8381101561187757816118db888261194d565b84525060209092019160c091909101906001016118c8565b803561180f816129c6565b600082601f83011261190f57600080fd5b813561191d611834826128b0565b9150808252602083016020830185838301111561193957600080fd5b61194483828461294a565b50505092915050565b600060c0828403121561195f57600080fd5b61196960c061286a565b905060006119778484611bcc565b825250602061198884848301611bcc565b602083015250604061199c84828501611bb6565b60408301525060606119b084828501611bb6565b60608301525060806119c4848285016118f3565b60808301525060a06119d884828501611bc1565b60a08301525092915050565b600061014082840312156119f757600080fd5b611a0261014061286a565b905081356001600160401b03811115611a1a57600080fd5b611a26848285016118fe565b82525060208201356001600160401b03811115611a4257600080fd5b611a4e848285016118fe565b60208301525060408201356001600160401b03811115611a6d57600080fd5b611a79848285016118fe565b60408301525060608201356001600160401b03811115611a9857600080fd5b611aa4848285016118fe565b60608301525060808201356001600160401b03811115611ac357600080fd5b611acf848285016118fe565b60808301525060a08201356001600160401b03811115611aee57600080fd5b611afa848285016118fe565b60a08301525060c08201356001600160401b03811115611b1957600080fd5b611b25848285016118fe565b60c08301525060e08201356001600160401b03811115611b4457600080fd5b611b50848285016118fe565b60e0830152506101008201356001600160401b03811115611b7057600080fd5b611b7c848285016118fe565b610100830152506101208201356001600160401b03811115611b9d57600080fd5b611ba9848285016118fe565b6101208301525092915050565b803561180f816129cf565b803561180f816129d8565b803561180f816129e1565b600060208284031215611be957600080fd5b6000611bf58484611804565b949350505050565b600060208284031215611c0f57600080fd5b81356001600160401b03811115611c2557600080fd5b611bf584828501611881565b60008060408385031215611c4457600080fd5b6000611c5085856118f3565b9250506020611c6185828601611bc1565b9150509250929050565b600060208284031215611c7d57600080fd5b6000611bf58484611bc1565b60008060408385031215611c9c57600080fd5b6000611c508585611bc1565b60008060008060808587031215611cbe57600080fd5b6000611cca8787611bc1565b9450506020611cdb87828801611bc1565b9350506040611cec87828801611804565b9250506060611cfd87828801611bc1565b91505092959194509250565b6000806000806000806000806000806101408b8d031215611d2957600080fd5b6000611d358d8d611bcc565b9a505060208b01356001600160401b03811115611d5157600080fd5b611d5d8d828e01611815565b99505060408b01356001600160401b03811115611d7957600080fd5b611d858d828e01611815565b98505060608b01356001600160401b03811115611da157600080fd5b611dad8d828e01611815565b97505060808b01356001600160401b03811115611dc957600080fd5b611dd58d828e016119e4565b96505060a08b01356001600160401b03811115611df157600080fd5b611dfd8d828e016118fe565b95505060c08b01356001600160401b03811115611e1957600080fd5b611e258d828e016118fe565b94505060e0611e368d828e01611bb6565b9350506101008b01356001600160401b03811115611e5357600080fd5b611e5f8d828e016118fe565b9250506101208b01356001600160401b03811115611e7c57600080fd5b611e888d828e016118fe565b9150509295989b9194979a5092959850565b6000806000806000806000806000806101408b8d031215611eba57600080fd5b6000611ec68d8d611bcc565b9a50506020611ed78d828e01611bb6565b99505060408b01356001600160401b03811115611ef357600080fd5b611eff8d828e01611815565b98505060608b01356001600160401b03811115611f1b57600080fd5b611f278d828e01611815565b97505060808b01356001600160401b03811115611f4357600080fd5b611f4f8d828e01611815565b96505060a08b01356001600160401b03811115611f6b57600080fd5b611f778d828e016119e4565b95505060c08b01356001600160401b03811115611f9357600080fd5b611f9f8d828e016118fe565b94505060e08b01356001600160401b03811115611fbb57600080fd5b611e368d828e016118fe565b6000611fd3838361211d565b505060200190565b6000611fe7838361216f565b9392505050565b611ff781612939565b82525050565b611ff7816128fb565b61200f816128dd565b61201981846128ed565b925061202482611801565b8060005b8381101561205257815161203c8782611fc7565b9650612047836128d7565b925050600101612028565b505050505050565b6000612065826128e3565b61206f81856128f2565b935083602082028501612081856128d7565b8060005b858110156120bb578484038952815161209e8582611fdb565b94506120a9836128d7565b60209a909a0199925050600101612085565b5091979650505050505050565b6120d1816128e7565b6120db81846128ed565b92506120e682611801565b8060005b838110156120525781516120fe8782611fc7565b9650612109836128d7565b9250506001016120ea565b611ff781612906565b611ff781611801565b611ff761213282611801565b611801565b611ff78161290b565b600061214b826128e3565b61215581856128ed565b9350612165818560208601612956565b9290920192915050565b600061217a826128e3565b61218481856128f2565b9350612194818560208601612956565b61219d8161299c565b9093019392505050565b60006121b4602e836128f2565b7f4c6520636f64652064652070726f64756974206e276120706173206c6120626f81526d6e6e65206c6f6e6775657572202160901b602082015260400192915050565b60006122046020836128f2565b7f43652070726f64756974206573742064c3a96ac3a02070726f706f73c3a92021815260200192915050565b600061223d6016836128f2565b75566f7573206176657a2064c3a96ac3a020766f74c3a960501b815260200192915050565b600061226f601e836128f2565b7f566f7573206e276176657a2070617320617373657a20646520746f6b656e0000815260200192915050565b60006122a86026836128f2565b7f43652070726f64756974206e276578697374652070617320656e2070726f706f81526539b4ba34b7b760d11b602082015260400192915050565b60006122f0601c836128f2565b7f43652070726f64756974206e276573742070617320656e20766f746500000000815260200192915050565b60006123296036836128f2565b7f566f7573206e6520706f7576657a2070617320766f74657220706f757220766f8152753a393290383937b8393290383937b837b9b4ba34b7b760511b602082015260400192915050565b6000612381601f836128f2565b7f566f7573206e27c3aa74657320706173206c6520726573706f6e7361626c6500815260200192915050565b60006123ba601c836128f2565b7f436574207574696c69736174657572206e276578697374652070617300000000815260200192915050565b8051610140808452600091908401906123ff828261216f565b91505060208301518482036020860152612419828261216f565b91505060408301518482036040860152612433828261216f565b9150506060830151848203606086015261244d828261216f565b91505060808301518482036080860152612467828261216f565b91505060a083015184820360a0860152612481828261216f565b91505060c083015184820360c086015261249b828261216f565b91505060e083015184820360e08601526124b5828261216f565b9150506101008301518482036101008601526124d1828261216f565b9150506101208301518482036101208601526124ed828261216f565b95945050505050565b611ff781612911565b611ff761250b82612911565b612986565b611ff781612924565b611ff78161292d565b611ff761252e8261292d565b612991565b600061253f8288612126565b60208201915061254f8287612126565b60208201915061255f8286612126565b60208201915061256f8285612126565b60208201915061257f8284612126565b5060200195945050505050565b60006125988289612522565b6008820191506125a88288612140565b91506125b48287612140565b91506125c082866124ff565b6002820191506125d08285612140565b91506125dc8284612140565b98975050505050505050565b61012081016125f7828c611ffd565b612604602083018b6124f6565b612611604083018a6124f6565b61261e6060830189612510565b61262b6080830188612519565b61263860a083018761211d565b61264560c083018661211d565b61265260e0830185612114565b818103610100830152612665818461216f565b9b9a5050505050505050505050565b60c0810161180f8284612006565b61012081016126918286612006565b61269e60c0830185611fee565b611bf560e08301846120c8565b60208082528101611fe7818461205a565b6020810161180f8284612114565b60c081016126d8828961211d565b6126e5602083018861211d565b6126f2604083018761211d565b6126ff606083018661211d565b61270c608083018561211d565b61271960a083018461211d565b979650505050505050565b60a081016127328288612137565b61273f6020830187612137565b61274c6040830186612510565b612759606083018561211d565b6127666080830184612114565b9695505050505050565b60208082528101611fe7818461216f565b6020808252810161180f816121a7565b6020808252810161180f816121f7565b6020808252810161180f81612230565b6020808252810161180f81612262565b6020808252810161180f8161229b565b6020808252810161180f816122e3565b6020808252810161180f8161231c565b6020808252810161180f81612374565b6020808252810161180f816123ad565b60208082528101611fe781846123e6565b60408101612830828561211d565b611fe7602083018461211d565b6060810161284b828661211d565b612858602083018561211d565b81810360408301526124ed818461216f565b6040518181016001600160401b038111828210171561288857600080fd5b604052919050565b60006001600160401b038211156128a657600080fd5b5060209081020190565b60006001600160401b038211156128c657600080fd5b506020601f91909101601f19160190565b60200190565b50600690565b5190565b50600290565b919050565b90815260200190565b600061180f82612918565b151590565b60010b90565b61ffff1690565b6001600160a01b031690565b63ffffffff1690565b6001600160401b031690565b600061180f82600061180f826128fb565b82818337506000910152565b60005b83811015612971578181015183820152602001612959565b83811115612980576000848401525b50505050565b600061180f826129ac565b600061180f826129a6565b601f01601f191690565b60c01b90565b60f01b90565b6129bb816128fb565b811461155c57600080fd5b6129bb81612906565b6129bb81612911565b6129bb81611801565b6129bb8161292d56fea365627a7a723158200d5f9f99d416b19b6943e0602112493013824e6cc3b49d587393e2838f4cc7dd6c6578706572696d656e74616cf564736f6c634300051000406611290c506d9a374431c7f34bcbdefe73411ac2693caa0bac29eb8d3e2768d05dbed99aaf0ea8386a18c860cdd374d62beade481e8a5e579f8c4ee744f4375d6d2396faeb1f6ac1fc334b2308bc442839284dc9992f41d9379acc19fe109d8c3997d3dc1e4ab75837f8cdefe6aee9b761a4cdbaabd87de1a9de375ea423d2505dbed99aaf0ea8386a18c860cdd374d62beade481e8a5e579f8c4ee744f4375c6611290c506d9a374431c7f34bcbdefe73411ac2693caa0bac29eb8d3e2768cf5dbed99aaf0ea8386a18c860cdd374d62beade481e8a5e579f8c4ee744f4375b6e1540171b6c0c960b71a7020d9f60077f6af931a8bbf590da0223dacf75c7af6611290c506d9a374431c7f34bcbdefe73411ac2693caa0bac29eb8d3e2768d1",
  "source": "pragma solidity 0.5.16;\r\n\r\npragma experimental ABIEncoderV2;\r\n\r\ncontract EatHealthyChain {\r\n\r\n  // Basic Alternative definition\r\n  // It sets for and against votes for a product code alternative to the product code defined\r\n  struct Alternative {\r\n    uint64 productCode;\r\n    uint64 productCodeAlternative;\r\n    uint16 forVotes;\r\n    uint16 againstVotes;\r\n    bool isVotedToday;\r\n    uint propositionDate;\r\n  }\r\n\r\n  // Basic Product definition containing values about the product itself\r\n  // but also about consensus\r\n  struct Product {\r\n    address productProposerAddress;\r\n    uint16 forVotes;\r\n    uint16 againstVotes;\r\n    uint32 productId;\r\n    uint64 productCode;\r\n    uint startDate;\r\n    uint endDate;\r\n    bool isVotable;\r\n    string hash_IPFS;\r\n    mapping(uint => Alternative) alternatives;\r\n  }\r\n\r\n  // Hashes structure\r\n  // Contains all hashes for a given product code / Can't store unhashed data\r\n  struct Hashes {\r\n    bytes32 ingredients_hash;\r\n    bytes32 labels_hash;\r\n    bytes32 nutriments_hash;\r\n    bytes32 additives_hash;\r\n    bytes32 variousData_hash;\r\n    bytes32 all_hash;\r\n  }\r\n\r\n  // Label structure\r\n  // Supposed to be real labels given by growers\r\n  struct Label {\r\n    uint id;\r\n    uint expiration_date;\r\n    string label_name;\r\n  }\r\n\r\n  // Basic Nutriment structure needed for the Product structure\r\n  // A way to divide Product content\r\n  struct Nutriment {\r\n    string energy;\r\n    string energy_kcal;\r\n    string proteines;\r\n    string carbohydrates;\r\n    string salt;\r\n    string sugar;\r\n    string fat;\r\n    string saturated_fat;\r\n    string fiber;\r\n    string sodium;\r\n  }\r\n\r\n  // Basic User structure with useful parameters.\r\n  // In particular, token date, token number and reputation\r\n  // needed for the consensus\r\n  struct User {\r\n    int16 tokenNumber;\r\n    int16 reputation;\r\n    uint32 userId;\r\n    uint lastTimeTokenGiven;\r\n    bool isExist;\r\n  }\r\n\r\n  // Contract deployer\r\n  address private _owner;\r\n\r\n  // Default user id increasing each time a user subscribes\r\n  uint32 private uniqueIdUser;\r\n\r\n  // Default product id increasing each time a product is proposed/modified\r\n  uint32 private uniqueProductId;\r\n\r\n  // Default product id increasing each time we add a product code with real labels\r\n  uint32 private uniqueRealLabelId;\r\n\r\n  // Accessing to a User structure by his address\r\n  mapping(address => User) public addressToUser;\r\n\r\n  // Describing users who has already voted for a proposed product(\r\n  mapping(uint => mapping(uint => mapping(address => bool[2]))) public alreadyVoted;\r\n\r\n  // Accessing to a Product in proposal phase by his code\r\n  mapping(uint => Product) public productCodeToProposalProduct;\r\n\r\n  // Accessing to Hashes product in proposal phase by his code\r\n  mapping(uint => Hashes) public productCodeToProposalHashes;\r\n\r\n  // Accessing to a Product adopted by his code\r\n  mapping(uint => Product) public productCodeToProduct;\r\n\r\n  // Accessing to Hashes product adopted by product code\r\n  mapping(uint => Hashes) public productCodeToHashes;\r\n\r\n  // Accessing to real labels defined by growers (they are actually fake in this contract)\r\n  mapping(uint => Label[]) public productCodeToRealLabels;\r\n\r\n  // Accessing to the image IPFS given by user for a product\r\n  mapping(uint => string) public productCodeToHashIPFS;\r\n\r\n  // mapping(address => mapping(uint => Product)) addressToProducts;\r\n  uint[] private trueLabelizedProductCode;\r\n\r\n  // Event triggering product hashes, product proposer address and start/end vote dates when a new product is proposed\r\n  event TriggerAddProduct(bytes32[6] hashes, address proposerProduct, uint[2] voteDates);\r\n\r\n  // Constructor setting the owner, the vote closer and alternatives setup\r\n  // Owner is automatically set as user\r\n  constructor() public {\r\n    _owner = msg.sender;\r\n    addressToUser[_owner] = User(10, 0, uniqueIdUser, now, true);\r\n    uniqueIdUser++;\r\n    setupRealLabels();\r\n  }\r\n\r\n  // Checks the code length, which has to be a length of 13 numbers\r\n  modifier checkLengthGS1 (uint _productCode){\r\n    require(_productCode > 1111111111111, \"Le code de produit n'a pas la bonne longueur !\");\r\n    _;\r\n  }\r\n\r\n  // Checks if the user calling a function exists\r\n  modifier onlyUsers () {\r\n    require(addressToUser[msg.sender].isExist == true, \"Cet utilisateur n'existe pas\");\r\n    _;\r\n  }\r\n\r\n  // Checks if the user calling a function exists\r\n  modifier isNotProposed (uint _productCode) {\r\n    require(productCodeToProposalProduct[_productCode].productProposerAddress == address(0), \"Ce produit est dj propos !\");\r\n    _;\r\n  }\r\n\r\n  // Checks if the user is the responsible for ending a vote or set alternatives\r\n  modifier isResponsible() {\r\n    require(msg.sender == _owner, 'Vous n\\'tes pas le responsable');\r\n    _;\r\n  }\r\n\r\n  // Checks if the product is votable\r\n  modifier isProductVotable(uint _productCode) {\r\n    require(productCodeToProposalProduct[_productCode].isVotable, \"Ce produit n'est pas en vote\");\r\n    _;\r\n  }\r\n\r\n  /**\r\n  @notice Product is added in proposal phase by the user,\r\n          then visible for all users for votes\r\n  @dev\r\n         Add a new Product and Nutriments object in corresponding proposal mappings\r\n         Also added in corresponding arrays, useful to get them all from front-end\r\n         Finally, emitting an event to warn the user, all is OK\r\n  @param _productCode, _productName, _labels, _ingredients, _quantity,\r\n         _typeOfProduct, _packaging, _nutriments, _addiditfs\r\n         => Elements needed to fill in both Product and Nutriments object\r\n  */\r\n  function addProductToProposal(\r\n    uint64 _productCode,\r\n    uint16 _quantity,\r\n    string[] memory _labels,\r\n    string[] memory _ingredients,\r\n    string[] memory _additives,\r\n    Nutriment memory _nutriments,\r\n    string memory _productName,\r\n    string memory _typeOfProduct,\r\n    string memory _packaging,\r\n    string memory _hash_ipfs\r\n  ) checkLengthGS1(_productCode) onlyUsers() isNotProposed(_productCode) public {\r\n  //  Product memory _product;\r\n    Hashes memory _hashes;\r\n//    _product.productId = uniqueProductId;\r\n//    _product.productCode = _productCode;\r\n//    _product.productProposerAddress = msg.sender;\r\n    //    _product.isVotable = true;\r\n    //    _product.startDate = now;\r\n    //    _product.endDate = now + 5 minutes;\r\n    _hashes.labels_hash = keccak256(abi.encode(_labels));\r\n    _hashes.ingredients_hash = keccak256(abi.encode(_ingredients));\r\n    _hashes.additives_hash = keccak256(abi.encode(_additives));\r\n    _hashes.nutriments_hash = keccak256(abi.encode(_nutriments));\r\n    _hashes.variousData_hash = keccak256(abi.encodePacked(_productCode, _productName, _typeOfProduct, _quantity, _packaging, _hash_ipfs));\r\n    _hashes.all_hash = keccak256(abi.encodePacked(_hashes.labels_hash, _hashes.ingredients_hash, _hashes.additives_hash, _hashes.nutriments_hash, _hashes.variousData_hash));\r\n    productCodeToProposalProduct[_productCode] = Product(msg.sender,0,0,uniqueProductId, _productCode, now, now + 5 minutes, true, _hash_ipfs);\r\n    productCodeToProposalHashes[_productCode] = _hashes;\r\n    uniqueProductId++;\r\n    // addressToUser[msg.sender].tokenNumber--;\r\n    emit TriggerAddProduct([_hashes.labels_hash, _hashes.ingredients_hash, _hashes.additives_hash, _hashes.nutriments_hash, _hashes.variousData_hash, _hashes.all_hash], msg.sender, [now, now + 5 minutes]);\r\n  }\r\n\r\n  /**\r\n  @notice User is voting for a product in proposal phase (new or update)\r\n  @dev\r\n         User can only vote if he is registered and he has not already voted\r\n         Then adding vote to for and against\r\n  @param _opinion vote value (for or against)\r\n         _productCode product targeted for the vote\r\n  */\r\n  function vote(bool _opinion, uint _productCode) isProductVotable(_productCode) public {\r\n    require(productCodeToProposalProduct[_productCode].productProposerAddress != msg.sender, \"Vous ne pouvez pas voter pour votre propre proposition\");\r\n    require(addressToUser[msg.sender].tokenNumber > 0, \"Vous n'avez pas assez de token\");\r\n    require(alreadyVoted[_productCode][productCodeToProposalProduct[_productCode].productId][msg.sender][0] == false, \"Vous avez dj vot\");\r\n    alreadyVoted[_productCode][productCodeToProposalProduct[_productCode].productId][msg.sender][0] = true;\r\n    if (_opinion == true) {\r\n      productCodeToProposalProduct[_productCode].forVotes++;\r\n    } else {\r\n      productCodeToProposalProduct[_productCode].againstVotes++;\r\n    }\r\n    alreadyVoted[_productCode][productCodeToProposalProduct[_productCode].productId][msg.sender][1] = _opinion;\r\n    addressToUser[msg.sender].tokenNumber--;\r\n  }\r\n\r\n  /**\r\n  @notice User is voting for a product in proposal phase (new or update)\r\n  @dev\r\n         User can only vote if he is registered and he has not already voted\r\n         Then adding vote to for and against\r\n  @param _productCode product targeted for the vote\r\n*/\r\n  function endVote(uint _productCode) isResponsible() isProductVotable(_productCode) public {\r\n   require(productCodeToProposalProduct[_productCode].productProposerAddress != address(0), \"Ce produit n'existe pas en proposition\");\r\n    if (productCodeToProposalProduct[_productCode].forVotes >= productCodeToProposalProduct[_productCode].againstVotes) {\r\n      acceptedProduct(_productCode);\r\n    } else {\r\n      refusedProduct(_productCode);\r\n    }\r\n  }\r\n\r\n  /*\r\n  @notice Register a user when he does his first proposal or vote\r\n  @dev\r\n  Defines a new User object, giving him token and reputation\r\n  Adds it to a mapping with all other subscribed users\r\n  */\r\n  function subscribeUser() public {\r\n    require(addressToUser[msg.sender].isExist == false);\r\n    User memory user;\r\n    user.userId = uniqueIdUser;\r\n    user.lastTimeTokenGiven = now;\r\n    user.tokenNumber = 5;\r\n    user.reputation = 50;\r\n    user.isExist = true;\r\n    uniqueIdUser++;\r\n    addressToUser[msg.sender] = user;\r\n  }\r\n\r\n  /*\r\n  @notice Delete a product from proposal product, no more available anywhere\r\n  @dev\r\n  Deletes the proposed product corresponding the product code in argument\r\n  But also its corresponding hashes\r\n  @params _productCode product code which needs to be deleted from the proposal\r\n  */\r\n  function deleteProductFromProposal(uint _productCode) internal {\r\n    delete productCodeToProposalProduct[_productCode];\r\n    delete productCodeToProposalHashes[_productCode];\r\n  }\r\n\r\n  /*\r\n  @notice Deletes a product from proposal product, no more available anywhere\r\n  @dev\r\n  Deletes the proposed product corresponding the product code in argument\r\n  But also its corresponding hashes\r\n  @params _productCode product code which needs to be deleted from the proposal\r\n  */\r\n  function refusedProduct(uint _productCode) internal {\r\n    if (productCodeToProduct[_productCode].productProposerAddress != address(0)) {\r\n      deleteProductFromProposal(_productCode);\r\n    } else {\r\n      productCodeToProposalProduct[_productCode].isVotable = false;\r\n    }\r\n  }\r\n\r\n  /*\r\n  @notice Accepts the product voted by the community\r\n  @dev\r\n  Accepts the proposed product corresponding the product code in argument\r\n  But also its corresponding hashes\r\n  Deletes it from proposal because it no more exists as proposed\r\n  @params _productCode product code which needs to be accepted from the proposal\r\n  */\r\n  function acceptedProduct(uint _productCode) internal {\r\n    productCodeToProposalProduct[_productCode].isVotable = false;\r\n    productCodeToProduct[_productCode] = productCodeToProposalProduct[_productCode];\r\n    productCodeToHashes[_productCode] = productCodeToProposalHashes[_productCode];\r\n    deleteProductFromProposal(_productCode);\r\n\r\n  }\r\n\r\n\r\n  /*\r\n  @notice Setting up new alternatives into the contract\r\n  @dev\r\n  Takes a list of Alternative coming from and adding them all into the alternative mapping in accepted products structure\r\n  Sets up votes and expiration date to the alternative\r\n  @params _alternativeVotes list of Alternatives object\r\n  */\r\n  function manageAlternatives(Alternative[] memory _alternativeVotes) isResponsible() public {\r\n    for(uint i = 0; i < _alternativeVotes.length; i++) {\r\n      productCodeToProduct[_alternativeVotes[i].productCode].alternatives[_alternativeVotes[i].productCodeAlternative] = _alternativeVotes[i];\r\n    }\r\n  }\r\n\r\n  /*\r\n  @notice Simply returns hashes of each group of data (labels, ingredients, additives, nutriments and other various datas).\r\n          Really useful with our app !\r\n  @dev\r\n  Takes all datas needed to build the product object (in the addProductToProposal methods) and hashing them.\r\n  @params _productCode, _productName, _labels, _ingredients, _quantity,\r\n         _typeOfProduct, _packaging, _nutriments, _additives\r\n         => Elements used to build hashes during the addProductToProposal methods\r\n  @returns hash build in the method\r\n  */\r\n  function verifyCompliance(\r\n    uint64 _productCode,\r\n    string[] memory _labels,\r\n    string[] memory _ingredients,\r\n    string[] memory _additives,\r\n    Nutriment memory _nutriments,\r\n    string memory _productName,\r\n    string memory _typeOfProduct,\r\n    uint16 _quantity,\r\n    string memory _packaging,\r\n    string memory _hash_ipfs) public pure returns (bytes32[6] memory) {\r\n      bytes32 labels_hash =  keccak256(abi.encode(_labels));\r\n      bytes32 ingredients_hash =  keccak256(abi.encode(_ingredients));\r\n      bytes32 additives_hash =  keccak256(abi.encode(_additives));\r\n      bytes32 nutriments_hash =  keccak256(abi.encode(_nutriments));\r\n      bytes32 variousDatas_hash = keccak256(abi.encodePacked(_productCode, _productName, _typeOfProduct, _quantity, _packaging, _hash_ipfs));\r\n\r\n      return [keccak256(abi.encodePacked(labels_hash, ingredients_hash, additives_hash, nutriments_hash, variousDatas_hash)),\r\n      labels_hash,\r\n      ingredients_hash,\r\n      additives_hash,\r\n      nutriments_hash,\r\n      variousDatas_hash\r\n    ];\r\n  }\r\n\r\n  /*\r\n  @notice Simply returns hashes of an accepted product by code. Really useful with our app !\r\n  @dev\r\n  Checks into hashes mapping of accepted mapping and returning each hashes\r\n  @params _productCode product code hashes which needs to be returned\r\n  @returns hashes of the product code given\r\n  */\r\n  function getProductHashes(uint _productCode) public view  returns (bytes32[6] memory){\r\n    return [productCodeToHashes[_productCode].all_hash,\r\n    productCodeToHashes[_productCode].labels_hash,\r\n    productCodeToHashes[_productCode].ingredients_hash,\r\n    productCodeToHashes[_productCode].additives_hash,\r\n    productCodeToHashes[_productCode].nutriments_hash,\r\n    productCodeToHashes[_productCode].variousData_hash\r\n    ];\r\n  }\r\n\r\n  // To add a product in proposal, we need to check if the product doesn't already exist in mappings of products\r\n  function checkProductIsNew(uint _productCode) public view checkLengthGS1(_productCode) returns (bool) {\r\n    if (productCodeToProposalProduct[_productCode].productProposerAddress == address(0) && productCodeToProduct[_productCode].productProposerAddress == address(0)) {\r\n      return true;\r\n    } else {\r\n      return false;\r\n    }\r\n  }\r\n\r\n  // Returning a boolean, checking if user is product proposer\r\n  function isProductProposer(uint _productCode) public view returns (bool) {\r\n    return productCodeToProposalProduct[_productCode].productProposerAddress == msg.sender;\r\n  }\r\n\r\n  // Returning a boolean, checking if user is product proposer\r\n  function isAlreadyVotedByCurrentUser(uint _productCode) public view returns (bool) {\r\n    return alreadyVoted[_productCode][productCodeToProposalProduct[_productCode].productId][msg.sender][0] == true;\r\n  }\r\n\r\n  // Returning start and end dates of a vote\r\n  function getDates(uint _productCode) public view returns (uint, uint) {\r\n    return (productCodeToProposalProduct[_productCode].startDate, productCodeToProposalProduct[_productCode].endDate);\r\n  }\r\n\r\n  /*\r\n  @notice setting up fake \"real\" labels for demo purpose. For example : label called 'Campagne' expire in 10 days\r\n  @dev\r\n  Simply add objects into mapping\r\n  */\r\n  function setupRealLabels() internal {\r\n    productCodeToRealLabels[1234567891234].push(Label(uniqueRealLabelId, now + 10 days,'Label Rouge'));\r\n    productCodeToRealLabels[1234567891234].push(Label(uniqueRealLabelId, now + 10 days, 'AOC'));\r\n    trueLabelizedProductCode.push(1234567891234);\r\n    uniqueRealLabelId++;\r\n    productCodeToRealLabels[5555555555555].push(Label(uniqueRealLabelId, now + 8 days, ''));\r\n    productCodeToRealLabels[5555555555555].push(Label(uniqueRealLabelId, now + 8 days, ''));\r\n    trueLabelizedProductCode.push(5555555555555);\r\n    uniqueRealLabelId++;\r\n  }\r\n}\r\n",
  "sourcePath": "C:\\Users\\Fabrice\\Desktop\\Project_EatHealthyLabelChain\\EatHealthyLabelChain\\contracts\\EatHealthyChain.sol",
  "compiler": {
    "name": "solc",
    "version": "0.5.16+commit.9c3226ce.Emscripten.clang"
  },
  "schemaVersion": "3.2.0",
  "updatedAt": "2020-09-06T13:39:04.193Z",
  "networkType": "ethereum",
  "devdoc": {
    "methods": {
      "addProductToProposal(uint64,uint16,string[],string[],string[],(string,string,string,string,string,string,string,string,string,string),string,string,string,string)": {
        "details": "Add a new Product and Nutriments object in corresponding proposal mappings Also added in corresponding arrays, useful to get them all from front-end Finally, emitting an event to warn the user, all is OK",
        "params": {
          "_productCode": ", _productName, _labels, _ingredients, _quantity, _typeOfProduct, _packaging, _nutriments, _addiditfs => Elements needed to fill in both Product and Nutriments object"
        }
      },
      "endVote(uint256)": {
        "details": "User can only vote if he is registered and he has not already voted Then adding vote to for and against",
        "params": {
          "_productCode": "product targeted for the vote"
        }
      },
      "vote(bool,uint256)": {
        "details": "User can only vote if he is registered and he has not already voted Then adding vote to for and against",
        "params": {
          "_opinion": "vote value (for or against) _productCode product targeted for the vote"
        }
      }
    }
  },
  "userdoc": {
    "methods": {
      "addProductToProposal(uint64,uint16,string[],string[],string[],(string,string,string,string,string,string,string,string,string,string),string,string,string,string)": {
        "notice": "Product is added in proposal phase by the user, then visible for all users for votes"
      },
      "endVote(uint256)": {
        "notice": "User is voting for a product in proposal phase (new or update)"
      },
      "vote(bool,uint256)": {
        "notice": "User is voting for a product in proposal phase (new or update)"
      }
    }
  }
}