{
  "contractName": "EatHealthyChain",
  "abi": [
    {
      "inputs": [],
      "payable": false,
      "stateMutability": "nonpayable",
      "type": "constructor"
    },
    {
      "anonymous": false,
      "inputs": [
        {
          "indexed": false,
          "internalType": "bytes32[6]",
          "name": "hashes",
          "type": "bytes32[6]"
        },
        {
          "indexed": false,
          "internalType": "address",
          "name": "proposerProduct",
          "type": "address"
        },
        {
          "indexed": false,
          "internalType": "uint256[2]",
          "name": "voteDates",
          "type": "uint256[2]"
        }
      ],
      "name": "TriggerAddProduct",
      "type": "event"
    },
    {
      "anonymous": false,
      "inputs": [
        {
          "indexed": false,
          "internalType": "bytes32[6]",
          "name": "hashes",
          "type": "bytes32[6]"
        }
      ],
      "name": "TriggerVerifyCompliance",
      "type": "event"
    },
    {
      "constant": true,
      "inputs": [
        {
          "internalType": "address",
          "name": "",
          "type": "address"
        }
      ],
      "name": "addressToUser",
      "outputs": [
        {
          "internalType": "uint32",
          "name": "userId",
          "type": "uint32"
        },
        {
          "internalType": "uint256",
          "name": "lastTimeTokenGiven",
          "type": "uint256"
        },
        {
          "internalType": "int16",
          "name": "tokenNumber",
          "type": "int16"
        },
        {
          "internalType": "int16",
          "name": "reputation",
          "type": "int16"
        },
        {
          "internalType": "bool",
          "name": "isExist",
          "type": "bool"
        }
      ],
      "payable": false,
      "stateMutability": "view",
      "type": "function"
    },
    {
      "constant": true,
      "inputs": [
        {
          "internalType": "uint256",
          "name": "",
          "type": "uint256"
        },
        {
          "internalType": "uint256",
          "name": "",
          "type": "uint256"
        },
        {
          "internalType": "address",
          "name": "",
          "type": "address"
        },
        {
          "internalType": "uint256",
          "name": "",
          "type": "uint256"
        }
      ],
      "name": "alreadyVoted",
      "outputs": [
        {
          "internalType": "bool",
          "name": "",
          "type": "bool"
        }
      ],
      "payable": false,
      "stateMutability": "view",
      "type": "function"
    },
    {
      "constant": true,
      "inputs": [
        {
          "internalType": "uint256",
          "name": "",
          "type": "uint256"
        }
      ],
      "name": "productCodeToHashes",
      "outputs": [
        {
          "internalType": "bytes32",
          "name": "ingredients_hash",
          "type": "bytes32"
        },
        {
          "internalType": "bytes32",
          "name": "labels_hash",
          "type": "bytes32"
        },
        {
          "internalType": "bytes32",
          "name": "nutriments_hash",
          "type": "bytes32"
        },
        {
          "internalType": "bytes32",
          "name": "additives_hash",
          "type": "bytes32"
        },
        {
          "internalType": "bytes32",
          "name": "variousData_hash",
          "type": "bytes32"
        },
        {
          "internalType": "bytes32",
          "name": "all_hash",
          "type": "bytes32"
        }
      ],
      "payable": false,
      "stateMutability": "view",
      "type": "function"
    },
    {
      "constant": true,
      "inputs": [
        {
          "internalType": "uint256",
          "name": "",
          "type": "uint256"
        }
      ],
      "name": "productCodeToProduct",
      "outputs": [
        {
          "internalType": "address",
          "name": "productProposerAddress",
          "type": "address"
        },
        {
          "internalType": "uint16",
          "name": "forVotes",
          "type": "uint16"
        },
        {
          "internalType": "uint16",
          "name": "againstVotes",
          "type": "uint16"
        },
        {
          "internalType": "uint32",
          "name": "productId",
          "type": "uint32"
        },
        {
          "internalType": "uint64",
          "name": "productCode",
          "type": "uint64"
        },
        {
          "internalType": "uint256",
          "name": "startDate",
          "type": "uint256"
        },
        {
          "internalType": "uint256",
          "name": "endDate",
          "type": "uint256"
        },
        {
          "internalType": "bool",
          "name": "isVotable",
          "type": "bool"
        }
      ],
      "payable": false,
      "stateMutability": "view",
      "type": "function"
    },
    {
      "constant": true,
      "inputs": [
        {
          "internalType": "uint256",
          "name": "",
          "type": "uint256"
        }
      ],
      "name": "productCodeToProposalHashes",
      "outputs": [
        {
          "internalType": "bytes32",
          "name": "ingredients_hash",
          "type": "bytes32"
        },
        {
          "internalType": "bytes32",
          "name": "labels_hash",
          "type": "bytes32"
        },
        {
          "internalType": "bytes32",
          "name": "nutriments_hash",
          "type": "bytes32"
        },
        {
          "internalType": "bytes32",
          "name": "additives_hash",
          "type": "bytes32"
        },
        {
          "internalType": "bytes32",
          "name": "variousData_hash",
          "type": "bytes32"
        },
        {
          "internalType": "bytes32",
          "name": "all_hash",
          "type": "bytes32"
        }
      ],
      "payable": false,
      "stateMutability": "view",
      "type": "function"
    },
    {
      "constant": true,
      "inputs": [
        {
          "internalType": "uint256",
          "name": "",
          "type": "uint256"
        }
      ],
      "name": "productCodeToProposalProduct",
      "outputs": [
        {
          "internalType": "address",
          "name": "productProposerAddress",
          "type": "address"
        },
        {
          "internalType": "uint16",
          "name": "forVotes",
          "type": "uint16"
        },
        {
          "internalType": "uint16",
          "name": "againstVotes",
          "type": "uint16"
        },
        {
          "internalType": "uint32",
          "name": "productId",
          "type": "uint32"
        },
        {
          "internalType": "uint64",
          "name": "productCode",
          "type": "uint64"
        },
        {
          "internalType": "uint256",
          "name": "startDate",
          "type": "uint256"
        },
        {
          "internalType": "uint256",
          "name": "endDate",
          "type": "uint256"
        },
        {
          "internalType": "bool",
          "name": "isVotable",
          "type": "bool"
        }
      ],
      "payable": false,
      "stateMutability": "view",
      "type": "function"
    },
    {
      "constant": true,
      "inputs": [
        {
          "internalType": "uint256",
          "name": "",
          "type": "uint256"
        },
        {
          "internalType": "uint256",
          "name": "",
          "type": "uint256"
        }
      ],
      "name": "productCodeToRealLabels",
      "outputs": [
        {
          "internalType": "uint256",
          "name": "id",
          "type": "uint256"
        },
        {
          "internalType": "string",
          "name": "label_name",
          "type": "string"
        },
        {
          "internalType": "uint256",
          "name": "expiration_date",
          "type": "uint256"
        }
      ],
      "payable": false,
      "stateMutability": "view",
      "type": "function"
    },
    {
      "constant": false,
      "inputs": [
        {
          "internalType": "uint64",
          "name": "_productCode",
          "type": "uint64"
        },
        {
          "internalType": "string[]",
          "name": "_labels",
          "type": "string[]"
        },
        {
          "internalType": "string[]",
          "name": "_ingredients",
          "type": "string[]"
        },
        {
          "internalType": "string[]",
          "name": "_additives",
          "type": "string[]"
        },
        {
          "components": [
            {
              "internalType": "string",
              "name": "energy",
              "type": "string"
            },
            {
              "internalType": "string",
              "name": "energy_kcal",
              "type": "string"
            },
            {
              "internalType": "string",
              "name": "proteines",
              "type": "string"
            },
            {
              "internalType": "string",
              "name": "carbohydrates",
              "type": "string"
            },
            {
              "internalType": "string",
              "name": "salt",
              "type": "string"
            },
            {
              "internalType": "string",
              "name": "sugar",
              "type": "string"
            },
            {
              "internalType": "string",
              "name": "fat",
              "type": "string"
            },
            {
              "internalType": "string",
              "name": "saturated_fat",
              "type": "string"
            },
            {
              "internalType": "string",
              "name": "fiber",
              "type": "string"
            },
            {
              "internalType": "string",
              "name": "sodium",
              "type": "string"
            }
          ],
          "internalType": "struct EatHealthyChain.Nutriment",
          "name": "_nutriments",
          "type": "tuple"
        },
        {
          "internalType": "string",
          "name": "_productName",
          "type": "string"
        },
        {
          "internalType": "string",
          "name": "_typeOfProduct",
          "type": "string"
        },
        {
          "internalType": "uint16",
          "name": "_quantity",
          "type": "uint16"
        },
        {
          "internalType": "string",
          "name": "_packaging",
          "type": "string"
        }
      ],
      "name": "addProductToProposal",
      "outputs": [],
      "payable": false,
      "stateMutability": "nonpayable",
      "type": "function"
    },
    {
      "constant": false,
      "inputs": [
        {
          "internalType": "bool",
          "name": "_opinion",
          "type": "bool"
        },
        {
          "internalType": "uint256",
          "name": "_productCode",
          "type": "uint256"
        }
      ],
      "name": "vote",
      "outputs": [],
      "payable": false,
      "stateMutability": "nonpayable",
      "type": "function"
    },
    {
      "constant": false,
      "inputs": [
        {
          "internalType": "uint256",
          "name": "_productCode",
          "type": "uint256"
        }
      ],
      "name": "endVote",
      "outputs": [],
      "payable": false,
      "stateMutability": "nonpayable",
      "type": "function"
    },
    {
      "constant": false,
      "inputs": [],
      "name": "subscribeUser",
      "outputs": [],
      "payable": false,
      "stateMutability": "nonpayable",
      "type": "function"
    },
    {
      "constant": false,
      "inputs": [
        {
          "components": [
            {
              "internalType": "uint64",
              "name": "productCode",
              "type": "uint64"
            },
            {
              "internalType": "uint64",
              "name": "productCodeAlternative",
              "type": "uint64"
            },
            {
              "internalType": "uint16",
              "name": "forVotes",
              "type": "uint16"
            },
            {
              "internalType": "uint16",
              "name": "againstVotes",
              "type": "uint16"
            },
            {
              "internalType": "bool",
              "name": "isVotedToday",
              "type": "bool"
            },
            {
              "internalType": "uint256",
              "name": "propositionDate",
              "type": "uint256"
            }
          ],
          "internalType": "struct EatHealthyChain.Alternative[]",
          "name": "_alternativeVotes",
          "type": "tuple[]"
        }
      ],
      "name": "manageAlternatives",
      "outputs": [],
      "payable": false,
      "stateMutability": "nonpayable",
      "type": "function"
    },
    {
      "constant": true,
      "inputs": [
        {
          "internalType": "uint64",
          "name": "_productCode",
          "type": "uint64"
        },
        {
          "internalType": "string[]",
          "name": "_labels",
          "type": "string[]"
        },
        {
          "internalType": "string[]",
          "name": "_ingredients",
          "type": "string[]"
        },
        {
          "internalType": "string[]",
          "name": "_additives",
          "type": "string[]"
        },
        {
          "components": [
            {
              "internalType": "string",
              "name": "energy",
              "type": "string"
            },
            {
              "internalType": "string",
              "name": "energy_kcal",
              "type": "string"
            },
            {
              "internalType": "string",
              "name": "proteines",
              "type": "string"
            },
            {
              "internalType": "string",
              "name": "carbohydrates",
              "type": "string"
            },
            {
              "internalType": "string",
              "name": "salt",
              "type": "string"
            },
            {
              "internalType": "string",
              "name": "sugar",
              "type": "string"
            },
            {
              "internalType": "string",
              "name": "fat",
              "type": "string"
            },
            {
              "internalType": "string",
              "name": "saturated_fat",
              "type": "string"
            },
            {
              "internalType": "string",
              "name": "fiber",
              "type": "string"
            },
            {
              "internalType": "string",
              "name": "sodium",
              "type": "string"
            }
          ],
          "internalType": "struct EatHealthyChain.Nutriment",
          "name": "_nutriments",
          "type": "tuple"
        },
        {
          "internalType": "string",
          "name": "_productName",
          "type": "string"
        },
        {
          "internalType": "string",
          "name": "_typeOfProduct",
          "type": "string"
        },
        {
          "internalType": "uint16",
          "name": "_quantity",
          "type": "uint16"
        },
        {
          "internalType": "string",
          "name": "_packaging",
          "type": "string"
        }
      ],
      "name": "verifyCompliance",
      "outputs": [
        {
          "internalType": "bytes32[6]",
          "name": "",
          "type": "bytes32[6]"
        }
      ],
      "payable": false,
      "stateMutability": "pure",
      "type": "function"
    },
    {
      "constant": true,
      "inputs": [
        {
          "internalType": "uint256",
          "name": "_productCode",
          "type": "uint256"
        }
      ],
      "name": "getProductHashes",
      "outputs": [
        {
          "internalType": "bytes32[6]",
          "name": "",
          "type": "bytes32[6]"
        }
      ],
      "payable": false,
      "stateMutability": "view",
      "type": "function"
    },
    {
      "constant": true,
      "inputs": [
        {
          "internalType": "uint256",
          "name": "_productCode",
          "type": "uint256"
        }
      ],
      "name": "checkProductIsNew",
      "outputs": [
        {
          "internalType": "bool",
          "name": "",
          "type": "bool"
        }
      ],
      "payable": false,
      "stateMutability": "view",
      "type": "function"
    },
    {
      "constant": true,
      "inputs": [
        {
          "internalType": "uint256",
          "name": "_productCode",
          "type": "uint256"
        }
      ],
      "name": "isProductProposer",
      "outputs": [
        {
          "internalType": "bool",
          "name": "",
          "type": "bool"
        }
      ],
      "payable": false,
      "stateMutability": "view",
      "type": "function"
    },
    {
      "constant": true,
      "inputs": [
        {
          "internalType": "uint256",
          "name": "_productCode",
          "type": "uint256"
        }
      ],
      "name": "isAlreadyVotedByCurrentUser",
      "outputs": [
        {
          "internalType": "bool",
          "name": "",
          "type": "bool"
        }
      ],
      "payable": false,
      "stateMutability": "view",
      "type": "function"
    },
    {
      "constant": true,
      "inputs": [
        {
          "internalType": "uint256",
          "name": "_productCode",
          "type": "uint256"
        }
      ],
      "name": "getDates",
      "outputs": [
        {
          "internalType": "uint256",
          "name": "",
          "type": "uint256"
        },
        {
          "internalType": "uint256",
          "name": "",
          "type": "uint256"
        }
      ],
      "payable": false,
      "stateMutability": "view",
      "type": "function"
    }
  ],
  "bytecode": "0x60806040523480156200001157600080fd5b50600080546001600160a01b031990811633178083556001805490921673712eb6c16ab3694b684b6c74b40a676c6d13621a1782556040805160a08101825263ffffffff600160a01b80850482168352426020808501918252600a858701908152606086018a8152608087018a81526001600160a01b03999099168b52600292839052968a209551865490861663ffffffff199091161786559151858901559051930180549451955115156401000000000260ff60201b1996880b61ffff908116620100000263ffff000019968a0b90911661ffff19909716969096179490941694909417949094169190911790915583548281048216909301160263ffffffff60a01b199091161790556200012f6001600160e01b036200013516565b6200053d565b600860209081526040805160608101825260008054600160e01b900463ffffffff1682528251808501845281815282850190815242620d2f00019383019390935260008051602062002b6d83398151915280546001810180835591909252825160008051602062002b0d8339815191526003909302928301908155935180519195939493620001d99360008051602062002aad833981519152019291019062000498565b506040918201516002909101556008602090815281516060810183526000805463ffffffff600160e01b90910416825283518084018552818152828401908152620d2f0042019483019490945260008051602062002b6d833981519152805460018101808355919092528251600390920260008051602062002b0d833981519152810192835594518051919650929491936200028b9360008051602062002aad83398151915290930192019062000498565b5060409182015160029091015560098054600181810190925565011f71fb092260008051602062002b2d833981519152909101556000805463ffffffff600160e01b80830482168501821681026001600160e01b039093169290921780845560086020908152865160608101885293909104909116825284518082018652838152828201908152620a8c0042019583019590955260008051602062002acd833981519152805494850180825593528151600390940260008051602062002b4d8339815191528101948555945180519396509194620003819360008051602062002aed833981519152909101929091019062000498565b506040918201516002909101556008602090815281516060810183526000805463ffffffff600160e01b90910416825283518084018552818152828401908152620a8c0042019483019490945260008051602062002acd833981519152805460018101808355919092528251600390920260008051602062002b4d83398151915281019283559451805191965092949193620004339360008051602062002aed83398151915290930192019062000498565b5060409190910151600290910155506009805460018181018355600092835265050d80ea58e360008051602062002b2d83398151915290920191909155815463ffffffff600160e01b8083048216909301169091026001600160e01b03909116179055565b828054600181600116156101000203166002900490600052602060002090601f016020900481019282601f10620004db57805160ff19168380011785556200050b565b828001600101855582156200050b579182015b828111156200050b578251825591602001919060010190620004ee565b50620005199291506200051d565b5090565b6200053a91905b8082111562000519576000815560010162000524565b90565b612560806200054d6000396000f3fe608060405234801561001057600080fd5b50600436106101165760003560e01c8063865df0ad116100a2578063be301d3411610071578063be301d341461026f578063d54d6c7014610282578063dd471e8614610295578063eafc9df3146102a8578063edf53886146102bb57610116565b8063865df0ad14610208578063a98d5fc81461021b578063abe31d151461023c578063ba44cef81461024f57610116565b80632957d914116100e95780632957d9141461019357806361ef3c15146101b35780636b648da5146101da5780636c9672ff146101ed5780637b37d549146101f557610116565b806310e6e06c1461011b5780631257bbe7146101305780631c1ac2b714610143578063230fcaae14610171575b600080fd5b61012e610129366004611903565b6102df565b005b61012e61013e3660046118cf565b61050e565b61015661015136600461193d565b610677565b60405161016896959493929190612214565b60405180910390f35b61018461017f36600461195b565b6106ac565b60405161016893929190612304565b6101a66101a136600461193d565b610775565b6040516101689190612206565b6101c66101c136600461193d565b610794565b604051610168989796959493929190612154565b61012e6101e83660046119db565b610801565b61012e610c86565b61015661020336600461193d565b610d80565b61012e61021636600461193d565b610db5565b61022e61022936600461193d565b610e87565b604051610168929190612333565b6101a661024a36600461197a565b610ea4565b61026261025d3660046119db565b610ef4565b60405161016891906121be565b6101a661027d36600461193d565b611042565b6101c661029036600461193d565b611084565b6102626102a336600461193d565b6110ed565b6101a66102b636600461193d565b61114f565b6102ce6102c93660046118a9565b6111ca565b60405161016895949392919061234e565b60008181526004602081905260409091200154819060ff1661031c5760405162461bcd60e51b8152600401610313906122b3565b60405180910390fd5b6000828152600460205260409020546001600160a01b03163314156103535760405162461bcd60e51b8152600401610313906122c3565b33600090815260026020819052604082200154600190810b900b1361038a5760405162461bcd60e51b815260040161031390612293565b60008281526003602090815260408083206004835281842054600160c01b900463ffffffff168452825280832033845290915290205460ff16156103e05760405162461bcd60e51b815260040161031390612283565b6000828152600360209081526040808320600483528184205463ffffffff600160c01b90910416845282528083203384529091529020805460ff1916600190811790915583151514156104645760008281526004602052604090208054600161ffff600160a01b808404821692909201160261ffff60a01b19909116179055610497565b60008281526004602052604090208054600161ffff600160b01b808404821692909201160261ffff60b01b199091161790555b5060009081526003602090815260408083206004835281842054600160c01b900463ffffffff1684528252808320338452825280832080549415156101000261ff001990951694909417909355600290819052919020018054600019600182810b91909101900b61ffff1661ffff19909116179055565b6001546001600160a01b031633146105385760405162461bcd60e51b8152600401610313906122d3565b60005b81518110156106735781818151811061055057fe5b60200260200101516006600084848151811061056857fe5b6020026020010151600001516001600160401b03168152602001908152602001600020600501600084848151811061059c57fe5b6020908102919091018101518101516001600160401b0390811683528282019390935260409182016000208451815492860151938601516060870151608088015167ffffffffffffffff19909516928716929092176fffffffffffffffff000000000000000019166801000000000000000095909616949094029490941761ffff60801b1916600160801b61ffff948516021761ffff60901b1916600160901b93909416929092029290921760ff60a01b1916600160a01b9215159290920291909117815560a0909101516001918201550161053b565b5050565b600560208190526000918252604090912080546001820154600283015460038401546004850154949095015492949193909286565b600860205281600052604060002081815481106106c557fe5b60009182526020918290206003919091020180546001808301805460408051600294831615610100026000190190921693909304601f810187900487028201870190935282815292965092945090928301828280156107655780601f1061073a57610100808354040283529160200191610765565b820191906000526020600020905b81548152906001019060200180831161074857829003601f168201915b5050505050908060020154905083565b6000818152600460205260409020546001600160a01b03163314919050565b600660205260009081526040902080546001820154600283015460038401546004909401546001600160a01b03841694600160a01b850461ffff90811695600160b01b810490911694600160c01b90910463ffffffff16936001600160401b039091169290919060ff1688565b886001600160401b0316650102b36211c781116108305760405162461bcd60e51b815260040161031390612263565b3360009081526002602081905260409091200154640100000000900460ff1615156001146108705760405162461bcd60e51b8152600401610313906122e3565b6001600160401b038a166000818152600460205260409020546001600160a01b0316156108af5760405162461bcd60e51b815260040161031390612273565b6108b7611411565b6108bf611455565b600054600160c01b900463ffffffff1660608301526001600160401b038d1660808301523382526040516108f7908d906020016121f5565b60408051601f1981840301815291815281516020928301208383015251610920918d91016121f5565b60408051601f198184030181529181528151602092830120835251610947918c91016121f5565b60408051601f198184030181529181528151602092830120606084015251610971918b91016122f3565b60408051601f19818403018152918152815160209283012083820152516109a2918f918b918b918b918b9101612105565b60408051601f1981840301815291815281516020928301206080840181905283830151845160608601518685015194516109e296939592949193016120ac565b604051602081830303815290604052805190602001208160a001818152505060018260e0019015159081151581525050428260a00181815250504261012c018260c001818152505081600460008f6001600160401b0316815260200190815260200160002060008201518160000160006101000a8154816001600160a01b0302191690836001600160a01b0316021790555060208201518160000160146101000a81548161ffff021916908361ffff16021790555060408201518160000160166101000a81548161ffff021916908361ffff16021790555060608201518160000160186101000a81548163ffffffff021916908363ffffffff16021790555060808201518160010160006101000a8154816001600160401b0302191690836001600160401b0316021790555060a0820151816002015560c0820151816003015560e08201518160040160006101000a81548160ff02191690831515021790555090505080600560008f6001600160401b03168152602001908152602001600020600082015181600001556020820151816001015560408201518160020155606082015181600301556080820151816004015560a082015181600501559050506000601881819054906101000a900463ffffffff168092919060010191906101000a81548163ffffffff021916908363ffffffff160217905550507fb19b8f96e594f972fb1b83f9c257997f845955d8f10af6541a7429c84c2977e86040518060c0016040528083602001518152602001836000015181526020018360600151815260200183604001518152602001836080015181526020018360a001518152503360405180604001604052808660a0015181526020018660c00151815250604051610c6f939291906121cc565b60405180910390a150505050505050505050505050565b3360009081526002602081905260409091200154640100000000900460ff1615610caf57600080fd5b610cb761148a565b6000805463ffffffff600160a01b808304821680865242602080880191825260056040808a01918252603260608b01908152600160808c01818152968101891690970263ffffffff60a01b1990991698909817895533895260029283905290972097518854951663ffffffff19909516949094178755518683015593519490910180549251935115156401000000000264ff000000001994830b61ffff908116620100000263ffff0000199790940b1661ffff1990941693909317949094161791909116179055565b600760205260009081526040902080546001820154600283015460038401546004850154600590950154939492939192909186565b6001546001600160a01b03163314610ddf5760405162461bcd60e51b8152600401610313906122d3565b60008181526004602081905260409091200154819060ff16610e135760405162461bcd60e51b8152600401610313906122b3565b6000828152600460205260409020546001600160a01b0316610e475760405162461bcd60e51b8152600401610313906122a3565b60008281526004602052604090205461ffff600160b01b82048116600160a01b9092041610610e7e57610e798261120d565b610673565b61067382611355565b600090815260046020526040902060028101546003909101549091565b60036020528360005260406000206020528260005260406000206020528160005260406000208160028110610ed557fe5b602081049091015460ff601f9092166101000a90041693508492505050565b610efc6114b8565b600089604051602001610f0f91906121f5565b604051602081830303815290604052805190602001209050600089604051602001610f3a91906121f5565b604051602081830303815290604052805190602001209050600089604051602001610f6591906121f5565b604051602081830303815290604052805190602001209050600089604051602001610f9091906122f3565b60405160208183030381529060405280519060200120905060008e8a8a8a8a604051602001610fc3959493929190612105565b60408051601f19818403018152828252805160209091012060c08301909152915080610ff6878787878760e087016120ac565b60405160208183030381529060405280519060200120815260200186815260200185815260200184815260200183815260200182815250955050505050505b9998505050505050505050565b6000908152600360209081526040808320600483528184205463ffffffff600160c01b909104168452825280832033845290915290205460ff16151560011490565b6004602081905260009182526040909120805460018201546002830154600384015493909401546001600160a01b0383169461ffff600160a01b8504811695600160b01b86049091169463ffffffff600160c01b90910416936001600160401b03169260ff1688565b6110f56114b8565b506040805160c081018252600083815260076020818152848320600581015485526001810154828601528054958501959095526003850154606085015260028501546080850152949091529092526004015460a082015290565b600081650102b36211c781116111775760405162461bcd60e51b815260040161031390612263565b6000838152600460205260409020546001600160a01b03161580156111b157506000838152600660205260409020546001600160a01b0316155b156111bf57600191506111c4565b600091505b50919050565b60026020819052600091825260409091208054600180830154929093015463ffffffff9091169281810b9162010000810490910b90640100000000900460ff1685565b6000818152600460208181526040808420808401805460ff19908116825560068552838720835481546001600160a01b0319166001600160a01b0390911617808255845461ffff600160a01b91829004811690910261ffff60a01b19909216919091178083558554600160b01b9081900490921690910261ffff60b01b1990911617808255845463ffffffff600160c01b91829004160263ffffffff60c01b19909116178155600180850154828201805467ffffffffffffffff19166001600160401b0390921691909117905560028086015481840155600395860154868401559354918801805460ff939093161515929093169190911790915560058086528488206007909652939096208454815584870154968101969096558381015490860155828101549085015581830154928401929092558101549101556113528161139c565b50565b6000818152600660205260409020546001600160a01b0316156113805761137b8161139c565b611352565b600090815260046020819052604090912001805460ff19169055565b600090815260046020818152604080842080546001600160e01b03191681556001808201805467ffffffffffffffff1916905560028083018790556003808401889055928601805460ff1916905560059485905292862086815590810186905591820185905581018490559182018390550155565b6040805161010081018252600080825260208201819052918101829052606081018290526080810182905260a0810182905260c0810182905260e081019190915290565b6040805160c081018252600080825260208201819052918101829052606081018290526080810182905260a081019190915290565b6040805160a08101825260008082526020820181905291810182905260608101829052608081019190915290565b6040518060c001604052806006906020820280388339509192915050565b80356114e1816124e5565b92915050565b600082601f8301126114f857600080fd5b813561150b611506826123c0565b61239a565b81815260209384019390925082018360005b83811015611549578135860161153388826115d0565b845250602092830192919091019060010161151d565b5050505092915050565b600082601f83011261156457600080fd5b8135611572611506826123c0565b915081818352602084019350602081019050838560c084028201111561159757600080fd5b60005b8381101561154957816115ad888261161f565b84525060209092019160c0919091019060010161159a565b80356114e1816124f9565b600082601f8301126115e157600080fd5b81356115ef611506826123e0565b9150808252602083016020830185838301111561160b57600080fd5b61161683828461247d565b50505092915050565b600060c0828403121561163157600080fd5b61163b60c061239a565b90506000611649848461189e565b825250602061165a8484830161189e565b602083015250604061166e84828501611888565b604083015250606061168284828501611888565b6060830152506080611696848285016115c5565b60808301525060a06116aa84828501611893565b60a08301525092915050565b600061014082840312156116c957600080fd5b6116d461014061239a565b905081356001600160401b038111156116ec57600080fd5b6116f8848285016115d0565b82525060208201356001600160401b0381111561171457600080fd5b611720848285016115d0565b60208301525060408201356001600160401b0381111561173f57600080fd5b61174b848285016115d0565b60408301525060608201356001600160401b0381111561176a57600080fd5b611776848285016115d0565b60608301525060808201356001600160401b0381111561179557600080fd5b6117a1848285016115d0565b60808301525060a08201356001600160401b038111156117c057600080fd5b6117cc848285016115d0565b60a08301525060c08201356001600160401b038111156117eb57600080fd5b6117f7848285016115d0565b60c08301525060e08201356001600160401b0381111561181657600080fd5b611822848285016115d0565b60e0830152506101008201356001600160401b0381111561184257600080fd5b61184e848285016115d0565b610100830152506101208201356001600160401b0381111561186f57600080fd5b61187b848285016115d0565b6101208301525092915050565b80356114e181612502565b80356114e18161250b565b80356114e181612514565b6000602082840312156118bb57600080fd5b60006118c784846114d6565b949350505050565b6000602082840312156118e157600080fd5b81356001600160401b038111156118f757600080fd5b6118c784828501611553565b6000806040838503121561191657600080fd5b600061192285856115c5565b925050602061193385828601611893565b9150509250929050565b60006020828403121561194f57600080fd5b60006118c78484611893565b6000806040838503121561196e57600080fd5b60006119228585611893565b6000806000806080858703121561199057600080fd5b600061199c8787611893565b94505060206119ad87828801611893565b93505060406119be878288016114d6565b92505060606119cf87828801611893565b91505092959194509250565b60008060008060008060008060006101208a8c0312156119fa57600080fd5b6000611a068c8c61189e565b99505060208a01356001600160401b03811115611a2257600080fd5b611a2e8c828d016114e7565b98505060408a01356001600160401b03811115611a4a57600080fd5b611a568c828d016114e7565b97505060608a01356001600160401b03811115611a7257600080fd5b611a7e8c828d016114e7565b96505060808a01356001600160401b03811115611a9a57600080fd5b611aa68c828d016116b6565b95505060a08a01356001600160401b03811115611ac257600080fd5b611ace8c828d016115d0565b94505060c08a01356001600160401b03811115611aea57600080fd5b611af68c828d016115d0565b93505060e0611b078c828d01611888565b9250506101008a01356001600160401b03811115611b2457600080fd5b611b308c828d016115d0565b9150509295985092959850929598565b6000611b4c8383611c96565b505060200190565b6000611b608383611ce8565b9392505050565b611b708161246c565b82525050565b611b708161242e565b611b8881612410565b611b928184612420565b9250611b9d82612407565b8060005b83811015611bcb578151611bb58782611b40565b9650611bc08361240a565b925050600101611ba1565b505050505050565b6000611bde82612416565b611be88185612425565b935083602082028501611bfa8561240a565b8060005b85811015611c345784840389528151611c178582611b54565b9450611c228361240a565b60209a909a0199925050600101611bfe565b5091979650505050505050565b611c4a8161241a565b611c548184612420565b9250611c5f82612407565b8060005b83811015611bcb578151611c778782611b40565b9650611c828361240a565b925050600101611c63565b611b7081612439565b611b7081612407565b611b70611cab82612407565b612407565b611b708161243e565b6000611cc482612416565b611cce8185612420565b9350611cde818560208601612489565b9290920192915050565b6000611cf382612416565b611cfd8185612425565b9350611d0d818560208601612489565b611d16816124cf565b9093019392505050565b6000611d2d602e83612425565b7f4c6520636f64652064652070726f64756974206e276120706173206c6120626f81526d6e6e65206c6f6e6775657572202160901b602082015260400192915050565b6000611d7d602083612425565b7f43652070726f64756974206573742064c3a96ac3a02070726f706f73c3a92021815260200192915050565b6000611db6601683612425565b75566f7573206176657a2064c3a96ac3a020766f74c3a960501b815260200192915050565b6000611de8601e83612425565b7f566f7573206e276176657a2070617320617373657a20646520746f6b656e0000815260200192915050565b6000611e21602683612425565b7f43652070726f64756974206e276578697374652070617320656e2070726f706f81526539b4ba34b7b760d11b602082015260400192915050565b6000611e69601c83612425565b7f43652070726f64756974206e276573742070617320656e20766f746500000000815260200192915050565b6000611ea2603683612425565b7f566f7573206e6520706f7576657a2070617320766f74657220706f757220766f8152753a393290383937b8393290383937b837b9b4ba34b7b760511b602082015260400192915050565b6000611efa601f83612425565b7f566f7573206e27c3aa74657320706173206c6520726573706f6e7361626c6500815260200192915050565b6000611f33601c83612425565b7f436574207574696c69736174657572206e276578697374652070617300000000815260200192915050565b805161014080845260009190840190611f788282611ce8565b91505060208301518482036020860152611f928282611ce8565b91505060408301518482036040860152611fac8282611ce8565b91505060608301518482036060860152611fc68282611ce8565b91505060808301518482036080860152611fe08282611ce8565b91505060a083015184820360a0860152611ffa8282611ce8565b91505060c083015184820360c08601526120148282611ce8565b91505060e083015184820360e086015261202e8282611ce8565b91505061010083015184820361010086015261204a8282611ce8565b9150506101208301518482036101208601526120668282611ce8565b95945050505050565b611b7081612444565b611b7061208482612444565b6124b9565b611b7081612457565b611b7081612460565b611b706120a782612460565b6124c4565b60006120b88288611c9f565b6020820191506120c88287611c9f565b6020820191506120d88286611c9f565b6020820191506120e88285611c9f565b6020820191506120f88284611c9f565b5060200195945050505050565b6000612111828861209b565b6008820191506121218287611cb9565b915061212d8286611cb9565b91506121398285612078565b6002820191506121498284611cb9565b979650505050505050565b6101008101612163828b611b76565b612170602083018a61206f565b61217d604083018961206f565b61218a6060830188612089565b6121976080830187612092565b6121a460a0830186611c96565b6121b160c0830185611c96565b61103560e0830184611c8d565b60c081016114e18284611b7f565b61012081016121db8286611b7f565b6121e860c0830185611b67565b6118c760e0830184611c41565b60208082528101611b608184611bd3565b602081016114e18284611c8d565b60c081016122228289611c96565b61222f6020830188611c96565b61223c6040830187611c96565b6122496060830186611c96565b6122566080830185611c96565b61214960a0830184611c96565b602080825281016114e181611d20565b602080825281016114e181611d70565b602080825281016114e181611da9565b602080825281016114e181611ddb565b602080825281016114e181611e14565b602080825281016114e181611e5c565b602080825281016114e181611e95565b602080825281016114e181611eed565b602080825281016114e181611f26565b60208082528101611b608184611f5f565b606081016123128286611c96565b81810360208301526123248185611ce8565b90506118c76040830184611c96565b604081016123418285611c96565b611b606020830184611c96565b60a0810161235c8288612089565b6123696020830187611c96565b6123766040830186611cb0565b6123836060830185611cb0565b6123906080830184611c8d565b9695505050505050565b6040518181016001600160401b03811182821017156123b857600080fd5b604052919050565b60006001600160401b038211156123d657600080fd5b5060209081020190565b60006001600160401b038211156123f657600080fd5b506020601f91909101601f19160190565b90565b60200190565b50600690565b5190565b50600290565b919050565b90815260200190565b60006114e18261244b565b151590565b60010b90565b61ffff1690565b6001600160a01b031690565b63ffffffff1690565b6001600160401b031690565b60006114e18260006114e18261242e565b82818337506000910152565b60005b838110156124a457818101518382015260200161248c565b838111156124b3576000848401525b50505050565b60006114e1826124df565b60006114e1826124d9565b601f01601f191690565b60c01b90565b60f01b90565b6124ee8161242e565b811461135257600080fd5b6124ee81612439565b6124ee81612444565b6124ee81612407565b6124ee8161246056fea365627a7a723158202d9dce740c12bb50ecd2f5dc820ec62707198c297e604cc279242cac7cc6703b6c6578706572696d656e74616cf564736f6c63430005100040ddc6f1b11d248656c3209980679588ea8ad2145e22e6e53bd5c097d18553b21743d8ac33bb8ce21832c9369d918fea80a0217a3d20daa81363eae75485c25b0d3a97fab0ea644ad292f5205e9c186d608ace8b2555f10c7e13be7f9d1ffb78caddc6f1b11d248656c3209980679588ea8ad2145e22e6e53bd5c097d18553b2166e1540171b6c0c960b71a7020d9f60077f6af931a8bbf590da0223dacf75c7af3a97fab0ea644ad292f5205e9c186d608ace8b2555f10c7e13be7f9d1ffb78c9b34f8927e7443f874d7ed656851f2a8d44aecd1fc96e0c963baf5683857e1a27",
  "source": "pragma solidity 0.5.16;\r\n\r\npragma experimental ABIEncoderV2;\r\n\r\ncontract EatHealthyChain {\r\n\r\n  // Basic Product definition containing values about the product itself\r\n  // but also about consensus\r\n  struct Product {\r\n    address productProposerAddress;\r\n    uint16 forVotes;\r\n    uint16 againstVotes;\r\n    uint32 productId;\r\n    uint64 productCode;\r\n    uint startDate;\r\n    uint endDate;\r\n    bool isVotable;\r\n    mapping(uint => Alternative) alternatives;\r\n  }\r\n\r\n  // Basic Alternative definition\r\n  // It sets for and against votes for a product code alternative to the product code defined\r\n  struct Alternative {\r\n    uint64 productCode;\r\n    uint64 productCodeAlternative;\r\n    uint16 forVotes;\r\n    uint16 againstVotes;\r\n    bool isVotedToday;\r\n    uint propositionDate;\r\n  }\r\n\r\n  // Hashes structure\r\n  // Contains all hashes for a given product code / Can't store unhashed data\r\n  struct Hashes {\r\n    bytes32 ingredients_hash;\r\n    bytes32 labels_hash;\r\n    bytes32 nutriments_hash;\r\n    bytes32 additives_hash;\r\n    bytes32 variousData_hash;\r\n    bytes32 all_hash;\r\n  }\r\n\r\n  // Label structure\r\n  // Supposed to be real labels given by growers\r\n  struct Label {\r\n    uint id;\r\n    string label_name;\r\n    uint expiration_date;\r\n  }\r\n\r\n  // Basic Nutriment structure needed for the Product structure\r\n  // A way to divide Product content\r\n  struct Nutriment {\r\n    string energy;\r\n    string energy_kcal;\r\n    string proteines;\r\n    string carbohydrates;\r\n    string salt;\r\n    string sugar;\r\n    string fat;\r\n    string saturated_fat;\r\n    string fiber;\r\n    string sodium;\r\n  }\r\n\r\n  // Basic User structure with useful parameters.\r\n  // In particular, token date, token number and reputation\r\n  // needed for the consensus\r\n  struct User {\r\n    uint32 userId;\r\n    uint lastTimeTokenGiven;\r\n    int16 tokenNumber;\r\n    int16 reputation;\r\n    bool isExist;\r\n  }\r\n\r\n  // Contract deployer\r\n  address private _owner;\r\n\r\n  // Default user id increasing each time a user subscribes\r\n  uint32 private uniqueIdUser;\r\n\r\n  // Default product id increasing each time a product is proposed/modified\r\n  uint32 private uniqueProductId;\r\n\r\n  // Default product id increasing each time we add a product code with real labels\r\n  uint32 private uniqueRealLabelId;\r\n\r\n\r\n  // Address needed to end votes and manage alternative update into the contract\r\n  address internal endVoteResponsible;\r\n\r\n  // Accessing to a User structure by his address\r\n  mapping(address => User) public addressToUser;\r\n\r\n  // Describing users who has already voted for a proposed product(\r\n  mapping(uint => mapping(uint => mapping(address => bool[2]))) public alreadyVoted;\r\n\r\n  // Accessing to a Product in proposal phase by his code\r\n  mapping(uint => Product) public productCodeToProposalProduct;\r\n\r\n  // Accessing to Hashes product in proposal phase by his code\r\n  mapping(uint => Hashes) public productCodeToProposalHashes;\r\n\r\n  // Accessing to a Product adopted by his code\r\n  mapping(uint => Product) public productCodeToProduct;\r\n\r\n  // Accessing to Hashes product adopted by product code\r\n  mapping(uint => Hashes) public productCodeToHashes;\r\n\r\n  // Accessing to real labels defined by growers (they are actually fake in this contract)\r\n  mapping(uint => Label[]) public productCodeToRealLabels;\r\n\r\n  // mapping(address => mapping(uint => Product)) addressToProducts;\r\n  uint[] private trueLabelizedProductCode;\r\n\r\n  // Event triggering product hashes, product proposer address and start/end vote dates when a new product is proposed\r\n  event TriggerAddProduct(bytes32[6] hashes, address proposerProduct, uint[2] voteDates);\r\n\r\n  // Event triggering product hashes\r\n  event TriggerVerifyCompliance(bytes32[6] hashes);\r\n\r\n  // Constructor setting the owner, the vote closer and alternatives setup\r\n  // Owner is automatically set as user\r\n  constructor() public {\r\n    _owner = msg.sender;\r\n    endVoteResponsible = 0x712EB6c16Ab3694b684B6c74B40A676c6d13621a;\r\n    addressToUser[_owner] = User(uniqueIdUser, now, 10, 0, true);\r\n    uniqueIdUser++;\r\n    setupRealLabels();\r\n  }\r\n\r\n  // Checks the code length, which has to be a length of 13 numbers\r\n  modifier checkLengthGS1 (uint _productCode){\r\n    require(_productCode > 1111111111111, \"Le code de produit n'a pas la bonne longueur !\");\r\n    _;\r\n  }\r\n\r\n  // Checks if the user calling a function exists\r\n  modifier onlyUsers () {\r\n    require(addressToUser[msg.sender].isExist == true, \"Cet utilisateur n'existe pas\");\r\n    _;\r\n  }\r\n\r\n  // Checks if the user calling a function exists\r\n  modifier isNotProposed (uint _productCode) {\r\n    require(productCodeToProposalProduct[_productCode].productProposerAddress == address(0), \"Ce produit est dj propos !\");\r\n    _;\r\n  }\r\n\r\n  // Checks if the user is the responsible for ending a vote or set alternatives\r\n  modifier isResponsible() {\r\n    require(msg.sender == endVoteResponsible, 'Vous n\\'tes pas le responsable');\r\n    _;\r\n  }\r\n\r\n  // Checks if the product is votable\r\n  modifier isProductVotable(uint _productCode) {\r\n    require(productCodeToProposalProduct[_productCode].isVotable, \"Ce produit n'est pas en vote\");\r\n    _;\r\n  }\r\n\r\n  /**\r\n  @notice Product is added in proposal phase by the user,\r\n          then visible for all users for votes\r\n  @dev\r\n         Add a new Product and Nutriments object in corresponding proposal mappings\r\n         Also added in corresponding arrays, useful to get them all from front-end\r\n         Finally, emitting an event to warn the user, all is OK\r\n  @param _productCode, _productName, _labels, _ingredients, _quantity,\r\n         _typeOfProduct, _packaging, _nutriments, _addiditfs\r\n         => Elements needed to fill in both Product and Nutriments object\r\n  */\r\n  function addProductToProposal(\r\n    uint64 _productCode,\r\n    string[] memory _labels,\r\n    string[] memory _ingredients,\r\n    string[] memory _additives,\r\n    Nutriment memory _nutriments,\r\n    string memory _productName,\r\n    string memory _typeOfProduct,\r\n    uint16 _quantity,\r\n    string memory _packaging\r\n  ) checkLengthGS1(_productCode) onlyUsers() isNotProposed(_productCode) public {\r\n    Product memory _product;\r\n    Hashes memory _hashes;\r\n    _product.productId = uniqueProductId;\r\n    _product.productCode = _productCode;\r\n    _product.productProposerAddress = msg.sender;\r\n    _hashes.labels_hash = keccak256(abi.encode(_labels));\r\n    _hashes.ingredients_hash = keccak256(abi.encode(_ingredients));\r\n    _hashes.additives_hash = keccak256(abi.encode(_additives));\r\n    _hashes.nutriments_hash = keccak256(abi.encode(_nutriments));\r\n    _hashes.variousData_hash = keccak256(abi.encodePacked(_productCode, _productName, _typeOfProduct, _quantity, _packaging));\r\n    _hashes.all_hash = keccak256(abi.encodePacked(_hashes.labels_hash, _hashes.ingredients_hash, _hashes.additives_hash, _hashes.nutriments_hash, _hashes.variousData_hash));\r\n    _product.isVotable = true;\r\n    _product.startDate = now;\r\n    _product.endDate = now + 5 minutes;\r\n    productCodeToProposalProduct[_productCode] = _product;\r\n    // addressToProducts[msg.sender][_productCode] = _product;\r\n    productCodeToProposalHashes[_productCode] = _hashes;\r\n    uniqueProductId++;\r\n    // addressToUser[msg.sender].tokenNumber--;\r\n    emit TriggerAddProduct([_hashes.labels_hash, _hashes.ingredients_hash, _hashes.additives_hash, _hashes.nutriments_hash, _hashes.variousData_hash, _hashes.all_hash], msg.sender, [_product.startDate, _product.endDate]);\r\n  }\r\n\r\n  /**\r\n  @notice User is voting for a product in proposal phase (new or update)\r\n  @dev\r\n         User can only vote if he is registered and he has not already voted\r\n         Then adding vote to for and against\r\n  @param _opinion vote value (for or against)\r\n         _productCode product targeted for the vote\r\n  */\r\n  function vote(bool _opinion, uint _productCode) isProductVotable(_productCode) public {\r\n    require(productCodeToProposalProduct[_productCode].productProposerAddress != msg.sender, \"Vous ne pouvez pas voter pour votre propre proposition\");\r\n    require(addressToUser[msg.sender].tokenNumber > 0, \"Vous n'avez pas assez de token\");\r\n  //  require(productCodeToProposalProduct[_productCode].startDate < productCodeToProposalProduct[_productCode].endDate, \"Le vote de ce produit est clos\");\r\n    require(alreadyVoted[_productCode][productCodeToProposalProduct[_productCode].productId][msg.sender][0] == false, \"Vous avez dj vot\");\r\n    alreadyVoted[_productCode][productCodeToProposalProduct[_productCode].productId][msg.sender][0] = true;\r\n    if (_opinion == true) {\r\n      productCodeToProposalProduct[_productCode].forVotes++;\r\n    } else {\r\n      productCodeToProposalProduct[_productCode].againstVotes++;\r\n    }\r\n    alreadyVoted[_productCode][productCodeToProposalProduct[_productCode].productId][msg.sender][1] = _opinion;\r\n    addressToUser[msg.sender].tokenNumber--;\r\n  }\r\n\r\n  /**\r\n  @notice User is voting for a product in proposal phase (new or update)\r\n  @dev\r\n         User can only vote if he is registered and he has not already voted\r\n         Then adding vote to for and against\r\n  @param _productCode product targeted for the vote\r\n*/\r\n  function endVote(uint _productCode) isResponsible() isProductVotable(_productCode) public {\r\n  //  require(productCodeToProposalProduct[_productCode].startDate < productCodeToProposalProduct[_productCode].endDate, \"La fin du vote n'est pas depasse !\");\r\n    require(productCodeToProposalProduct[_productCode].productProposerAddress != address(0), \"Ce produit n'existe pas en proposition\");\r\n    if (productCodeToProposalProduct[_productCode].forVotes >= productCodeToProposalProduct[_productCode].againstVotes) {\r\n      acceptedProduct(_productCode);\r\n    } else {\r\n      refusedProduct(_productCode);\r\n    }\r\n  }\r\n\r\n  /*\r\n  @notice Register a user when he does his first proposal or vote\r\n  @dev\r\n  Defines a new User object, giving him token and reputation\r\n  Adds it to a mapping with all other subscribed users\r\n  */\r\n  function subscribeUser() public {\r\n    require(addressToUser[msg.sender].isExist == false);\r\n    User memory user;\r\n    user.userId = uniqueIdUser;\r\n    user.lastTimeTokenGiven = now;\r\n    user.tokenNumber = 5;\r\n    user.reputation = 50;\r\n    user.isExist = true;\r\n    uniqueIdUser++;\r\n    addressToUser[msg.sender] = user;\r\n  }\r\n\r\n  /*\r\n  @notice Delete a product from proposal product, no more available anywhere\r\n  @dev\r\n  Deletes the proposed product corresponding the product code in argument\r\n  But also its corresponding hashes\r\n  @params _productCode product code which needs to be deleted from the proposal\r\n  */\r\n  function deleteProductFromProposal(uint _productCode) internal {\r\n    delete productCodeToProposalProduct[_productCode];\r\n    delete productCodeToProposalHashes[_productCode];\r\n  }\r\n\r\n  /*\r\n  @notice Deletes a product from proposal product, no more available anywhere\r\n  @dev\r\n  Deletes the proposed product corresponding the product code in argument\r\n  But also its corresponding hashes\r\n  @params _productCode product code which needs to be deleted from the proposal\r\n  */\r\n  function refusedProduct(uint _productCode) internal {\r\n    if (productCodeToProduct[_productCode].productProposerAddress != address(0)) {\r\n      deleteProductFromProposal(_productCode);\r\n    } else {\r\n      productCodeToProposalProduct[_productCode].isVotable = false;\r\n      //  addressToProducts[proposerAddress][_productCode].isVotable = false;\r\n    }\r\n  }\r\n\r\n  /*\r\n  @notice Accepts the product voted by the community\r\n  @dev\r\n  Accepts the proposed product corresponding the product code in argument\r\n  But also its corresponding hashes\r\n  Deletes it from proposal because it no more exists as proposed\r\n  @params _productCode product code which needs to be accepted from the proposal\r\n  */\r\n  function acceptedProduct(uint _productCode) internal {\r\n    productCodeToProposalProduct[_productCode].isVotable = false;\r\n    //  addressToProducts[proposerAddress][_productCode].isVotable = false;\r\n    productCodeToProduct[_productCode] = productCodeToProposalProduct[_productCode];\r\n    productCodeToHashes[_productCode] = productCodeToProposalHashes[_productCode];\r\n    deleteProductFromProposal(_productCode);\r\n\r\n  }\r\n\r\n\r\n  /*\r\n  @notice Setting up new alternatives into the contract\r\n  @dev\r\n  Takes a list of Alternative coming from and adding them all into the alternative mapping in accepted products structure\r\n  Sets up votes and expiration date to the alternative\r\n  @params _alternativeVotes list of Alternatives object\r\n  */\r\n  function manageAlternatives(Alternative[] memory _alternativeVotes) isResponsible() public {\r\n    for(uint i = 0; i < _alternativeVotes.length; i++) {\r\n      productCodeToProduct[_alternativeVotes[i].productCode].alternatives[_alternativeVotes[i].productCodeAlternative] = _alternativeVotes[i];\r\n    }\r\n  }\r\n\r\n  /*\r\n  @notice Simply returns hashes of each group of data (labels, ingredients, additives, nutriments and other various datas).\r\n          Really useful with our app !\r\n  @dev\r\n  Takes all datas needed to build the product object (in the addProductToProposal methods) and hashing them.\r\n  @params _productCode, _productName, _labels, _ingredients, _quantity,\r\n         _typeOfProduct, _packaging, _nutriments, _additives\r\n         => Elements used to build hashes during the addProductToProposal methods\r\n  @returns hash build in the method\r\n  */\r\n  function verifyCompliance(\r\n    uint64 _productCode,\r\n    string[] memory _labels,\r\n    string[] memory _ingredients,\r\n    string[] memory _additives,\r\n    Nutriment memory _nutriments,\r\n    string memory _productName,\r\n    string memory _typeOfProduct,\r\n    uint16 _quantity,\r\n    string memory _packaging) public pure returns (bytes32[6] memory) {\r\n      bytes32 labels_hash =  keccak256(abi.encode(_labels));\r\n      bytes32 ingredients_hash =  keccak256(abi.encode(_ingredients));\r\n      bytes32 additives_hash =  keccak256(abi.encode(_additives));\r\n      bytes32 nutriments_hash =  keccak256(abi.encode(_nutriments));\r\n      bytes32 variousDatas_hash = keccak256(abi.encodePacked(_productCode, _productName, _typeOfProduct, _quantity, _packaging));\r\n\r\n      return [keccak256(abi.encodePacked(labels_hash, ingredients_hash, additives_hash, nutriments_hash, variousDatas_hash)),\r\n      labels_hash,\r\n      ingredients_hash,\r\n      additives_hash,\r\n      nutriments_hash,\r\n      variousDatas_hash\r\n    ];\r\n  }\r\n\r\n  /*\r\n  @notice Simply returns hashes of an accepted product by code. Really useful with our app !\r\n  @dev\r\n  Checks into hashes mapping of accepted mapping and returning each hashes\r\n  @params _productCode product code hashes which needs to be returned\r\n  @returns hashes of the product code given\r\n  */\r\n  function getProductHashes(uint _productCode) public view  returns (bytes32[6] memory){\r\n    return [productCodeToHashes[_productCode].all_hash,\r\n    productCodeToHashes[_productCode].labels_hash,\r\n    productCodeToHashes[_productCode].ingredients_hash,\r\n    productCodeToHashes[_productCode].additives_hash,\r\n    productCodeToHashes[_productCode].nutriments_hash,\r\n    productCodeToHashes[_productCode].variousData_hash\r\n    ];\r\n  }\r\n\r\n  // To add a product in proposal, we need to check if the product doesn't already exist in mappings of products\r\n  function checkProductIsNew(uint _productCode) public view checkLengthGS1(_productCode) returns (bool) {\r\n    if (productCodeToProposalProduct[_productCode].productProposerAddress == address(0) && productCodeToProduct[_productCode].productProposerAddress == address(0)) {\r\n      return true;\r\n    } else {\r\n      return false;\r\n    }\r\n  }\r\n\r\n  // Returning a boolean, checking if user is product proposer\r\n  function isProductProposer(uint _productCode) public view returns (bool) {\r\n    return productCodeToProposalProduct[_productCode].productProposerAddress == msg.sender;\r\n  }\r\n\r\n  // Returning a boolean, checking if user is product proposer\r\n  function isAlreadyVotedByCurrentUser(uint _productCode) public view returns (bool) {\r\n    return alreadyVoted[_productCode][productCodeToProposalProduct[_productCode].productId][msg.sender][0] == true;\r\n  }\r\n\r\n  // Returning start and end dates of a vote\r\n  function getDates(uint _productCode) public view returns (uint, uint) {\r\n    return (productCodeToProposalProduct[_productCode].startDate, productCodeToProposalProduct[_productCode].endDate);\r\n  }\r\n\r\n  /*\r\n  @notice setting up fake \"real\" labels for demo purpose. For example : label called 'Campagne' expire in 10 days\r\n  @dev\r\n  Simply add objects into mapping\r\n  */\r\n  function setupRealLabels() internal {\r\n    productCodeToRealLabels[1234567891234].push(Label(uniqueRealLabelId,'', now + 10 days));\r\n    productCodeToRealLabels[1234567891234].push(Label(uniqueRealLabelId,'', now + 10 days));\r\n    trueLabelizedProductCode.push(1234567891234);\r\n    uniqueRealLabelId++;\r\n    productCodeToRealLabels[5555555555555].push(Label(uniqueRealLabelId,'', now + 8 days));\r\n    productCodeToRealLabels[5555555555555].push(Label(uniqueRealLabelId,'', now + 8 days));\r\n    trueLabelizedProductCode.push(5555555555555);\r\n    uniqueRealLabelId++;\r\n  }\r\n\r\n}\r\n",
  "sourcePath": "C:\\Users\\Fabrice\\Desktop\\Project_EatHealthyLabelChain\\EatHealthyLabelChain\\contracts\\EatHealthyChain.sol",
  "compiler": {
    "name": "solc",
    "version": "0.5.16+commit.9c3226ce.Emscripten.clang"
  },
  "schemaVersion": "3.2.0",
  "updatedAt": "2020-08-29T12:29:08.153Z",
  "networkType": "ethereum",
  "devdoc": {
    "methods": {
      "addProductToProposal(uint64,string[],string[],string[],(string,string,string,string,string,string,string,string,string,string),string,string,uint16,string)": {
        "details": "Add a new Product and Nutriments object in corresponding proposal mappings Also added in corresponding arrays, useful to get them all from front-end Finally, emitting an event to warn the user, all is OK",
        "params": {
          "_productCode": ", _productName, _labels, _ingredients, _quantity, _typeOfProduct, _packaging, _nutriments, _addiditfs => Elements needed to fill in both Product and Nutriments object"
        }
      },
      "endVote(uint256)": {
        "details": "User can only vote if he is registered and he has not already voted Then adding vote to for and against",
        "params": {
          "_productCode": "product targeted for the vote"
        }
      },
      "vote(bool,uint256)": {
        "details": "User can only vote if he is registered and he has not already voted Then adding vote to for and against",
        "params": {
          "_opinion": "vote value (for or against) _productCode product targeted for the vote"
        }
      }
    }
  },
  "userdoc": {
    "methods": {
      "addProductToProposal(uint64,string[],string[],string[],(string,string,string,string,string,string,string,string,string,string),string,string,uint16,string)": {
        "notice": "Product is added in proposal phase by the user, then visible for all users for votes"
      },
      "endVote(uint256)": {
        "notice": "User is voting for a product in proposal phase (new or update)"
      },
      "vote(bool,uint256)": {
        "notice": "User is voting for a product in proposal phase (new or update)"
      }
    }
  }
}