{
  "contractName": "EatHealthyChain",
  "abi": [
    {
      "inputs": [],
      "payable": false,
      "stateMutability": "nonpayable",
      "type": "constructor"
    },
    {
      "anonymous": false,
      "inputs": [
        {
          "indexed": false,
          "internalType": "bytes32[6]",
          "name": "hashes",
          "type": "bytes32[6]"
        },
        {
          "indexed": false,
          "internalType": "address",
          "name": "proposerProduct",
          "type": "address"
        },
        {
          "indexed": false,
          "internalType": "uint256[2]",
          "name": "voteDates",
          "type": "uint256[2]"
        }
      ],
      "name": "TriggerAddProduct",
      "type": "event"
    },
    {
      "anonymous": false,
      "inputs": [
        {
          "indexed": false,
          "internalType": "bytes32[6]",
          "name": "hashes",
          "type": "bytes32[6]"
        }
      ],
      "name": "TriggerVerifyCompliance",
      "type": "event"
    },
    {
      "constant": true,
      "inputs": [
        {
          "internalType": "address",
          "name": "",
          "type": "address"
        }
      ],
      "name": "addressToUser",
      "outputs": [
        {
          "internalType": "uint32",
          "name": "userId",
          "type": "uint32"
        },
        {
          "internalType": "uint256",
          "name": "lastTimeTokenGiven",
          "type": "uint256"
        },
        {
          "internalType": "int16",
          "name": "tokenNumber",
          "type": "int16"
        },
        {
          "internalType": "int16",
          "name": "reputation",
          "type": "int16"
        },
        {
          "internalType": "bool",
          "name": "isExist",
          "type": "bool"
        }
      ],
      "payable": false,
      "stateMutability": "view",
      "type": "function"
    },
    {
      "constant": true,
      "inputs": [
        {
          "internalType": "uint256",
          "name": "",
          "type": "uint256"
        },
        {
          "internalType": "uint256",
          "name": "",
          "type": "uint256"
        },
        {
          "internalType": "address",
          "name": "",
          "type": "address"
        },
        {
          "internalType": "uint256",
          "name": "",
          "type": "uint256"
        }
      ],
      "name": "alreadyVoted",
      "outputs": [
        {
          "internalType": "bool",
          "name": "",
          "type": "bool"
        }
      ],
      "payable": false,
      "stateMutability": "view",
      "type": "function"
    },
    {
      "constant": true,
      "inputs": [
        {
          "internalType": "uint256",
          "name": "",
          "type": "uint256"
        }
      ],
      "name": "productCodeToHashes",
      "outputs": [
        {
          "internalType": "bytes32",
          "name": "ingredients_hash",
          "type": "bytes32"
        },
        {
          "internalType": "bytes32",
          "name": "labels_hash",
          "type": "bytes32"
        },
        {
          "internalType": "bytes32",
          "name": "nutriments_hash",
          "type": "bytes32"
        },
        {
          "internalType": "bytes32",
          "name": "additives_hash",
          "type": "bytes32"
        },
        {
          "internalType": "bytes32",
          "name": "variousData_hash",
          "type": "bytes32"
        },
        {
          "internalType": "bytes32",
          "name": "all_hash",
          "type": "bytes32"
        }
      ],
      "payable": false,
      "stateMutability": "view",
      "type": "function"
    },
    {
      "constant": true,
      "inputs": [
        {
          "internalType": "uint256",
          "name": "",
          "type": "uint256"
        }
      ],
      "name": "productCodeToProduct",
      "outputs": [
        {
          "internalType": "address",
          "name": "productProposerAddress",
          "type": "address"
        },
        {
          "internalType": "uint16",
          "name": "forVotes",
          "type": "uint16"
        },
        {
          "internalType": "uint16",
          "name": "againstVotes",
          "type": "uint16"
        },
        {
          "internalType": "uint32",
          "name": "productId",
          "type": "uint32"
        },
        {
          "internalType": "uint64",
          "name": "productCode",
          "type": "uint64"
        },
        {
          "internalType": "uint256",
          "name": "startDate",
          "type": "uint256"
        },
        {
          "internalType": "uint256",
          "name": "endDate",
          "type": "uint256"
        },
        {
          "internalType": "bool",
          "name": "isVotable",
          "type": "bool"
        }
      ],
      "payable": false,
      "stateMutability": "view",
      "type": "function"
    },
    {
      "constant": true,
      "inputs": [
        {
          "internalType": "uint256",
          "name": "",
          "type": "uint256"
        }
      ],
      "name": "productCodeToProposalHashes",
      "outputs": [
        {
          "internalType": "bytes32",
          "name": "ingredients_hash",
          "type": "bytes32"
        },
        {
          "internalType": "bytes32",
          "name": "labels_hash",
          "type": "bytes32"
        },
        {
          "internalType": "bytes32",
          "name": "nutriments_hash",
          "type": "bytes32"
        },
        {
          "internalType": "bytes32",
          "name": "additives_hash",
          "type": "bytes32"
        },
        {
          "internalType": "bytes32",
          "name": "variousData_hash",
          "type": "bytes32"
        },
        {
          "internalType": "bytes32",
          "name": "all_hash",
          "type": "bytes32"
        }
      ],
      "payable": false,
      "stateMutability": "view",
      "type": "function"
    },
    {
      "constant": true,
      "inputs": [
        {
          "internalType": "uint256",
          "name": "",
          "type": "uint256"
        }
      ],
      "name": "productCodeToProposalProduct",
      "outputs": [
        {
          "internalType": "address",
          "name": "productProposerAddress",
          "type": "address"
        },
        {
          "internalType": "uint16",
          "name": "forVotes",
          "type": "uint16"
        },
        {
          "internalType": "uint16",
          "name": "againstVotes",
          "type": "uint16"
        },
        {
          "internalType": "uint32",
          "name": "productId",
          "type": "uint32"
        },
        {
          "internalType": "uint64",
          "name": "productCode",
          "type": "uint64"
        },
        {
          "internalType": "uint256",
          "name": "startDate",
          "type": "uint256"
        },
        {
          "internalType": "uint256",
          "name": "endDate",
          "type": "uint256"
        },
        {
          "internalType": "bool",
          "name": "isVotable",
          "type": "bool"
        }
      ],
      "payable": false,
      "stateMutability": "view",
      "type": "function"
    },
    {
      "constant": true,
      "inputs": [
        {
          "internalType": "uint256",
          "name": "",
          "type": "uint256"
        },
        {
          "internalType": "uint256",
          "name": "",
          "type": "uint256"
        }
      ],
      "name": "productCodeToRealLabels",
      "outputs": [
        {
          "internalType": "uint256",
          "name": "id",
          "type": "uint256"
        },
        {
          "internalType": "string",
          "name": "label_name",
          "type": "string"
        },
        {
          "internalType": "uint256",
          "name": "expiration_date",
          "type": "uint256"
        }
      ],
      "payable": false,
      "stateMutability": "view",
      "type": "function"
    },
    {
      "constant": false,
      "inputs": [
        {
          "internalType": "uint64",
          "name": "_productCode",
          "type": "uint64"
        },
        {
          "internalType": "string[]",
          "name": "_labels",
          "type": "string[]"
        },
        {
          "internalType": "string[]",
          "name": "_ingredients",
          "type": "string[]"
        },
        {
          "internalType": "string[]",
          "name": "_additives",
          "type": "string[]"
        },
        {
          "components": [
            {
              "internalType": "string",
              "name": "energy",
              "type": "string"
            },
            {
              "internalType": "string",
              "name": "energy_kcal",
              "type": "string"
            },
            {
              "internalType": "string",
              "name": "proteines",
              "type": "string"
            },
            {
              "internalType": "string",
              "name": "carbohydrates",
              "type": "string"
            },
            {
              "internalType": "string",
              "name": "salt",
              "type": "string"
            },
            {
              "internalType": "string",
              "name": "sugar",
              "type": "string"
            },
            {
              "internalType": "string",
              "name": "fat",
              "type": "string"
            },
            {
              "internalType": "string",
              "name": "saturated_fat",
              "type": "string"
            },
            {
              "internalType": "string",
              "name": "fiber",
              "type": "string"
            },
            {
              "internalType": "string",
              "name": "sodium",
              "type": "string"
            }
          ],
          "internalType": "struct EatHealthyChain.Nutriment",
          "name": "_nutriments",
          "type": "tuple"
        },
        {
          "internalType": "string",
          "name": "_productName",
          "type": "string"
        },
        {
          "internalType": "string",
          "name": "_typeOfProduct",
          "type": "string"
        },
        {
          "internalType": "uint16",
          "name": "_quantity",
          "type": "uint16"
        },
        {
          "internalType": "string",
          "name": "_packaging",
          "type": "string"
        }
      ],
      "name": "addProductToProposal",
      "outputs": [],
      "payable": false,
      "stateMutability": "nonpayable",
      "type": "function"
    },
    {
      "constant": false,
      "inputs": [
        {
          "internalType": "bool",
          "name": "_opinion",
          "type": "bool"
        },
        {
          "internalType": "uint256",
          "name": "_productCode",
          "type": "uint256"
        }
      ],
      "name": "vote",
      "outputs": [],
      "payable": false,
      "stateMutability": "nonpayable",
      "type": "function"
    },
    {
      "constant": false,
      "inputs": [
        {
          "internalType": "uint256",
          "name": "_productCode",
          "type": "uint256"
        },
        {
          "internalType": "address",
          "name": "proposerAddress",
          "type": "address"
        }
      ],
      "name": "endVote",
      "outputs": [],
      "payable": false,
      "stateMutability": "nonpayable",
      "type": "function"
    },
    {
      "constant": false,
      "inputs": [],
      "name": "subscribeUser",
      "outputs": [],
      "payable": false,
      "stateMutability": "nonpayable",
      "type": "function"
    },
    {
      "constant": false,
      "inputs": [
        {
          "components": [
            {
              "internalType": "uint64",
              "name": "productCode",
              "type": "uint64"
            },
            {
              "internalType": "uint64",
              "name": "productCodeAlternative",
              "type": "uint64"
            },
            {
              "internalType": "uint16",
              "name": "forVotes",
              "type": "uint16"
            },
            {
              "internalType": "uint16",
              "name": "againstVotes",
              "type": "uint16"
            },
            {
              "internalType": "bool",
              "name": "isVotedToday",
              "type": "bool"
            },
            {
              "internalType": "uint256",
              "name": "propositionDate",
              "type": "uint256"
            }
          ],
          "internalType": "struct EatHealthyChain.Alternative[]",
          "name": "_alternativeVotes",
          "type": "tuple[]"
        }
      ],
      "name": "manageAlternatives",
      "outputs": [],
      "payable": false,
      "stateMutability": "nonpayable",
      "type": "function"
    },
    {
      "constant": true,
      "inputs": [
        {
          "internalType": "uint64",
          "name": "_productCode",
          "type": "uint64"
        },
        {
          "internalType": "string[]",
          "name": "_labels",
          "type": "string[]"
        },
        {
          "internalType": "string[]",
          "name": "_ingredients",
          "type": "string[]"
        },
        {
          "internalType": "string[]",
          "name": "_additives",
          "type": "string[]"
        },
        {
          "components": [
            {
              "internalType": "string",
              "name": "energy",
              "type": "string"
            },
            {
              "internalType": "string",
              "name": "energy_kcal",
              "type": "string"
            },
            {
              "internalType": "string",
              "name": "proteines",
              "type": "string"
            },
            {
              "internalType": "string",
              "name": "carbohydrates",
              "type": "string"
            },
            {
              "internalType": "string",
              "name": "salt",
              "type": "string"
            },
            {
              "internalType": "string",
              "name": "sugar",
              "type": "string"
            },
            {
              "internalType": "string",
              "name": "fat",
              "type": "string"
            },
            {
              "internalType": "string",
              "name": "saturated_fat",
              "type": "string"
            },
            {
              "internalType": "string",
              "name": "fiber",
              "type": "string"
            },
            {
              "internalType": "string",
              "name": "sodium",
              "type": "string"
            }
          ],
          "internalType": "struct EatHealthyChain.Nutriment",
          "name": "_nutriments",
          "type": "tuple"
        },
        {
          "internalType": "string",
          "name": "_productName",
          "type": "string"
        },
        {
          "internalType": "string",
          "name": "_typeOfProduct",
          "type": "string"
        },
        {
          "internalType": "uint16",
          "name": "_quantity",
          "type": "uint16"
        },
        {
          "internalType": "string",
          "name": "_packaging",
          "type": "string"
        }
      ],
      "name": "verifyCompliance",
      "outputs": [
        {
          "internalType": "bytes32[6]",
          "name": "",
          "type": "bytes32[6]"
        }
      ],
      "payable": false,
      "stateMutability": "view",
      "type": "function"
    },
    {
      "constant": true,
      "inputs": [
        {
          "internalType": "uint256",
          "name": "_productCode",
          "type": "uint256"
        }
      ],
      "name": "getProductHashes",
      "outputs": [
        {
          "internalType": "bytes32[6]",
          "name": "",
          "type": "bytes32[6]"
        }
      ],
      "payable": false,
      "stateMutability": "view",
      "type": "function"
    },
    {
      "constant": true,
      "inputs": [
        {
          "internalType": "uint256",
          "name": "_productCode",
          "type": "uint256"
        }
      ],
      "name": "checkProductIsNew",
      "outputs": [
        {
          "internalType": "bool",
          "name": "",
          "type": "bool"
        }
      ],
      "payable": false,
      "stateMutability": "view",
      "type": "function"
    },
    {
      "constant": true,
      "inputs": [
        {
          "internalType": "uint256",
          "name": "_productCode",
          "type": "uint256"
        }
      ],
      "name": "isProductProposer",
      "outputs": [
        {
          "internalType": "bool",
          "name": "",
          "type": "bool"
        }
      ],
      "payable": false,
      "stateMutability": "view",
      "type": "function"
    },
    {
      "constant": true,
      "inputs": [
        {
          "internalType": "uint256",
          "name": "_productCode",
          "type": "uint256"
        }
      ],
      "name": "isAlreadyVotedByCurrentUser",
      "outputs": [
        {
          "internalType": "bool",
          "name": "",
          "type": "bool"
        }
      ],
      "payable": false,
      "stateMutability": "view",
      "type": "function"
    },
    {
      "constant": true,
      "inputs": [
        {
          "internalType": "uint256",
          "name": "_productCode",
          "type": "uint256"
        }
      ],
      "name": "getDates",
      "outputs": [
        {
          "internalType": "uint256",
          "name": "",
          "type": "uint256"
        },
        {
          "internalType": "uint256",
          "name": "",
          "type": "uint256"
        }
      ],
      "payable": false,
      "stateMutability": "view",
      "type": "function"
    }
  ],
  "bytecode": "0x60806040523480156200001157600080fd5b50600080546001600160a01b031990811633178083556001805490921673712eb6c16ab3694b684b6c74b40a676c6d13621a1782556040805160a08101825263ffffffff600160a01b80850482168352426020808501918252600a858701908152606086018a8152608087018a81526001600160a01b03999099168b52600292839052968a209551865490861663ffffffff199091161786559151858901559051930180549451955115156401000000000260ff60201b1996880b61ffff908116620100000263ffff000019968a0b90911661ffff19909716969096179490941694909417949094169190911790915583548281048216909301160263ffffffff60a01b199091161790556200012f6001600160e01b036200013516565b6200053d565b600860209081526040805160608101825260008054600160e01b900463ffffffff1682528251808501845281815282850190815242620d2f00019383019390935260008051602062002ba283398151915280546001810180835591909252825160008051602062002b428339815191526003909302928301908155935180519195939493620001d99360008051602062002ae2833981519152019291019062000498565b506040918201516002909101556008602090815281516060810183526000805463ffffffff600160e01b90910416825283518084018552818152828401908152620d2f0042019483019490945260008051602062002ba2833981519152805460018101808355919092528251600390920260008051602062002b42833981519152810192835594518051919650929491936200028b9360008051602062002ae283398151915290930192019062000498565b5060409182015160029091015560098054600181810190925565011f71fb092260008051602062002b62833981519152909101556000805463ffffffff600160e01b80830482168501821681026001600160e01b039093169290921780845560086020908152865160608101885293909104909116825284518082018652838152828201908152620a8c0042019583019590955260008051602062002b02833981519152805494850180825593528151600390940260008051602062002b828339815191528101948555945180519396509194620003819360008051602062002b22833981519152909101929091019062000498565b506040918201516002909101556008602090815281516060810183526000805463ffffffff600160e01b90910416825283518084018552818152828401908152620a8c0042019483019490945260008051602062002b02833981519152805460018101808355919092528251600390920260008051602062002b8283398151915281019283559451805191965092949193620004339360008051602062002b2283398151915290930192019062000498565b5060409190910151600290910155506009805460018181018355600092835265050d80ea58e360008051602062002b6283398151915290920191909155815463ffffffff600160e01b8083048216909301169091026001600160e01b03909116179055565b828054600181600116156101000203166002900490600052602060002090601f016020900481019282601f10620004db57805160ff19168380011785556200050b565b828001600101855582156200050b579182015b828111156200050b578251825591602001919060010190620004ee565b50620005199291506200051d565b5090565b6200053a91905b8082111562000519576000815560010162000524565b90565b612595806200054d6000396000f3fe608060405234801561001057600080fd5b50600436106101165760003560e01c8063a98d5fc8116100a2578063be301d3411610071578063be301d341461026f578063d54d6c7014610282578063dd471e8614610295578063eafc9df3146102a8578063edf53886146102bb57610116565b8063a98d5fc814610208578063a9bfcb2214610229578063abe31d151461023c578063ba44cef81461024f57610116565b80632957d914116100e95780632957d9141461019357806361ef3c15146101b35780636b648da5146101da5780636c9672ff146101ed5780637b37d549146101f557610116565b806310e6e06c1461011b5780631257bbe7146101305780631c1ac2b714610143578063230fcaae14610171575b600080fd5b61012e610129366004611908565b6102df565b005b61012e61013e3660046118d4565b61050e565b610156610151366004611942565b610677565b60405161016896959493929190612249565b60405180910390f35b61018461017f366004611990565b6106ac565b60405161016893929190612339565b6101a66101a1366004611942565b610775565b604051610168919061223b565b6101c66101c1366004611942565b610794565b604051610168989796959493929190612189565b61012e6101e8366004611a10565b610801565b61012e610c86565b610156610203366004611942565b610d80565b61021b610216366004611942565b610db5565b604051610168929190612368565b61012e610237366004611960565b610dd2565b6101a661024a3660046119af565b610ea9565b61026261025d366004611a10565b610ef9565b60405161016891906121f3565b6101a661027d366004611942565b611047565b6101c6610290366004611942565b611089565b6102626102a3366004611942565b6110f2565b6101a66102b6366004611942565b611154565b6102ce6102c93660046118ae565b6111cf565b604051610168959493929190612383565b60008181526004602081905260409091200154819060ff1661031c5760405162461bcd60e51b8152600401610313906122e8565b60405180910390fd5b6000828152600460205260409020546001600160a01b03163314156103535760405162461bcd60e51b8152600401610313906122f8565b33600090815260026020819052604082200154600190810b900b1361038a5760405162461bcd60e51b8152600401610313906122c8565b60008281526003602090815260408083206004835281842054600160c01b900463ffffffff168452825280832033845290915290205460ff16156103e05760405162461bcd60e51b8152600401610313906122b8565b6000828152600360209081526040808320600483528184205463ffffffff600160c01b90910416845282528083203384529091529020805460ff1916600190811790915583151514156104645760008281526004602052604090208054600161ffff600160a01b808404821692909201160261ffff60a01b19909116179055610497565b60008281526004602052604090208054600161ffff600160b01b808404821692909201160261ffff60b01b199091161790555b5060009081526003602090815260408083206004835281842054600160c01b900463ffffffff1684528252808320338452825280832080549415156101000261ff001990951694909417909355600290819052919020018054600019600182810b91909101900b61ffff1661ffff19909116179055565b6001546001600160a01b031633146105385760405162461bcd60e51b815260040161031390612308565b60005b81518110156106735781818151811061055057fe5b60200260200101516006600084848151811061056857fe5b6020026020010151600001516001600160401b03168152602001908152602001600020600501600084848151811061059c57fe5b6020908102919091018101518101516001600160401b0390811683528282019390935260409182016000208451815492860151938601516060870151608088015167ffffffffffffffff19909516928716929092176fffffffffffffffff000000000000000019166801000000000000000095909616949094029490941761ffff60801b1916600160801b61ffff948516021761ffff60901b1916600160901b93909416929092029290921760ff60a01b1916600160a01b9215159290920291909117815560a0909101516001918201550161053b565b5050565b600560208190526000918252604090912080546001820154600283015460038401546004850154949095015492949193909286565b600860205281600052604060002081815481106106c557fe5b60009182526020918290206003919091020180546001808301805460408051600294831615610100026000190190921693909304601f810187900487028201870190935282815292965092945090928301828280156107655780601f1061073a57610100808354040283529160200191610765565b820191906000526020600020905b81548152906001019060200180831161074857829003601f168201915b5050505050908060020154905083565b6000818152600460205260409020546001600160a01b03163314919050565b600660205260009081526040902080546001820154600283015460038401546004909401546001600160a01b03841694600160a01b850461ffff90811695600160b01b810490911694600160c01b90910463ffffffff16936001600160401b039091169290919060ff1688565b886001600160401b0316650102b36211c781116108305760405162461bcd60e51b815260040161031390612298565b3360009081526002602081905260409091200154640100000000900460ff1615156001146108705760405162461bcd60e51b815260040161031390612318565b6001600160401b038a166000818152600460205260409020546001600160a01b0316156108af5760405162461bcd60e51b8152600401610313906122a8565b6108b7611416565b6108bf61145a565b600054600160c01b900463ffffffff1660608301526001600160401b038d1660808301523382526040516108f7908d9060200161222a565b60408051601f1981840301815291815281516020928301208383015251610920918d910161222a565b60408051601f198184030181529181528151602092830120835251610947918c910161222a565b60408051601f198184030181529181528151602092830120606084015251610971918b9101612328565b60408051601f19818403018152918152815160209283012083820152516109a2918f918b918b918b918b910161213a565b60408051601f1981840301815291815281516020928301206080840181905283830151845160608601518685015194516109e296939592949193016120e1565b604051602081830303815290604052805190602001208160a001818152505060018260e0019015159081151581525050428260a00181815250504261012c018260c001818152505081600460008f6001600160401b0316815260200190815260200160002060008201518160000160006101000a8154816001600160a01b0302191690836001600160a01b0316021790555060208201518160000160146101000a81548161ffff021916908361ffff16021790555060408201518160000160166101000a81548161ffff021916908361ffff16021790555060608201518160000160186101000a81548163ffffffff021916908363ffffffff16021790555060808201518160010160006101000a8154816001600160401b0302191690836001600160401b0316021790555060a0820151816002015560c0820151816003015560e08201518160040160006101000a81548160ff02191690831515021790555090505080600560008f6001600160401b03168152602001908152602001600020600082015181600001556020820151816001015560408201518160020155606082015181600301556080820151816004015560a082015181600501559050506000601881819054906101000a900463ffffffff168092919060010191906101000a81548163ffffffff021916908363ffffffff160217905550507fb19b8f96e594f972fb1b83f9c257997f845955d8f10af6541a7429c84c2977e86040518060c0016040528083602001518152602001836000015181526020018360600151815260200183604001518152602001836080015181526020018360a001518152503360405180604001604052808660a0015181526020018660c00151815250604051610c6f93929190612201565b60405180910390a150505050505050505050505050565b3360009081526002602081905260409091200154640100000000900460ff1615610caf57600080fd5b610cb761148f565b6000805463ffffffff600160a01b808304821680865242602080880191825260056040808a01918252603260608b01908152600160808c01818152968101891690970263ffffffff60a01b1990991698909817895533895260029283905290972097518854951663ffffffff19909516949094178755518683015593519490910180549251935115156401000000000264ff000000001994830b61ffff908116620100000263ffff0000199790940b1661ffff1990941693909317949094161791909116179055565b600760205260009081526040902080546001820154600283015460038401546004850154600590950154939492939192909186565b600090815260046020526040902060028101546003909101549091565b6001546001600160a01b03163314610dfc5760405162461bcd60e51b815260040161031390612308565b60008281526004602081905260409091200154829060ff16610e305760405162461bcd60e51b8152600401610313906122e8565b6000838152600460205260409020546001600160a01b0316610e645760405162461bcd60e51b8152600401610313906122d8565b60008381526004602052604090205461ffff600160b01b82048116600160a01b9092041610610e9b57610e9683611212565b610ea4565b610ea48361135a565b505050565b60036020528360005260406000206020528260005260406000206020528160005260406000208160028110610eda57fe5b602081049091015460ff601f9092166101000a90041693508492505050565b610f016114bd565b600089604051602001610f14919061222a565b604051602081830303815290604052805190602001209050600089604051602001610f3f919061222a565b604051602081830303815290604052805190602001209050600089604051602001610f6a919061222a565b604051602081830303815290604052805190602001209050600089604051602001610f959190612328565b60405160208183030381529060405280519060200120905060008e8a8a8a8a604051602001610fc895949392919061213a565b60408051601f19818403018152828252805160209091012060c08301909152915080610ffb878787878760e087016120e1565b60405160208183030381529060405280519060200120815260200186815260200185815260200184815260200183815260200182815250955050505050505b9998505050505050505050565b6000908152600360209081526040808320600483528184205463ffffffff600160c01b909104168452825280832033845290915290205460ff16151560011490565b6004602081905260009182526040909120805460018201546002830154600384015493909401546001600160a01b0383169461ffff600160a01b8504811695600160b01b86049091169463ffffffff600160c01b90910416936001600160401b03169260ff1688565b6110fa6114bd565b506040805160c081018252600083815260076020818152848320600581015485526001810154828601528054958501959095526003850154606085015260028501546080850152949091529092526004015460a082015290565b600081650102b36211c7811161117c5760405162461bcd60e51b815260040161031390612298565b6000838152600460205260409020546001600160a01b03161580156111b657506000838152600660205260409020546001600160a01b0316155b156111c457600191506111c9565b600091505b50919050565b60026020819052600091825260409091208054600180830154929093015463ffffffff9091169281810b9162010000810490910b90640100000000900460ff1685565b6000818152600460208181526040808420808401805460ff19908116825560068552838720835481546001600160a01b0319166001600160a01b0390911617808255845461ffff600160a01b91829004811690910261ffff60a01b19909216919091178083558554600160b01b9081900490921690910261ffff60b01b1990911617808255845463ffffffff600160c01b91829004160263ffffffff60c01b19909116178155600180850154828201805467ffffffffffffffff19166001600160401b0390921691909117905560028086015481840155600395860154868401559354918801805460ff93909316151592909316919091179091556005808652848820600790965293909620845481558487015496810196909655838101549086015582810154908501558183015492840192909255810154910155611357816113a1565b50565b6000818152600660205260409020546001600160a01b03161561138557611380816113a1565b611357565b600090815260046020819052604090912001805460ff19169055565b600090815260046020818152604080842080546001600160e01b03191681556001808201805467ffffffffffffffff1916905560028083018790556003808401889055928601805460ff1916905560059485905292862086815590810186905591820185905581018490559182018390550155565b6040805161010081018252600080825260208201819052918101829052606081018290526080810182905260a0810182905260c0810182905260e081019190915290565b6040805160c081018252600080825260208201819052918101829052606081018290526080810182905260a081019190915290565b6040805160a08101825260008082526020820181905291810182905260608101829052608081019190915290565b6040518060c001604052806006906020820280388339509192915050565b80356114e68161251a565b92915050565b600082601f8301126114fd57600080fd5b813561151061150b826123f5565b6123cf565b81815260209384019390925082018360005b8381101561154e578135860161153888826115d5565b8452506020928301929190910190600101611522565b5050505092915050565b600082601f83011261156957600080fd5b813561157761150b826123f5565b915081818352602084019350602081019050838560c084028201111561159c57600080fd5b60005b8381101561154e57816115b28882611624565b84525060209092019160c0919091019060010161159f565b80356114e68161252e565b600082601f8301126115e657600080fd5b81356115f461150b82612415565b9150808252602083016020830185838301111561161057600080fd5b61161b8382846124b2565b50505092915050565b600060c0828403121561163657600080fd5b61164060c06123cf565b9050600061164e84846118a3565b825250602061165f848483016118a3565b60208301525060406116738482850161188d565b60408301525060606116878482850161188d565b606083015250608061169b848285016115ca565b60808301525060a06116af84828501611898565b60a08301525092915050565b600061014082840312156116ce57600080fd5b6116d96101406123cf565b905081356001600160401b038111156116f157600080fd5b6116fd848285016115d5565b82525060208201356001600160401b0381111561171957600080fd5b611725848285016115d5565b60208301525060408201356001600160401b0381111561174457600080fd5b611750848285016115d5565b60408301525060608201356001600160401b0381111561176f57600080fd5b61177b848285016115d5565b60608301525060808201356001600160401b0381111561179a57600080fd5b6117a6848285016115d5565b60808301525060a08201356001600160401b038111156117c557600080fd5b6117d1848285016115d5565b60a08301525060c08201356001600160401b038111156117f057600080fd5b6117fc848285016115d5565b60c08301525060e08201356001600160401b0381111561181b57600080fd5b611827848285016115d5565b60e0830152506101008201356001600160401b0381111561184757600080fd5b611853848285016115d5565b610100830152506101208201356001600160401b0381111561187457600080fd5b611880848285016115d5565b6101208301525092915050565b80356114e681612537565b80356114e681612540565b80356114e681612549565b6000602082840312156118c057600080fd5b60006118cc84846114db565b949350505050565b6000602082840312156118e657600080fd5b81356001600160401b038111156118fc57600080fd5b6118cc84828501611558565b6000806040838503121561191b57600080fd5b600061192785856115ca565b925050602061193885828601611898565b9150509250929050565b60006020828403121561195457600080fd5b60006118cc8484611898565b6000806040838503121561197357600080fd5b600061197f8585611898565b9250506020611938858286016114db565b600080604083850312156119a357600080fd5b60006119278585611898565b600080600080608085870312156119c557600080fd5b60006119d18787611898565b94505060206119e287828801611898565b93505060406119f3878288016114db565b9250506060611a0487828801611898565b91505092959194509250565b60008060008060008060008060006101208a8c031215611a2f57600080fd5b6000611a3b8c8c6118a3565b99505060208a01356001600160401b03811115611a5757600080fd5b611a638c828d016114ec565b98505060408a01356001600160401b03811115611a7f57600080fd5b611a8b8c828d016114ec565b97505060608a01356001600160401b03811115611aa757600080fd5b611ab38c828d016114ec565b96505060808a01356001600160401b03811115611acf57600080fd5b611adb8c828d016116bb565b95505060a08a01356001600160401b03811115611af757600080fd5b611b038c828d016115d5565b94505060c08a01356001600160401b03811115611b1f57600080fd5b611b2b8c828d016115d5565b93505060e0611b3c8c828d0161188d565b9250506101008a01356001600160401b03811115611b5957600080fd5b611b658c828d016115d5565b9150509295985092959850929598565b6000611b818383611ccb565b505060200190565b6000611b958383611d1d565b9392505050565b611ba5816124a1565b82525050565b611ba581612463565b611bbd81612445565b611bc78184612455565b9250611bd28261243c565b8060005b83811015611c00578151611bea8782611b75565b9650611bf58361243f565b925050600101611bd6565b505050505050565b6000611c138261244b565b611c1d818561245a565b935083602082028501611c2f8561243f565b8060005b85811015611c695784840389528151611c4c8582611b89565b9450611c578361243f565b60209a909a0199925050600101611c33565b5091979650505050505050565b611c7f8161244f565b611c898184612455565b9250611c948261243c565b8060005b83811015611c00578151611cac8782611b75565b9650611cb78361243f565b925050600101611c98565b611ba58161246e565b611ba58161243c565b611ba5611ce08261243c565b61243c565b611ba581612473565b6000611cf98261244b565b611d038185612455565b9350611d138185602086016124be565b9290920192915050565b6000611d288261244b565b611d32818561245a565b9350611d428185602086016124be565b611d4b81612504565b9093019392505050565b6000611d62602e8361245a565b7f4c6520636f64652064652070726f64756974206e276120706173206c6120626f81526d6e6e65206c6f6e6775657572202160901b602082015260400192915050565b6000611db260208361245a565b7f43652070726f64756974206573742064c3a96ac3a02070726f706f73c3a92021815260200192915050565b6000611deb60168361245a565b75566f7573206176657a2064c3a96ac3a020766f74c3a960501b815260200192915050565b6000611e1d601e8361245a565b7f566f7573206e276176657a2070617320617373657a20646520746f6b656e0000815260200192915050565b6000611e5660268361245a565b7f43652070726f64756974206e276578697374652070617320656e2070726f706f81526539b4ba34b7b760d11b602082015260400192915050565b6000611e9e601c8361245a565b7f43652070726f64756974206e276573742070617320656e20766f746500000000815260200192915050565b6000611ed760368361245a565b7f566f7573206e6520706f7576657a2070617320766f74657220706f757220766f8152753a393290383937b8393290383937b837b9b4ba34b7b760511b602082015260400192915050565b6000611f2f601f8361245a565b7f566f7573206e27c3aa74657320706173206c6520726573706f6e7361626c6500815260200192915050565b6000611f68601c8361245a565b7f436574207574696c69736174657572206e276578697374652070617300000000815260200192915050565b805161014080845260009190840190611fad8282611d1d565b91505060208301518482036020860152611fc78282611d1d565b91505060408301518482036040860152611fe18282611d1d565b91505060608301518482036060860152611ffb8282611d1d565b915050608083015184820360808601526120158282611d1d565b91505060a083015184820360a086015261202f8282611d1d565b91505060c083015184820360c08601526120498282611d1d565b91505060e083015184820360e08601526120638282611d1d565b91505061010083015184820361010086015261207f8282611d1d565b91505061012083015184820361012086015261209b8282611d1d565b95945050505050565b611ba581612479565b611ba56120b982612479565b6124ee565b611ba58161248c565b611ba581612495565b611ba56120dc82612495565b6124f9565b60006120ed8288611cd4565b6020820191506120fd8287611cd4565b60208201915061210d8286611cd4565b60208201915061211d8285611cd4565b60208201915061212d8284611cd4565b5060200195945050505050565b600061214682886120d0565b6008820191506121568287611cee565b91506121628286611cee565b915061216e82856120ad565b60028201915061217e8284611cee565b979650505050505050565b6101008101612198828b611bab565b6121a5602083018a6120a4565b6121b260408301896120a4565b6121bf60608301886120be565b6121cc60808301876120c7565b6121d960a0830186611ccb565b6121e660c0830185611ccb565b61103a60e0830184611cc2565b60c081016114e68284611bb4565b61012081016122108286611bb4565b61221d60c0830185611b9c565b6118cc60e0830184611c76565b60208082528101611b958184611c08565b602081016114e68284611cc2565b60c081016122578289611ccb565b6122646020830188611ccb565b6122716040830187611ccb565b61227e6060830186611ccb565b61228b6080830185611ccb565b61217e60a0830184611ccb565b602080825281016114e681611d55565b602080825281016114e681611da5565b602080825281016114e681611dde565b602080825281016114e681611e10565b602080825281016114e681611e49565b602080825281016114e681611e91565b602080825281016114e681611eca565b602080825281016114e681611f22565b602080825281016114e681611f5b565b60208082528101611b958184611f94565b606081016123478286611ccb565b81810360208301526123598185611d1d565b90506118cc6040830184611ccb565b604081016123768285611ccb565b611b956020830184611ccb565b60a0810161239182886120be565b61239e6020830187611ccb565b6123ab6040830186611ce5565b6123b86060830185611ce5565b6123c56080830184611cc2565b9695505050505050565b6040518181016001600160401b03811182821017156123ed57600080fd5b604052919050565b60006001600160401b0382111561240b57600080fd5b5060209081020190565b60006001600160401b0382111561242b57600080fd5b506020601f91909101601f19160190565b90565b60200190565b50600690565b5190565b50600290565b919050565b90815260200190565b60006114e682612480565b151590565b60010b90565b61ffff1690565b6001600160a01b031690565b63ffffffff1690565b6001600160401b031690565b60006114e68260006114e682612463565b82818337506000910152565b60005b838110156124d95781810151838201526020016124c1565b838111156124e8576000848401525b50505050565b60006114e682612514565b60006114e68261250e565b601f01601f191690565b60c01b90565b60f01b90565b61252381612463565b811461135757600080fd5b6125238161246e565b61252381612479565b6125238161243c565b6125238161249556fea365627a7a7231582007cd7115e52c975f96138df16913baa6ba8a996bda665ef53cf5efbc7ab94c286c6578706572696d656e74616cf564736f6c63430005100040ddc6f1b11d248656c3209980679588ea8ad2145e22e6e53bd5c097d18553b21743d8ac33bb8ce21832c9369d918fea80a0217a3d20daa81363eae75485c25b0d3a97fab0ea644ad292f5205e9c186d608ace8b2555f10c7e13be7f9d1ffb78caddc6f1b11d248656c3209980679588ea8ad2145e22e6e53bd5c097d18553b2166e1540171b6c0c960b71a7020d9f60077f6af931a8bbf590da0223dacf75c7af3a97fab0ea644ad292f5205e9c186d608ace8b2555f10c7e13be7f9d1ffb78c9b34f8927e7443f874d7ed656851f2a8d44aecd1fc96e0c963baf5683857e1a27",
  "source": "pragma solidity 0.5.16;\r\n\r\npragma experimental ABIEncoderV2;\r\n\r\ncontract EatHealthyChain {\r\n\r\n  // Basic Product definition containing values about the product itself\r\n  // but also about consensus\r\n  struct Product {\r\n    address productProposerAddress;\r\n    uint16 forVotes;\r\n    uint16 againstVotes;\r\n    uint32 productId;\r\n    uint64 productCode;\r\n    uint startDate;\r\n    uint endDate;\r\n    bool isVotable;\r\n    mapping(uint => Alternative) alternatives;\r\n  }\r\n\r\n  // Basic Alternative definition\r\n  // It sets for and against votes for a product code alternative to the product code defined\r\n  struct Alternative {\r\n    uint64 productCode;\r\n    uint64 productCodeAlternative;\r\n    uint16 forVotes;\r\n    uint16 againstVotes;\r\n    bool isVotedToday;\r\n    uint propositionDate;\r\n  }\r\n\r\n  // Hashes structure\r\n  // Contains all hashes for a given product code / Can't store unhashed data\r\n  struct Hashes {\r\n    bytes32 ingredients_hash;\r\n    bytes32 labels_hash;\r\n    bytes32 nutriments_hash;\r\n    bytes32 additives_hash;\r\n    bytes32 variousData_hash;\r\n    bytes32 all_hash;\r\n  }\r\n\r\n  // Label structure\r\n  // Supposed to be real labels given by growers\r\n  struct Label {\r\n    uint id;\r\n    string label_name;\r\n    uint expiration_date;\r\n  }\r\n\r\n  // Basic Nutriment structure needed for the Product structure\r\n  // A way to divide Product content\r\n  struct Nutriment {\r\n    string energy;\r\n    string energy_kcal;\r\n    string proteines;\r\n    string carbohydrates;\r\n    string salt;\r\n    string sugar;\r\n    string fat;\r\n    string saturated_fat;\r\n    string fiber;\r\n    string sodium;\r\n  }\r\n\r\n  // Basic User structure with useful parameters.\r\n  // In particular, token date, token number and reputation\r\n  // needed for the consensus\r\n  struct User {\r\n    uint32 userId;\r\n    uint lastTimeTokenGiven;\r\n    int16 tokenNumber;\r\n    int16 reputation;\r\n    bool isExist;\r\n    //  Role role;\r\n  }\r\n\r\n  // Contract deployer\r\n  address private _owner;\r\n\r\n  // Default user id increasing each time a user subscribes\r\n  uint32 private uniqueIdUser;\r\n\r\n  // Default product id increasing each time a product is proposed/modified\r\n  uint32 private uniqueProductId;\r\n\r\n  // Default product id increasing each time we add a product code with real labels\r\n  uint32 private uniqueRealLabelId;\r\n\r\n\r\n  // Address needed to end votes and manage alternative update into the contract\r\n  address internal endVoteResponsible;\r\n\r\n  // Accessing to a User structure by his address\r\n  mapping(address => User) public addressToUser;\r\n\r\n  // Describing users who has already voted for a proposed product(\r\n  mapping(uint => mapping(uint => mapping(address => bool[2]))) public alreadyVoted;\r\n\r\n  // Accessing to a Product in proposal phase by his code\r\n  mapping(uint => Product) public productCodeToProposalProduct;\r\n\r\n  // Accessing to Hashes product in proposal phase by his code\r\n  mapping(uint => Hashes) public productCodeToProposalHashes;\r\n\r\n  // Accessing to a Product adopted by his code\r\n  mapping(uint => Product) public productCodeToProduct;\r\n\r\n  // Accessing to Hashes product adopted by product code\r\n  mapping(uint => Hashes) public productCodeToHashes;\r\n\r\n  // Accessing to real labels defined by growers (they are actually fake in this contract)\r\n  mapping(uint => Label[]) public productCodeToRealLabels;\r\n\r\n  // mapping(address => mapping(uint => Product)) addressToProducts;\r\n  uint[] private trueLabelizedProductCode;\r\n\r\n  // Event triggering product hashes, product proposer address and start/end vote dates when a new product is proposed\r\n  event TriggerAddProduct(bytes32[6] hashes, address proposerProduct, uint[2] voteDates);\r\n\r\n  // Event triggering product hashes\r\n  event TriggerVerifyCompliance(bytes32[6] hashes);\r\n\r\n  // Constructor setting the owner, the vote closer and alternatives setup\r\n  // Owner is automatically set as user\r\n  constructor() public {\r\n    _owner = msg.sender;\r\n    endVoteResponsible = 0x712EB6c16Ab3694b684B6c74B40A676c6d13621a;\r\n    addressToUser[_owner] = User(uniqueIdUser, now, 10, 0, true);\r\n    uniqueIdUser++;\r\n    setupRealLabels();\r\n  }\r\n\r\n  // Checks the code length, which has to be a length of 13 numbers\r\n  modifier checkLengthGS1 (uint _productCode){\r\n    require(_productCode > 1111111111111, \"Le code de produit n'a pas la bonne longueur !\");\r\n    _;\r\n  }\r\n\r\n  // Checks if the user calling a function exists\r\n  modifier onlyUsers () {\r\n    require(addressToUser[msg.sender].isExist == true, \"Cet utilisateur n'existe pas\");\r\n    _;\r\n  }\r\n\r\n  // Checks if the user calling a function exists\r\n  modifier isNotProposed (uint _productCode) {\r\n    require(productCodeToProposalProduct[_productCode].productProposerAddress == address(0), \"Ce produit est dj propos !\");\r\n    _;\r\n  }\r\n\r\n  // Checks if the user is the responsible for ending a vote or set alternatives\r\n  modifier isResponsible() {\r\n    require(msg.sender == endVoteResponsible, 'Vous n\\'tes pas le responsable');\r\n    _;\r\n  }\r\n\r\n  /**\r\n  @notice Product is added in proposal phase by the user,\r\n          then visible for all users for votes\r\n  @dev\r\n         Add a new Product and Nutriments object in corresponding proposal mappings\r\n         Also added in corresponding arrays, useful to get them all from front-end\r\n         Finally, emitting an event to warn the user, all is OK\r\n  @param _productCode, _productName, _labels, _ingredients, _quantity,\r\n         _typeOfProduct, _packaging, _nutriments, _addiditfs\r\n         => Elements needed to fill in both Product and Nutriments object\r\n */\r\n  function addProductToProposal(\r\n    uint64 _productCode,\r\n    string[] memory _labels,\r\n    string[] memory _ingredients,\r\n    string[] memory _additives,\r\n    Nutriment memory _nutriments,\r\n    string memory _productName,\r\n    string memory _typeOfProduct,\r\n    uint16 _quantity,\r\n    string memory _packaging\r\n  ) checkLengthGS1(_productCode) onlyUsers() isNotProposed(_productCode) public {\r\n    Product memory _product;\r\n    Hashes memory _hashes;\r\n    _product.productId = uniqueProductId;\r\n    _product.productCode = _productCode;\r\n    _product.productProposerAddress = msg.sender;\r\n    _hashes.labels_hash = keccak256(abi.encode(_labels));\r\n    _hashes.ingredients_hash = keccak256(abi.encode(_ingredients));\r\n    _hashes.additives_hash = keccak256(abi.encode(_additives));\r\n    _hashes.nutriments_hash = keccak256(abi.encode(_nutriments));\r\n    _hashes.variousData_hash = keccak256(abi.encodePacked(_productCode, _productName, _typeOfProduct, _quantity, _packaging));\r\n    _hashes.all_hash = keccak256(abi.encodePacked(_hashes.labels_hash, _hashes.ingredients_hash, _hashes.additives_hash, _hashes.nutriments_hash, _hashes.variousData_hash));\r\n    _product.isVotable = true;\r\n    _product.startDate = now;\r\n    _product.endDate = now + 5 minutes;\r\n    productCodeToProposalProduct[_productCode] = _product;\r\n    // addressToProducts[msg.sender][_productCode] = _product;\r\n    productCodeToProposalHashes[_productCode] = _hashes;\r\n    uniqueProductId++;\r\n    // addressToUser[msg.sender].tokenNumber--;\r\n    emit TriggerAddProduct([_hashes.labels_hash, _hashes.ingredients_hash, _hashes.additives_hash, _hashes.nutriments_hash, _hashes.variousData_hash, _hashes.all_hash], msg.sender, [_product.startDate, _product.endDate]);\r\n  }\r\n\r\n\r\n  modifier isProductVotable(uint _productCode) {\r\n    require(productCodeToProposalProduct[_productCode].isVotable, \"Ce produit n'est pas en vote\");\r\n    _;\r\n  }\r\n\r\n  /**\r\n  @notice User is voting for a product in proposal phase (new or update)\r\n  @dev\r\n         User can only vote if he is registered and he has not already voted\r\n         Then adding vote to for and against\r\n  @param _opinion vote value (for or against)\r\n         _productCode product targeted for the vote\r\n  */\r\n  function vote(bool _opinion, uint _productCode) isProductVotable(_productCode) public {\r\n    require(productCodeToProposalProduct[_productCode].productProposerAddress != msg.sender, \"Vous ne pouvez pas voter pour votre propre proposition\");\r\n    require(addressToUser[msg.sender].tokenNumber > 0, \"Vous n'avez pas assez de token\");\r\n  //  require(productCodeToProposalProduct[_productCode].startDate < productCodeToProposalProduct[_productCode].endDate, \"Le vote de ce produit est clos\");\r\n    require(alreadyVoted[_productCode][productCodeToProposalProduct[_productCode].productId][msg.sender][0] == false, \"Vous avez dj vot\");\r\n    alreadyVoted[_productCode][productCodeToProposalProduct[_productCode].productId][msg.sender][0] = true;\r\n    if (_opinion == true) {\r\n      productCodeToProposalProduct[_productCode].forVotes++;\r\n    } else {\r\n      productCodeToProposalProduct[_productCode].againstVotes++;\r\n    }\r\n    alreadyVoted[_productCode][productCodeToProposalProduct[_productCode].productId][msg.sender][1] = _opinion;\r\n    addressToUser[msg.sender].tokenNumber--;\r\n  }\r\n\r\n  /**\r\n  @notice User is voting for a product in proposal phase (new or update)\r\n  @dev\r\n         User can only vote if he is registered and he has not already voted\r\n         Then adding vote to for and against\r\n  @param proposerAddress proposer\r\n         _productCode product targeted for the vote\r\n         _productCode product targeted for the vote\r\n*/\r\n  function endVote(uint _productCode, address proposerAddress) isResponsible() isProductVotable(_productCode) public {\r\n  //  require(productCodeToProposalProduct[_productCode].startDate < productCodeToProposalProduct[_productCode].endDate, \"La fin du vote n'est pas depasse !\");\r\n    require(productCodeToProposalProduct[_productCode].productProposerAddress != address(0), \"Ce produit n'existe pas en proposition\");\r\n    if (productCodeToProposalProduct[_productCode].forVotes >= productCodeToProposalProduct[_productCode].againstVotes) {\r\n      acceptedProduct(_productCode);\r\n    } else {\r\n      refusedProduct(_productCode);\r\n    }\r\n  }\r\n\r\n  /*\r\n  @notice Register a user when he does his first proposal or vote\r\n  @dev\r\n  Defines a new User object, giving him token and reputation\r\n  Adds it to a mapping with all other subscribed users\r\n  */\r\n  function subscribeUser() public {\r\n    require(addressToUser[msg.sender].isExist == false);\r\n    User memory user;\r\n    user.userId = uniqueIdUser;\r\n    user.lastTimeTokenGiven = now;\r\n    user.tokenNumber = 5;\r\n    user.reputation = 50;\r\n    user.isExist = true;\r\n    uniqueIdUser++;\r\n    addressToUser[msg.sender] = user;\r\n  }\r\n\r\n  /*\r\n  @notice Delete a product from proposal product, no more available anywhere\r\n  @dev\r\n  Deletes the proposed product corresponding the product code in argument\r\n  But also its corresponding hashes\r\n  @params _productCode product code which needs to be deleted from the proposal\r\n  */\r\n  function deleteProductFromProposal(uint _productCode) internal {\r\n    delete productCodeToProposalProduct[_productCode];\r\n    delete productCodeToProposalHashes[_productCode];\r\n  }\r\n\r\n  /*\r\n  @notice Deletes a product from proposal product, no more available anywhere\r\n  @dev\r\n  Deletes the proposed product corresponding the product code in argument\r\n  But also its corresponding hashes\r\n  @params _productCode product code which needs to be deleted from the proposal\r\n  */\r\n  function refusedProduct(uint _productCode) internal {\r\n    if (productCodeToProduct[_productCode].productProposerAddress != address(0)) {\r\n      deleteProductFromProposal(_productCode);\r\n    } else {\r\n      productCodeToProposalProduct[_productCode].isVotable = false;\r\n      //  addressToProducts[proposerAddress][_productCode].isVotable = false;\r\n    }\r\n  }\r\n\r\n  /*\r\n  @notice Accepts the product voted by the community\r\n  @dev\r\n  Accepts the proposed product corresponding the product code in argument\r\n  But also its corresponding hashes\r\n  Deletes it from proposal because it no more exists as proposed\r\n  @params _productCode product code which needs to be accepted from the proposal\r\n  */\r\n  function acceptedProduct(uint _productCode) internal {\r\n    productCodeToProposalProduct[_productCode].isVotable = false;\r\n    //  addressToProducts[proposerAddress][_productCode].isVotable = false;\r\n    productCodeToProduct[_productCode] = productCodeToProposalProduct[_productCode];\r\n    productCodeToHashes[_productCode] = productCodeToProposalHashes[_productCode];\r\n    deleteProductFromProposal(_productCode);\r\n\r\n  }\r\n\r\n\r\n  /*\r\n  @notice Setting up new alternatives into the contract\r\n  @dev\r\n  Takes a list of Alternative coming from and adding them all into the alternative mapping in accepted products structure\r\n  Sets up votes and expiration date to the alternative\r\n  @params _alternativeVotes list of Alternatives object\r\n  */\r\n  function manageAlternatives(Alternative[] memory _alternativeVotes) isResponsible() public {\r\n    for(uint i = 0; i < _alternativeVotes.length; i++) {\r\n      productCodeToProduct[_alternativeVotes[i].productCode].alternatives[_alternativeVotes[i].productCodeAlternative] = _alternativeVotes[i];\r\n    }\r\n  }\r\n\r\n  /*\r\n  @notice Simply returns hashes of each group of data (labels, ingredients, additives, nutriments and other various datas).\r\n          Really useful with our app !\r\n  @dev\r\n  Takes all datas needed to build the product object (in the addProductToProposal methods) and hashing them.\r\n  @params _productCode, _productName, _labels, _ingredients, _quantity,\r\n         _typeOfProduct, _packaging, _nutriments, _additives\r\n         => Elements used to build hashes during the addProductToProposal methods\r\n  @returns hash build in the method\r\n  */\r\n  function verifyCompliance(\r\n    uint64 _productCode,\r\n    string[] memory _labels,\r\n    string[] memory _ingredients,\r\n    string[] memory _additives,\r\n    Nutriment memory _nutriments,\r\n    string memory _productName,\r\n    string memory _typeOfProduct,\r\n    uint16 _quantity,\r\n    string memory _packaging) public view returns (bytes32[6] memory) {\r\n      bytes32 labels_hash =  keccak256(abi.encode(_labels));\r\n      bytes32 ingredients_hash =  keccak256(abi.encode(_ingredients));\r\n      bytes32 additives_hash =  keccak256(abi.encode(_additives));\r\n      bytes32 nutriments_hash =  keccak256(abi.encode(_nutriments));\r\n      bytes32 variousDatas_hash = keccak256(abi.encodePacked(_productCode, _productName, _typeOfProduct, _quantity, _packaging));\r\n\r\n      return [keccak256(abi.encodePacked(labels_hash, ingredients_hash, additives_hash, nutriments_hash, variousDatas_hash)),\r\n      labels_hash,\r\n      ingredients_hash,\r\n      additives_hash,\r\n      nutriments_hash,\r\n      variousDatas_hash\r\n    ];\r\n  }\r\n\r\n  /*\r\n  @notice Simply returns hashes of an accepted product by code. Really useful with our app !\r\n  @dev\r\n  Checks into hashes mapping of accepted mapping and returning each hashes\r\n  @params _productCode product code hashes which needs to be returned\r\n  @returns hashes of the product code given\r\n  */\r\n  function getProductHashes(uint _productCode) public view  returns (bytes32[6] memory){\r\n    return [productCodeToHashes[_productCode].all_hash,\r\n    productCodeToHashes[_productCode].labels_hash,\r\n    productCodeToHashes[_productCode].ingredients_hash,\r\n    productCodeToHashes[_productCode].additives_hash,\r\n    productCodeToHashes[_productCode].nutriments_hash,\r\n    productCodeToHashes[_productCode].variousData_hash\r\n    ];\r\n  }\r\n\r\n  // To add a product in proposal, we need to check if the product doesn't already exist in mappings of products\r\n  function checkProductIsNew(uint _productCode) public view checkLengthGS1(_productCode) returns (bool) {\r\n    if (productCodeToProposalProduct[_productCode].productProposerAddress == address(0) && productCodeToProduct[_productCode].productProposerAddress == address(0)) {\r\n      return true;\r\n    } else {\r\n      return false;\r\n    }\r\n  }\r\n\r\n  // Returning a boolean, checking if user is product proposer\r\n  function isProductProposer(uint _productCode) public view returns (bool) {\r\n    return productCodeToProposalProduct[_productCode].productProposerAddress == msg.sender;\r\n  }\r\n\r\n  // Returning a boolean, checking if user is product proposer\r\n  function isAlreadyVotedByCurrentUser(uint _productCode) public view returns (bool) {\r\n    return alreadyVoted[_productCode][productCodeToProposalProduct[_productCode].productId][msg.sender][0] == true;\r\n  }\r\n\r\n  // Returning start and end dates of a vote\r\n  function getDates(uint _productCode) public view returns (uint, uint) {\r\n    return (productCodeToProposalProduct[_productCode].startDate, productCodeToProposalProduct[_productCode].endDate);\r\n  }\r\n\r\n  /*\r\n  @notice setting up fake \"real\" labels for demo purpose. For example : label called 'Campagne' expire in 10 days\r\n  @dev\r\n  Simply add objects into mapping\r\n  */\r\n  function setupRealLabels() internal {\r\n    productCodeToRealLabels[1234567891234].push(Label(uniqueRealLabelId,'', now + 10 days));\r\n    productCodeToRealLabels[1234567891234].push(Label(uniqueRealLabelId,'', now + 10 days));\r\n    trueLabelizedProductCode.push(1234567891234);\r\n    uniqueRealLabelId++;\r\n    productCodeToRealLabels[5555555555555].push(Label(uniqueRealLabelId,'', now + 8 days));\r\n    productCodeToRealLabels[5555555555555].push(Label(uniqueRealLabelId,'', now + 8 days));\r\n    trueLabelizedProductCode.push(5555555555555);\r\n    uniqueRealLabelId++;\r\n  }\r\n\r\n}\r\n",
  "sourcePath": "C:\\Users\\Fabrice\\Desktop\\Project_EatHealthyLabelChain\\EatHealthyLabelChain\\contracts\\EatHealthyChain.sol",
  "compiler": {
    "name": "solc",
    "version": "0.5.16+commit.9c3226ce.Emscripten.clang"
  },
  "schemaVersion": "3.2.0",
  "updatedAt": "2020-08-26T15:09:01.065Z",
  "networkType": "ethereum",
  "devdoc": {
    "methods": {
      "addProductToProposal(uint64,string[],string[],string[],(string,string,string,string,string,string,string,string,string,string),string,string,uint16,string)": {
        "details": "Add a new Product and Nutriments object in corresponding proposal mappings Also added in corresponding arrays, useful to get them all from front-end Finally, emitting an event to warn the user, all is OK",
        "params": {
          "_productCode": ", _productName, _labels, _ingredients, _quantity, _typeOfProduct, _packaging, _nutriments, _addiditfs => Elements needed to fill in both Product and Nutriments object"
        }
      },
      "endVote(uint256,address)": {
        "details": "User can only vote if he is registered and he has not already voted Then adding vote to for and against",
        "params": {
          "proposerAddress": "proposer _productCode product targeted for the vote _productCode product targeted for the vote"
        }
      },
      "vote(bool,uint256)": {
        "details": "User can only vote if he is registered and he has not already voted Then adding vote to for and against",
        "params": {
          "_opinion": "vote value (for or against) _productCode product targeted for the vote"
        }
      }
    }
  },
  "userdoc": {
    "methods": {
      "addProductToProposal(uint64,string[],string[],string[],(string,string,string,string,string,string,string,string,string,string),string,string,uint16,string)": {
        "notice": "Product is added in proposal phase by the user, then visible for all users for votes"
      },
      "endVote(uint256,address)": {
        "notice": "User is voting for a product in proposal phase (new or update)"
      },
      "vote(bool,uint256)": {
        "notice": "User is voting for a product in proposal phase (new or update)"
      }
    }
  }
}