{
  "contractName": "LabelChainHelper",
  "abi": [
    {
      "anonymous": false,
      "inputs": [
        {
          "indexed": true,
          "internalType": "uint256",
          "name": "idProduct",
          "type": "uint256"
        }
      ],
      "name": "TriggerAddProduct",
      "type": "event"
    },
    {
      "constant": true,
      "inputs": [
        {
          "internalType": "address",
          "name": "",
          "type": "address"
        }
      ],
      "name": "addressToUser",
      "outputs": [
        {
          "internalType": "uint256",
          "name": "userId",
          "type": "uint256"
        },
        {
          "internalType": "enum LabelChainHelper.Role",
          "name": "role",
          "type": "uint8"
        },
        {
          "internalType": "uint256",
          "name": "lastTimeTokenGiven",
          "type": "uint256"
        },
        {
          "internalType": "int256",
          "name": "tokenNumber",
          "type": "int256"
        },
        {
          "internalType": "int256",
          "name": "reputation",
          "type": "int256"
        },
        {
          "internalType": "bool",
          "name": "isExist",
          "type": "bool"
        }
      ],
      "payable": false,
      "stateMutability": "view",
      "type": "function"
    },
    {
      "constant": true,
      "inputs": [
        {
          "internalType": "uint256",
          "name": "",
          "type": "uint256"
        },
        {
          "internalType": "address",
          "name": "",
          "type": "address"
        },
        {
          "internalType": "uint256",
          "name": "",
          "type": "uint256"
        }
      ],
      "name": "alreadyVoted",
      "outputs": [
        {
          "internalType": "bool",
          "name": "",
          "type": "bool"
        }
      ],
      "payable": false,
      "stateMutability": "view",
      "type": "function"
    },
    {
      "constant": true,
      "inputs": [
        {
          "internalType": "uint256",
          "name": "",
          "type": "uint256"
        }
      ],
      "name": "productCodeToNutriments",
      "outputs": [
        {
          "internalType": "string",
          "name": "energy",
          "type": "string"
        },
        {
          "internalType": "string",
          "name": "energy_kcal",
          "type": "string"
        },
        {
          "internalType": "string",
          "name": "proteines",
          "type": "string"
        },
        {
          "internalType": "string",
          "name": "carbohydrates",
          "type": "string"
        },
        {
          "internalType": "string",
          "name": "salt",
          "type": "string"
        },
        {
          "internalType": "string",
          "name": "sugars",
          "type": "string"
        },
        {
          "internalType": "string",
          "name": "fat",
          "type": "string"
        },
        {
          "internalType": "string",
          "name": "saturated_fat",
          "type": "string"
        },
        {
          "internalType": "string",
          "name": "fiber",
          "type": "string"
        },
        {
          "internalType": "string",
          "name": "sodium",
          "type": "string"
        }
      ],
      "payable": false,
      "stateMutability": "view",
      "type": "function"
    },
    {
      "constant": true,
      "inputs": [
        {
          "internalType": "uint256",
          "name": "",
          "type": "uint256"
        }
      ],
      "name": "productCodeToProduct",
      "outputs": [
        {
          "internalType": "uint256",
          "name": "productId",
          "type": "uint256"
        },
        {
          "internalType": "uint256",
          "name": "productCode",
          "type": "uint256"
        },
        {
          "internalType": "string",
          "name": "productName",
          "type": "string"
        },
        {
          "internalType": "address",
          "name": "productProposerAddress",
          "type": "address"
        },
        {
          "internalType": "uint256",
          "name": "quantity",
          "type": "uint256"
        },
        {
          "internalType": "string",
          "name": "typeOfProduct",
          "type": "string"
        },
        {
          "internalType": "uint256",
          "name": "totalVotes",
          "type": "uint256"
        },
        {
          "internalType": "uint256",
          "name": "forVotes",
          "type": "uint256"
        },
        {
          "internalType": "uint256",
          "name": "againstVotes",
          "type": "uint256"
        },
        {
          "internalType": "uint256",
          "name": "endDate",
          "type": "uint256"
        },
        {
          "internalType": "bool",
          "name": "isValidated",
          "type": "bool"
        },
        {
          "internalType": "bool",
          "name": "isExist",
          "type": "bool"
        }
      ],
      "payable": false,
      "stateMutability": "view",
      "type": "function"
    },
    {
      "constant": true,
      "inputs": [
        {
          "internalType": "uint256",
          "name": "",
          "type": "uint256"
        }
      ],
      "name": "productCodeToProposalNutriments",
      "outputs": [
        {
          "internalType": "string",
          "name": "energy",
          "type": "string"
        },
        {
          "internalType": "string",
          "name": "energy_kcal",
          "type": "string"
        },
        {
          "internalType": "string",
          "name": "proteines",
          "type": "string"
        },
        {
          "internalType": "string",
          "name": "carbohydrates",
          "type": "string"
        },
        {
          "internalType": "string",
          "name": "salt",
          "type": "string"
        },
        {
          "internalType": "string",
          "name": "sugars",
          "type": "string"
        },
        {
          "internalType": "string",
          "name": "fat",
          "type": "string"
        },
        {
          "internalType": "string",
          "name": "saturated_fat",
          "type": "string"
        },
        {
          "internalType": "string",
          "name": "fiber",
          "type": "string"
        },
        {
          "internalType": "string",
          "name": "sodium",
          "type": "string"
        }
      ],
      "payable": false,
      "stateMutability": "view",
      "type": "function"
    },
    {
      "constant": true,
      "inputs": [
        {
          "internalType": "uint256",
          "name": "",
          "type": "uint256"
        }
      ],
      "name": "productCodeToProposalProduct",
      "outputs": [
        {
          "internalType": "uint256",
          "name": "productId",
          "type": "uint256"
        },
        {
          "internalType": "uint256",
          "name": "productCode",
          "type": "uint256"
        },
        {
          "internalType": "string",
          "name": "productName",
          "type": "string"
        },
        {
          "internalType": "address",
          "name": "productProposerAddress",
          "type": "address"
        },
        {
          "internalType": "uint256",
          "name": "quantity",
          "type": "uint256"
        },
        {
          "internalType": "string",
          "name": "typeOfProduct",
          "type": "string"
        },
        {
          "internalType": "uint256",
          "name": "totalVotes",
          "type": "uint256"
        },
        {
          "internalType": "uint256",
          "name": "forVotes",
          "type": "uint256"
        },
        {
          "internalType": "uint256",
          "name": "againstVotes",
          "type": "uint256"
        },
        {
          "internalType": "uint256",
          "name": "endDate",
          "type": "uint256"
        },
        {
          "internalType": "bool",
          "name": "isValidated",
          "type": "bool"
        },
        {
          "internalType": "bool",
          "name": "isExist",
          "type": "bool"
        }
      ],
      "payable": false,
      "stateMutability": "view",
      "type": "function"
    },
    {
      "constant": true,
      "inputs": [],
      "name": "getProductsVoting",
      "outputs": [
        {
          "components": [
            {
              "internalType": "uint256",
              "name": "productId",
              "type": "uint256"
            },
            {
              "internalType": "uint256",
              "name": "productCode",
              "type": "uint256"
            },
            {
              "internalType": "string",
              "name": "productName",
              "type": "string"
            },
            {
              "internalType": "address",
              "name": "productProposerAddress",
              "type": "address"
            },
            {
              "internalType": "string[]",
              "name": "labels",
              "type": "string[]"
            },
            {
              "internalType": "string[]",
              "name": "ingredients",
              "type": "string[]"
            },
            {
              "internalType": "string[]",
              "name": "additifs",
              "type": "string[]"
            },
            {
              "internalType": "uint256",
              "name": "quantity",
              "type": "uint256"
            },
            {
              "internalType": "string",
              "name": "typeOfProduct",
              "type": "string"
            },
            {
              "internalType": "string[]",
              "name": "packaging",
              "type": "string[]"
            },
            {
              "internalType": "uint256",
              "name": "totalVotes",
              "type": "uint256"
            },
            {
              "internalType": "uint256",
              "name": "forVotes",
              "type": "uint256"
            },
            {
              "internalType": "uint256",
              "name": "againstVotes",
              "type": "uint256"
            },
            {
              "internalType": "uint256[2]",
              "name": "created_n_last_modif",
              "type": "uint256[2]"
            },
            {
              "internalType": "uint256",
              "name": "endDate",
              "type": "uint256"
            },
            {
              "internalType": "bool",
              "name": "isValidated",
              "type": "bool"
            },
            {
              "internalType": "bool",
              "name": "isExist",
              "type": "bool"
            }
          ],
          "internalType": "struct LabelChainHelper.Product[]",
          "name": "",
          "type": "tuple[]"
        },
        {
          "components": [
            {
              "internalType": "string",
              "name": "energy",
              "type": "string"
            },
            {
              "internalType": "string",
              "name": "energy_kcal",
              "type": "string"
            },
            {
              "internalType": "string",
              "name": "proteines",
              "type": "string"
            },
            {
              "internalType": "string",
              "name": "carbohydrates",
              "type": "string"
            },
            {
              "internalType": "string",
              "name": "salt",
              "type": "string"
            },
            {
              "internalType": "string",
              "name": "sugars",
              "type": "string"
            },
            {
              "internalType": "string",
              "name": "fat",
              "type": "string"
            },
            {
              "internalType": "string",
              "name": "saturated_fat",
              "type": "string"
            },
            {
              "internalType": "string",
              "name": "fiber",
              "type": "string"
            },
            {
              "internalType": "string",
              "name": "sodium",
              "type": "string"
            }
          ],
          "internalType": "struct LabelChainHelper.Nutriment[]",
          "name": "",
          "type": "tuple[]"
        }
      ],
      "payable": false,
      "stateMutability": "view",
      "type": "function"
    },
    {
      "constant": true,
      "inputs": [
        {
          "internalType": "uint256",
          "name": "_productCode",
          "type": "uint256"
        }
      ],
      "name": "isAlreadyVotedByCurrentUser",
      "outputs": [
        {
          "internalType": "bool",
          "name": "",
          "type": "bool"
        }
      ],
      "payable": false,
      "stateMutability": "view",
      "type": "function"
    },
    {
      "constant": true,
      "inputs": [
        {
          "internalType": "uint256",
          "name": "_productCode",
          "type": "uint256"
        }
      ],
      "name": "isProposer",
      "outputs": [
        {
          "internalType": "bool",
          "name": "",
          "type": "bool"
        }
      ],
      "payable": false,
      "stateMutability": "view",
      "type": "function"
    },
    {
      "constant": true,
      "inputs": [
        {
          "internalType": "uint256",
          "name": "_productCode",
          "type": "uint256"
        }
      ],
      "name": "isDateOK",
      "outputs": [
        {
          "internalType": "bool",
          "name": "",
          "type": "bool"
        }
      ],
      "payable": false,
      "stateMutability": "view",
      "type": "function"
    }
  ],
  "bytecode": "0x608060405234801561001057600080fd5b50611f10806100206000396000f3fe608060405234801561001057600080fd5b506004361061009e5760003560e01c806393b6e35e1161006657806393b6e35e14610149578063be301d341461015c578063d54d6c701461016f578063d62192fb14610182578063edf53886146101955761009e565b80630574d808146100a357806306e65f48146100d557806313431cc5146100f557806361ef3c151461010b578063639b7f8214610136575b600080fd5b6100b66100b13660046116cd565b6101ba565b6040516100cc9a99989796959493929190611c29565b60405180910390f35b6100e86100e33660046116cd565b61077b565b6040516100cc9190611c1b565b6100fd61079e565b6040516100cc929190611bf6565b61011e6101193660046116cd565b61137d565b6040516100cc9c9b9a99989796959493929190611d5b565b6100e86101443660046116cd565b6114f7565b6100e86101573660046116eb565b61150e565b6100e861016a3660046116cd565b611551565b61011e61017d3660046116cd565b61156f565b6100b66101903660046116cd565b6115e3565b6101a86101a33660046116a7565b61164f565b6040516100cc96959493929190611d01565b600e6020908152600091825260409182902080548351601f600260001961010060018616150201909316929092049182018490048402810184019094528084529092918391908301828280156102515780601f1061022657610100808354040283529160200191610251565b820191906000526020600020905b81548152906001019060200180831161023457829003601f168201915b505050505090806001018054600181600116156101000203166002900480601f0160208091040260200160405190810160405280929190818152602001828054600181600116156101000203166002900480156102ef5780601f106102c4576101008083540402835291602001916102ef565b820191906000526020600020905b8154815290600101906020018083116102d257829003601f168201915b50505060028085018054604080516020601f60001961010060018716150201909416959095049283018590048502810185019091528181529596959450909250908301828280156103815780601f1061035657610100808354040283529160200191610381565b820191906000526020600020905b81548152906001019060200180831161036457829003601f168201915b5050505060038301805460408051602060026001851615610100026000190190941693909304601f81018490048402820184019092528181529495949350908301828280156104115780601f106103e657610100808354040283529160200191610411565b820191906000526020600020905b8154815290600101906020018083116103f457829003601f168201915b5050505060048301805460408051602060026001851615610100026000190190941693909304601f81018490048402820184019092528181529495949350908301828280156104a15780601f10610476576101008083540402835291602001916104a1565b820191906000526020600020905b81548152906001019060200180831161048457829003601f168201915b5050505060058301805460408051602060026001851615610100026000190190941693909304601f81018490048402820184019092528181529495949350908301828280156105315780601f1061050657610100808354040283529160200191610531565b820191906000526020600020905b81548152906001019060200180831161051457829003601f168201915b5050505060068301805460408051602060026001851615610100026000190190941693909304601f81018490048402820184019092528181529495949350908301828280156105c15780601f10610596576101008083540402835291602001916105c1565b820191906000526020600020905b8154815290600101906020018083116105a457829003601f168201915b5050505060078301805460408051602060026001851615610100026000190190941693909304601f81018490048402820184019092528181529495949350908301828280156106515780601f1061062657610100808354040283529160200191610651565b820191906000526020600020905b81548152906001019060200180831161063457829003601f168201915b5050505060088301805460408051602060026001851615610100026000190190941693909304601f81018490048402820184019092528181529495949350908301828280156106e15780601f106106b6576101008083540402835291602001916106e1565b820191906000526020600020905b8154815290600101906020018083116106c457829003601f168201915b5050505060098301805460408051602060026001851615610100026000190190941693909304601f81018490048402820184019092528181529495949350908301828280156107715780601f1061074657610100808354040283529160200191610771565b820191906000526020600020905b81548152906001019060200180831161075457829003601f168201915b505050505090508a565b6000818152600b60205260409020600301546001600160a01b031633145b919050565b6060806003600481805480602002602001604051908101604052809291908181526020016000905b82821015610d455783829060005260206000209060110201604051806102200160405290816000820154815260200160018201548152602001600282018054600181600116156101000203166002900480601f0160208091040260200160405190810160405280929190818152602001828054600181600116156101000203166002900480156108975780601f1061086c57610100808354040283529160200191610897565b820191906000526020600020905b81548152906001019060200180831161087a57829003601f168201915b505050918352505060038201546001600160a01b0316602080830191909152600483018054604080518285028101850182528281529401939260009084015b828210156109815760008481526020908190208301805460408051601f600260001961010060018716150201909416939093049283018590048502810185019091528181529283018282801561096d5780601f106109425761010080835404028352916020019161096d565b820191906000526020600020905b81548152906001019060200180831161095057829003601f168201915b5050505050815260200190600101906108d6565b50505050815260200160058201805480602002602001604051908101604052809291908181526020016000905b82821015610a595760008481526020908190208301805460408051601f6002600019610100600187161502019094169390930492830185900485028101850190915281815292830182828015610a455780601f10610a1a57610100808354040283529160200191610a45565b820191906000526020600020905b815481529060010190602001808311610a2857829003601f168201915b5050505050815260200190600101906109ae565b50505050815260200160068201805480602002602001604051908101604052809291908181526020016000905b82821015610b315760008481526020908190208301805460408051601f6002600019610100600187161502019094169390930492830185900485028101850190915281815292830182828015610b1d5780601f10610af257610100808354040283529160200191610b1d565b820191906000526020600020905b815481529060010190602001808311610b0057829003601f168201915b505050505081526020019060010190610a86565b50505090825250600782015460208083019190915260088301805460408051601f60026000196101006001871615020190941693909304928301859004850281018501825282815294019392830182828015610bce5780601f10610ba357610100808354040283529160200191610bce565b820191906000526020600020905b815481529060010190602001808311610bb157829003601f168201915b5050505050815260200160098201805480602002602001604051908101604052809291908181526020016000905b82821015610ca75760008481526020908190208301805460408051601f6002600019610100600187161502019094169390930492830185900485028101850190915281815292830182828015610c935780601f10610c6857610100808354040283529160200191610c93565b820191906000526020600020905b815481529060010190602001808311610c7657829003601f168201915b505050505081526020019060010190610bfc565b50505090825250600a8201546020820152600b820154604080830191909152600c830154606083015280518082019182905260809092019190600d84019060029082845b815481526020019060010190808311610ceb575050509183525050600f82015460208083019190915260109092015460ff8082161515604084015261010090910416151560609091015290825260019290920191016107c6565b50505050915080805480602002602001604051908101604052809291908181526020016000905b8282101561136f57600084815260209081902060408051600a8602909201805460026001821615610100026000190190911604601f81018590049094028301610160908101909252610140830184815292939092849290918491840182828015610e175780601f10610dec57610100808354040283529160200191610e17565b820191906000526020600020905b815481529060010190602001808311610dfa57829003601f168201915b50505050508152602001600182018054600181600116156101000203166002900480601f016020809104026020016040519081016040528092919081815260200182805460018160011615610100020316600290048015610eb95780601f10610e8e57610100808354040283529160200191610eb9565b820191906000526020600020905b815481529060010190602001808311610e9c57829003601f168201915b5050509183525050600282810180546040805160206001841615610100026000190190931694909404601f81018390048302850183019091528084529381019390830182828015610f4b5780601f10610f2057610100808354040283529160200191610f4b565b820191906000526020600020905b815481529060010190602001808311610f2e57829003601f168201915b505050918352505060038201805460408051602060026001851615610100026000190190941693909304601f8101849004840282018401909252818152938201939291830182828015610fdf5780601f10610fb457610100808354040283529160200191610fdf565b820191906000526020600020905b815481529060010190602001808311610fc257829003601f168201915b505050918352505060048201805460408051602060026001851615610100026000190190941693909304601f81018490048402820184019092528181529382019392918301828280156110735780601f1061104857610100808354040283529160200191611073565b820191906000526020600020905b81548152906001019060200180831161105657829003601f168201915b505050918352505060058201805460408051602060026001851615610100026000190190941693909304601f81018490048402820184019092528181529382019392918301828280156111075780601f106110dc57610100808354040283529160200191611107565b820191906000526020600020905b8154815290600101906020018083116110ea57829003601f168201915b505050918352505060068201805460408051602060026001851615610100026000190190941693909304601f810184900484028201840190925281815293820193929183018282801561119b5780601f106111705761010080835404028352916020019161119b565b820191906000526020600020905b81548152906001019060200180831161117e57829003601f168201915b505050918352505060078201805460408051602060026001851615610100026000190190941693909304601f810184900484028201840190925281815293820193929183018282801561122f5780601f106112045761010080835404028352916020019161122f565b820191906000526020600020905b81548152906001019060200180831161121257829003601f168201915b505050918352505060088201805460408051602060026001851615610100026000190190941693909304601f81018490048402820184019092528181529382019392918301828280156112c35780601f10611298576101008083540402835291602001916112c3565b820191906000526020600020905b8154815290600101906020018083116112a657829003601f168201915b505050918352505060098201805460408051602060026001851615610100026000190190941693909304601f81018490048402820184019092528181529382019392918301828280156113575780601f1061132c57610100808354040283529160200191611357565b820191906000526020600020905b81548152906001019060200180831161133a57829003601f168201915b50505050508152505081526020019060010190610d6c565b505050509050915091509091565b600d6020908152600091825260409182902080546001808301546002808501805488519481161561010002600019011691909104601f81018790048702840187019097528683529295909491929183018282801561141c5780601f106113f15761010080835404028352916020019161141c565b820191906000526020600020905b8154815290600101906020018083116113ff57829003601f168201915b505050506003830154600784015460088501805460408051602060026101006001861615026000190190941693909304601f810184900484028201840190925281815296976001600160a01b0390951696939550908301828280156114c25780601f10611497576101008083540402835291602001916114c2565b820191906000526020600020905b8154815290600101906020018083116114a557829003601f168201915b505050600a840154600b850154600c860154600f87015460109097015495969295919450925060ff808216916101009004168c565b6000908152600b60205260409020600f0154421090565b6000602052826000526040600020602052816000526040600020816002811061153357fe5b602081049091015460ff601f9092166101000a900416925083915050565b60009081526020818152604080832033845290915290205460ff1690565b600b6020908152600091825260409182902080546001808301546002808501805488519481161561010002600019011691909104601f81018790048702840187019097528683529295909491929183018282801561141c5780601f106113f15761010080835404028352916020019161141c565b600c6020908152600091825260409182902080548351601f600260001961010060018616150201909316929092049182018490048402810184019094528084529092918391908301828280156102515780601f1061022657610100808354040283529160200191610251565b600a60205260009081526040902080546001820154600283015460038401546004850154600590950154939460ff938416949293919290911686565b803561169681611eb0565b92915050565b803561169681611ec4565b6000602082840312156116b957600080fd5b60006116c5848461168b565b949350505050565b6000602082840312156116df57600080fd5b60006116c5848461169c565b60008060006060848603121561170057600080fd5b600061170c868661169c565b935050602061171d8682870161168b565b925050604061172e8682870161169c565b9150509250925092565b60006117448383611925565b9392505050565b6000611744838361195d565b60006117448383611a6d565b600061176f838361191c565b505060200190565b61178081611e38565b82525050565b600061179182611e25565b61179b8185611e2f565b9350836020820285016117ad85611e1c565b8060005b858110156117e757848403895281516117ca8582611738565b94506117d583611e1c565b60209a909a01999250506001016117b1565b5091979650505050505050565b60006117ff82611e25565b6118098185611e2f565b93508360208202850161181b85611e1c565b8060005b858110156117e75784840389528151611838858261174b565b945061184383611e1c565b60209a909a019992505060010161181f565b600061186082611e25565b61186a8185611e2f565b93508360208202850161187c85611e1c565b8060005b858110156117e757848403895281516118998582611757565b94506118a483611e1c565b60209a909a0199925050600101611880565b6118bf81611e29565b6118c98184610799565b92506118d482611e22565b8060005b838110156119025781516118ec8782611763565b96506118f783611e1c565b9250506001016118d8565b505050505050565b61178081611e43565b61178081611e5e565b61178081611e22565b600061193082611e25565b61193a8185611e2f565b935061194a818560208601611e69565b61195381611e99565b9093019392505050565b8051610140808452600091908401906119768282611925565b915050602083015184820360208601526119908282611925565b915050604083015184820360408601526119aa8282611925565b915050606083015184820360608601526119c48282611925565b915050608083015184820360808601526119de8282611925565b91505060a083015184820360a08601526119f88282611925565b91505060c083015184820360c0860152611a128282611925565b91505060e083015184820360e0860152611a2c8282611925565b915050610100830151848203610100860152611a488282611925565b915050610120830151848203610120860152611a648282611925565b95945050505050565b8051600090610240840190611a82858261191c565b506020830151611a95602086018261191c565b5060408301518482036040860152611aad8282611925565b9150506060830151611ac26060860182611777565b5060808301518482036080860152611ada8282611786565b91505060a083015184820360a0860152611af48282611786565b91505060c083015184820360c0860152611b0e8282611786565b91505060e0830151611b2360e086018261191c565b50610100830151848203610100860152611b3d8282611925565b915050610120830151848203610120860152611b598282611786565b915050610140830151611b7061014086018261191c565b50610160830151611b8561016086018261191c565b50610180830151611b9a61018086018261191c565b506101a0830151611baf6101a08601826118b6565b506101c0830151611bc46101e086018261191c565b506101e0830151611bd961020086018261190a565b50610200830151611bee61022086018261190a565b509392505050565b60408082528101611c078185611855565b905081810360208301526116c581846117f4565b60208101611696828461190a565b6101408082528101611c3b818d611925565b90508181036020830152611c4f818c611925565b90508181036040830152611c63818b611925565b90508181036060830152611c77818a611925565b90508181036080830152611c8b8189611925565b905081810360a0830152611c9f8188611925565b905081810360c0830152611cb38187611925565b905081810360e0830152611cc78186611925565b9050818103610100830152611cdc8185611925565b9050818103610120830152611cf18184611925565b9c9b505050505050505050505050565b60c08101611d0f828961191c565b611d1c6020830188611913565b611d29604083018761191c565b611d36606083018661191c565b611d43608083018561191c565b611d5060a083018461190a565b979650505050505050565b6101808101611d6a828f61191c565b611d77602083018e61191c565b8181036040830152611d89818d611925565b9050611d98606083018c611777565b611da5608083018b61191c565b81810360a0830152611db7818a611925565b9050611dc660c083018961191c565b611dd360e083018861191c565b611de161010083018761191c565b611def61012083018661191c565b611dfd61014083018561190a565b611e0b61016083018461190a565b9d9c50505050505050505050505050565b60200190565b90565b5190565b50600290565b90815260200190565b600061169682611e52565b151590565b8061079981611ea3565b6001600160a01b031690565b600061169682611e48565b60005b83811015611e84578181015183820152602001611e6c565b83811115611e93576000848401525b50505050565b601f01601f191690565b60038110611ead57fe5b50565b611eb981611e38565b8114611ead57600080fd5b611eb981611e2256fea365627a7a7231582091e69cce712de076eff9b8e5490a7d1c818adf282d08ec65d48475d64c55f9846c6578706572696d656e74616cf564736f6c63430005100040",
  "source": "pragma solidity 0.5.16;\r\npragma experimental ABIEncoderV2;\r\n\r\ncontract LabelChainHelper {\r\n\r\n  // Option : define roles depending on the user status\r\n  enum Role {CUSTOMER, SELLER, ADMIN}\r\n\r\n  // Basic User structure with useful parameters.\r\n  // In particular, token date, token number and reputation\r\n  // needed for the consensus\r\n  struct User {\r\n    uint userId;\r\n    Role role;\r\n    uint lastTimeTokenGiven;\r\n    int tokenNumber;\r\n    int reputation;\r\n    bool isExist;\r\n  }\r\n\r\n  // Basic Product definition containing values about the product itself\r\n  // but also about consensus\r\n  struct Product {\r\n    uint productId;\r\n    uint productCode;\r\n    string productName;\r\n    address productProposerAddress;\r\n    string[] labels;\r\n    // uint nutrimentsId;\r\n    string[] ingredients;\r\n    string[] additifs;\r\n    uint quantity;\r\n    string typeOfProduct;\r\n    string[] packaging;\r\n    uint totalVotes;\r\n    uint forVotes;\r\n    uint againstVotes;\r\n    uint[2] created_n_last_modif;\r\n    uint endDate;\r\n    // uint endVoteDate;\r\n    //  bytes32 hash;\r\n    bool isValidated;\r\n    bool isExist;\r\n  }\r\n\r\n  mapping(uint => mapping(address => bool[2])) public alreadyVoted;\r\n\r\n  // Basic Nutriment structure needed for the Product structure\r\n  // A way to divide Product content\r\n  struct Nutriment {\r\n    string energy;\r\n    string energy_kcal;\r\n    string proteines;\r\n    string carbohydrates;\r\n    string salt;\r\n    string sugars;\r\n    string fat;\r\n    string saturated_fat;\r\n    string fiber;\r\n    string sodium;\r\n  }\r\n\r\n  // Integer needed for the implicit user registration\r\n  // for the first time he proposed a product\r\n  uint uniqueIdUser;\r\n\r\n  uint uniqueProductId;\r\n\r\n  // Getter of all products in proposal phase\r\n  Product[] ProposalProducts;\r\n\r\n  // Getter of all nutriments products in proposal phase\r\n  Nutriment[] ProposalNutriments;\r\n\r\n  // Getter of all products accepted\r\n  Product[] Products;\r\n\r\n  // Getter of all nutriments products accepted\r\n  Nutriment[] Nutriments;\r\n\r\n  // Getter of all products accepted\r\n  Product[] DeniedProducts;\r\n\r\n  // Getter of all nutriments products accepted\r\n  Nutriment[] DeniedNutriments;\r\n\r\n  uint[] ProposalProductsCode;\r\n\r\n  // Accessing to a User structure by his address\r\n  mapping(address => User) public addressToUser;\r\n\r\n  // Accessing to a Product in proposal phase by his code\r\n  mapping(uint => Product) public productCodeToProposalProduct;\r\n\r\n  mapping(uint => Nutriment) public productCodeToProposalNutriments;\r\n\r\n  // Accessing to a Product adopted by his code\r\n  mapping(uint => Product) public productCodeToProduct;\r\n\r\n  // Accessing to Nutriments of a Product adopted by his code\r\n  mapping(uint => Nutriment) public productCodeToNutriments;\r\n\r\n  //mapping(address => Product[]) addressToProducts;\r\n  mapping(address => mapping(uint => Product)) addressToProducts;\r\n\r\n  mapping(address => mapping(uint => Nutriment)) addressToNutriments;\r\n\r\n\r\n  // Simple event when a product is added to the product proposal phase\r\n  event TriggerAddProduct(uint indexed idProduct);\r\n\r\n//  function getProductsByUsers() public view returns (Product[] memory, Nutriment[] memory) {\r\n//    return (addressToProducts[msg.sender], addressToNutriments[msg.sender]);\r\n//  }\r\n\r\n  function getProductsVoting() public view returns (Product[] memory, Nutriment[] memory){\r\n    return (ProposalProducts, ProposalNutriments);\r\n  }\r\n\r\n\r\n  function isAlreadyVotedByCurrentUser(uint _productCode) public view returns (bool){\r\n    return alreadyVoted[_productCode][msg.sender][0];\r\n  }\r\n\r\n  function isProposer(uint _productCode) public view returns (bool){\r\n    return productCodeToProposalProduct[_productCode].productProposerAddress == msg.sender;\r\n  }\r\n\r\n  function isDateOK(uint _productCode) public view returns (bool) {\r\n    // now ne varie pas, impossible de savoir si on a dpass la date de fin du vote\r\n    return now < productCodeToProposalProduct[_productCode].endDate;\r\n  }\r\n}\r\n",
  "sourcePath": "C:\\Users\\Fabrice\\Desktop\\Project_EatHealthyLabelChain\\EatHealthyLabelChain\\contracts\\LabelChainHelper.sol",
  "compiler": {
    "name": "solc",
    "version": "0.5.16+commit.9c3226ce.Emscripten.clang"
  },
  "schemaVersion": "3.2.0",
  "updatedAt": "2020-07-18T12:17:57.285Z",
  "devdoc": {
    "methods": {}
  },
  "userdoc": {
    "methods": {}
  }
}