{
  "contractName": "LabelChainHelper",
  "abi": [
    {
      "anonymous": false,
      "inputs": [
        {
          "indexed": true,
          "internalType": "uint256",
          "name": "idProduct",
          "type": "uint256"
        }
      ],
      "name": "TriggerAddProduct",
      "type": "event"
    },
    {
      "constant": true,
      "inputs": [
        {
          "internalType": "address",
          "name": "",
          "type": "address"
        }
      ],
      "name": "addressToUser",
      "outputs": [
        {
          "internalType": "uint32",
          "name": "userId",
          "type": "uint32"
        },
        {
          "internalType": "uint256",
          "name": "lastTimeTokenGiven",
          "type": "uint256"
        },
        {
          "internalType": "int16",
          "name": "tokenNumber",
          "type": "int16"
        },
        {
          "internalType": "int16",
          "name": "reputation",
          "type": "int16"
        },
        {
          "internalType": "bool",
          "name": "isExist",
          "type": "bool"
        }
      ],
      "payable": false,
      "stateMutability": "view",
      "type": "function"
    },
    {
      "constant": true,
      "inputs": [
        {
          "internalType": "uint256",
          "name": "",
          "type": "uint256"
        },
        {
          "internalType": "address",
          "name": "",
          "type": "address"
        },
        {
          "internalType": "uint256",
          "name": "",
          "type": "uint256"
        }
      ],
      "name": "alreadyVoted",
      "outputs": [
        {
          "internalType": "bool",
          "name": "",
          "type": "bool"
        }
      ],
      "payable": false,
      "stateMutability": "view",
      "type": "function"
    },
    {
      "constant": true,
      "inputs": [
        {
          "internalType": "uint256",
          "name": "",
          "type": "uint256"
        }
      ],
      "name": "productCodeToNutriments",
      "outputs": [
        {
          "internalType": "bytes32",
          "name": "energy",
          "type": "bytes32"
        },
        {
          "internalType": "bytes32",
          "name": "energy_kcal",
          "type": "bytes32"
        },
        {
          "internalType": "bytes32",
          "name": "proteines",
          "type": "bytes32"
        },
        {
          "internalType": "bytes32",
          "name": "carbohydrates",
          "type": "bytes32"
        },
        {
          "internalType": "bytes32",
          "name": "salt",
          "type": "bytes32"
        },
        {
          "internalType": "bytes32",
          "name": "sugars",
          "type": "bytes32"
        },
        {
          "internalType": "bytes32",
          "name": "fat",
          "type": "bytes32"
        },
        {
          "internalType": "bytes32",
          "name": "saturated_fat",
          "type": "bytes32"
        },
        {
          "internalType": "bytes32",
          "name": "fiber",
          "type": "bytes32"
        },
        {
          "internalType": "bytes32",
          "name": "sodium",
          "type": "bytes32"
        }
      ],
      "payable": false,
      "stateMutability": "view",
      "type": "function"
    },
    {
      "constant": true,
      "inputs": [
        {
          "internalType": "uint256",
          "name": "",
          "type": "uint256"
        }
      ],
      "name": "productCodeToProduct",
      "outputs": [
        {
          "internalType": "address",
          "name": "productProposerAddress",
          "type": "address"
        },
        {
          "internalType": "uint16",
          "name": "quantity",
          "type": "uint16"
        },
        {
          "internalType": "uint16",
          "name": "forVotes",
          "type": "uint16"
        },
        {
          "internalType": "uint16",
          "name": "againstVotes",
          "type": "uint16"
        },
        {
          "internalType": "uint64",
          "name": "productCode",
          "type": "uint64"
        },
        {
          "internalType": "uint64",
          "name": "created_t",
          "type": "uint64"
        },
        {
          "internalType": "uint64",
          "name": "endDate",
          "type": "uint64"
        },
        {
          "internalType": "uint32",
          "name": "productId",
          "type": "uint32"
        },
        {
          "internalType": "string",
          "name": "productName",
          "type": "string"
        },
        {
          "internalType": "string",
          "name": "typeOfProduct",
          "type": "string"
        },
        {
          "internalType": "bool",
          "name": "isExist",
          "type": "bool"
        },
        {
          "internalType": "enum LabelChainHelper.ProductStatus",
          "name": "status",
          "type": "uint8"
        }
      ],
      "payable": false,
      "stateMutability": "view",
      "type": "function"
    },
    {
      "constant": true,
      "inputs": [
        {
          "internalType": "uint256",
          "name": "",
          "type": "uint256"
        }
      ],
      "name": "productCodeToProposalNutriments",
      "outputs": [
        {
          "internalType": "bytes32",
          "name": "energy",
          "type": "bytes32"
        },
        {
          "internalType": "bytes32",
          "name": "energy_kcal",
          "type": "bytes32"
        },
        {
          "internalType": "bytes32",
          "name": "proteines",
          "type": "bytes32"
        },
        {
          "internalType": "bytes32",
          "name": "carbohydrates",
          "type": "bytes32"
        },
        {
          "internalType": "bytes32",
          "name": "salt",
          "type": "bytes32"
        },
        {
          "internalType": "bytes32",
          "name": "sugars",
          "type": "bytes32"
        },
        {
          "internalType": "bytes32",
          "name": "fat",
          "type": "bytes32"
        },
        {
          "internalType": "bytes32",
          "name": "saturated_fat",
          "type": "bytes32"
        },
        {
          "internalType": "bytes32",
          "name": "fiber",
          "type": "bytes32"
        },
        {
          "internalType": "bytes32",
          "name": "sodium",
          "type": "bytes32"
        }
      ],
      "payable": false,
      "stateMutability": "view",
      "type": "function"
    },
    {
      "constant": true,
      "inputs": [
        {
          "internalType": "uint256",
          "name": "",
          "type": "uint256"
        }
      ],
      "name": "productCodeToProposalProduct",
      "outputs": [
        {
          "internalType": "address",
          "name": "productProposerAddress",
          "type": "address"
        },
        {
          "internalType": "uint16",
          "name": "quantity",
          "type": "uint16"
        },
        {
          "internalType": "uint16",
          "name": "forVotes",
          "type": "uint16"
        },
        {
          "internalType": "uint16",
          "name": "againstVotes",
          "type": "uint16"
        },
        {
          "internalType": "uint64",
          "name": "productCode",
          "type": "uint64"
        },
        {
          "internalType": "uint64",
          "name": "created_t",
          "type": "uint64"
        },
        {
          "internalType": "uint64",
          "name": "endDate",
          "type": "uint64"
        },
        {
          "internalType": "uint32",
          "name": "productId",
          "type": "uint32"
        },
        {
          "internalType": "string",
          "name": "productName",
          "type": "string"
        },
        {
          "internalType": "string",
          "name": "typeOfProduct",
          "type": "string"
        },
        {
          "internalType": "bool",
          "name": "isExist",
          "type": "bool"
        },
        {
          "internalType": "enum LabelChainHelper.ProductStatus",
          "name": "status",
          "type": "uint8"
        }
      ],
      "payable": false,
      "stateMutability": "view",
      "type": "function"
    },
    {
      "constant": true,
      "inputs": [],
      "name": "getProductsVoting",
      "outputs": [
        {
          "components": [
            {
              "internalType": "address",
              "name": "productProposerAddress",
              "type": "address"
            },
            {
              "internalType": "uint16",
              "name": "quantity",
              "type": "uint16"
            },
            {
              "internalType": "uint16",
              "name": "forVotes",
              "type": "uint16"
            },
            {
              "internalType": "uint16",
              "name": "againstVotes",
              "type": "uint16"
            },
            {
              "internalType": "uint64",
              "name": "productCode",
              "type": "uint64"
            },
            {
              "internalType": "uint64",
              "name": "created_t",
              "type": "uint64"
            },
            {
              "internalType": "uint64",
              "name": "endDate",
              "type": "uint64"
            },
            {
              "internalType": "uint32",
              "name": "productId",
              "type": "uint32"
            },
            {
              "internalType": "string",
              "name": "productName",
              "type": "string"
            },
            {
              "internalType": "string[]",
              "name": "labels",
              "type": "string[]"
            },
            {
              "internalType": "string[]",
              "name": "ingredients",
              "type": "string[]"
            },
            {
              "internalType": "string[]",
              "name": "additifs",
              "type": "string[]"
            },
            {
              "internalType": "string",
              "name": "typeOfProduct",
              "type": "string"
            },
            {
              "internalType": "string[]",
              "name": "packaging",
              "type": "string[]"
            },
            {
              "internalType": "bool",
              "name": "isExist",
              "type": "bool"
            },
            {
              "internalType": "enum LabelChainHelper.ProductStatus",
              "name": "status",
              "type": "uint8"
            }
          ],
          "internalType": "struct LabelChainHelper.Product[]",
          "name": "",
          "type": "tuple[]"
        },
        {
          "components": [
            {
              "internalType": "bytes32",
              "name": "energy",
              "type": "bytes32"
            },
            {
              "internalType": "bytes32",
              "name": "energy_kcal",
              "type": "bytes32"
            },
            {
              "internalType": "bytes32",
              "name": "proteines",
              "type": "bytes32"
            },
            {
              "internalType": "bytes32",
              "name": "carbohydrates",
              "type": "bytes32"
            },
            {
              "internalType": "bytes32",
              "name": "salt",
              "type": "bytes32"
            },
            {
              "internalType": "bytes32",
              "name": "sugars",
              "type": "bytes32"
            },
            {
              "internalType": "bytes32",
              "name": "fat",
              "type": "bytes32"
            },
            {
              "internalType": "bytes32",
              "name": "saturated_fat",
              "type": "bytes32"
            },
            {
              "internalType": "bytes32",
              "name": "fiber",
              "type": "bytes32"
            },
            {
              "internalType": "bytes32",
              "name": "sodium",
              "type": "bytes32"
            }
          ],
          "internalType": "struct LabelChainHelper.Nutriment[]",
          "name": "",
          "type": "tuple[]"
        }
      ],
      "payable": false,
      "stateMutability": "view",
      "type": "function"
    },
    {
      "constant": true,
      "inputs": [],
      "name": "getProductsAccepted",
      "outputs": [
        {
          "components": [
            {
              "internalType": "address",
              "name": "productProposerAddress",
              "type": "address"
            },
            {
              "internalType": "uint16",
              "name": "quantity",
              "type": "uint16"
            },
            {
              "internalType": "uint16",
              "name": "forVotes",
              "type": "uint16"
            },
            {
              "internalType": "uint16",
              "name": "againstVotes",
              "type": "uint16"
            },
            {
              "internalType": "uint64",
              "name": "productCode",
              "type": "uint64"
            },
            {
              "internalType": "uint64",
              "name": "created_t",
              "type": "uint64"
            },
            {
              "internalType": "uint64",
              "name": "endDate",
              "type": "uint64"
            },
            {
              "internalType": "uint32",
              "name": "productId",
              "type": "uint32"
            },
            {
              "internalType": "string",
              "name": "productName",
              "type": "string"
            },
            {
              "internalType": "string[]",
              "name": "labels",
              "type": "string[]"
            },
            {
              "internalType": "string[]",
              "name": "ingredients",
              "type": "string[]"
            },
            {
              "internalType": "string[]",
              "name": "additifs",
              "type": "string[]"
            },
            {
              "internalType": "string",
              "name": "typeOfProduct",
              "type": "string"
            },
            {
              "internalType": "string[]",
              "name": "packaging",
              "type": "string[]"
            },
            {
              "internalType": "bool",
              "name": "isExist",
              "type": "bool"
            },
            {
              "internalType": "enum LabelChainHelper.ProductStatus",
              "name": "status",
              "type": "uint8"
            }
          ],
          "internalType": "struct LabelChainHelper.Product[]",
          "name": "",
          "type": "tuple[]"
        },
        {
          "components": [
            {
              "internalType": "bytes32",
              "name": "energy",
              "type": "bytes32"
            },
            {
              "internalType": "bytes32",
              "name": "energy_kcal",
              "type": "bytes32"
            },
            {
              "internalType": "bytes32",
              "name": "proteines",
              "type": "bytes32"
            },
            {
              "internalType": "bytes32",
              "name": "carbohydrates",
              "type": "bytes32"
            },
            {
              "internalType": "bytes32",
              "name": "salt",
              "type": "bytes32"
            },
            {
              "internalType": "bytes32",
              "name": "sugars",
              "type": "bytes32"
            },
            {
              "internalType": "bytes32",
              "name": "fat",
              "type": "bytes32"
            },
            {
              "internalType": "bytes32",
              "name": "saturated_fat",
              "type": "bytes32"
            },
            {
              "internalType": "bytes32",
              "name": "fiber",
              "type": "bytes32"
            },
            {
              "internalType": "bytes32",
              "name": "sodium",
              "type": "bytes32"
            }
          ],
          "internalType": "struct LabelChainHelper.Nutriment[]",
          "name": "",
          "type": "tuple[]"
        }
      ],
      "payable": false,
      "stateMutability": "view",
      "type": "function"
    },
    {
      "constant": true,
      "inputs": [
        {
          "internalType": "uint256",
          "name": "_productCode",
          "type": "uint256"
        }
      ],
      "name": "getProposedProduct",
      "outputs": [
        {
          "components": [
            {
              "internalType": "address",
              "name": "productProposerAddress",
              "type": "address"
            },
            {
              "internalType": "uint16",
              "name": "quantity",
              "type": "uint16"
            },
            {
              "internalType": "uint16",
              "name": "forVotes",
              "type": "uint16"
            },
            {
              "internalType": "uint16",
              "name": "againstVotes",
              "type": "uint16"
            },
            {
              "internalType": "uint64",
              "name": "productCode",
              "type": "uint64"
            },
            {
              "internalType": "uint64",
              "name": "created_t",
              "type": "uint64"
            },
            {
              "internalType": "uint64",
              "name": "endDate",
              "type": "uint64"
            },
            {
              "internalType": "uint32",
              "name": "productId",
              "type": "uint32"
            },
            {
              "internalType": "string",
              "name": "productName",
              "type": "string"
            },
            {
              "internalType": "string[]",
              "name": "labels",
              "type": "string[]"
            },
            {
              "internalType": "string[]",
              "name": "ingredients",
              "type": "string[]"
            },
            {
              "internalType": "string[]",
              "name": "additifs",
              "type": "string[]"
            },
            {
              "internalType": "string",
              "name": "typeOfProduct",
              "type": "string"
            },
            {
              "internalType": "string[]",
              "name": "packaging",
              "type": "string[]"
            },
            {
              "internalType": "bool",
              "name": "isExist",
              "type": "bool"
            },
            {
              "internalType": "enum LabelChainHelper.ProductStatus",
              "name": "status",
              "type": "uint8"
            }
          ],
          "internalType": "struct LabelChainHelper.Product",
          "name": "",
          "type": "tuple"
        },
        {
          "components": [
            {
              "internalType": "bytes32",
              "name": "energy",
              "type": "bytes32"
            },
            {
              "internalType": "bytes32",
              "name": "energy_kcal",
              "type": "bytes32"
            },
            {
              "internalType": "bytes32",
              "name": "proteines",
              "type": "bytes32"
            },
            {
              "internalType": "bytes32",
              "name": "carbohydrates",
              "type": "bytes32"
            },
            {
              "internalType": "bytes32",
              "name": "salt",
              "type": "bytes32"
            },
            {
              "internalType": "bytes32",
              "name": "sugars",
              "type": "bytes32"
            },
            {
              "internalType": "bytes32",
              "name": "fat",
              "type": "bytes32"
            },
            {
              "internalType": "bytes32",
              "name": "saturated_fat",
              "type": "bytes32"
            },
            {
              "internalType": "bytes32",
              "name": "fiber",
              "type": "bytes32"
            },
            {
              "internalType": "bytes32",
              "name": "sodium",
              "type": "bytes32"
            }
          ],
          "internalType": "struct LabelChainHelper.Nutriment",
          "name": "",
          "type": "tuple"
        }
      ],
      "payable": false,
      "stateMutability": "view",
      "type": "function"
    },
    {
      "constant": true,
      "inputs": [
        {
          "internalType": "uint256",
          "name": "_productCode",
          "type": "uint256"
        }
      ],
      "name": "getProduct",
      "outputs": [
        {
          "components": [
            {
              "internalType": "address",
              "name": "productProposerAddress",
              "type": "address"
            },
            {
              "internalType": "uint16",
              "name": "quantity",
              "type": "uint16"
            },
            {
              "internalType": "uint16",
              "name": "forVotes",
              "type": "uint16"
            },
            {
              "internalType": "uint16",
              "name": "againstVotes",
              "type": "uint16"
            },
            {
              "internalType": "uint64",
              "name": "productCode",
              "type": "uint64"
            },
            {
              "internalType": "uint64",
              "name": "created_t",
              "type": "uint64"
            },
            {
              "internalType": "uint64",
              "name": "endDate",
              "type": "uint64"
            },
            {
              "internalType": "uint32",
              "name": "productId",
              "type": "uint32"
            },
            {
              "internalType": "string",
              "name": "productName",
              "type": "string"
            },
            {
              "internalType": "string[]",
              "name": "labels",
              "type": "string[]"
            },
            {
              "internalType": "string[]",
              "name": "ingredients",
              "type": "string[]"
            },
            {
              "internalType": "string[]",
              "name": "additifs",
              "type": "string[]"
            },
            {
              "internalType": "string",
              "name": "typeOfProduct",
              "type": "string"
            },
            {
              "internalType": "string[]",
              "name": "packaging",
              "type": "string[]"
            },
            {
              "internalType": "bool",
              "name": "isExist",
              "type": "bool"
            },
            {
              "internalType": "enum LabelChainHelper.ProductStatus",
              "name": "status",
              "type": "uint8"
            }
          ],
          "internalType": "struct LabelChainHelper.Product",
          "name": "",
          "type": "tuple"
        },
        {
          "components": [
            {
              "internalType": "bytes32",
              "name": "energy",
              "type": "bytes32"
            },
            {
              "internalType": "bytes32",
              "name": "energy_kcal",
              "type": "bytes32"
            },
            {
              "internalType": "bytes32",
              "name": "proteines",
              "type": "bytes32"
            },
            {
              "internalType": "bytes32",
              "name": "carbohydrates",
              "type": "bytes32"
            },
            {
              "internalType": "bytes32",
              "name": "salt",
              "type": "bytes32"
            },
            {
              "internalType": "bytes32",
              "name": "sugars",
              "type": "bytes32"
            },
            {
              "internalType": "bytes32",
              "name": "fat",
              "type": "bytes32"
            },
            {
              "internalType": "bytes32",
              "name": "saturated_fat",
              "type": "bytes32"
            },
            {
              "internalType": "bytes32",
              "name": "fiber",
              "type": "bytes32"
            },
            {
              "internalType": "bytes32",
              "name": "sodium",
              "type": "bytes32"
            }
          ],
          "internalType": "struct LabelChainHelper.Nutriment",
          "name": "",
          "type": "tuple"
        }
      ],
      "payable": false,
      "stateMutability": "view",
      "type": "function"
    },
    {
      "constant": true,
      "inputs": [
        {
          "internalType": "uint256",
          "name": "_productCode",
          "type": "uint256"
        }
      ],
      "name": "isAlreadyVotedByCurrentUser",
      "outputs": [
        {
          "internalType": "bool",
          "name": "",
          "type": "bool"
        }
      ],
      "payable": false,
      "stateMutability": "view",
      "type": "function"
    },
    {
      "constant": true,
      "inputs": [
        {
          "internalType": "uint256",
          "name": "_productCode",
          "type": "uint256"
        }
      ],
      "name": "isProposer",
      "outputs": [
        {
          "internalType": "bool",
          "name": "",
          "type": "bool"
        }
      ],
      "payable": false,
      "stateMutability": "view",
      "type": "function"
    },
    {
      "constant": true,
      "inputs": [
        {
          "internalType": "uint256",
          "name": "_productCode",
          "type": "uint256"
        }
      ],
      "name": "isDateOK",
      "outputs": [
        {
          "internalType": "bool",
          "name": "",
          "type": "bool"
        }
      ],
      "payable": false,
      "stateMutability": "view",
      "type": "function"
    }
  ],
  "bytecode": "0x608060405234801561001057600080fd5b506125e3806100206000396000f3fe608060405234801561001057600080fd5b50600436106100cf5760003560e01c806393b6e35e1161008c578063cfea702911610066578063cfea7029146101d4578063d54d6c70146101dc578063d62192fb146101ef578063edf5388614610202576100cf565b806393b6e35e1461019b578063b9db15b4146101ae578063be301d34146101c1576100cf565b80630574d808146100d457806306e65f481461010657806313431cc51461012657806361ef3c151461013c578063639b7f8214610167578063939d525a1461017a575b600080fd5b6100e76100e2366004611e58565b610226565b6040516100fd9a999897969594939291906123d4565b60405180910390f35b610119610114366004611e58565b61027a565b6040516100fd91906123c6565b61012e61029a565b6040516100fd9291906123a1565b61014f61014a366004611e58565b6108fd565b6040516100fd9c9b9a999897969594939291906122e0565b610119610175366004611e58565b610aa3565b61018d610188366004611e58565b610acb565b6040516100fd929190612469565b6101196101a9366004611e76565b6110b2565b61018d6101bc366004611e58565b6110f5565b6101196101cf366004611e58565b611626565b61012e611646565b61014f6101ea366004611e58565b611bdd565b6100e76101fd366004611e58565b611cac565b610215610210366004611e32565b611d00565b6040516100fd95949392919061248a565b600a602052806000526040600020600091509050806000015490806001015490806002015490806003015490806004015490806005015490806006015490806007015490806008015490806009015490508a565b6000818152600760205260409020546001600160a01b031633145b919050565b6060806001600281805480602002602001604051908101604052809291908181526020016000905b8282101561083157600084815260209081902060408051610200810182526009860290920180546001600160a01b0381168452600160a01b810461ffff90811685870152600160b01b8204811685850152600160c01b9182900416606085015260018083015467ffffffffffffffff8082166080880152600160401b8204811660a0880152600160801b82041660c08701529190910463ffffffff1660e08501526002808301805485516101009482161585026000190190911692909204601f8101889004880283018801909552848252949592949186019390928301828280156103ee5780601f106103c3576101008083540402835291602001916103ee565b820191906000526020600020905b8154815290600101906020018083116103d157829003601f168201915b5050505050815260200160038201805480602002602001604051908101604052809291908181526020016000905b828210156104c75760008481526020908190208301805460408051601f60026000196101006001871615020190941693909304928301859004850281018501909152818152928301828280156104b35780601f10610488576101008083540402835291602001916104b3565b820191906000526020600020905b81548152906001019060200180831161049657829003601f168201915b50505050508152602001906001019061041c565b50505050815260200160048201805480602002602001604051908101604052809291908181526020016000905b8282101561059f5760008481526020908190208301805460408051601f600260001961010060018716150201909416939093049283018590048502810185019091528181529283018282801561058b5780601f106105605761010080835404028352916020019161058b565b820191906000526020600020905b81548152906001019060200180831161056e57829003601f168201915b5050505050815260200190600101906104f4565b50505050815260200160058201805480602002602001604051908101604052809291908181526020016000905b828210156106775760008481526020908190208301805460408051601f60026000196101006001871615020190941693909304928301859004850281018501909152818152928301828280156106635780601f1061063857610100808354040283529160200191610663565b820191906000526020600020905b81548152906001019060200180831161064657829003601f168201915b5050505050815260200190600101906105cc565b5050509082525060068201805460408051602060026001851615610100026000190190941693909304601f810184900484028201840190925281815293820193929183018282801561070a5780601f106106df5761010080835404028352916020019161070a565b820191906000526020600020905b8154815290600101906020018083116106ed57829003601f168201915b5050505050815260200160078201805480602002602001604051908101604052809291908181526020016000905b828210156107e35760008481526020908190208301805460408051601f60026000196101006001871615020190941693909304928301859004850281018501909152818152928301828280156107cf5780601f106107a4576101008083540402835291602001916107cf565b820191906000526020600020905b8154815290600101906020018083116107b257829003601f168201915b505050505081526020019060010190610738565b50505090825250600882015460ff8082161515602084015260409092019161010090910416600481111561081357fe5b600481111561081e57fe5b81525050815260200190600101906102c2565b50505050915080805480602002602001604051908101604052809291908181526020016000905b828210156108ef57838290600052602060002090600a02016040518061014001604052908160008201548152602001600182015481526020016002820154815260200160038201548152602001600482015481526020016005820154815260200160068201548152602001600782015481526020016008820154815260200160098201548152505081526020019060010190610858565b505050509050915091509091565b60096020908152600091825260409182902080546001808301546002808501805488516101009582161595909502600019011691909104601f81018790048702840187019097528683526001600160a01b03841696600160a01b850461ffff90811697600160b01b8704821697600160c01b978890049092169667ffffffffffffffff80871697600160401b8804821697600160801b8104909216969290910463ffffffff169490928301828280156109f75780601f106109cc576101008083540402835291602001916109f7565b820191906000526020600020905b8154815290600101906020018083116109da57829003601f168201915b5050505060068301805460408051602060026001851615610100026000190190941693909304601f8101849004840282018401909252818152949594935090830182828015610a875780601f10610a5c57610100808354040283529160200191610a87565b820191906000526020600020905b815481529060010190602001808311610a6a57829003601f168201915b5050506008909301549192505060ff808216916101009004168c565b600090815260076020526040902060010154600160801b900467ffffffffffffffff16421090565b610ad3611d41565b610adb611dc2565b6000838152600760209081526040808320600883529281902081516102008101835284546001600160a01b0381168252600160a01b810461ffff90811683870152600160b01b8204811683860152600160c01b9182900416606083015260018087015467ffffffffffffffff8082166080860152600160401b8204811660a0860152600160801b82041660c08501529190910463ffffffff1660e08301526002808701805486516101009482161585026000190190911692909204601f810188900488028301880190965285825293959294879492860193919291830182828015610c075780601f10610bdc57610100808354040283529160200191610c07565b820191906000526020600020905b815481529060010190602001808311610bea57829003601f168201915b5050505050815260200160038201805480602002602001604051908101604052809291908181526020016000905b82821015610ce05760008481526020908190208301805460408051601f6002600019610100600187161502019094169390930492830185900485028101850190915281815292830182828015610ccc5780601f10610ca157610100808354040283529160200191610ccc565b820191906000526020600020905b815481529060010190602001808311610caf57829003601f168201915b505050505081526020019060010190610c35565b50505050815260200160048201805480602002602001604051908101604052809291908181526020016000905b82821015610db85760008481526020908190208301805460408051601f6002600019610100600187161502019094169390930492830185900485028101850190915281815292830182828015610da45780601f10610d7957610100808354040283529160200191610da4565b820191906000526020600020905b815481529060010190602001808311610d8757829003601f168201915b505050505081526020019060010190610d0d565b50505050815260200160058201805480602002602001604051908101604052809291908181526020016000905b82821015610e905760008481526020908190208301805460408051601f6002600019610100600187161502019094169390930492830185900485028101850190915281815292830182828015610e7c5780601f10610e5157610100808354040283529160200191610e7c565b820191906000526020600020905b815481529060010190602001808311610e5f57829003601f168201915b505050505081526020019060010190610de5565b5050509082525060068201805460408051602060026001851615610100026000190190941693909304601f8101849004840282018401909252818152938201939291830182828015610f235780601f10610ef857610100808354040283529160200191610f23565b820191906000526020600020905b815481529060010190602001808311610f0657829003601f168201915b5050505050815260200160078201805480602002602001604051908101604052809291908181526020016000905b82821015610ffc5760008481526020908190208301805460408051601f6002600019610100600187161502019094169390930492830185900485028101850190915281815292830182828015610fe85780601f10610fbd57610100808354040283529160200191610fe8565b820191906000526020600020905b815481529060010190602001808311610fcb57829003601f168201915b505050505081526020019060010190610f51565b50505090825250600882015460ff8082161515602084015260409092019161010090910416600481111561102c57fe5b600481111561103757fe5b905250604080516101408101825283548152600184015460208201526002840154918101919091526003830154606082015260048301546080820152600583015460a0820152600683015460c0820152600783015460e082015260088301546101008201526009909201546101208301529350915050915091565b600660205282600052604060002060205281600052604060002081600281106110d757fe5b602081049091015460ff601f9092166101000a900416925083915050565b6110fd611d41565b611105611dc2565b6000838152600960209081526040808320600a83529281902081516102008101835284546001600160a01b0381168252600160a01b810461ffff90811683870152600160b01b8204811683860152600160c01b9182900416606083015260018087015467ffffffffffffffff8082166080860152600160401b8204811660a0860152600160801b82041660c08501529190910463ffffffff1660e08301526002808701805486516101009482161585026000190190911692909204601f8101889004880283018801909652858252939592948794928601939192918301828280156112315780601f1061120657610100808354040283529160200191611231565b820191906000526020600020905b81548152906001019060200180831161121457829003601f168201915b5050505050815260200160038201805480602002602001604051908101604052809291908181526020016000905b8282101561130a5760008481526020908190208301805460408051601f60026000196101006001871615020190941693909304928301859004850281018501909152818152928301828280156112f65780601f106112cb576101008083540402835291602001916112f6565b820191906000526020600020905b8154815290600101906020018083116112d957829003601f168201915b50505050508152602001906001019061125f565b50505050815260200160048201805480602002602001604051908101604052809291908181526020016000905b828210156113e25760008481526020908190208301805460408051601f60026000196101006001871615020190941693909304928301859004850281018501909152818152928301828280156113ce5780601f106113a3576101008083540402835291602001916113ce565b820191906000526020600020905b8154815290600101906020018083116113b157829003601f168201915b505050505081526020019060010190611337565b50505050815260200160058201805480602002602001604051908101604052809291908181526020016000905b828210156114ba5760008481526020908190208301805460408051601f60026000196101006001871615020190941693909304928301859004850281018501909152818152928301828280156114a65780601f1061147b576101008083540402835291602001916114a6565b820191906000526020600020905b81548152906001019060200180831161148957829003601f168201915b50505050508152602001906001019061140f565b5050509082525060068201805460408051602060026001851615610100026000190190941693909304601f810184900484028201840190925281815293820193929183018282801561154d5780601f106115225761010080835404028352916020019161154d565b820191906000526020600020905b81548152906001019060200180831161153057829003601f168201915b5050505050815260200160078201805480602002602001604051908101604052809291908181526020016000905b82821015610ffc5760008481526020908190208301805460408051601f60026000196101006001871615020190941693909304928301859004850281018501909152818152928301828280156116125780601f106115e757610100808354040283529160200191611612565b820191906000526020600020905b8154815290600101906020018083116115f557829003601f168201915b50505050508152602001906001019061157b565b600090815260066020908152604080832033845290915290205460ff1690565b6060806003600481805480602002602001604051908101604052809291908181526020016000905b8282101561083157600084815260209081902060408051610200810182526009860290920180546001600160a01b0381168452600160a01b810461ffff90811685870152600160b01b8204811685850152600160c01b9182900416606085015260018083015467ffffffffffffffff8082166080880152600160401b8204811660a0880152600160801b82041660c08701529190910463ffffffff1660e08501526002808301805485516101009482161585026000190190911692909204601f81018890048802830188019095528482529495929491860193909283018282801561179a5780601f1061176f5761010080835404028352916020019161179a565b820191906000526020600020905b81548152906001019060200180831161177d57829003601f168201915b5050505050815260200160038201805480602002602001604051908101604052809291908181526020016000905b828210156118735760008481526020908190208301805460408051601f600260001961010060018716150201909416939093049283018590048502810185019091528181529283018282801561185f5780601f106118345761010080835404028352916020019161185f565b820191906000526020600020905b81548152906001019060200180831161184257829003601f168201915b5050505050815260200190600101906117c8565b50505050815260200160048201805480602002602001604051908101604052809291908181526020016000905b8282101561194b5760008481526020908190208301805460408051601f60026000196101006001871615020190941693909304928301859004850281018501909152818152928301828280156119375780601f1061190c57610100808354040283529160200191611937565b820191906000526020600020905b81548152906001019060200180831161191a57829003601f168201915b5050505050815260200190600101906118a0565b50505050815260200160058201805480602002602001604051908101604052809291908181526020016000905b82821015611a235760008481526020908190208301805460408051601f6002600019610100600187161502019094169390930492830185900485028101850190915281815292830182828015611a0f5780601f106119e457610100808354040283529160200191611a0f565b820191906000526020600020905b8154815290600101906020018083116119f257829003601f168201915b505050505081526020019060010190611978565b5050509082525060068201805460408051602060026001851615610100026000190190941693909304601f8101849004840282018401909252818152938201939291830182828015611ab65780601f10611a8b57610100808354040283529160200191611ab6565b820191906000526020600020905b815481529060010190602001808311611a9957829003601f168201915b5050505050815260200160078201805480602002602001604051908101604052809291908181526020016000905b82821015611b8f5760008481526020908190208301805460408051601f6002600019610100600187161502019094169390930492830185900485028101850190915281815292830182828015611b7b5780601f10611b5057610100808354040283529160200191611b7b565b820191906000526020600020905b815481529060010190602001808311611b5e57829003601f168201915b505050505081526020019060010190611ae4565b50505090825250600882015460ff80821615156020840152604090920191610100909104166004811115611bbf57fe5b6004811115611bca57fe5b815250508152602001906001019061166e565b60076020908152600091825260409182902080546001808301546002808501805488516101009582161595909502600019011691909104601f81018790048702840187019097528683526001600160a01b03841696600160a01b850461ffff90811697600160b01b8704821697600160c01b978890049092169667ffffffffffffffff80871697600160401b8804821697600160801b8104909216969290910463ffffffff169490928301828280156109f75780601f106109cc576101008083540402835291602001916109f7565b6008602052806000526040600020600091509050806000015490806001015490806002015490806003015490806004015490806005015490806006015490806007015490806008015490806009015490508a565b6005602052600090815260409020805460018083015460029093015463ffffffff909216929180820b91620100008204900b90640100000000900460ff1685565b604080516102008101825260008082526020820181905291810182905260608082018390526080820183905260a0820183905260c0820183905260e08201839052610100820181905261012082018190526101408201819052610160820181905261018082018190526101a08201526101c08101829052906101e082015290565b6040805161014081018252600080825260208201819052918101829052606081018290526080810182905260a0810182905260c0810182905260e08101829052610100810182905261012081019190915290565b8035611e2181612583565b92915050565b8035611e2181612597565b600060208284031215611e4457600080fd5b6000611e508484611e16565b949350505050565b600060208284031215611e6a57600080fd5b6000611e508484611e27565b600080600060608486031215611e8b57600080fd5b6000611e978686611e27565b9350506020611ea886828701611e16565b9250506040611eb986828701611e27565b9150509250925092565b6000611ecf8383612052565b9392505050565b6000611ee2838361208a565b50506101400190565b6000611ecf8383612151565b611f00816124e9565b82525050565b6000611f11826124dc565b611f1b81856124e0565b935083602082028501611f2d856124d6565b8060005b85811015611f675784840389528151611f4a8582611ec3565b9450611f55836124d6565b60209a909a0199925050600101611f31565b5091979650505050505050565b6000611f7f826124dc565b611f8981856124e0565b9350611f94836124d6565b8060005b83811015611fc2578151611fac8882611ed6565b9750611fb7836124d6565b925050600101611f98565b509495945050505050565b6000611fd8826124dc565b611fe281856124e0565b935083602082028501611ff4856124d6565b8060005b85811015611f6757848403895281516120118582611eeb565b945061201c836124d6565b60209a909a0199925050600101611ff8565b611f00816124f4565b611f00816124f9565b611f0081612535565b611f0081612506565b600061205d826124dc565b61206781856124e0565b9350612077818560208601612540565b6120808161256c565b9093019392505050565b805161014083019061209c8482612037565b5060208201516120af6020850182612037565b5060408201516120c26040850182612037565b5060608201516120d56060850182612037565b5060808201516120e86080850182612037565b5060a08201516120fb60a0850182612037565b5060c082015161210e60c0850182612037565b5060e082015161212160e0850182612037565b50610100820151612136610100850182612037565b5061012082015161214b610120850182612037565b50505050565b80516000906102008401906121668582611ef7565b50602083015161217960208601826122c5565b50604083015161218c60408601826122c5565b50606083015161219f60608601826122c5565b5060808301516121b260808601826122d7565b5060a08301516121c560a08601826122d7565b5060c08301516121d860c08601826122d7565b5060e08301516121eb60e08601826122ce565b506101008301518482036101008601526122058282612052565b9150506101208301518482036101208601526122218282611f06565b91505061014083015184820361014086015261223d8282611f06565b9150506101608301518482036101608601526122598282611f06565b9150506101808301518482036101808601526122758282612052565b9150506101a08301518482036101a08601526122918282611f06565b9150506101c08301516122a86101c086018261202e565b506101e08301516122bd6101e0860182612040565b509392505050565b611f008161250c565b611f008161251f565b611f0081612528565b61018081016122ef828f611ef7565b6122fc602083018e6122c5565b612309604083018d6122c5565b612316606083018c6122c5565b612323608083018b6122d7565b61233060a083018a6122d7565b61233d60c08301896122d7565b61234a60e08301886122ce565b81810361010083015261235d8187612052565b90508181036101208301526123728186612052565b905061238261014083018561202e565b612390610160830184612040565b9d9c50505050505050505050505050565b604080825281016123b28185611fcd565b90508181036020830152611e508184611f74565b60208101611e21828461202e565b61014081016123e3828d612037565b6123f0602083018c612037565b6123fd604083018b612037565b61240a606083018a612037565b6124176080830189612037565b61242460a0830188612037565b61243160c0830187612037565b61243e60e0830186612037565b61244c610100830185612037565b61245a610120830184612037565b9b9a5050505050505050505050565b610160808252810161247b8185612151565b9050611ecf602083018461208a565b60a0810161249882886122ce565b6124a56020830187612037565b6124b26040830186612049565b6124bf6060830185612049565b6124cc608083018461202e565b9695505050505050565b60200190565b5190565b90815260200190565b6000611e2182612513565b151590565b90565b8061029581612576565b60010b90565b61ffff1690565b6001600160a01b031690565b63ffffffff1690565b67ffffffffffffffff1690565b6000611e21826124fc565b60005b8381101561255b578181015183820152602001612543565b8381111561214b5750506000910152565b601f01601f191690565b6005811061258057fe5b50565b61258c816124e9565b811461258057600080fd5b61258c816124f956fea365627a7a723158209028ef7619bdc0f7a4dfeae3fa832bc49ed474ecda698b55ed63df931361a26f6c6578706572696d656e74616cf564736f6c63430005100040",
  "source": "pragma solidity 0.5.16;\r\npragma experimental ABIEncoderV2;\r\n\r\ncontract LabelChainHelper {\r\n\r\n  enum ProductStatus { NOT_EXIST, NEW, ACCEPTED, IN_MODIFICATION, REFUSED }\r\n\r\n  // Option : define roles depending on the user status\r\n // enum Role {CUSTOMER, SELLER, ADMIN}\r\n\r\n\r\n\r\n  // Basic Product definition containing values about the product itself\r\n  // but also about consensus\r\n  struct Product {\r\n    address productProposerAddress;\r\n    uint16 quantity;\r\n    uint16 forVotes;\r\n    uint16 againstVotes;\r\n    uint64 productCode;\r\n    uint64 created_t;\r\n    uint64 endDate;\r\n    uint32 productId;\r\n    string productName;\r\n    string[] labels;\r\n    // uint nutrimentsId;\r\n    string[] ingredients;\r\n    string[] additifs;\r\n    string typeOfProduct;\r\n    string[] packaging;\r\n   // uint totalVotes;\r\n    // uint endVoteDate;\r\n    //  bytes32 hash;\r\n  //  bool isValidated;\r\n    bool isExist;\r\n    ProductStatus status;\r\n  }\r\n\r\n  // Basic Nutriment structure needed for the Product structure\r\n  // A way to divide Product content\r\n  struct Nutriment {\r\n    bytes32 energy;\r\n    bytes32 energy_kcal;\r\n    bytes32 proteines;\r\n    bytes32 carbohydrates;\r\n    bytes32 salt;\r\n    bytes32 sugars;\r\n    bytes32 fat;\r\n    bytes32 saturated_fat;\r\n    bytes32 fiber;\r\n    bytes32 sodium;\r\n  }\r\n\r\n  // Basic User structure with useful parameters.\r\n  // In particular, token date, token number and reputation\r\n  // needed for the consensus\r\n  struct User {\r\n    uint32 userId;\r\n    uint lastTimeTokenGiven;\r\n    int16 tokenNumber;\r\n    int16 reputation;\r\n    bool isExist;\r\n  //  Role role;\r\n  }\r\n\r\n\r\n  // Integer needed for the implicit user registration\r\n  // for the first time he proposed a product\r\n  uint32 uniqueIdUser;\r\n\r\n  uint32 uniqueProductId;\r\n\r\n  address internal endVoteResponsible;\r\n\r\n  // Getter of all products in proposal phase\r\n  Product[] ProposalProducts;\r\n\r\n  // Getter of all nutriments products in proposal phase\r\n  Nutriment[] ProposalNutriments;\r\n\r\n  // Getter of all products accepted\r\n  Product[] Products;\r\n\r\n  // Getter of all nutriments products accepted\r\n  Nutriment[] Nutriments;\r\n\r\n  // Getter of all products denied\r\n // Product[] DeniedProducts;\r\n\r\n  // Getter of all nutriments products denied\r\n // Nutriment[] DeniedNutriments;\r\n\r\n  // uint[] ProposalProductsCode;\r\n\r\n  // Accessing to a User structure by his address\r\n  mapping(address => User) public addressToUser;\r\n\r\n  mapping(uint => mapping(address => bool[2])) public alreadyVoted;\r\n\r\n  // Accessing to a Product in proposal phase by his code\r\n  mapping(uint => Product) public productCodeToProposalProduct;\r\n\r\n  mapping(uint => Nutriment) public productCodeToProposalNutriments;\r\n\r\n  // Accessing to a Product adopted by his code\r\n  mapping(uint => Product) public productCodeToProduct;\r\n\r\n  // Accessing to Nutriments of a Product adopted by his code\r\n  mapping(uint => Nutriment) public productCodeToNutriments;\r\n\r\n  //mapping(address => Product[]) addressToProducts;\r\n  mapping(address => mapping(uint => Product)) addressToProducts;\r\n\r\n  mapping(address => mapping(uint => Nutriment)) addressToNutriments;\r\n\r\n\r\n  // Simple event when a product is added to the product proposal phase\r\n  event TriggerAddProduct(uint indexed idProduct);\r\n\r\n  modifier UserExists() {\r\n    require(addressToUser[msg.sender].isExist == true);\r\n    _;\r\n  }\r\n\r\n  modifier NotAlreadyInProposal(uint _productCode) {\r\n    require(!productCodeToProposalProduct[_productCode].isExist);\r\n    _;\r\n  }\r\n\r\n  modifier ProductInVoteStage(uint _productCode) {\r\n    require(productCodeToProposalProduct[_productCode].status == ProductStatus.NEW || productCodeToProduct[_productCode].status == ProductStatus.IN_MODIFICATION );\r\n    _;\r\n  }\r\n\r\n  modifier hasNotVoted(uint _productCode) {\r\n    require(alreadyVoted[_productCode][msg.sender][0] == false);\r\n    _;\r\n  }\r\n\r\n  modifier hasEnoughToken() {\r\n    require(addressToUser[msg.sender].tokenNumber > 0);\r\n    _;\r\n  }\r\n\r\n  modifier isInDateRange(uint _productCode) {\r\n    require(productCodeToProposalProduct[_productCode].created_t < productCodeToProposalProduct[_productCode].endDate);\r\n    _;\r\n  }\r\n\r\n  modifier isVotingDateExceeded(uint _productCode) {\r\n    require(now >= productCodeToProposalProduct[_productCode].endDate);\r\n    _;\r\n  }\r\n\r\n  modifier isEndVoteResponsibleAddress(){\r\n    require(msg.sender == endVoteResponsible);\r\n    _;\r\n  }\r\n  modifier checkLengthGS1 (uint productCode){\r\n    require(productCode > 1111111111111);\r\n    _;\r\n  }\r\n\r\n\r\n\r\n//  function getProductsByUsers() public view returns (Product[] memory, Nutriment[] memory) {\r\n//    return (addressToProducts[msg.sender], addressToNutriments[msg.sender]);\r\n//  }\r\n\r\n  function getProductsVoting() public view returns (Product[] memory, Nutriment[] memory){\r\n    return (ProposalProducts, ProposalNutriments);\r\n  }\r\n\r\n  function getProductsAccepted() public view returns (Product[] memory, Nutriment[] memory){\r\n    return (Products, Nutriments);\r\n  }\r\n\r\n  function getProposedProduct(uint _productCode) public view returns (Product memory, Nutriment memory){\r\n    return (productCodeToProposalProduct[_productCode], productCodeToProposalNutriments[_productCode]);\r\n  }\r\n\r\n  function getProduct(uint _productCode) public view returns (Product memory, Nutriment memory){\r\n    return (productCodeToProduct[_productCode], productCodeToNutriments[_productCode]);\r\n  }\r\n\r\n\r\n  function isAlreadyVotedByCurrentUser(uint _productCode) public view returns (bool){\r\n    return alreadyVoted[_productCode][msg.sender][0];\r\n  }\r\n\r\n  function isProposer(uint _productCode) public view returns (bool){\r\n    return productCodeToProposalProduct[_productCode].productProposerAddress == msg.sender;\r\n  }\r\n\r\n  function isDateOK(uint _productCode) public view returns (bool) {\r\n    // now ne varie pas, impossible de savoir si on a dpass la date de fin du vote\r\n    return now < productCodeToProposalProduct[_productCode].endDate;\r\n  }\r\n\r\n  function deleteProductFromProposal(uint _productCode, address proposerAddress) internal {\r\n    delete productCodeToProposalProduct[_productCode];\r\n    delete productCodeToProposalNutriments[_productCode];\r\n    delete ProposalProducts[addressToProducts[proposerAddress][_productCode].productId];\r\n    delete ProposalNutriments[addressToProducts[proposerAddress][_productCode].productId];\r\n  }\r\n\r\n  function refusedProduct(uint _productCode, address proposerAddress) internal {\r\n    productCodeToProposalProduct[_productCode].status = ProductStatus.REFUSED;\r\n    addressToProducts[proposerAddress][_productCode].status = ProductStatus.REFUSED;\r\n   // DeniedProducts.push(productCodeToProduct[_productCode]);\r\n  //  DeniedNutriments.push(productCodeToProposalNutriments[_productCode]);\r\n  }\r\n\r\n  function acceptedProduct(uint _productCode, address proposerAddress) internal {\r\n\r\n    if(productCodeToProposalProduct[_productCode].status == ProductStatus.IN_MODIFICATION){\r\n      delete Products[productCodeToProduct[_productCode].productId];\r\n      delete Nutriments[productCodeToProduct[_productCode].productId];\r\n    }\r\n    // productCodeToProposalProduct[_productCode].isValidated = true;\r\n    productCodeToProposalProduct[_productCode].status = ProductStatus.ACCEPTED;\r\n    // addressToProducts[proposerAddress][_productCode].isValidated = true;\r\n    addressToProducts[proposerAddress][_productCode].status = ProductStatus.ACCEPTED;\r\n\r\n    productCodeToProduct[_productCode] = productCodeToProposalProduct[_productCode];\r\n    productCodeToNutriments[_productCode] = productCodeToProposalNutriments[_productCode];\r\n    Products.push(productCodeToProposalProduct[_productCode]);\r\n    Nutriments.push(productCodeToProposalNutriments[_productCode]);\r\n  }\r\n}\r\n",
  "sourcePath": "C:\\Users\\Fabrice\\Desktop\\Project_EatHealthyLabelChain\\EatHealthyLabelChain\\contracts\\LabelChainHelper.sol",
  "compiler": {
    "name": "solc",
    "version": "0.5.16+commit.9c3226ce.Emscripten.clang"
  },
  "schemaVersion": "3.2.0",
  "updatedAt": "2020-07-22T18:11:38.080Z",
  "devdoc": {
    "methods": {}
  },
  "userdoc": {
    "methods": {}
  }
}